{
  "_format": "hh-sol-artifact-1",
  "contractName": "StandardERC20",
  "sourceName": "contracts/tokens/StandardERC20.sol",
  "abi": [
    {
      "anonymous": false,
      "inputs": [
        {
          "indexed": true,
          "internalType": "address",
          "name": "owner",
          "type": "address"
        },
        {
          "indexed": true,
          "internalType": "address",
          "name": "spender",
          "type": "address"
        },
        {
          "indexed": false,
          "internalType": "uint256",
          "name": "value",
          "type": "uint256"
        }
      ],
      "name": "Approval",
      "type": "event"
    },
    {
      "anonymous": false,
      "inputs": [
        {
          "indexed": false,
          "internalType": "address",
          "name": "account",
          "type": "address"
        }
      ],
      "name": "Paused",
      "type": "event"
    },
    {
      "anonymous": false,
      "inputs": [
        {
          "indexed": true,
          "internalType": "bytes32",
          "name": "role",
          "type": "bytes32"
        },
        {
          "indexed": true,
          "internalType": "bytes32",
          "name": "previousAdminRole",
          "type": "bytes32"
        },
        {
          "indexed": true,
          "internalType": "bytes32",
          "name": "newAdminRole",
          "type": "bytes32"
        }
      ],
      "name": "RoleAdminChanged",
      "type": "event"
    },
    {
      "anonymous": false,
      "inputs": [
        {
          "indexed": true,
          "internalType": "bytes32",
          "name": "role",
          "type": "bytes32"
        },
        {
          "indexed": true,
          "internalType": "address",
          "name": "account",
          "type": "address"
        },
        {
          "indexed": true,
          "internalType": "address",
          "name": "sender",
          "type": "address"
        }
      ],
      "name": "RoleGranted",
      "type": "event"
    },
    {
      "anonymous": false,
      "inputs": [
        {
          "indexed": true,
          "internalType": "bytes32",
          "name": "role",
          "type": "bytes32"
        },
        {
          "indexed": true,
          "internalType": "address",
          "name": "account",
          "type": "address"
        },
        {
          "indexed": true,
          "internalType": "address",
          "name": "sender",
          "type": "address"
        }
      ],
      "name": "RoleRevoked",
      "type": "event"
    },
    {
      "anonymous": false,
      "inputs": [
        {
          "indexed": true,
          "internalType": "address",
          "name": "from",
          "type": "address"
        },
        {
          "indexed": true,
          "internalType": "address",
          "name": "to",
          "type": "address"
        },
        {
          "indexed": false,
          "internalType": "uint256",
          "name": "value",
          "type": "uint256"
        }
      ],
      "name": "Transfer",
      "type": "event"
    },
    {
      "anonymous": false,
      "inputs": [
        {
          "indexed": false,
          "internalType": "address",
          "name": "account",
          "type": "address"
        }
      ],
      "name": "Unpaused",
      "type": "event"
    },
    {
      "inputs": [],
      "name": "DEFAULT_ADMIN_ROLE",
      "outputs": [
        {
          "internalType": "bytes32",
          "name": "",
          "type": "bytes32"
        }
      ],
      "stateMutability": "view",
      "type": "function"
    },
    {
      "inputs": [],
      "name": "MINTER_ROLE",
      "outputs": [
        {
          "internalType": "bytes32",
          "name": "",
          "type": "bytes32"
        }
      ],
      "stateMutability": "view",
      "type": "function"
    },
    {
      "inputs": [],
      "name": "PAUSER_ROLE",
      "outputs": [
        {
          "internalType": "bytes32",
          "name": "",
          "type": "bytes32"
        }
      ],
      "stateMutability": "view",
      "type": "function"
    },
    {
      "inputs": [
        {
          "internalType": "address",
          "name": "owner",
          "type": "address"
        },
        {
          "internalType": "address",
          "name": "spender",
          "type": "address"
        }
      ],
      "name": "allowance",
      "outputs": [
        {
          "internalType": "uint256",
          "name": "",
          "type": "uint256"
        }
      ],
      "stateMutability": "view",
      "type": "function"
    },
    {
      "inputs": [
        {
          "internalType": "address",
          "name": "spender",
          "type": "address"
        },
        {
          "internalType": "uint256",
          "name": "amount",
          "type": "uint256"
        }
      ],
      "name": "approve",
      "outputs": [
        {
          "internalType": "bool",
          "name": "",
          "type": "bool"
        }
      ],
      "stateMutability": "nonpayable",
      "type": "function"
    },
    {
      "inputs": [
        {
          "internalType": "address",
          "name": "account",
          "type": "address"
        }
      ],
      "name": "balanceOf",
      "outputs": [
        {
          "internalType": "uint256",
          "name": "",
          "type": "uint256"
        }
      ],
      "stateMutability": "view",
      "type": "function"
    },
    {
      "inputs": [
        {
          "internalType": "address",
          "name": "account",
          "type": "address"
        },
        {
          "internalType": "uint256",
          "name": "amount",
          "type": "uint256"
        }
      ],
      "name": "burn",
      "outputs": [],
      "stateMutability": "nonpayable",
      "type": "function"
    },
    {
      "inputs": [],
      "name": "decimals",
      "outputs": [
        {
          "internalType": "uint8",
          "name": "",
          "type": "uint8"
        }
      ],
      "stateMutability": "view",
      "type": "function"
    },
    {
      "inputs": [
        {
          "internalType": "address",
          "name": "spender",
          "type": "address"
        },
        {
          "internalType": "uint256",
          "name": "subtractedValue",
          "type": "uint256"
        }
      ],
      "name": "decreaseAllowance",
      "outputs": [
        {
          "internalType": "bool",
          "name": "",
          "type": "bool"
        }
      ],
      "stateMutability": "nonpayable",
      "type": "function"
    },
    {
      "inputs": [],
      "name": "generated",
      "outputs": [
        {
          "internalType": "bool",
          "name": "",
          "type": "bool"
        }
      ],
      "stateMutability": "view",
      "type": "function"
    },
    {
      "inputs": [
        {
          "internalType": "bytes32",
          "name": "role",
          "type": "bytes32"
        }
      ],
      "name": "getRoleAdmin",
      "outputs": [
        {
          "internalType": "bytes32",
          "name": "",
          "type": "bytes32"
        }
      ],
      "stateMutability": "view",
      "type": "function"
    },
    {
      "inputs": [
        {
          "internalType": "bytes32",
          "name": "role",
          "type": "bytes32"
        },
        {
          "internalType": "address",
          "name": "account",
          "type": "address"
        }
      ],
      "name": "grantRole",
      "outputs": [],
      "stateMutability": "nonpayable",
      "type": "function"
    },
    {
      "inputs": [
        {
          "internalType": "bytes32",
          "name": "role",
          "type": "bytes32"
        },
        {
          "internalType": "address",
          "name": "account",
          "type": "address"
        }
      ],
      "name": "hasRole",
      "outputs": [
        {
          "internalType": "bool",
          "name": "",
          "type": "bool"
        }
      ],
      "stateMutability": "view",
      "type": "function"
    },
    {
      "inputs": [
        {
          "internalType": "address",
          "name": "spender",
          "type": "address"
        },
        {
          "internalType": "uint256",
          "name": "addedValue",
          "type": "uint256"
        }
      ],
      "name": "increaseAllowance",
      "outputs": [
        {
          "internalType": "bool",
          "name": "",
          "type": "bool"
        }
      ],
      "stateMutability": "nonpayable",
      "type": "function"
    },
    {
      "inputs": [
        {
          "internalType": "address",
          "name": "owner_",
          "type": "address"
        },
        {
          "internalType": "string",
          "name": "name_",
          "type": "string"
        },
        {
          "internalType": "string",
          "name": "symbol_",
          "type": "string"
        },
        {
          "internalType": "uint8",
          "name": "decimals_",
          "type": "uint8"
        },
        {
          "internalType": "uint256",
          "name": "totalSupply_",
          "type": "uint256"
        }
      ],
      "name": "initialize",
      "outputs": [],
      "stateMutability": "nonpayable",
      "type": "function"
    },
    {
      "inputs": [
        {
          "internalType": "address",
          "name": "to",
          "type": "address"
        },
        {
          "internalType": "uint256",
          "name": "amount",
          "type": "uint256"
        }
      ],
      "name": "mint",
      "outputs": [],
      "stateMutability": "nonpayable",
      "type": "function"
    },
    {
      "inputs": [],
      "name": "name",
      "outputs": [
        {
          "internalType": "string",
          "name": "",
          "type": "string"
        }
      ],
      "stateMutability": "view",
      "type": "function"
    },
    {
      "inputs": [],
      "name": "pause",
      "outputs": [],
      "stateMutability": "nonpayable",
      "type": "function"
    },
    {
      "inputs": [],
      "name": "paused",
      "outputs": [
        {
          "internalType": "bool",
          "name": "",
          "type": "bool"
        }
      ],
      "stateMutability": "view",
      "type": "function"
    },
    {
      "inputs": [
        {
          "internalType": "bytes32",
          "name": "role",
          "type": "bytes32"
        },
        {
          "internalType": "address",
          "name": "account",
          "type": "address"
        }
      ],
      "name": "renounceRole",
      "outputs": [],
      "stateMutability": "nonpayable",
      "type": "function"
    },
    {
      "inputs": [
        {
          "internalType": "bytes32",
          "name": "role",
          "type": "bytes32"
        },
        {
          "internalType": "address",
          "name": "account",
          "type": "address"
        }
      ],
      "name": "revokeRole",
      "outputs": [],
      "stateMutability": "nonpayable",
      "type": "function"
    },
    {
      "inputs": [
        {
          "internalType": "bytes4",
          "name": "interfaceId",
          "type": "bytes4"
        }
      ],
      "name": "supportsInterface",
      "outputs": [
        {
          "internalType": "bool",
          "name": "",
          "type": "bool"
        }
      ],
      "stateMutability": "view",
      "type": "function"
    },
    {
      "inputs": [],
      "name": "symbol",
      "outputs": [
        {
          "internalType": "string",
          "name": "",
          "type": "string"
        }
      ],
      "stateMutability": "view",
      "type": "function"
    },
    {
      "inputs": [],
      "name": "totalSupply",
      "outputs": [
        {
          "internalType": "uint256",
          "name": "",
          "type": "uint256"
        }
      ],
      "stateMutability": "view",
      "type": "function"
    },
    {
      "inputs": [
        {
          "internalType": "address",
          "name": "recipient",
          "type": "address"
        },
        {
          "internalType": "uint256",
          "name": "amount",
          "type": "uint256"
        }
      ],
      "name": "transfer",
      "outputs": [
        {
          "internalType": "bool",
          "name": "",
          "type": "bool"
        }
      ],
      "stateMutability": "nonpayable",
      "type": "function"
    },
    {
      "inputs": [
        {
          "internalType": "address",
          "name": "sender",
          "type": "address"
        },
        {
          "internalType": "address",
          "name": "recipient",
          "type": "address"
        },
        {
          "internalType": "uint256",
          "name": "amount",
          "type": "uint256"
        }
      ],
      "name": "transferFrom",
      "outputs": [
        {
          "internalType": "bool",
          "name": "",
          "type": "bool"
        }
      ],
      "stateMutability": "nonpayable",
      "type": "function"
    },
    {
      "inputs": [],
      "name": "unpause",
      "outputs": [],
      "stateMutability": "nonpayable",
      "type": "function"
    }
  ],
  "bytecode": "0x60806040526007805461ff00191661010017905534801561001f57600080fd5b506001805460ff191690556118fd806100396000396000f3fe608060405234801561001057600080fd5b50600436106101a95760003560e01c80635cd8ef6a116100f9578063a457c2d711610097578063d547741f11610071578063d547741f14610370578063d72bdc5314610383578063dd62ed3e14610396578063e63ab1e9146103cf57600080fd5b8063a457c2d714610335578063a9059cbb14610348578063d53913931461035b57600080fd5b806391d14854116100d357806391d14854146102ff57806395d89b41146103125780639dc29fac1461031a578063a217fddf1461032d57600080fd5b80635cd8ef6a146102bc57806370a08231146102ce5780638456cb59146102f757600080fd5b80632f2ff15d11610166578063395093511161014057806339509351146102835780633f4ba83a1461029657806340c10f191461029e5780635c975abb146102b157600080fd5b80632f2ff15d14610246578063313ce5671461025b57806336568abe1461027057600080fd5b806301ffc9a7146101ae57806306fdde03146101d6578063095ea7b3146101eb57806318160ddd146101fe57806323b872dd14610210578063248a9ca314610223575b600080fd5b6101c16101bc3660046113b6565b6103e4565b60405190151581526020015b60405180910390f35b6101de61041b565b6040516101cd9190611410565b6101c16101f936600461145f565b6104ad565b6004545b6040519081526020016101cd565b6101c161021e366004611489565b6104f5565b6102026102313660046114c5565b60009081526020819052604090206001015490565b6102596102543660046114de565b610587565b005b60075460405160ff90911681526020016101cd565b61025961027e3660046114de565b6105b2565b6101c161029136600461145f565b610630565b610259610690565b6102596102ac36600461145f565b6106b4565b60015460ff166101c1565b6007546101c190610100900460ff1681565b6102026102dc36600461150a565b6001600160a01b031660009081526002602052604090205490565b6102596106d7565b6101c161030d3660046114de565b6106f8565b6101de610721565b61025961032836600461145f565b610730565b610202600081565b6101c161034336600461145f565b610746565b6101c161035636600461145f565b6107be565b61020260008051602061188383398151915281565b61025961037e3660046114de565b6107f4565b6102596103913660046115c8565b61081a565b6102026103a436600461165d565b6001600160a01b03918216600090815260036020908152604080832093909416825291909152205490565b61020260008051602061186383398151915281565b60006001600160e01b03198216637965db0b60e01b148061041557506301ffc9a760e01b6001600160e01b03198316145b92915050565b60606005805461042a90611687565b80601f016020809104026020016040519081016040528092919081815260200182805461045690611687565b80156104a35780601f10610478576101008083540402835291602001916104a3565b820191906000526020600020905b81548152906001019060200180831161048657829003601f168201915b5050505050905090565b60006104bb60015460ff1690565b156104e15760405162461bcd60e51b81526004016104d8906116c2565b60405180910390fd5b6104ec338484610999565b50600192915050565b600061050360015460ff1690565b156105205760405162461bcd60e51b81526004016104d8906116c2565b61052b848484610ae1565b61057d84336105788560405180606001604052806028815260200161183b602891396001600160a01b038a1660009081526003602090815260408083203384529091529020549190610c95565b610999565b5060019392505050565b6000828152602081905260409020600101546105a38133610cc1565b6105ad8383610d25565b505050565b6001600160a01b03811633146106225760405162461bcd60e51b815260206004820152602f60248201527f416363657373436f6e74726f6c3a2063616e206f6e6c792072656e6f756e636560448201526e103937b632b9903337b91039b2b63360891b60648201526084016104d8565b61062c8282610da9565b5050565b600061063e60015460ff1690565b1561065b5760405162461bcd60e51b81526004016104d8906116c2565b3360008181526003602090815260408083206001600160a01b03881684529091529020546104ec919085906105789086610e0e565b6000805160206118638339815191526106a98133610cc1565b6106b1610e21565b50565b6000805160206118838339815191526106cd8133610cc1565b6105ad8383610eb4565b6000805160206118638339815191526106f08133610cc1565b6106b1610fc9565b6000918252602082815260408084206001600160a01b0393909316845291905290205460ff1690565b60606006805461042a90611687565b600061073c8133610cc1565b6105ad838361101f565b600061075460015460ff1690565b156107715760405162461bcd60e51b81526004016104d8906116c2565b6104ec3384610578856040518060600160405280602581526020016118a3602591393360009081526003602090815260408083206001600160a01b038d1684529091529020549190610c95565b60006107cc60015460ff1690565b156107e95760405162461bcd60e51b81526004016104d8906116c2565b6104ec338484610ae1565b6000828152602081905260409020600101546108108133610cc1565b6105ad8383610da9565b60015462010000900460ff1661083b57600154610100900460ff161561083f565b303b155b6108a25760405162461bcd60e51b815260206004820152602e60248201527f496e697469616c697a61626c653a20636f6e747261637420697320616c72656160448201526d191e481a5b9a5d1a585b1a5e995960921b60648201526084016104d8565b60015462010000900460ff161580156108c7576001805462ffff001916620101001790555b84516108da90600590602088019061131d565b5083516108ee90600690602087019061131d565b506007805460ff191660ff85161790556109088683610eb4565b610913600033610d25565b61092b60008051602061186383398151915233610d25565b61094360008051602061188383398151915233610d25565b61094e600087610d25565b61096660008051602061186383398151915287610d25565b61097e60008051602061188383398151915287610d25565b8015610991576001805462ff0000191690555b505050505050565b60015460ff16156109bc5760405162461bcd60e51b81526004016104d8906116c2565b6001600160a01b038316610a1e5760405162461bcd60e51b8152602060048201526024808201527f45524332303a20617070726f76652066726f6d20746865207a65726f206164646044820152637265737360e01b60648201526084016104d8565b6001600160a01b038216610a7f5760405162461bcd60e51b815260206004820152602260248201527f45524332303a20617070726f766520746f20746865207a65726f206164647265604482015261737360f01b60648201526084016104d8565b6001600160a01b0383811660008181526003602090815260408083209487168084529482529182902085905590518481527f8c5be1e5ebec7d5bd14f71427d1e84f3dd0314c0f7b2291e5b200ac8c7c3b92591015b60405180910390a3505050565b60015460ff1615610b045760405162461bcd60e51b81526004016104d8906116c2565b6001600160a01b038316610b685760405162461bcd60e51b815260206004820152602560248201527f45524332303a207472616e736665722066726f6d20746865207a65726f206164604482015264647265737360d81b60648201526084016104d8565b6001600160a01b038216610bca5760405162461bcd60e51b815260206004820152602360248201527f45524332303a207472616e7366657220746f20746865207a65726f206164647260448201526265737360e81b60648201526084016104d8565b610bd5838383611152565b610c1281604051806060016040528060268152602001611815602691396001600160a01b0386166000908152600260205260409020549190610c95565b6001600160a01b038085166000908152600260205260408082209390935590841681522054610c419082610e0e565b6001600160a01b0380841660008181526002602052604090819020939093559151908516907fddf252ad1be2c89b69c2b068fc378daa952ba7f163c4a11628f55a4df523b3ef90610ad49085815260200190565b60008184841115610cb95760405162461bcd60e51b81526004016104d89190611410565b505050900390565b610ccb82826106f8565b61062c57610ce3816001600160a01b03166014611175565b610cee836020611175565b604051602001610cff9291906116ec565b60408051601f198184030181529082905262461bcd60e51b82526104d891600401611410565b610d2f82826106f8565b61062c576000828152602081815260408083206001600160a01b03851684529091529020805460ff19166001179055610d653390565b6001600160a01b0316816001600160a01b0316837f2f8788117e7eff1d82e926ec794901d17c78024a50270940304540a733656f0d60405160405180910390a45050565b610db382826106f8565b1561062c576000828152602081815260408083206001600160a01b0385168085529252808320805460ff1916905551339285917ff6391f5c32d9c69d2a47ea670b442974b53935d1edc7fd64eb21e047a839171b9190a45050565b6000610e1a8284611777565b9392505050565b60015460ff16610e6a5760405162461bcd60e51b815260206004820152601460248201527314185d5cd8589b194e881b9bdd081c185d5cd95960621b60448201526064016104d8565b6001805460ff191690557f5db9ee0a495bf2e6ff9c91a7834c1ba4fdd244a5e8aa4e537bd38aeae4b073aa335b6040516001600160a01b03909116815260200160405180910390a1565b60015460ff1615610ed75760405162461bcd60e51b81526004016104d8906116c2565b6001600160a01b038216610f2d5760405162461bcd60e51b815260206004820152601f60248201527f45524332303a206d696e7420746f20746865207a65726f20616464726573730060448201526064016104d8565b610f3960008383611152565b600454610f469082610e0e565b6004556001600160a01b038216600090815260026020526040902054610f6c9082610e0e565b6001600160a01b0383166000818152600260205260408082209390935591519091907fddf252ad1be2c89b69c2b068fc378daa952ba7f163c4a11628f55a4df523b3ef90610fbd9085815260200190565b60405180910390a35050565b60015460ff1615610fec5760405162461bcd60e51b81526004016104d8906116c2565b6001805460ff1916811790557f62e78cea01bee320cd4e420270b5ea74000d11b0c9f74754ebdbfc544b05a25833610e97565b60015460ff16156110425760405162461bcd60e51b81526004016104d8906116c2565b6001600160a01b0382166110a25760405162461bcd60e51b815260206004820152602160248201527f45524332303a206275726e2066726f6d20746865207a65726f206164647265736044820152607360f81b60648201526084016104d8565b6110ae82600083611152565b6110eb816040518060600160405280602281526020016117f3602291396001600160a01b0385166000908152600260205260409020549190610c95565b6001600160a01b0383166000908152600260205260409020556004546111119082611311565b6004556040518181526000906001600160a01b038416907fddf252ad1be2c89b69c2b068fc378daa952ba7f163c4a11628f55a4df523b3ef90602001610fbd565b60015460ff16156105ad5760405162461bcd60e51b81526004016104d8906116c2565b6060600061118483600261178f565b61118f906002611777565b67ffffffffffffffff8111156111a7576111a7611525565b6040519080825280601f01601f1916602001820160405280156111d1576020820181803683370190505b509050600360fc1b816000815181106111ec576111ec6117ae565b60200101906001600160f81b031916908160001a905350600f60fb1b8160018151811061121b5761121b6117ae565b60200101906001600160f81b031916908160001a905350600061123f84600261178f565b61124a906001611777565b90505b60018111156112c2576f181899199a1a9b1b9c1cb0b131b232b360811b85600f166010811061127e5761127e6117ae565b1a60f81b828281518110611294576112946117ae565b60200101906001600160f81b031916908160001a90535060049490941c936112bb816117c4565b905061124d565b508315610e1a5760405162461bcd60e51b815260206004820181905260248201527f537472696e67733a20686578206c656e67746820696e73756666696369656e7460448201526064016104d8565b6000610e1a82846117db565b82805461132990611687565b90600052602060002090601f01602090048101928261134b5760008555611391565b82601f1061136457805160ff1916838001178555611391565b82800160010185558215611391579182015b82811115611391578251825591602001919060010190611376565b5061139d9291506113a1565b5090565b5b8082111561139d57600081556001016113a2565b6000602082840312156113c857600080fd5b81356001600160e01b031981168114610e1a57600080fd5b60005b838110156113fb5781810151838201526020016113e3565b8381111561140a576000848401525b50505050565b602081526000825180602084015261142f8160408501602087016113e0565b601f01601f19169190910160400192915050565b80356001600160a01b038116811461145a57600080fd5b919050565b6000806040838503121561147257600080fd5b61147b83611443565b946020939093013593505050565b60008060006060848603121561149e57600080fd5b6114a784611443565b92506114b560208501611443565b9150604084013590509250925092565b6000602082840312156114d757600080fd5b5035919050565b600080604083850312156114f157600080fd5b8235915061150160208401611443565b90509250929050565b60006020828403121561151c57600080fd5b610e1a82611443565b634e487b7160e01b600052604160045260246000fd5b600082601f83011261154c57600080fd5b813567ffffffffffffffff8082111561156757611567611525565b604051601f8301601f19908116603f0116810190828211818310171561158f5761158f611525565b816040528381528660208588010111156115a857600080fd5b836020870160208301376000602085830101528094505050505092915050565b600080600080600060a086880312156115e057600080fd5b6115e986611443565b9450602086013567ffffffffffffffff8082111561160657600080fd5b61161289838a0161153b565b9550604088013591508082111561162857600080fd5b506116358882890161153b565b935050606086013560ff8116811461164c57600080fd5b949793965091946080013592915050565b6000806040838503121561167057600080fd5b61167983611443565b915061150160208401611443565b600181811c9082168061169b57607f821691505b602082108114156116bc57634e487b7160e01b600052602260045260246000fd5b50919050565b60208082526010908201526f14185d5cd8589b194e881c185d5cd95960821b604082015260600190565b7f416363657373436f6e74726f6c3a206163636f756e74200000000000000000008152600083516117248160178501602088016113e0565b7001034b99036b4b9b9b4b733903937b6329607d1b60179184019182015283516117558160288401602088016113e0565b01602801949350505050565b634e487b7160e01b600052601160045260246000fd5b6000821982111561178a5761178a611761565b500190565b60008160001904831182151516156117a9576117a9611761565b500290565b634e487b7160e01b600052603260045260246000fd5b6000816117d3576117d3611761565b506000190190565b6000828210156117ed576117ed611761565b50039056fe45524332303a206275726e20616d6f756e7420657863656564732062616c616e636545524332303a207472616e7366657220616d6f756e7420657863656564732062616c616e636545524332303a207472616e7366657220616d6f756e74206578636565647320616c6c6f77616e636565d7a28e3265b37a6474929f336521b332c1681b933f6cb9f3376673440d862a9f2df0fed2c77648de5860a4cc508cd0818c85b8b8a1ab4ceeef8d981c8956a645524332303a2064656372656173656420616c6c6f77616e63652062656c6f77207a65726fa2646970667358221220457623246a9e6f947f6bfc9a2c074c29621f9fe2be34a47d5b710bee4536f32c64736f6c634300080a0033",
  "linkReferences": {},
  "deployedLinkReferences": {}
}