{
  "_format": "hh-sol-artifact-1",
  "contractName": "LiquidityGeneratorToken",
  "sourceName": "contracts/tokens/LiquidityGeneratorToken.sol",
  "abi": [
    {
      "anonymous": false,
      "inputs": [
        {
          "indexed": true,
          "internalType": "address",
          "name": "owner",
          "type": "address"
        },
        {
          "indexed": true,
          "internalType": "address",
          "name": "spender",
          "type": "address"
        },
        {
          "indexed": false,
          "internalType": "uint256",
          "name": "value",
          "type": "uint256"
        }
      ],
      "name": "Approval",
      "type": "event"
    },
    {
      "anonymous": false,
      "inputs": [
        {
          "indexed": false,
          "internalType": "uint256",
          "name": "minTokensBeforeSwap",
          "type": "uint256"
        }
      ],
      "name": "MinTokensBeforeSwapUpdated",
      "type": "event"
    },
    {
      "anonymous": false,
      "inputs": [
        {
          "indexed": true,
          "internalType": "address",
          "name": "previousOwner",
          "type": "address"
        },
        {
          "indexed": true,
          "internalType": "address",
          "name": "newOwner",
          "type": "address"
        }
      ],
      "name": "OwnershipTransferred",
      "type": "event"
    },
    {
      "anonymous": false,
      "inputs": [
        {
          "indexed": false,
          "internalType": "uint256",
          "name": "tokensSwapped",
          "type": "uint256"
        },
        {
          "indexed": false,
          "internalType": "uint256",
          "name": "ethReceived",
          "type": "uint256"
        },
        {
          "indexed": false,
          "internalType": "uint256",
          "name": "tokensIntoLiqudity",
          "type": "uint256"
        }
      ],
      "name": "SwapAndLiquify",
      "type": "event"
    },
    {
      "anonymous": false,
      "inputs": [
        {
          "indexed": false,
          "internalType": "bool",
          "name": "enabled",
          "type": "bool"
        }
      ],
      "name": "SwapAndLiquifyEnabledUpdated",
      "type": "event"
    },
    {
      "anonymous": false,
      "inputs": [
        {
          "indexed": true,
          "internalType": "address",
          "name": "from",
          "type": "address"
        },
        {
          "indexed": true,
          "internalType": "address",
          "name": "to",
          "type": "address"
        },
        {
          "indexed": false,
          "internalType": "uint256",
          "name": "value",
          "type": "uint256"
        }
      ],
      "name": "Transfer",
      "type": "event"
    },
    {
      "inputs": [],
      "name": "_charityAddress",
      "outputs": [
        {
          "internalType": "address",
          "name": "",
          "type": "address"
        }
      ],
      "stateMutability": "view",
      "type": "function"
    },
    {
      "inputs": [],
      "name": "_charityFee",
      "outputs": [
        {
          "internalType": "uint256",
          "name": "",
          "type": "uint256"
        }
      ],
      "stateMutability": "view",
      "type": "function"
    },
    {
      "inputs": [],
      "name": "_liquidityFee",
      "outputs": [
        {
          "internalType": "uint256",
          "name": "",
          "type": "uint256"
        }
      ],
      "stateMutability": "view",
      "type": "function"
    },
    {
      "inputs": [],
      "name": "_maxTxAmount",
      "outputs": [
        {
          "internalType": "uint256",
          "name": "",
          "type": "uint256"
        }
      ],
      "stateMutability": "view",
      "type": "function"
    },
    {
      "inputs": [],
      "name": "_taxFee",
      "outputs": [
        {
          "internalType": "uint256",
          "name": "",
          "type": "uint256"
        }
      ],
      "stateMutability": "view",
      "type": "function"
    },
    {
      "inputs": [
        {
          "internalType": "address",
          "name": "owner",
          "type": "address"
        },
        {
          "internalType": "address",
          "name": "spender",
          "type": "address"
        }
      ],
      "name": "allowance",
      "outputs": [
        {
          "internalType": "uint256",
          "name": "",
          "type": "uint256"
        }
      ],
      "stateMutability": "view",
      "type": "function"
    },
    {
      "inputs": [
        {
          "internalType": "address",
          "name": "spender",
          "type": "address"
        },
        {
          "internalType": "uint256",
          "name": "amount",
          "type": "uint256"
        }
      ],
      "name": "approve",
      "outputs": [
        {
          "internalType": "bool",
          "name": "",
          "type": "bool"
        }
      ],
      "stateMutability": "nonpayable",
      "type": "function"
    },
    {
      "inputs": [
        {
          "internalType": "address",
          "name": "account",
          "type": "address"
        }
      ],
      "name": "balanceOf",
      "outputs": [
        {
          "internalType": "uint256",
          "name": "",
          "type": "uint256"
        }
      ],
      "stateMutability": "view",
      "type": "function"
    },
    {
      "inputs": [],
      "name": "decimals",
      "outputs": [
        {
          "internalType": "uint8",
          "name": "",
          "type": "uint8"
        }
      ],
      "stateMutability": "view",
      "type": "function"
    },
    {
      "inputs": [
        {
          "internalType": "address",
          "name": "spender",
          "type": "address"
        },
        {
          "internalType": "uint256",
          "name": "subtractedValue",
          "type": "uint256"
        }
      ],
      "name": "decreaseAllowance",
      "outputs": [
        {
          "internalType": "bool",
          "name": "",
          "type": "bool"
        }
      ],
      "stateMutability": "nonpayable",
      "type": "function"
    },
    {
      "inputs": [
        {
          "internalType": "uint256",
          "name": "tAmount",
          "type": "uint256"
        }
      ],
      "name": "deliver",
      "outputs": [],
      "stateMutability": "nonpayable",
      "type": "function"
    },
    {
      "inputs": [
        {
          "internalType": "address",
          "name": "account",
          "type": "address"
        }
      ],
      "name": "excludeFromFee",
      "outputs": [],
      "stateMutability": "nonpayable",
      "type": "function"
    },
    {
      "inputs": [
        {
          "internalType": "address",
          "name": "account",
          "type": "address"
        }
      ],
      "name": "excludeFromReward",
      "outputs": [],
      "stateMutability": "nonpayable",
      "type": "function"
    },
    {
      "inputs": [
        {
          "internalType": "address",
          "name": "account",
          "type": "address"
        }
      ],
      "name": "includeInFee",
      "outputs": [],
      "stateMutability": "nonpayable",
      "type": "function"
    },
    {
      "inputs": [
        {
          "internalType": "address",
          "name": "account",
          "type": "address"
        }
      ],
      "name": "includeInReward",
      "outputs": [],
      "stateMutability": "nonpayable",
      "type": "function"
    },
    {
      "inputs": [
        {
          "internalType": "address",
          "name": "spender",
          "type": "address"
        },
        {
          "internalType": "uint256",
          "name": "addedValue",
          "type": "uint256"
        }
      ],
      "name": "increaseAllowance",
      "outputs": [
        {
          "internalType": "bool",
          "name": "",
          "type": "bool"
        }
      ],
      "stateMutability": "nonpayable",
      "type": "function"
    },
    {
      "inputs": [
        {
          "internalType": "address",
          "name": "owner_",
          "type": "address"
        },
        {
          "internalType": "string",
          "name": "name_",
          "type": "string"
        },
        {
          "internalType": "string",
          "name": "symbol_",
          "type": "string"
        },
        {
          "internalType": "uint256",
          "name": "totalSupply_",
          "type": "uint256"
        },
        {
          "internalType": "address",
          "name": "router_",
          "type": "address"
        },
        {
          "internalType": "address",
          "name": "charityAddress_",
          "type": "address"
        },
        {
          "internalType": "uint16",
          "name": "taxFeeBps_",
          "type": "uint16"
        },
        {
          "internalType": "uint16",
          "name": "liquidityFeeBps_",
          "type": "uint16"
        },
        {
          "internalType": "uint16",
          "name": "charityFeeBps_",
          "type": "uint16"
        },
        {
          "internalType": "uint16",
          "name": "maxTxBps_",
          "type": "uint16"
        }
      ],
      "name": "initialize",
      "outputs": [],
      "stateMutability": "nonpayable",
      "type": "function"
    },
    {
      "inputs": [
        {
          "internalType": "address",
          "name": "account",
          "type": "address"
        }
      ],
      "name": "isExcludedFromFee",
      "outputs": [
        {
          "internalType": "bool",
          "name": "",
          "type": "bool"
        }
      ],
      "stateMutability": "view",
      "type": "function"
    },
    {
      "inputs": [
        {
          "internalType": "address",
          "name": "account",
          "type": "address"
        }
      ],
      "name": "isExcludedFromMaxTx",
      "outputs": [
        {
          "internalType": "bool",
          "name": "",
          "type": "bool"
        }
      ],
      "stateMutability": "view",
      "type": "function"
    },
    {
      "inputs": [
        {
          "internalType": "address",
          "name": "account",
          "type": "address"
        }
      ],
      "name": "isExcludedFromReward",
      "outputs": [
        {
          "internalType": "bool",
          "name": "",
          "type": "bool"
        }
      ],
      "stateMutability": "view",
      "type": "function"
    },
    {
      "inputs": [],
      "name": "name",
      "outputs": [
        {
          "internalType": "string",
          "name": "",
          "type": "string"
        }
      ],
      "stateMutability": "view",
      "type": "function"
    },
    {
      "inputs": [],
      "name": "owner",
      "outputs": [
        {
          "internalType": "address",
          "name": "",
          "type": "address"
        }
      ],
      "stateMutability": "view",
      "type": "function"
    },
    {
      "inputs": [
        {
          "internalType": "uint256",
          "name": "tAmount",
          "type": "uint256"
        },
        {
          "internalType": "bool",
          "name": "deductTransferFee",
          "type": "bool"
        }
      ],
      "name": "reflectionFromToken",
      "outputs": [
        {
          "internalType": "uint256",
          "name": "",
          "type": "uint256"
        }
      ],
      "stateMutability": "view",
      "type": "function"
    },
    {
      "inputs": [],
      "name": "renounceOwnership",
      "outputs": [],
      "stateMutability": "nonpayable",
      "type": "function"
    },
    {
      "inputs": [
        {
          "internalType": "address",
          "name": "account",
          "type": "address"
        },
        {
          "internalType": "bool",
          "name": "exclude",
          "type": "bool"
        }
      ],
      "name": "setExcludeFromMaxTx",
      "outputs": [],
      "stateMutability": "nonpayable",
      "type": "function"
    },
    {
      "inputs": [
        {
          "internalType": "uint256",
          "name": "liquidityFeeBps",
          "type": "uint256"
        }
      ],
      "name": "setLiquidityFeePercent",
      "outputs": [],
      "stateMutability": "nonpayable",
      "type": "function"
    },
    {
      "inputs": [
        {
          "internalType": "uint256",
          "name": "maxTxBps",
          "type": "uint256"
        }
      ],
      "name": "setMaxTxPercent",
      "outputs": [],
      "stateMutability": "nonpayable",
      "type": "function"
    },
    {
      "inputs": [
        {
          "internalType": "bool",
          "name": "_enabled",
          "type": "bool"
        }
      ],
      "name": "setSwapAndLiquifyEnabled",
      "outputs": [],
      "stateMutability": "nonpayable",
      "type": "function"
    },
    {
      "inputs": [
        {
          "internalType": "uint256",
          "name": "taxFeeBps",
          "type": "uint256"
        }
      ],
      "name": "setTaxFeePercent",
      "outputs": [],
      "stateMutability": "nonpayable",
      "type": "function"
    },
    {
      "inputs": [],
      "name": "swapAndLiquifyEnabled",
      "outputs": [
        {
          "internalType": "bool",
          "name": "",
          "type": "bool"
        }
      ],
      "stateMutability": "view",
      "type": "function"
    },
    {
      "inputs": [],
      "name": "symbol",
      "outputs": [
        {
          "internalType": "string",
          "name": "",
          "type": "string"
        }
      ],
      "stateMutability": "view",
      "type": "function"
    },
    {
      "inputs": [
        {
          "internalType": "uint256",
          "name": "rAmount",
          "type": "uint256"
        }
      ],
      "name": "tokenFromReflection",
      "outputs": [
        {
          "internalType": "uint256",
          "name": "",
          "type": "uint256"
        }
      ],
      "stateMutability": "view",
      "type": "function"
    },
    {
      "inputs": [],
      "name": "totalFees",
      "outputs": [
        {
          "internalType": "uint256",
          "name": "",
          "type": "uint256"
        }
      ],
      "stateMutability": "view",
      "type": "function"
    },
    {
      "inputs": [],
      "name": "totalSupply",
      "outputs": [
        {
          "internalType": "uint256",
          "name": "",
          "type": "uint256"
        }
      ],
      "stateMutability": "view",
      "type": "function"
    },
    {
      "inputs": [
        {
          "internalType": "address",
          "name": "recipient",
          "type": "address"
        },
        {
          "internalType": "uint256",
          "name": "amount",
          "type": "uint256"
        }
      ],
      "name": "transfer",
      "outputs": [
        {
          "internalType": "bool",
          "name": "",
          "type": "bool"
        }
      ],
      "stateMutability": "nonpayable",
      "type": "function"
    },
    {
      "inputs": [
        {
          "internalType": "address",
          "name": "sender",
          "type": "address"
        },
        {
          "internalType": "address",
          "name": "recipient",
          "type": "address"
        },
        {
          "internalType": "uint256",
          "name": "amount",
          "type": "uint256"
        }
      ],
      "name": "transferFrom",
      "outputs": [
        {
          "internalType": "bool",
          "name": "",
          "type": "bool"
        }
      ],
      "stateMutability": "nonpayable",
      "type": "function"
    },
    {
      "inputs": [
        {
          "internalType": "address",
          "name": "newOwner",
          "type": "address"
        }
      ],
      "name": "transferOwnership",
      "outputs": [],
      "stateMutability": "nonpayable",
      "type": "function"
    },
    {
      "inputs": [],
      "name": "uniswapV2Pair",
      "outputs": [
        {
          "internalType": "address",
          "name": "",
          "type": "address"
        }
      ],
      "stateMutability": "view",
      "type": "function"
    },
    {
      "inputs": [],
      "name": "uniswapV2Router",
      "outputs": [
        {
          "internalType": "contract IUniswapV2Router02",
          "name": "",
          "type": "address"
        }
      ],
      "stateMutability": "view",
      "type": "function"
    },
    {
      "stateMutability": "payable",
      "type": "receive"
    }
  ],
  "bytecode": "0x6080604052600e54600f556010546011556012546013556016805460ff60a81b1916600160a81b17905534801561003557600080fd5b5061003f33610044565b610094565b600080546001600160a01b038381166001600160a01b0319831681178455604051919092169283917f8be0079c531659141344cd1fd0a4f28419497f9722a3daafe3b4186f6b6457e09190a35050565b61307d80620000a46000396000f3fe6080604052600436106102345760003560e01c806352390c021161012e5780638ee88c53116100ab578063c49b9a801161006f578063c49b9a80146106b7578063d543dbeb146106d7578063dd62ed3e146106f7578063ea2f0b371461073d578063f2fde38b1461075d57600080fd5b80638ee88c531461062257806395d89b4114610642578063a457c2d714610657578063a9059cbb14610677578063b00544f61461069757600080fd5b806370a08231116100f257806370a0823114610580578063715018a6146105a05780637d1db4a5146105b557806388f82020146105cb5780638da5cb5b1461060457600080fd5b806352390c02146104b85780635342acb4146104d85780635b89029c14610511578063658c27a9146105315780636bc87c3a1461056a57600080fd5b8063313ce567116101bc57806340f8007a1161018057806340f8007a14610421578063437823ec146104375780634549b0391461045757806349bd5a5e146104775780634a74bb021461049757600080fd5b8063313ce567146103895780633685d419146103ab57806339509351146103cb5780633b124fe7146103eb5780633bd5d1731461040157600080fd5b80631694505e116102035780631694505e146102dc57806318160ddd1461031457806319a8ac9e1461032957806323b872dd146103495780632d8381191461036957600080fd5b8063061c82d01461024057806306fdde0314610262578063095ea7b31461028d57806313114a9d146102bd57600080fd5b3661023b57005b600080fd5b34801561024c57600080fd5b5061026061025b366004612a28565b61077d565b005b34801561026e57600080fd5b506102776107d7565b6040516102849190612a41565b60405180910390f35b34801561029957600080fd5b506102ad6102a8366004612abb565b610869565b6040519015158152602001610284565b3480156102c957600080fd5b50600a545b604051908152602001610284565b3480156102e857600080fd5b506014546102fc906001600160a01b031681565b6040516001600160a01b039091168152602001610284565b34801561032057600080fd5b506008546102ce565b34801561033557600080fd5b506016546102fc906001600160a01b031681565b34801561035557600080fd5b506102ad610364366004612ae7565b610880565b34801561037557600080fd5b506102ce610384366004612a28565b6108e9565b34801561039557600080fd5b50600d5460405160ff9091168152602001610284565b3480156103b757600080fd5b506102606103c6366004612b28565b61096d565b3480156103d757600080fd5b506102ad6103e6366004612abb565b610b24565b3480156103f757600080fd5b506102ce600e5481565b34801561040d57600080fd5b5061026061041c366004612a28565b610b5a565b34801561042d57600080fd5b506102ce60125481565b34801561044357600080fd5b50610260610452366004612b28565b610c46565b34801561046357600080fd5b506102ce610472366004612b55565b610c94565b34801561048357600080fd5b506015546102fc906001600160a01b031681565b3480156104a357600080fd5b506016546102ad90600160a81b900460ff1681565b3480156104c457600080fd5b506102606104d3366004612b28565b610d23565b3480156104e457600080fd5b506102ad6104f3366004612b28565b6001600160a01b031660009081526004602052604090205460ff1690565b34801561051d57600080fd5b5061026061052c366004612b81565b610e76565b34801561053d57600080fd5b506102ad61054c366004612b28565b6001600160a01b031660009081526005602052604090205460ff1690565b34801561057657600080fd5b506102ce60105481565b34801561058c57600080fd5b506102ce61059b366004612b28565b610ecb565b3480156105ac57600080fd5b50610260610f2a565b3480156105c157600080fd5b506102ce60175481565b3480156105d757600080fd5b506102ad6105e6366004612b28565b6001600160a01b031660009081526006602052604090205460ff1690565b34801561061057600080fd5b506000546001600160a01b03166102fc565b34801561062e57600080fd5b5061026061063d366004612a28565b610f60565b34801561064e57600080fd5b50610277610fb1565b34801561066357600080fd5b506102ad610672366004612abb565b610fc0565b34801561068357600080fd5b506102ad610692366004612abb565b61100f565b3480156106a357600080fd5b506102606106b2366004612c62565b61101c565b3480156106c357600080fd5b506102606106d2366004612d46565b6116b1565b3480156106e357600080fd5b506102606106f2366004612a28565b611733565b34801561070357600080fd5b506102ce610712366004612d61565b6001600160a01b03918216600090815260036020908152604080832093909416825291909152205490565b34801561074957600080fd5b50610260610758366004612b28565b6117a0565b34801561076957600080fd5b50610260610778366004612b28565b6117eb565b6000546001600160a01b031633146107b05760405162461bcd60e51b81526004016107a790612d9a565b60405180910390fd5b6127108111156107d25760405162461bcd60e51b81526004016107a790612dcf565b600e55565b6060600b80546107e690612df4565b80601f016020809104026020016040519081016040528092919081815260200182805461081290612df4565b801561085f5780601f106108345761010080835404028352916020019161085f565b820191906000526020600020905b81548152906001019060200180831161084257829003601f168201915b5050505050905090565b6000610876338484611886565b5060015b92915050565b600061088d8484846119ab565b6108df84336108da85604051806060016040528060288152602001612ffb602891396001600160a01b038a1660009081526003602090815260408083203384529091529020549190611c89565b611886565b5060019392505050565b60006009548211156109505760405162461bcd60e51b815260206004820152602a60248201527f416d6f756e74206d757374206265206c657373207468616e20746f74616c207260448201526965666c656374696f6e7360b01b60648201526084016107a7565b600061095a611cb5565b90506109668382611cd8565b9392505050565b6000546001600160a01b031633146109975760405162461bcd60e51b81526004016107a790612d9a565b6001600160a01b03811660009081526006602052604090205460ff166109ff5760405162461bcd60e51b815260206004820152601b60248201527f4163636f756e7420697320616c7265616479206578636c75646564000000000060448201526064016107a7565b60005b600754811015610b2057816001600160a01b031660078281548110610a2957610a29612e2f565b6000918252602090912001546001600160a01b03161415610b0e5760078054610a5490600190612e5b565b81548110610a6457610a64612e2f565b600091825260209091200154600780546001600160a01b039092169183908110610a9057610a90612e2f565b600091825260208083209190910180546001600160a01b0319166001600160a01b039485161790559184168152600282526040808220829055600690925220805460ff191690556007805480610ae857610ae8612e72565b600082815260209020810160001990810180546001600160a01b03191690550190555050565b80610b1881612e88565b915050610a02565b5050565b3360008181526003602090815260408083206001600160a01b038716845290915281205490916108769185906108da9086611ce4565b3360008181526006602052604090205460ff1615610bcf5760405162461bcd60e51b815260206004820152602c60248201527f4578636c75646564206164647265737365732063616e6e6f742063616c6c207460448201526b3434b990333ab731ba34b7b760a11b60648201526084016107a7565b6000610bda83611cf0565b5050506001600160a01b038616600090815260016020526040902054939450610c0893925084915050611d4b565b6001600160a01b038316600090815260016020526040902055600954610c2e9082611d4b565b600955600a54610c3e9084611ce4565b600a55505050565b6000546001600160a01b03163314610c705760405162461bcd60e51b81526004016107a790612d9a565b6001600160a01b03166000908152600460205260409020805460ff19166001179055565b6000600854831115610ce85760405162461bcd60e51b815260206004820152601f60248201527f416d6f756e74206d757374206265206c657373207468616e20737570706c790060448201526064016107a7565b81610d08576000610cf884611cf0565b5094965061087a95505050505050565b6000610d1384611cf0565b5093965061087a95505050505050565b6000546001600160a01b03163314610d4d5760405162461bcd60e51b81526004016107a790612d9a565b6001600160a01b03811660009081526006602052604090205460ff1615610db65760405162461bcd60e51b815260206004820152601b60248201527f4163636f756e7420697320616c7265616479206578636c75646564000000000060448201526064016107a7565b6001600160a01b03811660009081526001602052604090205415610e10576001600160a01b038116600090815260016020526040902054610df6906108e9565b6001600160a01b0382166000908152600260205260409020555b6001600160a01b03166000818152600660205260408120805460ff191660019081179091556007805491820181559091527fa66cc928b5edb82af9bd49922954155ab7b0942694bea4ce44661d9a8736c6880180546001600160a01b0319169091179055565b6000546001600160a01b03163314610ea05760405162461bcd60e51b81526004016107a790612d9a565b6001600160a01b03919091166000908152600560205260409020805460ff1916911515919091179055565b6001600160a01b03811660009081526006602052604081205460ff1615610f0857506001600160a01b031660009081526002602052604090205490565b6001600160a01b03821660009081526001602052604090205461087a906108e9565b6000546001600160a01b03163314610f545760405162461bcd60e51b81526004016107a790612d9a565b610f5e6000611d57565b565b6000546001600160a01b03163314610f8a5760405162461bcd60e51b81526004016107a790612d9a565b612710811115610fac5760405162461bcd60e51b81526004016107a790612dcf565b601055565b6060600c80546107e690612df4565b600061087633846108da85604051806060016040528060258152602001613023602591393360009081526003602090815260408083206001600160a01b038d1684529091529020549190611c89565b60006108763384846119ab565b600054600160a81b900460ff1661104057600054600160a01b900460ff1615611044565b303b155b6110a75760405162461bcd60e51b815260206004820152602e60248201527f496e697469616c697a61626c653a20636f6e747261637420697320616c72656160448201526d191e481a5b9a5d1a585b1a5e995960921b60648201526084016107a7565b600054600160a81b900460ff161580156110d1576000805461ffff60a01b191661010160a01b1790555b6127108561ffff1611156111195760405162461bcd60e51b815260206004820152600f60248201526e496e76616c6964207461782066656560881b60448201526064016107a7565b6127108461ffff1611156111675760405162461bcd60e51b8152602060048201526015602482015274496e76616c6964206c69717569646974792066656560581b60448201526064016107a7565b6127108361ffff1611156111b35760405162461bcd60e51b8152602060048201526013602482015272496e76616c696420636861726974792066656560681b60448201526064016107a7565b60008261ffff161180156111cd57506127108261ffff1611155b6112115760405162461bcd60e51b8152602060048201526015602482015274125b9d985b1a59081b585e081d1e08185b5bdd5b9d605a1b60448201526064016107a7565b6001600160a01b0386166112aa5761ffff8316156112aa5760405162461bcd60e51b815260206004820152604a60248201527f43616e742073657420626f74682063686172697479206164647265737320746f60448201527f2061646472657373203020616e6420636861726974792070657263656e74206d60648201526906f7265207468616e20360b41b608482015260a4016107a7565b612710836112b88688612ea3565b6112c29190612ea3565b61ffff1611156113265760405162461bcd60e51b815260206004820152602960248201527f546f74616c20666565206973206f7665722031303025206f66207472616e7366604482015268195c88185b5bdd5b9d60ba1b60648201526084016107a7565b61132f8b6117eb565b895161134290600b9060208d019061298f565b50885161135690600c9060208c019061298f565b50600d805460ff19166009179055600888905561137588600019612edf565b61138190600019612e5b565b60095561ffff858116600e819055600f558481166010819055601155601680546001600160a01b0319166001600160a01b03891617905583811660128190556013556113de90612710906113d8908b908616611da7565b90611cd8565b6017556113f26127106113d88a6005611da7565b6018556009546001600061140e6000546001600160a01b031690565b6001600160a01b03166001600160a01b03168152602001908152602001600020819055506000879050806001600160a01b031663c45a01556040518163ffffffff1660e01b8152600401602060405180830381865afa158015611475573d6000803e3d6000fd5b505050506040513d601f19601f820116820180604052508101906114999190612ef3565b6001600160a01b031663c9c6539630836001600160a01b031663ad5c46486040518163ffffffff1660e01b8152600401602060405180830381865afa1580156114e6573d6000803e3d6000fd5b505050506040513d601f19601f8201168201806040525081019061150a9190612ef3565b6040516001600160e01b031960e085901b1681526001600160a01b039283166004820152911660248201526044016020604051808303816000875af1158015611557573d6000803e3d6000fd5b505050506040513d601f19601f8201168201806040525081019061157b9190612ef3565b601580546001600160a01b03199081166001600160a01b0393841617909155601480549091168383161790556000805482168152600460209081526040808320805460ff1990811660019081179092553085528285208054821683179055600590935290832080548316821790557f7d509c07f0d4edcc2dd1b53aae68677132eb562dcba78e36381b63ccaf66e6ba80548316821790558280527f05b8ccbb9d4d8fb16ea74ce3c29a41f1b461fbdaff4714a0d9a8eb05499746bc805490921617905554166001600160a01b031660006001600160a01b03167fddf252ad1be2c89b69c2b068fc378daa952ba7f163c4a11628f55a4df523b3ef60085460405161168791815260200190565b60405180910390a35080156116a4576000805460ff60a81b191690555b5050505050505050505050565b6000546001600160a01b031633146116db5760405162461bcd60e51b81526004016107a790612d9a565b60168054821515600160a81b0260ff60a81b199091161790556040517f53726dfcaf90650aa7eb35524f4d3220f07413c8d6cb404cc8c18bf5591bc1599061172890831515815260200190565b60405180910390a150565b6000546001600160a01b0316331461175d5760405162461bcd60e51b81526004016107a790612d9a565b61271081111561177f5760405162461bcd60e51b81526004016107a790612dcf565b61179a6127106113d883600854611da790919063ffffffff16565b60175550565b6000546001600160a01b031633146117ca5760405162461bcd60e51b81526004016107a790612d9a565b6001600160a01b03166000908152600460205260409020805460ff19169055565b6000546001600160a01b031633146118155760405162461bcd60e51b81526004016107a790612d9a565b6001600160a01b03811661187a5760405162461bcd60e51b815260206004820152602660248201527f4f776e61626c653a206e6577206f776e657220697320746865207a65726f206160448201526564647265737360d01b60648201526084016107a7565b61188381611d57565b50565b6001600160a01b0383166118e85760405162461bcd60e51b8152602060048201526024808201527f45524332303a20617070726f76652066726f6d20746865207a65726f206164646044820152637265737360e01b60648201526084016107a7565b6001600160a01b0382166119495760405162461bcd60e51b815260206004820152602260248201527f45524332303a20617070726f766520746f20746865207a65726f206164647265604482015261737360f01b60648201526084016107a7565b6001600160a01b0383811660008181526003602090815260408083209487168084529482529182902085905590518481527f8c5be1e5ebec7d5bd14f71427d1e84f3dd0314c0f7b2291e5b200ac8c7c3b92591015b60405180910390a3505050565b6001600160a01b038316611a0f5760405162461bcd60e51b815260206004820152602560248201527f45524332303a207472616e736665722066726f6d20746865207a65726f206164604482015264647265737360d81b60648201526084016107a7565b6001600160a01b038216611a715760405162461bcd60e51b815260206004820152602360248201527f45524332303a207472616e7366657220746f20746865207a65726f206164647260448201526265737360e81b60648201526084016107a7565b60008111611ad35760405162461bcd60e51b815260206004820152602960248201527f5472616e7366657220616d6f756e74206d7573742062652067726561746572206044820152687468616e207a65726f60b81b60648201526084016107a7565b6000546001600160a01b03848116911614801590611aff57506000546001600160a01b03838116911614155b80611b4757506001600160a01b03831660009081526005602052604090205460ff16158015611b4757506001600160a01b03821660009081526005602052604090205460ff16155b15611baf57601754811115611baf5760405162461bcd60e51b815260206004820152602860248201527f5472616e7366657220616d6f756e74206578636565647320746865206d6178546044820152673c20b6b7bab73a1760c11b60648201526084016107a7565b6000611bba30610ecb565b90506017548110611bca57506017545b60185481108015908190611be85750601654600160a01b900460ff16155b8015611c0257506015546001600160a01b03868116911614155b8015611c175750601654600160a81b900460ff165b15611c2a576018549150611c2a82611db3565b6001600160a01b03851660009081526004602052604090205460019060ff1680611c6c57506001600160a01b03851660009081526004602052604090205460ff165b15611c75575060005b611c8186868684611e5a565b505050505050565b60008184841115611cad5760405162461bcd60e51b81526004016107a79190612a41565b505050900390565b6000806000611cc2611fdd565b9092509050611cd18282611cd8565b9250505090565b60006109668284612f10565b60006109668284612f24565b6000806000806000806000806000806000611d0a8c61215f565b93509350935093506000806000611d2b8f878787611d26611cb5565b6121b4565b919f509d509b509599509397509195509350505050919395979092949650565b60006109668284612e5b565b600080546001600160a01b038381166001600160a01b0319831681178455604051919092169283917f8be0079c531659141344cd1fd0a4f28419497f9722a3daafe3b4186f6b6457e09190a35050565b60006109668284612f3c565b6016805460ff60a01b1916600160a01b1790556000611dd3826002611cd8565b90506000611de18383611d4b565b905047611ded83612216565b6000611df94783611d4b565b9050611e058382612368565b60408051858152602081018390529081018490527f17bbfb9a6069321b6ded73bd96327c9e6b7212a5cd51ff219cd61370acafb5619060600160405180910390a150506016805460ff60a01b19169055505050565b80611e6757611e6761243d565b6001600160a01b03841660009081526006602052604090205460ff168015611ea857506001600160a01b03831660009081526006602052604090205460ff16155b15611ebd57611eb8848484612482565b611fbb565b6001600160a01b03841660009081526006602052604090205460ff16158015611efe57506001600160a01b03831660009081526006602052604090205460ff165b15611f0e57611eb88484846125c8565b6001600160a01b03841660009081526006602052604090205460ff16158015611f5057506001600160a01b03831660009081526006602052604090205460ff16155b15611f6057611eb8848484612687565b6001600160a01b03841660009081526006602052604090205460ff168015611fa057506001600160a01b03831660009081526006602052604090205460ff165b15611fb057611eb88484846126e1565b611fbb848484612687565b80611fd757611fd7600f54600e55601154601055601354601255565b50505050565b6009546008546000918291825b60075481101561212f5782600160006007848154811061200c5761200c612e2f565b60009182526020808320909101546001600160a01b031683528201929092526040019020541180612077575081600260006007848154811061205057612050612e2f565b60009182526020808320909101546001600160a01b03168352820192909252604001902054115b1561208d57600954600854945094505050509091565b6120d360016000600784815481106120a7576120a7612e2f565b60009182526020808320909101546001600160a01b031683528201929092526040019020548490611d4b565b925061211b60026000600784815481106120ef576120ef612e2f565b60009182526020808320909101546001600160a01b031683528201929092526040019020548390611d4b565b91508061212781612e88565b915050611fea565b5060085460095461213f91611cd8565b821015612156576009546008549350935050509091565b90939092509050565b60008060008060006121708661276a565b9050600061217d87612787565b9050600061218a886127a4565b905060006121a48261219e85818d89611d4b565b90611d4b565b9993985091965094509092505050565b60008080806121c38986611da7565b905060006121d18987611da7565b905060006121df8988611da7565b905060006121ed8989611da7565b905060006122018261219e85818989611d4b565b949d949c50929a509298505050505050505050565b604080516002808252606082018352600092602083019080368337019050509050308160008151811061224b5761224b612e2f565b6001600160a01b03928316602091820292909201810191909152601454604080516315ab88c960e31b81529051919093169263ad5c46489260048083019391928290030181865afa1580156122a4573d6000803e3d6000fd5b505050506040513d601f19601f820116820180604052508101906122c89190612ef3565b816001815181106122db576122db612e2f565b6001600160a01b0392831660209182029290920101526014546123019130911684611886565b60145460405163791ac94760e01b81526001600160a01b039091169063791ac9479061233a908590600090869030904290600401612f5b565b600060405180830381600087803b15801561235457600080fd5b505af1158015611c81573d6000803e3d6000fd5b6014546123809030906001600160a01b031684611886565b6014546001600160a01b031663f305d7198230856000806123a96000546001600160a01b031690565b60405160e088901b6001600160e01b03191681526001600160a01b03958616600482015260248101949094526044840192909252606483015290911660848201524260a482015260c40160606040518083038185885af1158015612411573d6000803e3d6000fd5b50505050506040513d601f19601f820116820180604052508101906124369190612fcc565b5050505050565b600e5415801561244d5750601054155b80156124595750601254155b1561246057565b600e8054600f5560108054601155601280546013556000928390559082905555565b600080600080600080600061249688611cf0565b96509650965096509650965096506124dc88600260008d6001600160a01b03166001600160a01b0316815260200190815260200160002054611d4b90919063ffffffff16565b6001600160a01b038b1660009081526002602090815260408083209390935560019052205461250b9088611d4b565b6001600160a01b03808c1660009081526001602052604080822093909355908b168152205461253a9087611ce4565b6001600160a01b038a1660009081526001602052604090205561255c826127da565b61256581612863565b61256f858461296b565b886001600160a01b03168a6001600160a01b03167fddf252ad1be2c89b69c2b068fc378daa952ba7f163c4a11628f55a4df523b3ef866040516125b491815260200190565b60405180910390a350505050505050505050565b60008060008060008060006125dc88611cf0565b965096509650965096509650965061262287600160008d6001600160a01b03166001600160a01b0316815260200190815260200160002054611d4b90919063ffffffff16565b6001600160a01b03808c16600090815260016020908152604080832094909455918c168152600290915220546126589085611ce4565b6001600160a01b038a1660009081526002602090815260408083209390935560019052205461253a9087611ce4565b600080600080600080600061269b88611cf0565b965096509650965096509650965061250b87600160008d6001600160a01b03166001600160a01b0316815260200190815260200160002054611d4b90919063ffffffff16565b60008060008060008060006126f588611cf0565b965096509650965096509650965061273b88600260008d6001600160a01b03166001600160a01b0316815260200190815260200160002054611d4b90919063ffffffff16565b6001600160a01b038b166000908152600260209081526040808320939093556001905220546126229088611d4b565b600061087a6127106113d8600e5485611da790919063ffffffff16565b600061087a6127106113d860105485611da790919063ffffffff16565b6016546000906001600160a01b03166127bf57506000919050565b61087a6127106113d860125485611da790919063ffffffff16565b60006127e4611cb5565b905060006127f28383611da7565b3060009081526001602052604090205490915061280f9082611ce4565b3060009081526001602090815260408083209390935560069052205460ff161561285e573060009081526002602052604090205461284d9084611ce4565b306000908152600260205260409020555b505050565b8015611883576000612873611cb5565b905060006128818383611da7565b6016546001600160a01b03166000908152600160205260409020549091506128a99082611ce4565b601680546001600160a01b03908116600090815260016020908152604080832095909555925490911681526006909152205460ff1615612924576016546001600160a01b03166000908152600260205260409020546129089084611ce4565b6016546001600160a01b03166000908152600260205260409020555b6016546001600160a01b0316336001600160a01b03167fddf252ad1be2c89b69c2b068fc378daa952ba7f163c4a11628f55a4df523b3ef8560405161199e91815260200190565b6009546129789083611d4b565b600955600a546129889082611ce4565b600a555050565b82805461299b90612df4565b90600052602060002090601f0160209004810192826129bd5760008555612a03565b82601f106129d657805160ff1916838001178555612a03565b82800160010185558215612a03579182015b82811115612a035782518255916020019190600101906129e8565b50612a0f929150612a13565b5090565b5b80821115612a0f5760008155600101612a14565b600060208284031215612a3a57600080fd5b5035919050565b600060208083528351808285015260005b81811015612a6e57858101830151858201604001528201612a52565b81811115612a80576000604083870101525b50601f01601f1916929092016040019392505050565b6001600160a01b038116811461188357600080fd5b8035612ab681612a96565b919050565b60008060408385031215612ace57600080fd5b8235612ad981612a96565b946020939093013593505050565b600080600060608486031215612afc57600080fd5b8335612b0781612a96565b92506020840135612b1781612a96565b929592945050506040919091013590565b600060208284031215612b3a57600080fd5b813561096681612a96565b80358015158114612ab657600080fd5b60008060408385031215612b6857600080fd5b82359150612b7860208401612b45565b90509250929050565b60008060408385031215612b9457600080fd5b8235612b9f81612a96565b9150612b7860208401612b45565b634e487b7160e01b600052604160045260246000fd5b600082601f830112612bd457600080fd5b813567ffffffffffffffff80821115612bef57612bef612bad565b604051601f8301601f19908116603f01168101908282118183101715612c1757612c17612bad565b81604052838152866020858801011115612c3057600080fd5b836020870160208301376000602085830101528094505050505092915050565b803561ffff81168114612ab657600080fd5b6000806000806000806000806000806101408b8d031215612c8257600080fd5b612c8b8b612aab565b995060208b013567ffffffffffffffff80821115612ca857600080fd5b612cb48e838f01612bc3565b9a5060408d0135915080821115612cca57600080fd5b50612cd78d828e01612bc3565b98505060608b01359650612ced60808c01612aab565b9550612cfb60a08c01612aab565b9450612d0960c08c01612c50565b9350612d1760e08c01612c50565b9250612d266101008c01612c50565b9150612d356101208c01612c50565b90509295989b9194979a5092959850565b600060208284031215612d5857600080fd5b61096682612b45565b60008060408385031215612d7457600080fd5b8235612d7f81612a96565b91506020830135612d8f81612a96565b809150509250929050565b6020808252818101527f4f776e61626c653a2063616c6c6572206973206e6f7420746865206f776e6572604082015260600190565b6020808252600b908201526a496e76616c69642062707360a81b604082015260600190565b600181811c90821680612e0857607f821691505b60208210811415612e2957634e487b7160e01b600052602260045260246000fd5b50919050565b634e487b7160e01b600052603260045260246000fd5b634e487b7160e01b600052601160045260246000fd5b600082821015612e6d57612e6d612e45565b500390565b634e487b7160e01b600052603160045260246000fd5b6000600019821415612e9c57612e9c612e45565b5060010190565b600061ffff808316818516808303821115612ec057612ec0612e45565b01949350505050565b634e487b7160e01b600052601260045260246000fd5b600082612eee57612eee612ec9565b500690565b600060208284031215612f0557600080fd5b815161096681612a96565b600082612f1f57612f1f612ec9565b500490565b60008219821115612f3757612f37612e45565b500190565b6000816000190483118215151615612f5657612f56612e45565b500290565b600060a082018783526020878185015260a0604085015281875180845260c086019150828901935060005b81811015612fab5784516001600160a01b031683529383019391830191600101612f86565b50506001600160a01b03969096166060850152505050608001529392505050565b600080600060608486031215612fe157600080fd5b835192506020840151915060408401519050925092509256fe45524332303a207472616e7366657220616d6f756e74206578636565647320616c6c6f77616e636545524332303a2064656372656173656420616c6c6f77616e63652062656c6f77207a65726fa2646970667358221220554dc9c510e8cddf3ab6cd632947ebb41aeb832103e116651c1c5c2b88c041a764736f6c634300080a0033",
  "linkReferences": {},
  "deployedLinkReferences": {}
}