{
  "_format": "hh-sol-artifact-1",
  "contractName": "TokenFactoryManager",
  "sourceName": "contracts/factories/token/TokenFactoryManager.sol",
  "abi": [
    {
      "anonymous": false,
      "inputs": [
        {
          "indexed": true,
          "internalType": "address",
          "name": "previousOwner",
          "type": "address"
        },
        {
          "indexed": true,
          "internalType": "address",
          "name": "newOwner",
          "type": "address"
        }
      ],
      "name": "OwnershipTransferred",
      "type": "event"
    },
    {
      "inputs": [
        {
          "internalType": "address[]",
          "name": "factories",
          "type": "address[]"
        }
      ],
      "name": "addTokenFactories",
      "outputs": [],
      "stateMutability": "nonpayable",
      "type": "function"
    },
    {
      "inputs": [
        {
          "internalType": "address",
          "name": "factory",
          "type": "address"
        }
      ],
      "name": "addTokenFactory",
      "outputs": [],
      "stateMutability": "nonpayable",
      "type": "function"
    },
    {
      "inputs": [
        {
          "internalType": "address",
          "name": "owner",
          "type": "address"
        },
        {
          "internalType": "address",
          "name": "token",
          "type": "address"
        },
        {
          "internalType": "uint8",
          "name": "tokenType",
          "type": "uint8"
        }
      ],
      "name": "assignTokensToOwner",
      "outputs": [],
      "stateMutability": "nonpayable",
      "type": "function"
    },
    {
      "inputs": [
        {
          "internalType": "address",
          "name": "owner",
          "type": "address"
        }
      ],
      "name": "getAllTokens",
      "outputs": [
        {
          "internalType": "address[]",
          "name": "",
          "type": "address[]"
        },
        {
          "internalType": "uint8[]",
          "name": "",
          "type": "uint8[]"
        }
      ],
      "stateMutability": "view",
      "type": "function"
    },
    {
      "inputs": [],
      "name": "getAllowedFactories",
      "outputs": [
        {
          "internalType": "address[]",
          "name": "",
          "type": "address[]"
        }
      ],
      "stateMutability": "view",
      "type": "function"
    },
    {
      "inputs": [
        {
          "internalType": "address",
          "name": "owner",
          "type": "address"
        },
        {
          "internalType": "uint256",
          "name": "index",
          "type": "uint256"
        }
      ],
      "name": "getToken",
      "outputs": [
        {
          "internalType": "address",
          "name": "",
          "type": "address"
        },
        {
          "internalType": "uint8",
          "name": "",
          "type": "uint8"
        }
      ],
      "stateMutability": "view",
      "type": "function"
    },
    {
      "inputs": [
        {
          "internalType": "address",
          "name": "owner",
          "type": "address"
        },
        {
          "internalType": "uint8",
          "name": "tokenType",
          "type": "uint8"
        }
      ],
      "name": "getTokensForType",
      "outputs": [
        {
          "internalType": "address[]",
          "name": "",
          "type": "address[]"
        }
      ],
      "stateMutability": "view",
      "type": "function"
    },
    {
      "inputs": [
        {
          "internalType": "address",
          "name": "token",
          "type": "address"
        }
      ],
      "name": "isTokenGenerated",
      "outputs": [
        {
          "internalType": "bool",
          "name": "",
          "type": "bool"
        }
      ],
      "stateMutability": "view",
      "type": "function"
    },
    {
      "inputs": [],
      "name": "owner",
      "outputs": [
        {
          "internalType": "address",
          "name": "",
          "type": "address"
        }
      ],
      "stateMutability": "view",
      "type": "function"
    },
    {
      "inputs": [
        {
          "internalType": "address",
          "name": "factory",
          "type": "address"
        }
      ],
      "name": "removeTokenFactory",
      "outputs": [],
      "stateMutability": "nonpayable",
      "type": "function"
    },
    {
      "inputs": [],
      "name": "renounceOwnership",
      "outputs": [],
      "stateMutability": "nonpayable",
      "type": "function"
    },
    {
      "inputs": [
        {
          "internalType": "address",
          "name": "newOwner",
          "type": "address"
        }
      ],
      "name": "transferOwnership",
      "outputs": [],
      "stateMutability": "nonpayable",
      "type": "function"
    }
  ],
  "bytecode": "0x608060405234801561001057600080fd5b5061001a3361001f565b61006f565b600080546001600160a01b038381166001600160a01b0319831681178455604051919092169283917f8be0079c531659141344cd1fd0a4f28419497f9722a3daafe3b4186f6b6457e09190a35050565b610f7f8061007e6000396000f3fe608060405234801561001057600080fd5b50600436106100b45760003560e01c80635da926ca116100715780635da926ca14610190578063715018a6146101a35780638da5cb5b146101ab578063937529ef146101c65780639ce19365146101d9578063f2fde38b146101ec57600080fd5b8063178b6de6146100b957806327db6e64146100e357806328220dea146100f85780633136aef71461010d57806343d7cce6146101205780634c1a7e7514610154575b600080fd5b6100cc6100c7366004610c48565b6101ff565b6040516100da929190610ca7565b60405180910390f35b6100eb6103a5565b6040516100da9190610d01565b61010b610106366004610d25565b610455565b005b6100eb61011b366004610d68565b6105bd565b61013361012e366004610d9b565b6107a9565b604080516001600160a01b03909316835260ff9091166020830152016100da565b610180610162366004610c48565b6001600160a01b031660009081526005602052604090205460ff1690565b60405190151581526020016100da565b61010b61019e366004610ddb565b61085e565b61010b6108cc565b6000546040516001600160a01b0390911681526020016100da565b61010b6101d4366004610c48565b610902565b61010b6101e7366004610c48565b610937565b61010b6101fa366004610c48565b61096c565b6001600160a01b0381166000908152600360205260408120546060918291908167ffffffffffffffff81111561023757610237610dc5565b604051908082528060200260200182016040528015610260578160200160208202803683370190505b50905060008267ffffffffffffffff81111561027e5761027e610dc5565b6040519080825280602002602001820160405280156102a7578160200160208202803683370190505b50905060005b83811015610399576001600160a01b03871660009081526003602052604090208054829081106102df576102df610ea0565b9060005260206000200160000160019054906101000a90046001600160a01b031683828151811061031257610312610ea0565b6001600160a01b03928316602091820292909201810191909152908816600090815260039091526040902080548290811061034f5761034f610ea0565b600091825260209091200154825160ff9091169083908390811061037557610375610ea0565b60ff909216602092830291909101909101528061039181610ecc565b9150506102ad565b50909590945092505050565b606060006103b36001610a07565b905060008167ffffffffffffffff8111156103d0576103d0610dc5565b6040519080825280602002602001820160405280156103f9578160200160208202803683370190505b50905060005b8281101561044e57610412600182610a11565b82828151811061042457610424610ea0565b6001600160a01b03909216602092830291909101909101528061044681610ecc565b9150506103ff565b5092915050565b610460600133610a24565b6104b15760405162461bcd60e51b815260206004820152601960248201527f4e6f7420612077686974656c697374656420666163746f72790000000000000060448201526064015b60405180910390fd5b6001600160a01b0380841660009081526004602090815260408083209386168352929052205460ff161561051e5760405162461bcd60e51b8152602060048201526014602482015273546f6b656e20616c72656164792065786973747360601b60448201526064016104a8565b6001600160a01b0392831660008181526003602090815260408083208151808301835260ff96871681529688168784018181528254600181810185559387528587209951990180549151909a16610100026001600160a81b031990911698909716979097179590951790965591815260048252848120938152928152838320805460ff1990811684179091556005909152929091208054909216179055565b60606000805b6001600160a01b038516600090815260036020526040902054811015610648576001600160a01b0385166000908152600360205260409020805460ff861691908390811061061357610613610ea0565b60009182526020909120015460ff161415610636578161063281610ecc565b9250505b8061064081610ecc565b9150506105c3565b5060008167ffffffffffffffff81111561066457610664610dc5565b60405190808252806020026020018201604052801561068d578160200160208202803683370190505b5090508161069e5791506107a39050565b6000805b6001600160a01b03871660009081526003602052604090205481101561079c576001600160a01b0387166000908152600360205260409020805460ff88169190839081106106f2576106f2610ea0565b60009182526020909120015460ff16141561078a576001600160a01b038716600090815260036020526040902080548290811061073157610731610ea0565b9060005260206000200160000160019054906101000a90046001600160a01b031683838151811061076457610764610ea0565b6001600160a01b03909216602092830291909101909101528161078681610ecc565b9250505b8061079481610ecc565b9150506106a2565b5090925050505b92915050565b6001600160a01b03821660009081526003602052604081205481908311156107d657506000905080610857565b6001600160a01b038416600090815260036020526040902080548490811061080057610800610ea0565b60009182526020808320909101546001600160a01b03878116845260039092526040909220805461010090930491909116918590811061084257610842610ea0565b60009182526020909120015490925060ff1690505b9250929050565b6000546001600160a01b031633146108885760405162461bcd60e51b81526004016104a890610ee7565b60005b81518110156108c8576108b68282815181106108a9576108a9610ea0565b6020026020010151610937565b806108c081610ecc565b91505061088b565b5050565b6000546001600160a01b031633146108f65760405162461bcd60e51b81526004016104a890610ee7565b6109006000610a46565b565b6000546001600160a01b0316331461092c5760405162461bcd60e51b81526004016104a890610ee7565b6108c8600182610a96565b6000546001600160a01b031633146109615760405162461bcd60e51b81526004016104a890610ee7565b6108c8600182610aab565b6000546001600160a01b031633146109965760405162461bcd60e51b81526004016104a890610ee7565b6001600160a01b0381166109fb5760405162461bcd60e51b815260206004820152602660248201527f4f776e61626c653a206e6577206f776e657220697320746865207a65726f206160448201526564647265737360d01b60648201526084016104a8565b610a0481610a46565b50565b60006107a3825490565b6000610a1d8383610ac0565b9392505050565b6001600160a01b03811660009081526001830160205260408120541515610a1d565b600080546001600160a01b038381166001600160a01b0319831681178455604051919092169283917f8be0079c531659141344cd1fd0a4f28419497f9722a3daafe3b4186f6b6457e09190a35050565b6000610a1d836001600160a01b038416610aea565b6000610a1d836001600160a01b038416610bdd565b6000826000018281548110610ad757610ad7610ea0565b9060005260206000200154905092915050565b60008181526001830160205260408120548015610bd3576000610b0e600183610f1c565b8554909150600090610b2290600190610f1c565b9050818114610b87576000866000018281548110610b4257610b42610ea0565b9060005260206000200154905080876000018481548110610b6557610b65610ea0565b6000918252602080832090910192909255918252600188019052604090208390555b8554869080610b9857610b98610f33565b6001900381819060005260206000200160009055905585600101600086815260200190815260200160002060009055600193505050506107a3565b60009150506107a3565b6000818152600183016020526040812054610c24575081546001818101845560008481526020808220909301849055845484825282860190935260409020919091556107a3565b5060006107a3565b80356001600160a01b0381168114610c4357600080fd5b919050565b600060208284031215610c5a57600080fd5b610a1d82610c2c565b600081518084526020808501945080840160005b83811015610c9c5781516001600160a01b031687529582019590820190600101610c77565b509495945050505050565b604081526000610cba6040830185610c63565b82810360208481019190915284518083528582019282019060005b81811015610cf457845160ff1683529383019391830191600101610cd5565b5090979650505050505050565b602081526000610a1d6020830184610c63565b803560ff81168114610c4357600080fd5b600080600060608486031215610d3a57600080fd5b610d4384610c2c565b9250610d5160208501610c2c565b9150610d5f60408501610d14565b90509250925092565b60008060408385031215610d7b57600080fd5b610d8483610c2c565b9150610d9260208401610d14565b90509250929050565b60008060408385031215610dae57600080fd5b610db783610c2c565b946020939093013593505050565b634e487b7160e01b600052604160045260246000fd5b60006020808385031215610dee57600080fd5b823567ffffffffffffffff80821115610e0657600080fd5b818501915085601f830112610e1a57600080fd5b813581811115610e2c57610e2c610dc5565b8060051b604051601f19603f83011681018181108582111715610e5157610e51610dc5565b604052918252848201925083810185019188831115610e6f57600080fd5b938501935b82851015610e9457610e8585610c2c565b84529385019392850192610e74565b98975050505050505050565b634e487b7160e01b600052603260045260246000fd5b634e487b7160e01b600052601160045260246000fd5b6000600019821415610ee057610ee0610eb6565b5060010190565b6020808252818101527f4f776e61626c653a2063616c6c6572206973206e6f7420746865206f776e6572604082015260600190565b600082821015610f2e57610f2e610eb6565b500390565b634e487b7160e01b600052603160045260246000fdfea264697066735822122060422e5d7dd26a7a0d1799e85ef3ab7719d339959f1975d41eb740b99687d60664736f6c634300080a0033",
  "linkReferences": {},
  "deployedLinkReferences": {}
}