{
  "_format": "hh-sol-artifact-1",
  "contractName": "StandardTokenFactory",
  "sourceName": "contracts/factories/token/StandardTokenFactory.sol",
  "abi": [
    {
      "inputs": [
        {
          "internalType": "address",
          "name": "factoryManager_",
          "type": "address"
        },
        {
          "internalType": "address",
          "name": "implementationERC20_",
          "type": "address"
        },
        {
          "internalType": "address",
          "name": "implementationERC1155_",
          "type": "address"
        }
      ],
      "stateMutability": "nonpayable",
      "type": "constructor"
    },
    {
      "anonymous": false,
      "inputs": [
        {
          "indexed": true,
          "internalType": "address",
          "name": "previousOwner",
          "type": "address"
        },
        {
          "indexed": true,
          "internalType": "address",
          "name": "newOwner",
          "type": "address"
        }
      ],
      "name": "OwnershipTransferred",
      "type": "event"
    },
    {
      "anonymous": false,
      "inputs": [
        {
          "indexed": true,
          "internalType": "address",
          "name": "owner",
          "type": "address"
        },
        {
          "indexed": true,
          "internalType": "address",
          "name": "token",
          "type": "address"
        },
        {
          "indexed": false,
          "internalType": "uint8",
          "name": "tokenType",
          "type": "uint8"
        }
      ],
      "name": "TokenCreated",
      "type": "event"
    },
    {
      "inputs": [
        {
          "internalType": "string",
          "name": "name",
          "type": "string"
        },
        {
          "internalType": "string",
          "name": "symbol",
          "type": "string"
        }
      ],
      "name": "createERC1155",
      "outputs": [
        {
          "internalType": "address",
          "name": "token",
          "type": "address"
        }
      ],
      "stateMutability": "nonpayable",
      "type": "function"
    },
    {
      "inputs": [
        {
          "internalType": "string",
          "name": "name",
          "type": "string"
        },
        {
          "internalType": "string",
          "name": "symbol",
          "type": "string"
        },
        {
          "internalType": "uint8",
          "name": "decimals",
          "type": "uint8"
        },
        {
          "internalType": "uint256",
          "name": "totalSupply",
          "type": "uint256"
        }
      ],
      "name": "createERC20",
      "outputs": [
        {
          "internalType": "address",
          "name": "token",
          "type": "address"
        }
      ],
      "stateMutability": "nonpayable",
      "type": "function"
    },
    {
      "inputs": [],
      "name": "factoryManager",
      "outputs": [
        {
          "internalType": "address",
          "name": "",
          "type": "address"
        }
      ],
      "stateMutability": "view",
      "type": "function"
    },
    {
      "inputs": [],
      "name": "feeTo",
      "outputs": [
        {
          "internalType": "address",
          "name": "",
          "type": "address"
        }
      ],
      "stateMutability": "view",
      "type": "function"
    },
    {
      "inputs": [],
      "name": "flatFee",
      "outputs": [
        {
          "internalType": "uint256",
          "name": "",
          "type": "uint256"
        }
      ],
      "stateMutability": "view",
      "type": "function"
    },
    {
      "inputs": [],
      "name": "implementationERC1155",
      "outputs": [
        {
          "internalType": "address",
          "name": "",
          "type": "address"
        }
      ],
      "stateMutability": "view",
      "type": "function"
    },
    {
      "inputs": [],
      "name": "implementationERC20",
      "outputs": [
        {
          "internalType": "address",
          "name": "",
          "type": "address"
        }
      ],
      "stateMutability": "view",
      "type": "function"
    },
    {
      "inputs": [],
      "name": "owner",
      "outputs": [
        {
          "internalType": "address",
          "name": "",
          "type": "address"
        }
      ],
      "stateMutability": "view",
      "type": "function"
    },
    {
      "inputs": [],
      "name": "renounceOwnership",
      "outputs": [],
      "stateMutability": "nonpayable",
      "type": "function"
    },
    {
      "inputs": [
        {
          "internalType": "address",
          "name": "feeReceivingAddress",
          "type": "address"
        }
      ],
      "name": "setFeeTo",
      "outputs": [],
      "stateMutability": "nonpayable",
      "type": "function"
    },
    {
      "inputs": [
        {
          "internalType": "uint256",
          "name": "fee",
          "type": "uint256"
        }
      ],
      "name": "setFlatFee",
      "outputs": [],
      "stateMutability": "nonpayable",
      "type": "function"
    },
    {
      "inputs": [
        {
          "internalType": "address",
          "name": "implementation_",
          "type": "address"
        }
      ],
      "name": "setImplementationERC1155",
      "outputs": [],
      "stateMutability": "nonpayable",
      "type": "function"
    },
    {
      "inputs": [
        {
          "internalType": "address",
          "name": "implementation_",
          "type": "address"
        }
      ],
      "name": "setImplementationERC20",
      "outputs": [],
      "stateMutability": "nonpayable",
      "type": "function"
    },
    {
      "inputs": [
        {
          "internalType": "address",
          "name": "newOwner",
          "type": "address"
        }
      ],
      "name": "transferOwnership",
      "outputs": [],
      "stateMutability": "nonpayable",
      "type": "function"
    }
  ],
  "bytecode": "0x608060405234801561001057600080fd5b50604051610c2e380380610c2e83398101604081905261002f91610108565b82828261003b3361009c565b60018055600280546001600160a01b039485166001600160a01b031991821617909155600380549385169382169390931790925560048054919093169082161790915560058054909116331790555050662386f26fc100006006555061014b565b600080546001600160a01b038381166001600160a01b0319831681178455604051919092169283917f8be0079c531659141344cd1fd0a4f28419497f9722a3daafe3b4186f6b6457e09190a35050565b80516001600160a01b038116811461010357600080fd5b919050565b60008060006060848603121561011d57600080fd5b610126846100ec565b9250610134602085016100ec565b9150610142604085016100ec565b90509250925092565b610ad48061015a6000396000f3fe608060405234801561001057600080fd5b50600436106100ea5760003560e01c80638da5cb5b1161008c578063d9eb594711610066578063d9eb5947146101bf578063e3012eb7146101d6578063f2fde38b146101e9578063f46901ed146101fc57600080fd5b80638da5cb5b14610188578063bafcba2114610199578063c4576ff0146101ac57600080fd5b806323fa495a116100c857806323fa495a146101455780635b22b2681461015a578063715018a61461016d57806374b055f91461017557600080fd5b8063017e7e58146100ef578063032b5a731461011f5780630845e77114610132575b600080fd5b600554610102906001600160a01b031681565b6040516001600160a01b0390911681526020015b60405180910390f35b600254610102906001600160a01b031681565b600454610102906001600160a01b031681565b6101586101533660046107ba565b61020f565b005b600354610102906001600160a01b031681565b610158610247565b6101586101833660046107d3565b61027d565b6000546001600160a01b0316610102565b6101026101a73660046108a6565b6102c9565b6101586101ba3660046107d3565b6103f4565b6101c860065481565b604051908152602001610116565b6101026101e436600461090a565b610440565b6101586101f73660046107d3565b610571565b61015861020a3660046107d3565b61060c565b6000546001600160a01b031633146102425760405162461bcd60e51b81526004016102399061098e565b60405180910390fd5b600655565b6000546001600160a01b031633146102715760405162461bcd60e51b81526004016102399061098e565b61027b6000610658565b565b6000546001600160a01b031633146102a75760405162461bcd60e51b81526004016102399061098e565b600380546001600160a01b0319166001600160a01b0392909216919091179055565b60006002600154141561031e5760405162461bcd60e51b815260206004820152601f60248201527f5265656e7472616e637947756172643a207265656e7472616e742063616c6c006044820152606401610239565b6002600155600454610338906001600160a01b03166106a8565b604051639065714760e01b81529091506001600160a01b0382169063906571479061036b90339087908790600401610a10565b600060405180830381600087803b15801561038557600080fd5b505af1158015610399573d6000803e3d6000fd5b505050506103a933826001610745565b604051600181526001600160a01b0382169033907f49fab9e82f453b3b0e1b0e507a645552d8b351f9b3cb0c9a7b4df572780c6b2f9060200160405180910390a36001805592915050565b6000546001600160a01b0316331461041e5760405162461bcd60e51b81526004016102399061098e565b600480546001600160a01b0319166001600160a01b0392909216919091179055565b6000600260015414156104955760405162461bcd60e51b815260206004820152601f60248201527f5265656e7472616e637947756172643a207265656e7472616e742063616c6c006044820152606401610239565b60026001556003546104af906001600160a01b03166106a8565b60405163d72bdc5360e01b81529091506001600160a01b0382169063d72bdc53906104e69033908990899089908990600401610a50565b600060405180830381600087803b15801561050057600080fd5b505af1158015610514573d6000803e3d6000fd5b5050505061052433826000610745565b604051600081526001600160a01b0382169033907f49fab9e82f453b3b0e1b0e507a645552d8b351f9b3cb0c9a7b4df572780c6b2f9060200160405180910390a360018055949350505050565b6000546001600160a01b0316331461059b5760405162461bcd60e51b81526004016102399061098e565b6001600160a01b0381166106005760405162461bcd60e51b815260206004820152602660248201527f4f776e61626c653a206e6577206f776e657220697320746865207a65726f206160448201526564647265737360d01b6064820152608401610239565b61060981610658565b50565b6000546001600160a01b031633146106365760405162461bcd60e51b81526004016102399061098e565b600580546001600160a01b0319166001600160a01b0392909216919091179055565b600080546001600160a01b038381166001600160a01b0319831681178455604051919092169283917f8be0079c531659141344cd1fd0a4f28419497f9722a3daafe3b4186f6b6457e09190a35050565b6000604051733d602d80600a3d3981f3363d3d373d3d3d363d7360601b81528260601b60148201526e5af43d82803e903d91602b57fd5bf360881b60288201526037816000f09150506001600160a01b0381166107405760405162461bcd60e51b8152602060048201526016602482015275115490cc4c4d8dce8818dc99585d194819985a5b195960521b6044820152606401610239565b919050565b60025460405163141106f560e11b81526001600160a01b038581166004830152848116602483015260ff84166044830152909116906328220dea90606401600060405180830381600087803b15801561079d57600080fd5b505af11580156107b1573d6000803e3d6000fd5b50505050505050565b6000602082840312156107cc57600080fd5b5035919050565b6000602082840312156107e557600080fd5b81356001600160a01b03811681146107fc57600080fd5b9392505050565b634e487b7160e01b600052604160045260246000fd5b600082601f83011261082a57600080fd5b813567ffffffffffffffff8082111561084557610845610803565b604051601f8301601f19908116603f0116810190828211818310171561086d5761086d610803565b8160405283815286602085880101111561088657600080fd5b836020870160208301376000602085830101528094505050505092915050565b600080604083850312156108b957600080fd5b823567ffffffffffffffff808211156108d157600080fd5b6108dd86838701610819565b935060208501359150808211156108f357600080fd5b5061090085828601610819565b9150509250929050565b6000806000806080858703121561092057600080fd5b843567ffffffffffffffff8082111561093857600080fd5b61094488838901610819565b9550602087013591508082111561095a57600080fd5b5061096787828801610819565b935050604085013560ff8116811461097e57600080fd5b9396929550929360600135925050565b6020808252818101527f4f776e61626c653a2063616c6c6572206973206e6f7420746865206f776e6572604082015260600190565b6000815180845260005b818110156109e9576020818501810151868301820152016109cd565b818111156109fb576000602083870101525b50601f01601f19169290920160200192915050565b6001600160a01b0384168152606060208201819052600090610a34908301856109c3565b8281036040840152610a4681856109c3565b9695505050505050565b6001600160a01b038616815260a060208201819052600090610a74908301876109c3565b8281036040840152610a8681876109c3565b60ff959095166060840152505060800152939250505056fea2646970667358221220d782fde78d5bf00d1c7eae76041ac592e97a2526d74c45bf4fb423f082d2fd8364736f6c634300080a0033",
  "linkReferences": {},
  "deployedLinkReferences": {}
}