{
  "_format": "hh-sol-artifact-1",
  "contractName": "Standard1155",
  "sourceName": "contracts/tokens/Standard1155.sol",
  "abi": [
    {
      "inputs": [],
      "stateMutability": "nonpayable",
      "type": "constructor"
    },
    {
      "anonymous": false,
      "inputs": [
        {
          "indexed": true,
          "internalType": "address",
          "name": "account",
          "type": "address"
        },
        {
          "indexed": true,
          "internalType": "address",
          "name": "operator",
          "type": "address"
        },
        {
          "indexed": false,
          "internalType": "bool",
          "name": "approved",
          "type": "bool"
        }
      ],
      "name": "ApprovalForAll",
      "type": "event"
    },
    {
      "anonymous": false,
      "inputs": [
        {
          "indexed": false,
          "internalType": "address",
          "name": "account",
          "type": "address"
        }
      ],
      "name": "Paused",
      "type": "event"
    },
    {
      "anonymous": false,
      "inputs": [
        {
          "indexed": true,
          "internalType": "bytes32",
          "name": "role",
          "type": "bytes32"
        },
        {
          "indexed": true,
          "internalType": "bytes32",
          "name": "previousAdminRole",
          "type": "bytes32"
        },
        {
          "indexed": true,
          "internalType": "bytes32",
          "name": "newAdminRole",
          "type": "bytes32"
        }
      ],
      "name": "RoleAdminChanged",
      "type": "event"
    },
    {
      "anonymous": false,
      "inputs": [
        {
          "indexed": true,
          "internalType": "bytes32",
          "name": "role",
          "type": "bytes32"
        },
        {
          "indexed": true,
          "internalType": "address",
          "name": "account",
          "type": "address"
        },
        {
          "indexed": true,
          "internalType": "address",
          "name": "sender",
          "type": "address"
        }
      ],
      "name": "RoleGranted",
      "type": "event"
    },
    {
      "anonymous": false,
      "inputs": [
        {
          "indexed": true,
          "internalType": "bytes32",
          "name": "role",
          "type": "bytes32"
        },
        {
          "indexed": true,
          "internalType": "address",
          "name": "account",
          "type": "address"
        },
        {
          "indexed": true,
          "internalType": "address",
          "name": "sender",
          "type": "address"
        }
      ],
      "name": "RoleRevoked",
      "type": "event"
    },
    {
      "anonymous": false,
      "inputs": [
        {
          "indexed": true,
          "internalType": "address",
          "name": "operator",
          "type": "address"
        },
        {
          "indexed": true,
          "internalType": "address",
          "name": "from",
          "type": "address"
        },
        {
          "indexed": true,
          "internalType": "address",
          "name": "to",
          "type": "address"
        },
        {
          "indexed": false,
          "internalType": "uint256[]",
          "name": "ids",
          "type": "uint256[]"
        },
        {
          "indexed": false,
          "internalType": "uint256[]",
          "name": "values",
          "type": "uint256[]"
        }
      ],
      "name": "TransferBatch",
      "type": "event"
    },
    {
      "anonymous": false,
      "inputs": [
        {
          "indexed": true,
          "internalType": "address",
          "name": "operator",
          "type": "address"
        },
        {
          "indexed": true,
          "internalType": "address",
          "name": "from",
          "type": "address"
        },
        {
          "indexed": true,
          "internalType": "address",
          "name": "to",
          "type": "address"
        },
        {
          "indexed": false,
          "internalType": "uint256",
          "name": "id",
          "type": "uint256"
        },
        {
          "indexed": false,
          "internalType": "uint256",
          "name": "value",
          "type": "uint256"
        }
      ],
      "name": "TransferSingle",
      "type": "event"
    },
    {
      "anonymous": false,
      "inputs": [
        {
          "indexed": false,
          "internalType": "string",
          "name": "value",
          "type": "string"
        },
        {
          "indexed": true,
          "internalType": "uint256",
          "name": "id",
          "type": "uint256"
        }
      ],
      "name": "URI",
      "type": "event"
    },
    {
      "anonymous": false,
      "inputs": [
        {
          "indexed": false,
          "internalType": "address",
          "name": "account",
          "type": "address"
        }
      ],
      "name": "Unpaused",
      "type": "event"
    },
    {
      "inputs": [],
      "name": "DEFAULT_ADMIN_ROLE",
      "outputs": [
        {
          "internalType": "bytes32",
          "name": "",
          "type": "bytes32"
        }
      ],
      "stateMutability": "view",
      "type": "function"
    },
    {
      "inputs": [],
      "name": "MINTER_ROLE",
      "outputs": [
        {
          "internalType": "bytes32",
          "name": "",
          "type": "bytes32"
        }
      ],
      "stateMutability": "view",
      "type": "function"
    },
    {
      "inputs": [],
      "name": "PAUSER_ROLE",
      "outputs": [
        {
          "internalType": "bytes32",
          "name": "",
          "type": "bytes32"
        }
      ],
      "stateMutability": "view",
      "type": "function"
    },
    {
      "inputs": [],
      "name": "URI_SETTER_ROLE",
      "outputs": [
        {
          "internalType": "bytes32",
          "name": "",
          "type": "bytes32"
        }
      ],
      "stateMutability": "view",
      "type": "function"
    },
    {
      "inputs": [
        {
          "internalType": "address",
          "name": "account",
          "type": "address"
        },
        {
          "internalType": "uint256",
          "name": "id",
          "type": "uint256"
        }
      ],
      "name": "balanceOf",
      "outputs": [
        {
          "internalType": "uint256",
          "name": "",
          "type": "uint256"
        }
      ],
      "stateMutability": "view",
      "type": "function"
    },
    {
      "inputs": [
        {
          "internalType": "address[]",
          "name": "accounts",
          "type": "address[]"
        },
        {
          "internalType": "uint256[]",
          "name": "ids",
          "type": "uint256[]"
        }
      ],
      "name": "balanceOfBatch",
      "outputs": [
        {
          "internalType": "uint256[]",
          "name": "",
          "type": "uint256[]"
        }
      ],
      "stateMutability": "view",
      "type": "function"
    },
    {
      "inputs": [
        {
          "internalType": "uint256",
          "name": "id",
          "type": "uint256"
        }
      ],
      "name": "exists",
      "outputs": [
        {
          "internalType": "bool",
          "name": "",
          "type": "bool"
        }
      ],
      "stateMutability": "view",
      "type": "function"
    },
    {
      "inputs": [
        {
          "internalType": "bytes32",
          "name": "role",
          "type": "bytes32"
        }
      ],
      "name": "getRoleAdmin",
      "outputs": [
        {
          "internalType": "bytes32",
          "name": "",
          "type": "bytes32"
        }
      ],
      "stateMutability": "view",
      "type": "function"
    },
    {
      "inputs": [
        {
          "internalType": "bytes32",
          "name": "role",
          "type": "bytes32"
        },
        {
          "internalType": "address",
          "name": "account",
          "type": "address"
        }
      ],
      "name": "grantRole",
      "outputs": [],
      "stateMutability": "nonpayable",
      "type": "function"
    },
    {
      "inputs": [
        {
          "internalType": "bytes32",
          "name": "role",
          "type": "bytes32"
        },
        {
          "internalType": "address",
          "name": "account",
          "type": "address"
        }
      ],
      "name": "hasRole",
      "outputs": [
        {
          "internalType": "bool",
          "name": "",
          "type": "bool"
        }
      ],
      "stateMutability": "view",
      "type": "function"
    },
    {
      "inputs": [
        {
          "internalType": "address",
          "name": "owner_",
          "type": "address"
        },
        {
          "internalType": "string",
          "name": "name_",
          "type": "string"
        },
        {
          "internalType": "string",
          "name": "symbol_",
          "type": "string"
        }
      ],
      "name": "initialize",
      "outputs": [],
      "stateMutability": "nonpayable",
      "type": "function"
    },
    {
      "inputs": [
        {
          "internalType": "address",
          "name": "account",
          "type": "address"
        },
        {
          "internalType": "address",
          "name": "operator",
          "type": "address"
        }
      ],
      "name": "isApprovedForAll",
      "outputs": [
        {
          "internalType": "bool",
          "name": "",
          "type": "bool"
        }
      ],
      "stateMutability": "view",
      "type": "function"
    },
    {
      "inputs": [
        {
          "internalType": "address",
          "name": "account",
          "type": "address"
        },
        {
          "internalType": "uint256",
          "name": "id",
          "type": "uint256"
        },
        {
          "internalType": "uint256",
          "name": "amount",
          "type": "uint256"
        },
        {
          "internalType": "bytes",
          "name": "data",
          "type": "bytes"
        }
      ],
      "name": "mint",
      "outputs": [],
      "stateMutability": "nonpayable",
      "type": "function"
    },
    {
      "inputs": [
        {
          "internalType": "address",
          "name": "to",
          "type": "address"
        },
        {
          "internalType": "uint256[]",
          "name": "ids",
          "type": "uint256[]"
        },
        {
          "internalType": "uint256[]",
          "name": "amounts",
          "type": "uint256[]"
        },
        {
          "internalType": "bytes",
          "name": "data",
          "type": "bytes"
        }
      ],
      "name": "mintBatch",
      "outputs": [],
      "stateMutability": "nonpayable",
      "type": "function"
    },
    {
      "inputs": [],
      "name": "name",
      "outputs": [
        {
          "internalType": "string",
          "name": "",
          "type": "string"
        }
      ],
      "stateMutability": "view",
      "type": "function"
    },
    {
      "inputs": [],
      "name": "pause",
      "outputs": [],
      "stateMutability": "nonpayable",
      "type": "function"
    },
    {
      "inputs": [],
      "name": "paused",
      "outputs": [
        {
          "internalType": "bool",
          "name": "",
          "type": "bool"
        }
      ],
      "stateMutability": "view",
      "type": "function"
    },
    {
      "inputs": [
        {
          "internalType": "bytes32",
          "name": "role",
          "type": "bytes32"
        },
        {
          "internalType": "address",
          "name": "account",
          "type": "address"
        }
      ],
      "name": "renounceRole",
      "outputs": [],
      "stateMutability": "nonpayable",
      "type": "function"
    },
    {
      "inputs": [
        {
          "internalType": "bytes32",
          "name": "role",
          "type": "bytes32"
        },
        {
          "internalType": "address",
          "name": "account",
          "type": "address"
        }
      ],
      "name": "revokeRole",
      "outputs": [],
      "stateMutability": "nonpayable",
      "type": "function"
    },
    {
      "inputs": [
        {
          "internalType": "address",
          "name": "from",
          "type": "address"
        },
        {
          "internalType": "address",
          "name": "to",
          "type": "address"
        },
        {
          "internalType": "uint256[]",
          "name": "ids",
          "type": "uint256[]"
        },
        {
          "internalType": "uint256[]",
          "name": "amounts",
          "type": "uint256[]"
        },
        {
          "internalType": "bytes",
          "name": "data",
          "type": "bytes"
        }
      ],
      "name": "safeBatchTransferFrom",
      "outputs": [],
      "stateMutability": "nonpayable",
      "type": "function"
    },
    {
      "inputs": [
        {
          "internalType": "address",
          "name": "from",
          "type": "address"
        },
        {
          "internalType": "address",
          "name": "to",
          "type": "address"
        },
        {
          "internalType": "uint256",
          "name": "id",
          "type": "uint256"
        },
        {
          "internalType": "uint256",
          "name": "amount",
          "type": "uint256"
        },
        {
          "internalType": "bytes",
          "name": "data",
          "type": "bytes"
        }
      ],
      "name": "safeTransferFrom",
      "outputs": [],
      "stateMutability": "nonpayable",
      "type": "function"
    },
    {
      "inputs": [
        {
          "internalType": "address",
          "name": "operator",
          "type": "address"
        },
        {
          "internalType": "bool",
          "name": "approved",
          "type": "bool"
        }
      ],
      "name": "setApprovalForAll",
      "outputs": [],
      "stateMutability": "nonpayable",
      "type": "function"
    },
    {
      "inputs": [
        {
          "internalType": "string",
          "name": "newuri",
          "type": "string"
        }
      ],
      "name": "setURI",
      "outputs": [],
      "stateMutability": "nonpayable",
      "type": "function"
    },
    {
      "inputs": [
        {
          "internalType": "bytes4",
          "name": "interfaceId",
          "type": "bytes4"
        }
      ],
      "name": "supportsInterface",
      "outputs": [
        {
          "internalType": "bool",
          "name": "",
          "type": "bool"
        }
      ],
      "stateMutability": "view",
      "type": "function"
    },
    {
      "inputs": [],
      "name": "symbol",
      "outputs": [
        {
          "internalType": "string",
          "name": "",
          "type": "string"
        }
      ],
      "stateMutability": "view",
      "type": "function"
    },
    {
      "inputs": [
        {
          "internalType": "uint256",
          "name": "id",
          "type": "uint256"
        }
      ],
      "name": "totalSupply",
      "outputs": [
        {
          "internalType": "uint256",
          "name": "",
          "type": "uint256"
        }
      ],
      "stateMutability": "view",
      "type": "function"
    },
    {
      "inputs": [],
      "name": "unpause",
      "outputs": [],
      "stateMutability": "nonpayable",
      "type": "function"
    },
    {
      "inputs": [
        {
          "internalType": "uint256",
          "name": "",
          "type": "uint256"
        }
      ],
      "name": "uri",
      "outputs": [
        {
          "internalType": "string",
          "name": "",
          "type": "string"
        }
      ],
      "stateMutability": "view",
      "type": "function"
    }
  ],
  "bytecode": "0x60806040523480156200001157600080fd5b506040805160208101909152600081526200002c816200003d565b506004805460ff1916905562000139565b80516200005290600290602084019062000056565b5050565b8280546200006490620000fc565b90600052602060002090601f016020900481019282620000885760008555620000d3565b82601f10620000a357805160ff1916838001178555620000d3565b82800160010185558215620000d3579182015b82811115620000d3578251825591602001919060010190620000b6565b50620000e1929150620000e5565b5090565b5b80821115620000e15760008155600101620000e6565b600181811c908216806200011157607f821691505b602082108114156200013357634e487b7160e01b600052602260045260246000fd5b50919050565b6125d480620001496000396000f3fe608060405234801561001057600080fd5b50600436106101c35760003560e01c8063731133e9116100f9578063a22cb46511610097578063d547741f11610071578063d547741f146103c0578063e63ab1e9146103d3578063e985e9c5146103e8578063f242432a1461042457600080fd5b8063a22cb46514610378578063bd85b0391461038b578063d5391393146103ab57600080fd5b806390657147116100d3578063906571471461034257806391d148541461035557806395d89b4114610368578063a217fddf1461037057600080fd5b8063731133e9146103125780637f345710146103255780638456cb591461033a57600080fd5b80632eb2c2d6116101665780633f4ba83a116101405780633f4ba83a146102bd5780634e1273f4146102c55780634f558e79146102e55780635c975abb1461030757600080fd5b80632eb2c2d6146102845780632f2ff15d1461029757806336568abe146102aa57600080fd5b806306fdde03116101a257806306fdde03146102265780630e89341c1461023b5780631f7fdffa1461024e578063248a9ca31461026157600080fd5b8062fdd58e146101c857806301ffc9a7146101ee57806302fe530514610211575b600080fd5b6101db6101d6366004611a73565b610437565b6040519081526020015b60405180910390f35b6102016101fc366004611ab3565b6104ce565b60405190151581526020016101e5565b61022461021f366004611b85565b6104df565b005b61022e610505565b6040516101e59190611c19565b61022e610249366004611c2c565b610597565b61022461025c366004611cd9565b61062b565b6101db61026f366004611c2c565b60009081526003602052604090206001015490565b610224610292366004611d71565b610657565b6102246102a5366004611e1a565b6106e7565b6102246102b8366004611e1a565b610712565b61022461078c565b6102d86102d3366004611e46565b6107b0565b6040516101e59190611f4b565b6102016102f3366004611c2c565b600090815260056020526040902054151590565b60045460ff16610201565b610224610320366004611f5e565b6108d9565b6101db60008051602061253f83398151915281565b6102246108fe565b610224610350366004611fb2565b61091f565b610201610363366004611e1a565b610aa9565b61022e610ad4565b6101db600081565b610224610386366004612025565b610ae3565b6101db610399366004611c2c565b60009081526005602052604090205490565b6101db60008051602061257f83398151915281565b6102246103ce366004611e1a565b610aee565b6101db60008051602061255f83398151915281565b6102016103f6366004612061565b6001600160a01b03918216600090815260016020908152604080832093909416825291909152205460ff1690565b61022461043236600461208b565b610b14565b60006001600160a01b0383166104a85760405162461bcd60e51b815260206004820152602b60248201527f455243313135353a2062616c616e636520717565727920666f7220746865207a60448201526a65726f206164647265737360a81b60648201526084015b60405180910390fd5b506000908152602081815260408083206001600160a01b03949094168352929052205490565b60006104d982610b9b565b92915050565b60008051602061253f8339815191526104f88133610bc0565b61050182610c24565b5050565b606060078054610514906120ef565b80601f0160208091040260200160405190810160405280929190818152602001828054610540906120ef565b801561058d5780601f106105625761010080835404028352916020019161058d565b820191906000526020600020905b81548152906001019060200180831161057057829003601f168201915b5050505050905090565b6060600280546105a6906120ef565b80601f01602080910402602001604051908101604052809291908181526020018280546105d2906120ef565b801561061f5780601f106105f45761010080835404028352916020019161061f565b820191906000526020600020905b81548152906001019060200180831161060257829003601f168201915b50505050509050919050565b60008051602061257f8339815191526106448133610bc0565b61065085858585610c37565b5050505050565b6001600160a01b038516331480610673575061067385336103f6565b6106da5760405162461bcd60e51b815260206004820152603260248201527f455243313135353a207472616e736665722063616c6c6572206973206e6f74206044820152711bdddb995c881b9bdc88185c1c1c9bdd995960721b606482015260840161049f565b6106508585858585610d91565b6000828152600360205260409020600101546107038133610bc0565b61070d8383610f3b565b505050565b6001600160a01b03811633146107825760405162461bcd60e51b815260206004820152602f60248201527f416363657373436f6e74726f6c3a2063616e206f6e6c792072656e6f756e636560448201526e103937b632b9903337b91039b2b63360891b606482015260840161049f565b6105018282610fc1565b60008051602061255f8339815191526107a58133610bc0565b6107ad611028565b50565b606081518351146108155760405162461bcd60e51b815260206004820152602960248201527f455243313135353a206163636f756e747320616e6420696473206c656e677468604482015268040dad2e6dac2e8c6d60bb1b606482015260840161049f565b600083516001600160401b0381111561083057610830611ad0565b604051908082528060200260200182016040528015610859578160200160208202803683370190505b50905060005b84518110156108d1576108a485828151811061087d5761087d61212a565b60200260200101518583815181106108975761089761212a565b6020026020010151610437565b8282815181106108b6576108b661212a565b60209081029190910101526108ca81612156565b905061085f565b509392505050565b60008051602061257f8339815191526108f28133610bc0565b610650858585856110bb565b60008051602061255f8339815191526109178133610bc0565b6107ad611191565b600654610100900460ff1661093a5760065460ff161561093e565b303b155b6109a15760405162461bcd60e51b815260206004820152602e60248201527f496e697469616c697a61626c653a20636f6e747261637420697320616c72656160448201526d191e481a5b9a5d1a585b1a5e995960921b606482015260840161049f565b600654610100900460ff161580156109c3576006805461ffff19166101011790555b82516109d69060079060208601906119be565b5081516109ea9060089060208501906119be565b506109f6600033610f3b565b610a0e60008051602061253f83398151915233610f3b565b610a2660008051602061255f83398151915233610f3b565b610a3e60008051602061257f83398151915233610f3b565b610a49600085610f3b565b610a6160008051602061253f83398151915285610f3b565b610a7960008051602061255f83398151915285610f3b565b610a9160008051602061257f83398151915285610f3b565b8015610aa3576006805461ff00191690555b50505050565b60009182526003602090815260408084206001600160a01b0393909316845291905290205460ff1690565b606060088054610514906120ef565b61050133838361120c565b600082815260036020526040902060010154610b0a8133610bc0565b61070d8383610fc1565b6001600160a01b038516331480610b305750610b3085336103f6565b610b8e5760405162461bcd60e51b815260206004820152602960248201527f455243313135353a2063616c6c6572206973206e6f74206f776e6572206e6f7260448201526808185c1c1c9bdd995960ba1b606482015260840161049f565b61065085858585856112ed565b60006001600160e01b03198216637965db0b60e01b14806104d957506104d98261140a565b610bca8282610aa9565b61050157610be2816001600160a01b0316601461145a565b610bed83602061145a565b604051602001610bfe929190612171565b60408051601f198184030181529082905262461bcd60e51b825261049f91600401611c19565b80516105019060029060208401906119be565b6001600160a01b038416610c5d5760405162461bcd60e51b815260040161049f906121e6565b8151835114610c7e5760405162461bcd60e51b815260040161049f90612227565b33610c8e816000878787876115fc565b60005b8451811015610d2957838181518110610cac57610cac61212a565b6020026020010151600080878481518110610cc957610cc961212a565b602002602001015181526020019081526020016000206000886001600160a01b03166001600160a01b031681526020019081526020016000206000828254610d11919061226f565b90915550819050610d2181612156565b915050610c91565b50846001600160a01b031660006001600160a01b0316826001600160a01b03167f4a39dc06d4c0dbc64b70af90fd698a233a518aa5d07e595d983b8c0526c8f7fb8787604051610d7a929190612287565b60405180910390a461065081600087878787611650565b8151835114610db25760405162461bcd60e51b815260040161049f90612227565b6001600160a01b038416610dd85760405162461bcd60e51b815260040161049f906122b5565b33610de78187878787876115fc565b60005b8451811015610ecd576000858281518110610e0757610e0761212a565b602002602001015190506000858381518110610e2557610e2561212a565b602090810291909101810151600084815280835260408082206001600160a01b038e168352909352919091205490915081811015610e755760405162461bcd60e51b815260040161049f906122fa565b6000838152602081815260408083206001600160a01b038e8116855292528083208585039055908b16825281208054849290610eb290849061226f565b9250508190555050505080610ec690612156565b9050610dea565b50846001600160a01b0316866001600160a01b0316826001600160a01b03167f4a39dc06d4c0dbc64b70af90fd698a233a518aa5d07e595d983b8c0526c8f7fb8787604051610f1d929190612287565b60405180910390a4610f33818787878787611650565b505050505050565b610f458282610aa9565b6105015760008281526003602090815260408083206001600160a01b03851684529091529020805460ff19166001179055610f7d3390565b6001600160a01b0316816001600160a01b0316837f2f8788117e7eff1d82e926ec794901d17c78024a50270940304540a733656f0d60405160405180910390a45050565b610fcb8282610aa9565b156105015760008281526003602090815260408083206001600160a01b0385168085529252808320805460ff1916905551339285917ff6391f5c32d9c69d2a47ea670b442974b53935d1edc7fd64eb21e047a839171b9190a45050565b60045460ff166110715760405162461bcd60e51b815260206004820152601460248201527314185d5cd8589b194e881b9bdd081c185d5cd95960621b604482015260640161049f565b6004805460ff191690557f5db9ee0a495bf2e6ff9c91a7834c1ba4fdd244a5e8aa4e537bd38aeae4b073aa335b6040516001600160a01b03909116815260200160405180910390a1565b6001600160a01b0384166110e15760405162461bcd60e51b815260040161049f906121e6565b33611101816000876110f2886117ac565b6110fb886117ac565b876115fc565b6000848152602081815260408083206001600160a01b03891684529091528120805485929061113190849061226f565b909155505060408051858152602081018590526001600160a01b0380881692600092918516917fc3d58168c5ae7397731d063d5bbf3d657854427343f4c083240f7aacaa2d0f62910160405180910390a4610650816000878787876117f7565b60045460ff16156111d75760405162461bcd60e51b815260206004820152601060248201526f14185d5cd8589b194e881c185d5cd95960821b604482015260640161049f565b6004805460ff191660011790557f62e78cea01bee320cd4e420270b5ea74000d11b0c9f74754ebdbfc544b05a25861109e3390565b816001600160a01b0316836001600160a01b031614156112805760405162461bcd60e51b815260206004820152602960248201527f455243313135353a2073657474696e6720617070726f76616c20737461747573604482015268103337b91039b2b63360b91b606482015260840161049f565b6001600160a01b03838116600081815260016020908152604080832094871680845294825291829020805460ff191686151590811790915591519182527f17307eab39ab6107e8899845ad3d59bd9653f200f220920489ca2b5937696c31910160405180910390a3505050565b6001600160a01b0384166113135760405162461bcd60e51b815260040161049f906122b5565b336113238187876110f2886117ac565b6000848152602081815260408083206001600160a01b038a168452909152902054838110156113645760405162461bcd60e51b815260040161049f906122fa565b6000858152602081815260408083206001600160a01b038b81168552925280832087850390559088168252812080548692906113a190849061226f565b909155505060408051868152602081018690526001600160a01b03808916928a821692918616917fc3d58168c5ae7397731d063d5bbf3d657854427343f4c083240f7aacaa2d0f62910160405180910390a46114018288888888886117f7565b50505050505050565b60006001600160e01b03198216636cdb3d1360e11b148061143b57506001600160e01b031982166303a24d0760e21b145b806104d957506301ffc9a760e01b6001600160e01b03198316146104d9565b60606000611469836002612344565b61147490600261226f565b6001600160401b0381111561148b5761148b611ad0565b6040519080825280601f01601f1916602001820160405280156114b5576020820181803683370190505b509050600360fc1b816000815181106114d0576114d061212a565b60200101906001600160f81b031916908160001a905350600f60fb1b816001815181106114ff576114ff61212a565b60200101906001600160f81b031916908160001a9053506000611523846002612344565b61152e90600161226f565b90505b60018111156115a6576f181899199a1a9b1b9c1cb0b131b232b360811b85600f16601081106115625761156261212a565b1a60f81b8282815181106115785761157861212a565b60200101906001600160f81b031916908160001a90535060049490941c9361159f81612363565b9050611531565b5083156115f55760405162461bcd60e51b815260206004820181905260248201527f537472696e67733a20686578206c656e67746820696e73756666696369656e74604482015260640161049f565b9392505050565b60045460ff16156116425760405162461bcd60e51b815260206004820152601060248201526f14185d5cd8589b194e881c185d5cd95960821b604482015260640161049f565b610f338686868686866118b2565b6001600160a01b0384163b15610f335760405163bc197c8160e01b81526001600160a01b0385169063bc197c8190611694908990899088908890889060040161237a565b6020604051808303816000875af19250505080156116cf575060408051601f3d908101601f191682019092526116cc918101906123d8565b60015b61177c576116db6123f5565b806308c379a0141561171557506116f0612411565b806116fb5750611717565b8060405162461bcd60e51b815260040161049f9190611c19565b505b60405162461bcd60e51b815260206004820152603460248201527f455243313135353a207472616e7366657220746f206e6f6e20455243313135356044820152732932b1b2b4bb32b91034b6b83632b6b2b73a32b960611b606482015260840161049f565b6001600160e01b0319811663bc197c8160e01b146114015760405162461bcd60e51b815260040161049f9061249a565b604080516001808252818301909252606091600091906020808301908036833701905050905082816000815181106117e6576117e661212a565b602090810291909101015292915050565b6001600160a01b0384163b15610f335760405163f23a6e6160e01b81526001600160a01b0385169063f23a6e619061183b90899089908890889088906004016124e2565b6020604051808303816000875af1925050508015611876575060408051601f3d908101601f19168201909252611873918101906123d8565b60015b611882576116db6123f5565b6001600160e01b0319811663f23a6e6160e01b146114015760405162461bcd60e51b815260040161049f9061249a565b6001600160a01b0385166119395760005b8351811015611937578281815181106118de576118de61212a565b6020026020010151600560008684815181106118fc576118fc61212a565b602002602001015181526020019081526020016000206000828254611921919061226f565b90915550611930905081612156565b90506118c3565b505b6001600160a01b038416610f335760005b8351811015611401578281815181106119655761196561212a565b6020026020010151600560008684815181106119835761198361212a565b6020026020010151815260200190815260200160002060008282546119a89190612527565b909155506119b7905081612156565b905061194a565b8280546119ca906120ef565b90600052602060002090601f0160209004810192826119ec5760008555611a32565b82601f10611a0557805160ff1916838001178555611a32565b82800160010185558215611a32579182015b82811115611a32578251825591602001919060010190611a17565b50611a3e929150611a42565b5090565b5b80821115611a3e5760008155600101611a43565b80356001600160a01b0381168114611a6e57600080fd5b919050565b60008060408385031215611a8657600080fd5b611a8f83611a57565b946020939093013593505050565b6001600160e01b0319811681146107ad57600080fd5b600060208284031215611ac557600080fd5b81356115f581611a9d565b634e487b7160e01b600052604160045260246000fd5b601f8201601f191681016001600160401b0381118282101715611b0b57611b0b611ad0565b6040525050565b600082601f830112611b2357600080fd5b81356001600160401b03811115611b3c57611b3c611ad0565b604051611b53601f8301601f191660200182611ae6565b818152846020838601011115611b6857600080fd5b816020850160208301376000918101602001919091529392505050565b600060208284031215611b9757600080fd5b81356001600160401b03811115611bad57600080fd5b611bb984828501611b12565b949350505050565b60005b83811015611bdc578181015183820152602001611bc4565b83811115610aa35750506000910152565b60008151808452611c05816020860160208601611bc1565b601f01601f19169290920160200192915050565b6020815260006115f56020830184611bed565b600060208284031215611c3e57600080fd5b5035919050565b60006001600160401b03821115611c5e57611c5e611ad0565b5060051b60200190565b600082601f830112611c7957600080fd5b81356020611c8682611c45565b604051611c938282611ae6565b83815260059390931b8501820192828101915086841115611cb357600080fd5b8286015b84811015611cce5780358352918301918301611cb7565b509695505050505050565b60008060008060808587031215611cef57600080fd5b611cf885611a57565b935060208501356001600160401b0380821115611d1457600080fd5b611d2088838901611c68565b94506040870135915080821115611d3657600080fd5b611d4288838901611c68565b93506060870135915080821115611d5857600080fd5b50611d6587828801611b12565b91505092959194509250565b600080600080600060a08688031215611d8957600080fd5b611d9286611a57565b9450611da060208701611a57565b935060408601356001600160401b0380821115611dbc57600080fd5b611dc889838a01611c68565b94506060880135915080821115611dde57600080fd5b611dea89838a01611c68565b93506080880135915080821115611e0057600080fd5b50611e0d88828901611b12565b9150509295509295909350565b60008060408385031215611e2d57600080fd5b82359150611e3d60208401611a57565b90509250929050565b60008060408385031215611e5957600080fd5b82356001600160401b0380821115611e7057600080fd5b818501915085601f830112611e8457600080fd5b81356020611e9182611c45565b604051611e9e8282611ae6565b83815260059390931b8501820192828101915089841115611ebe57600080fd5b948201945b83861015611ee357611ed486611a57565b82529482019490820190611ec3565b96505086013592505080821115611ef957600080fd5b50611f0685828601611c68565b9150509250929050565b600081518084526020808501945080840160005b83811015611f4057815187529582019590820190600101611f24565b509495945050505050565b6020815260006115f56020830184611f10565b60008060008060808587031215611f7457600080fd5b611f7d85611a57565b9350602085013592506040850135915060608501356001600160401b03811115611fa657600080fd5b611d6587828801611b12565b600080600060608486031215611fc757600080fd5b611fd084611a57565b925060208401356001600160401b0380821115611fec57600080fd5b611ff887838801611b12565b9350604086013591508082111561200e57600080fd5b5061201b86828701611b12565b9150509250925092565b6000806040838503121561203857600080fd5b61204183611a57565b91506020830135801515811461205657600080fd5b809150509250929050565b6000806040838503121561207457600080fd5b61207d83611a57565b9150611e3d60208401611a57565b600080600080600060a086880312156120a357600080fd5b6120ac86611a57565b94506120ba60208701611a57565b9350604086013592506060860135915060808601356001600160401b038111156120e357600080fd5b611e0d88828901611b12565b600181811c9082168061210357607f821691505b6020821081141561212457634e487b7160e01b600052602260045260246000fd5b50919050565b634e487b7160e01b600052603260045260246000fd5b634e487b7160e01b600052601160045260246000fd5b600060001982141561216a5761216a612140565b5060010190565b7f416363657373436f6e74726f6c3a206163636f756e74200000000000000000008152600083516121a9816017850160208801611bc1565b7001034b99036b4b9b9b4b733903937b6329607d1b60179184019182015283516121da816028840160208801611bc1565b01602801949350505050565b60208082526021908201527f455243313135353a206d696e7420746f20746865207a65726f206164647265736040820152607360f81b606082015260800190565b60208082526028908201527f455243313135353a2069647320616e6420616d6f756e7473206c656e677468206040820152670dad2e6dac2e8c6d60c31b606082015260800190565b6000821982111561228257612282612140565b500190565b60408152600061229a6040830185611f10565b82810360208401526122ac8185611f10565b95945050505050565b60208082526025908201527f455243313135353a207472616e7366657220746f20746865207a65726f206164604082015264647265737360d81b606082015260800190565b6020808252602a908201527f455243313135353a20696e73756666696369656e742062616c616e636520666f60408201526939103a3930b739b332b960b11b606082015260800190565b600081600019048311821515161561235e5761235e612140565b500290565b60008161237257612372612140565b506000190190565b6001600160a01b0386811682528516602082015260a0604082018190526000906123a690830186611f10565b82810360608401526123b88186611f10565b905082810360808401526123cc8185611bed565b98975050505050505050565b6000602082840312156123ea57600080fd5b81516115f581611a9d565b600060033d111561240e5760046000803e5060005160e01c5b90565b600060443d101561241f5790565b6040516003193d81016004833e81513d6001600160401b03816024840111818411171561244e57505050505090565b82850191508151818111156124665750505050505090565b843d87010160208285010111156124805750505050505090565b61248f60208286010187611ae6565b509095945050505050565b60208082526028908201527f455243313135353a204552433131353552656365697665722072656a656374656040820152676420746f6b656e7360c01b606082015260800190565b6001600160a01b03868116825285166020820152604081018490526060810183905260a06080820181905260009061251c90830184611bed565b979650505050505050565b60008282101561253957612539612140565b50039056fe7804d923f43a17d325d77e781528e0793b2edd9890ab45fc64efd7b4b427744c65d7a28e3265b37a6474929f336521b332c1681b933f6cb9f3376673440d862a9f2df0fed2c77648de5860a4cc508cd0818c85b8b8a1ab4ceeef8d981c8956a6a2646970667358221220328a98c4cbae84328a77f73f4e862ea227f2f0d4bfa52f3dd76d2c937584157d64736f6c634300080a0033",
  "linkReferences": {},
  "deployedLinkReferences": {}
}