{
  "_format": "hh-sol-artifact-1",
  "contractName": "TokenFactoryBase",
  "sourceName": "contracts/factories/token/TokenFactoryBase.sol",
  "abi": [
    {
      "inputs": [
        {
          "internalType": "address",
          "name": "factoryManager_",
          "type": "address"
        },
        {
          "internalType": "address",
          "name": "implementationERC20_",
          "type": "address"
        },
        {
          "internalType": "address",
          "name": "implementationERC1155_",
          "type": "address"
        }
      ],
      "stateMutability": "nonpayable",
      "type": "constructor"
    },
    {
      "anonymous": false,
      "inputs": [
        {
          "indexed": true,
          "internalType": "address",
          "name": "previousOwner",
          "type": "address"
        },
        {
          "indexed": true,
          "internalType": "address",
          "name": "newOwner",
          "type": "address"
        }
      ],
      "name": "OwnershipTransferred",
      "type": "event"
    },
    {
      "anonymous": false,
      "inputs": [
        {
          "indexed": true,
          "internalType": "address",
          "name": "owner",
          "type": "address"
        },
        {
          "indexed": true,
          "internalType": "address",
          "name": "token",
          "type": "address"
        },
        {
          "indexed": false,
          "internalType": "uint8",
          "name": "tokenType",
          "type": "uint8"
        }
      ],
      "name": "TokenCreated",
      "type": "event"
    },
    {
      "inputs": [],
      "name": "factoryManager",
      "outputs": [
        {
          "internalType": "address",
          "name": "",
          "type": "address"
        }
      ],
      "stateMutability": "view",
      "type": "function"
    },
    {
      "inputs": [],
      "name": "feeTo",
      "outputs": [
        {
          "internalType": "address",
          "name": "",
          "type": "address"
        }
      ],
      "stateMutability": "view",
      "type": "function"
    },
    {
      "inputs": [],
      "name": "flatFee",
      "outputs": [
        {
          "internalType": "uint256",
          "name": "",
          "type": "uint256"
        }
      ],
      "stateMutability": "view",
      "type": "function"
    },
    {
      "inputs": [],
      "name": "implementationERC1155",
      "outputs": [
        {
          "internalType": "address",
          "name": "",
          "type": "address"
        }
      ],
      "stateMutability": "view",
      "type": "function"
    },
    {
      "inputs": [],
      "name": "implementationERC20",
      "outputs": [
        {
          "internalType": "address",
          "name": "",
          "type": "address"
        }
      ],
      "stateMutability": "view",
      "type": "function"
    },
    {
      "inputs": [],
      "name": "owner",
      "outputs": [
        {
          "internalType": "address",
          "name": "",
          "type": "address"
        }
      ],
      "stateMutability": "view",
      "type": "function"
    },
    {
      "inputs": [],
      "name": "renounceOwnership",
      "outputs": [],
      "stateMutability": "nonpayable",
      "type": "function"
    },
    {
      "inputs": [
        {
          "internalType": "address",
          "name": "feeReceivingAddress",
          "type": "address"
        }
      ],
      "name": "setFeeTo",
      "outputs": [],
      "stateMutability": "nonpayable",
      "type": "function"
    },
    {
      "inputs": [
        {
          "internalType": "uint256",
          "name": "fee",
          "type": "uint256"
        }
      ],
      "name": "setFlatFee",
      "outputs": [],
      "stateMutability": "nonpayable",
      "type": "function"
    },
    {
      "inputs": [
        {
          "internalType": "address",
          "name": "implementation_",
          "type": "address"
        }
      ],
      "name": "setImplementationERC1155",
      "outputs": [],
      "stateMutability": "nonpayable",
      "type": "function"
    },
    {
      "inputs": [
        {
          "internalType": "address",
          "name": "implementation_",
          "type": "address"
        }
      ],
      "name": "setImplementationERC20",
      "outputs": [],
      "stateMutability": "nonpayable",
      "type": "function"
    },
    {
      "inputs": [
        {
          "internalType": "address",
          "name": "newOwner",
          "type": "address"
        }
      ],
      "name": "transferOwnership",
      "outputs": [],
      "stateMutability": "nonpayable",
      "type": "function"
    }
  ],
  "bytecode": "0x608060405234801561001057600080fd5b506040516105f83803806105f883398101604081905261002f91610102565b61003833610096565b60018055600280546001600160a01b039485166001600160a01b03199182161790915560038054938516938216939093179092556004805491909316908216179091556005805490911633179055662386f26fc10000600655610145565b600080546001600160a01b038381166001600160a01b0319831681178455604051919092169283917f8be0079c531659141344cd1fd0a4f28419497f9722a3daafe3b4186f6b6457e09190a35050565b80516001600160a01b03811681146100fd57600080fd5b919050565b60008060006060848603121561011757600080fd5b610120846100e6565b925061012e602085016100e6565b915061013c604085016100e6565b90509250925092565b6104a4806101546000396000f3fe608060405234801561001057600080fd5b50600436106100b45760003560e01c806374b055f91161007157806374b055f91461013f5780638da5cb5b14610152578063c4576ff014610163578063d9eb594714610176578063f2fde38b1461018d578063f46901ed146101a057600080fd5b8063017e7e58146100b9578063032b5a73146100e95780630845e771146100fc57806323fa495a1461010f5780635b22b26814610124578063715018a614610137575b600080fd5b6005546100cc906001600160a01b031681565b6040516001600160a01b0390911681526020015b60405180910390f35b6002546100cc906001600160a01b031681565b6004546100cc906001600160a01b031681565b61012261011d3660046103f0565b6101b3565b005b6003546100cc906001600160a01b031681565b6101226101eb565b61012261014d366004610409565b610221565b6000546001600160a01b03166100cc565b610122610171366004610409565b61026d565b61017f60065481565b6040519081526020016100e0565b61012261019b366004610409565b6102b9565b6101226101ae366004610409565b610354565b6000546001600160a01b031633146101e65760405162461bcd60e51b81526004016101dd90610439565b60405180910390fd5b600655565b6000546001600160a01b031633146102155760405162461bcd60e51b81526004016101dd90610439565b61021f60006103a0565b565b6000546001600160a01b0316331461024b5760405162461bcd60e51b81526004016101dd90610439565b600380546001600160a01b0319166001600160a01b0392909216919091179055565b6000546001600160a01b031633146102975760405162461bcd60e51b81526004016101dd90610439565b600480546001600160a01b0319166001600160a01b0392909216919091179055565b6000546001600160a01b031633146102e35760405162461bcd60e51b81526004016101dd90610439565b6001600160a01b0381166103485760405162461bcd60e51b815260206004820152602660248201527f4f776e61626c653a206e6577206f776e657220697320746865207a65726f206160448201526564647265737360d01b60648201526084016101dd565b610351816103a0565b50565b6000546001600160a01b0316331461037e5760405162461bcd60e51b81526004016101dd90610439565b600580546001600160a01b0319166001600160a01b0392909216919091179055565b600080546001600160a01b038381166001600160a01b0319831681178455604051919092169283917f8be0079c531659141344cd1fd0a4f28419497f9722a3daafe3b4186f6b6457e09190a35050565b60006020828403121561040257600080fd5b5035919050565b60006020828403121561041b57600080fd5b81356001600160a01b038116811461043257600080fd5b9392505050565b6020808252818101527f4f776e61626c653a2063616c6c6572206973206e6f7420746865206f776e657260408201526060019056fea26469706673582212202d59336d62897d1efe527df9a00c3d25b7aeddbc81fe3ff0755d56131721a11b64736f6c634300080a0033",
  "linkReferences": {},
  "deployedLinkReferences": {}
}