{
  "contractName": "Factory",
  "abi": [
    {
      "inputs": [
        {
          "internalType": "address",
          "name": "tokenA",
          "type": "address"
        },
        {
          "internalType": "address",
          "name": "tokenB",
          "type": "address"
        }
      ],
      "name": "createPair",
      "outputs": [
        {
          "internalType": "address",
          "name": "pair",
          "type": "address"
        }
      ],
      "stateMutability": "nonpayable",
      "type": "function"
    }
  ],
  "bytecode": "0x608060405234801561001057600080fd5b50610162806100206000396000f3fe608060405234801561001057600080fd5b506004361061002b5760003560e01c8063c9c6539614610030575b600080fd5b61004a6004803603810190610045919061007d565b610060565b60405161005791906100c8565b60405180910390f35b600092915050565b60008135905061007781610115565b92915050565b6000806040838503121561009057600080fd5b600061009e85828601610068565b92505060206100af85828601610068565b9150509250929050565b6100c2816100e3565b82525050565b60006020820190506100dd60008301846100b9565b92915050565b60006100ee826100f5565b9050919050565b600073ffffffffffffffffffffffffffffffffffffffff82169050919050565b61011e816100e3565b811461012957600080fd5b5056fea2646970667358221220b5c943dfaddd31dcfa6e6f56a7365548950a8e4cd73d579284beeda12b08418064736f6c63430008000033",
  "immutableReferences": {},
  "source": "pragma solidity ^0.8.0;\n\ncontract Factory {\n  function createPair(address tokenA, address tokenB) external returns (address pair) {}\n}\n",
  "sourcePath": "/home/machado/Documents/projetos/pinksale-contracts/contracts/interfaces/Factory.sol",
  "compiler": {
    "name": "solc",
    "version": "0.8.0+commit.c7dfd78e.Emscripten.clang"
  },
  "schemaVersion": "3.4.1",
  "updatedAt": "2021-11-28T01:05:57.997Z",
  "devdoc": {
    "kind": "dev",
    "methods": {},
    "version": 1
  },
  "userdoc": {
    "kind": "user",
    "methods": {},
    "version": 1
  }
}