{
  "contractName": "LiquidityGeneratorTokenFactory",
  "abi": [
    {
      "inputs": [
        {
          "internalType": "address",
          "name": "factoryManager_",
          "type": "address"
        },
        {
          "internalType": "address",
          "name": "implementation_",
          "type": "address"
        }
      ],
      "stateMutability": "nonpayable",
      "type": "constructor"
    },
    {
      "anonymous": false,
      "inputs": [
        {
          "indexed": true,
          "internalType": "address",
          "name": "previousOwner",
          "type": "address"
        },
        {
          "indexed": true,
          "internalType": "address",
          "name": "newOwner",
          "type": "address"
        }
      ],
      "name": "OwnershipTransferred",
      "type": "event"
    },
    {
      "anonymous": false,
      "inputs": [
        {
          "indexed": true,
          "internalType": "address",
          "name": "owner",
          "type": "address"
        },
        {
          "indexed": true,
          "internalType": "address",
          "name": "token",
          "type": "address"
        },
        {
          "indexed": false,
          "internalType": "uint8",
          "name": "tokenType",
          "type": "uint8"
        }
      ],
      "name": "TokenCreated",
      "type": "event"
    },
    {
      "inputs": [],
      "name": "factoryManager",
      "outputs": [
        {
          "internalType": "address",
          "name": "",
          "type": "address"
        }
      ],
      "stateMutability": "view",
      "type": "function"
    },
    {
      "inputs": [],
      "name": "feeTo",
      "outputs": [
        {
          "internalType": "address",
          "name": "",
          "type": "address"
        }
      ],
      "stateMutability": "view",
      "type": "function"
    },
    {
      "inputs": [],
      "name": "flatFee",
      "outputs": [
        {
          "internalType": "uint256",
          "name": "",
          "type": "uint256"
        }
      ],
      "stateMutability": "view",
      "type": "function"
    },
    {
      "inputs": [],
      "name": "implementation",
      "outputs": [
        {
          "internalType": "address",
          "name": "",
          "type": "address"
        }
      ],
      "stateMutability": "view",
      "type": "function"
    },
    {
      "inputs": [],
      "name": "owner",
      "outputs": [
        {
          "internalType": "address",
          "name": "",
          "type": "address"
        }
      ],
      "stateMutability": "view",
      "type": "function"
    },
    {
      "inputs": [],
      "name": "renounceOwnership",
      "outputs": [],
      "stateMutability": "nonpayable",
      "type": "function"
    },
    {
      "inputs": [
        {
          "internalType": "address",
          "name": "feeReceivingAddress",
          "type": "address"
        }
      ],
      "name": "setFeeTo",
      "outputs": [],
      "stateMutability": "nonpayable",
      "type": "function"
    },
    {
      "inputs": [
        {
          "internalType": "uint256",
          "name": "fee",
          "type": "uint256"
        }
      ],
      "name": "setFlatFee",
      "outputs": [],
      "stateMutability": "nonpayable",
      "type": "function"
    },
    {
      "inputs": [
        {
          "internalType": "address",
          "name": "implementation_",
          "type": "address"
        }
      ],
      "name": "setImplementation",
      "outputs": [],
      "stateMutability": "nonpayable",
      "type": "function"
    },
    {
      "inputs": [
        {
          "internalType": "address",
          "name": "newOwner",
          "type": "address"
        }
      ],
      "name": "transferOwnership",
      "outputs": [],
      "stateMutability": "nonpayable",
      "type": "function"
    },
    {
      "inputs": [
        {
          "internalType": "string",
          "name": "name",
          "type": "string"
        },
        {
          "internalType": "string",
          "name": "symbol",
          "type": "string"
        },
        {
          "internalType": "uint256",
          "name": "totalSupply",
          "type": "uint256"
        },
        {
          "internalType": "address",
          "name": "router",
          "type": "address"
        },
        {
          "internalType": "address",
          "name": "charity",
          "type": "address"
        },
        {
          "internalType": "uint16",
          "name": "taxFeeBps",
          "type": "uint16"
        },
        {
          "internalType": "uint16",
          "name": "liquidityFeeBps",
          "type": "uint16"
        },
        {
          "internalType": "uint16",
          "name": "charityBps",
          "type": "uint16"
        },
        {
          "internalType": "uint16",
          "name": "maxTxBps",
          "type": "uint16"
        }
      ],
      "name": "create",
      "outputs": [
        {
          "internalType": "address",
          "name": "token",
          "type": "address"
        }
      ],
      "stateMutability": "payable",
      "type": "function"
    }
  ],
  "bytecode": "0x60806040523480156200001157600080fd5b50604051620018023803806200180283398181016040528101906200003791906200021e565b8181620000596200004d6200013b60201b60201c565b6200014360201b60201c565b6001808190555081600260006101000a81548173ffffffffffffffffffffffffffffffffffffffff021916908373ffffffffffffffffffffffffffffffffffffffff16021790555080600360006101000a81548173ffffffffffffffffffffffffffffffffffffffff021916908373ffffffffffffffffffffffffffffffffffffffff16021790555033600460006101000a81548173ffffffffffffffffffffffffffffffffffffffff021916908373ffffffffffffffffffffffffffffffffffffffff160217905550662386f26fc1000060058190555050505050620002ad565b600033905090565b60008060009054906101000a900473ffffffffffffffffffffffffffffffffffffffff169050816000806101000a81548173ffffffffffffffffffffffffffffffffffffffff021916908373ffffffffffffffffffffffffffffffffffffffff1602179055508173ffffffffffffffffffffffffffffffffffffffff168173ffffffffffffffffffffffffffffffffffffffff167f8be0079c531659141344cd1fd0a4f28419497f9722a3daafe3b4186f6b6457e060405160405180910390a35050565b600081519050620002188162000293565b92915050565b600080604083850312156200023257600080fd5b6000620002428582860162000207565b9250506020620002558582860162000207565b9150509250929050565b60006200026c8262000273565b9050919050565b600073ffffffffffffffffffffffffffffffffffffffff82169050919050565b6200029e816200025f565b8114620002aa57600080fd5b50565b61154580620002bd6000396000f3fe60806040526004361061009c5760003560e01c8063715018a611610064578063715018a61461017b5780638da5cb5b14610192578063d784d426146101bd578063d9eb5947146101e6578063f2fde38b14610211578063f46901ed1461023a5761009c565b8063017e7e58146100a1578063032b5a73146100cc57806323fa495a146100f75780634a3cef63146101205780635c60da1b14610150575b600080fd5b3480156100ad57600080fd5b506100b6610263565b6040516100c391906110e2565b60405180910390f35b3480156100d857600080fd5b506100e1610289565b6040516100ee91906110e2565b60405180910390f35b34801561010357600080fd5b5061011e60048036038101906101199190610dfa565b6102af565b005b61013a60048036038101906101359190610d04565b610335565b60405161014791906110e2565b60405180910390f35b34801561015c57600080fd5b5061016561054f565b60405161017291906110e2565b60405180910390f35b34801561018757600080fd5b50610190610575565b005b34801561019e57600080fd5b506101a76105fd565b6040516101b491906110e2565b60405180910390f35b3480156101c957600080fd5b506101e460048036038101906101df9190610cdb565b610626565b005b3480156101f257600080fd5b506101fb6106e6565b60405161020891906112d9565b60405180910390f35b34801561021d57600080fd5b5061023860048036038101906102339190610cdb565b6106ec565b005b34801561024657600080fd5b50610261600480360381019061025c9190610cdb565b6107e4565b005b600460009054906101000a900473ffffffffffffffffffffffffffffffffffffffff1681565b600260009054906101000a900473ffffffffffffffffffffffffffffffffffffffff1681565b6102b76108a4565b73ffffffffffffffffffffffffffffffffffffffff166102d56105fd565b73ffffffffffffffffffffffffffffffffffffffff161461032b576040517f08c379a000000000000000000000000000000000000000000000000000000000815260040161032290611279565b60405180910390fd5b8060058190555050565b600060055434101561037c576040517f08c379a000000000000000000000000000000000000000000000000000000000815260040161037390611299565b60405180910390fd5b600260015414156103c2576040517f08c379a00000000000000000000000000000000000000000000000000000000081526004016103b9906112b9565b60405180910390fd5b60026001819055506103d26108ac565b61041f600554600460009054906101000a900473ffffffffffffffffffffffffffffffffffffffff1673ffffffffffffffffffffffffffffffffffffffff166108fb90919063ffffffff16565b61044a600360009054906101000a900473ffffffffffffffffffffffffffffffffffffffff166109ef565b90508073ffffffffffffffffffffffffffffffffffffffff1663b00544f6338c8c8c8c8c8c8c8c8c6040518b63ffffffff1660e01b81526004016104979a99989796959493929190611134565b600060405180830381600087803b1580156104b157600080fd5b505af11580156104c5573d6000803e3d6000fd5b505050506104d533826001610ac4565b8073ffffffffffffffffffffffffffffffffffffffff163373ffffffffffffffffffffffffffffffffffffffff167f49fab9e82f453b3b0e1b0e507a645552d8b351f9b3cb0c9a7b4df572780c6b2f600160405161053391906111de565b60405180910390a3600180819055509998505050505050505050565b600360009054906101000a900473ffffffffffffffffffffffffffffffffffffffff1681565b61057d6108a4565b73ffffffffffffffffffffffffffffffffffffffff1661059b6105fd565b73ffffffffffffffffffffffffffffffffffffffff16146105f1576040517f08c379a00000000000000000000000000000000000000000000000000000000081526004016105e890611279565b60405180910390fd5b6105fb6000610b5a565b565b60008060009054906101000a900473ffffffffffffffffffffffffffffffffffffffff16905090565b61062e6108a4565b73ffffffffffffffffffffffffffffffffffffffff1661064c6105fd565b73ffffffffffffffffffffffffffffffffffffffff16146106a2576040517f08c379a000000000000000000000000000000000000000000000000000000000815260040161069990611279565b60405180910390fd5b80600360006101000a81548173ffffffffffffffffffffffffffffffffffffffff021916908373ffffffffffffffffffffffffffffffffffffffff16021790555050565b60055481565b6106f46108a4565b73ffffffffffffffffffffffffffffffffffffffff166107126105fd565b73ffffffffffffffffffffffffffffffffffffffff1614610768576040517f08c379a000000000000000000000000000000000000000000000000000000000815260040161075f90611279565b60405180910390fd5b600073ffffffffffffffffffffffffffffffffffffffff168173ffffffffffffffffffffffffffffffffffffffff1614156107d8576040517f08c379a00000000000000000000000000000000000000000000000000000000081526004016107cf906111f9565b60405180910390fd5b6107e181610b5a565b50565b6107ec6108a4565b73ffffffffffffffffffffffffffffffffffffffff1661080a6105fd565b73ffffffffffffffffffffffffffffffffffffffff1614610860576040517f08c379a000000000000000000000000000000000000000000000000000000000815260040161085790611279565b60405180910390fd5b80600460006101000a81548173ffffffffffffffffffffffffffffffffffffffff021916908373ffffffffffffffffffffffffffffffffffffffff16021790555050565b600033905090565b60006108c360055434610c1e90919063ffffffff16565b905060008111156108f8576108f7813373ffffffffffffffffffffffffffffffffffffffff166108fb90919063ffffffff16565b5b50565b8047101561093e576040517f08c379a000000000000000000000000000000000000000000000000000000000815260040161093590611239565b60405180910390fd5b60008273ffffffffffffffffffffffffffffffffffffffff1682604051610964906110cd565b60006040518083038185875af1925050503d80600081146109a1576040519150601f19603f3d011682016040523d82523d6000602084013e6109a6565b606091505b50509050806109ea576040517f08c379a00000000000000000000000000000000000000000000000000000000081526004016109e190611219565b60405180910390fd5b505050565b60006040517f3d602d80600a3d3981f3363d3d373d3d3d363d7300000000000000000000000081528260601b60148201527f5af43d82803e903d91602b57fd5bf3000000000000000000000000000000000060288201526037816000f0915050600073ffffffffffffffffffffffffffffffffffffffff168173ffffffffffffffffffffffffffffffffffffffff161415610abf576040517f08c379a0000000000000000000000000000000000000000000000000000000008152600401610ab690611259565b60405180910390fd5b919050565b600260009054906101000a900473ffffffffffffffffffffffffffffffffffffffff1673ffffffffffffffffffffffffffffffffffffffff166328220dea8484846040518463ffffffff1660e01b8152600401610b23939291906110fd565b600060405180830381600087803b158015610b3d57600080fd5b505af1158015610b51573d6000803e3d6000fd5b50505050505050565b60008060009054906101000a900473ffffffffffffffffffffffffffffffffffffffff169050816000806101000a81548173ffffffffffffffffffffffffffffffffffffffff021916908373ffffffffffffffffffffffffffffffffffffffff1602179055508173ffffffffffffffffffffffffffffffffffffffff168173ffffffffffffffffffffffffffffffffffffffff167f8be0079c531659141344cd1fd0a4f28419497f9722a3daafe3b4186f6b6457e060405160405180910390a35050565b60008183610c2c919061137c565b905092915050565b6000610c47610c4284611325565b6112f4565b905082815260208101848484011115610c5f57600080fd5b610c6a848285611419565b509392505050565b600081359050610c81816114ca565b92915050565b600082601f830112610c9857600080fd5b8135610ca8848260208601610c34565b91505092915050565b600081359050610cc0816114e1565b92915050565b600081359050610cd5816114f8565b92915050565b600060208284031215610ced57600080fd5b6000610cfb84828501610c72565b91505092915050565b60008060008060008060008060006101208a8c031215610d2357600080fd5b60008a013567ffffffffffffffff811115610d3d57600080fd5b610d498c828d01610c87565b99505060208a013567ffffffffffffffff811115610d6657600080fd5b610d728c828d01610c87565b9850506040610d838c828d01610cc6565b9750506060610d948c828d01610c72565b9650506080610da58c828d01610c72565b95505060a0610db68c828d01610cb1565b94505060c0610dc78c828d01610cb1565b93505060e0610dd88c828d01610cb1565b925050610100610dea8c828d01610cb1565b9150509295985092959850929598565b600060208284031215610e0c57600080fd5b6000610e1a84828501610cc6565b91505092915050565b610e2c816113b0565b82525050565b610e3b81611407565b82525050565b6000610e4c82611355565b610e56818561136b565b9350610e66818560208601611428565b610e6f816114b9565b840191505092915050565b6000610e8760268361136b565b91507f4f776e61626c653a206e6577206f776e657220697320746865207a65726f206160008301527f64647265737300000000000000000000000000000000000000000000000000006020830152604082019050919050565b6000610eed603a8361136b565b91507f416464726573733a20756e61626c6520746f2073656e642076616c75652c207260008301527f6563697069656e74206d617920686176652072657665727465640000000000006020830152604082019050919050565b6000610f53601d8361136b565b91507f416464726573733a20696e73756666696369656e742062616c616e63650000006000830152602082019050919050565b6000610f9360168361136b565b91507f455243313136373a20637265617465206661696c6564000000000000000000006000830152602082019050919050565b6000610fd360208361136b565b91507f4f776e61626c653a2063616c6c6572206973206e6f7420746865206f776e65726000830152602082019050919050565b6000611013600083611360565b9150600082019050919050565b600061102d60088361136b565b91507f466c6174206665650000000000000000000000000000000000000000000000006000830152602082019050919050565b600061106d601f8361136b565b91507f5265656e7472616e637947756172643a207265656e7472616e742063616c6c006000830152602082019050919050565b6110a9816113c2565b82525050565b6110b8816113f0565b82525050565b6110c7816113fa565b82525050565b60006110d882611006565b9150819050919050565b60006020820190506110f76000830184610e23565b92915050565b60006060820190506111126000830186610e23565b61111f6020830185610e23565b61112c60408301846110be565b949350505050565b60006101408201905061114a600083018d610e23565b818103602083015261115c818c610e41565b90508181036040830152611170818b610e41565b905061117f606083018a6110af565b61118c6080830189610e23565b61119960a0830188610e23565b6111a660c08301876110a0565b6111b360e08301866110a0565b6111c16101008301856110a0565b6111cf6101208301846110a0565b9b9a5050505050505050505050565b60006020820190506111f36000830184610e32565b92915050565b6000602082019050818103600083015261121281610e7a565b9050919050565b6000602082019050818103600083015261123281610ee0565b9050919050565b6000602082019050818103600083015261125281610f46565b9050919050565b6000602082019050818103600083015261127281610f86565b9050919050565b6000602082019050818103600083015261129281610fc6565b9050919050565b600060208201905081810360008301526112b281611020565b9050919050565b600060208201905081810360008301526112d281611060565b9050919050565b60006020820190506112ee60008301846110af565b92915050565b6000604051905081810181811067ffffffffffffffff8211171561131b5761131a61148a565b5b8060405250919050565b600067ffffffffffffffff8211156113405761133f61148a565b5b601f19601f8301169050602081019050919050565b600081519050919050565b600081905092915050565b600082825260208201905092915050565b6000611387826113f0565b9150611392836113f0565b9250828210156113a5576113a461145b565b5b828203905092915050565b60006113bb826113d0565b9050919050565b600061ffff82169050919050565b600073ffffffffffffffffffffffffffffffffffffffff82169050919050565b6000819050919050565b600060ff82169050919050565b6000611412826113fa565b9050919050565b82818337600083830152505050565b60005b8381101561144657808201518184015260208101905061142b565b83811115611455576000848401525b50505050565b7f4e487b7100000000000000000000000000000000000000000000000000000000600052601160045260246000fd5b7f4e487b7100000000000000000000000000000000000000000000000000000000600052604160045260246000fd5b6000601f19601f8301169050919050565b6114d3816113b0565b81146114de57600080fd5b50565b6114ea816113c2565b81146114f557600080fd5b50565b611501816113f0565b811461150c57600080fd5b5056fea2646970667358221220584e8fdc475b4bb8d4806ac80696f56ccabfe7f7d2c148b3374f163160a3b14e64736f6c63430008000033",
  "immutableReferences": {},
  "source": "// SPDX-License-Identifier: UNLICENSED\npragma solidity 0.8.0;\n\nimport \"@openzeppelin/contracts/proxy/Clones.sol\";\nimport \"@openzeppelin/contracts/utils/Address.sol\";\nimport \"./TokenFactoryBase.sol\";\nimport \"../../interfaces/ILiquidityGeneratorToken.sol\";\n\n\ncontract LiquidityGeneratorTokenFactory is TokenFactoryBase {\n  using Address for address payable;\n\n  constructor(address factoryManager_, address implementation_) TokenFactoryBase(factoryManager_, implementation_) {}\n\n  function create(\n    string memory name,\n    string memory symbol,\n    uint256 totalSupply,\n    address router,\n    address charity,\n    uint16 taxFeeBps, \n    uint16 liquidityFeeBps,\n    uint16 charityBps,\n    uint16 maxTxBps\n  ) external payable enoughFee nonReentrant returns (address token) {\n    refundExcessiveFee();\n    payable(feeTo).sendValue(flatFee);\n    token = Clones.clone(implementation);\n    ILiquidityGeneratorToken(token).initialize(\n      msg.sender,\n      name,\n      symbol,\n      totalSupply,\n      router,\n      charity,\n      taxFeeBps,\n      liquidityFeeBps,\n      charityBps,\n      maxTxBps\n    );\n    assignTokenToOwner(msg.sender, token, 1);\n    emit TokenCreated(msg.sender, token, 1);\n  }\n}",
  "sourcePath": "/home/machado/Documents/projetos/pinksale-contracts/contracts/factories/token/LiquidityGeneratorTokenFactory.sol",
  "compiler": {
    "name": "solc",
    "version": "0.8.0+commit.c7dfd78e.Emscripten.clang"
  },
  "schemaVersion": "3.4.1",
  "updatedAt": "2021-11-28T01:05:57.961Z",
  "devdoc": {
    "kind": "dev",
    "methods": {
      "owner()": {
        "details": "Returns the address of the current owner."
      },
      "renounceOwnership()": {
        "details": "Leaves the contract without owner. It will not be possible to call `onlyOwner` functions anymore. Can only be called by the current owner. NOTE: Renouncing ownership will leave the contract without an owner, thereby removing any functionality that is only available to the owner."
      },
      "transferOwnership(address)": {
        "details": "Transfers ownership of the contract to a new account (`newOwner`). Can only be called by the current owner."
      }
    },
    "version": 1
  },
  "userdoc": {
    "kind": "user",
    "methods": {},
    "version": 1
  }
}