{
  "contractName": "LiquidityGeneratorToken",
  "abi": [
    {
      "inputs": [
        {
          "internalType": "address",
          "name": "owner_",
          "type": "address"
        },
        {
          "internalType": "string",
          "name": "name_",
          "type": "string"
        },
        {
          "internalType": "string",
          "name": "symbol_",
          "type": "string"
        },
        {
          "internalType": "uint256",
          "name": "totalSupply_",
          "type": "uint256"
        },
        {
          "internalType": "address",
          "name": "charityAddress_",
          "type": "address"
        },
        {
          "internalType": "uint16",
          "name": "taxFeeBps_",
          "type": "uint16"
        },
        {
          "internalType": "uint16",
          "name": "liquidityFeeBps_",
          "type": "uint16"
        },
        {
          "internalType": "uint16",
          "name": "charityFeeBps_",
          "type": "uint16"
        },
        {
          "internalType": "uint16",
          "name": "maxTxBps_",
          "type": "uint16"
        }
      ],
      "stateMutability": "nonpayable",
      "type": "constructor"
    },
    {
      "anonymous": false,
      "inputs": [
        {
          "indexed": true,
          "internalType": "address",
          "name": "owner",
          "type": "address"
        },
        {
          "indexed": true,
          "internalType": "address",
          "name": "spender",
          "type": "address"
        },
        {
          "indexed": false,
          "internalType": "uint256",
          "name": "value",
          "type": "uint256"
        }
      ],
      "name": "Approval",
      "type": "event"
    },
    {
      "anonymous": false,
      "inputs": [
        {
          "indexed": false,
          "internalType": "uint256",
          "name": "minTokensBeforeSwap",
          "type": "uint256"
        }
      ],
      "name": "MinTokensBeforeSwapUpdated",
      "type": "event"
    },
    {
      "anonymous": false,
      "inputs": [
        {
          "indexed": true,
          "internalType": "address",
          "name": "previousOwner",
          "type": "address"
        },
        {
          "indexed": true,
          "internalType": "address",
          "name": "newOwner",
          "type": "address"
        }
      ],
      "name": "OwnershipTransferred",
      "type": "event"
    },
    {
      "anonymous": false,
      "inputs": [
        {
          "indexed": false,
          "internalType": "uint256",
          "name": "tokensSwapped",
          "type": "uint256"
        },
        {
          "indexed": false,
          "internalType": "uint256",
          "name": "ethReceived",
          "type": "uint256"
        },
        {
          "indexed": false,
          "internalType": "uint256",
          "name": "tokensIntoLiqudity",
          "type": "uint256"
        }
      ],
      "name": "SwapAndLiquify",
      "type": "event"
    },
    {
      "anonymous": false,
      "inputs": [
        {
          "indexed": false,
          "internalType": "bool",
          "name": "enabled",
          "type": "bool"
        }
      ],
      "name": "SwapAndLiquifyEnabledUpdated",
      "type": "event"
    },
    {
      "anonymous": false,
      "inputs": [
        {
          "indexed": true,
          "internalType": "address",
          "name": "from",
          "type": "address"
        },
        {
          "indexed": true,
          "internalType": "address",
          "name": "to",
          "type": "address"
        },
        {
          "indexed": false,
          "internalType": "uint256",
          "name": "value",
          "type": "uint256"
        }
      ],
      "name": "Transfer",
      "type": "event"
    },
    {
      "inputs": [],
      "name": "_charityAddress",
      "outputs": [
        {
          "internalType": "address",
          "name": "",
          "type": "address"
        }
      ],
      "stateMutability": "view",
      "type": "function"
    },
    {
      "inputs": [],
      "name": "_charityFee",
      "outputs": [
        {
          "internalType": "uint256",
          "name": "",
          "type": "uint256"
        }
      ],
      "stateMutability": "view",
      "type": "function"
    },
    {
      "inputs": [],
      "name": "_liquidityFee",
      "outputs": [
        {
          "internalType": "uint256",
          "name": "",
          "type": "uint256"
        }
      ],
      "stateMutability": "view",
      "type": "function"
    },
    {
      "inputs": [],
      "name": "_maxTxAmount",
      "outputs": [
        {
          "internalType": "uint256",
          "name": "",
          "type": "uint256"
        }
      ],
      "stateMutability": "view",
      "type": "function"
    },
    {
      "inputs": [],
      "name": "_taxFee",
      "outputs": [
        {
          "internalType": "uint256",
          "name": "",
          "type": "uint256"
        }
      ],
      "stateMutability": "view",
      "type": "function"
    },
    {
      "inputs": [],
      "name": "owner",
      "outputs": [
        {
          "internalType": "address",
          "name": "",
          "type": "address"
        }
      ],
      "stateMutability": "view",
      "type": "function"
    },
    {
      "inputs": [],
      "name": "renounceOwnership",
      "outputs": [],
      "stateMutability": "nonpayable",
      "type": "function"
    },
    {
      "inputs": [],
      "name": "swapAndLiquifyEnabled",
      "outputs": [
        {
          "internalType": "bool",
          "name": "",
          "type": "bool"
        }
      ],
      "stateMutability": "view",
      "type": "function"
    },
    {
      "inputs": [
        {
          "internalType": "address",
          "name": "newOwner",
          "type": "address"
        }
      ],
      "name": "transferOwnership",
      "outputs": [],
      "stateMutability": "nonpayable",
      "type": "function"
    },
    {
      "stateMutability": "payable",
      "type": "receive"
    },
    {
      "inputs": [],
      "name": "name",
      "outputs": [
        {
          "internalType": "string",
          "name": "",
          "type": "string"
        }
      ],
      "stateMutability": "view",
      "type": "function"
    },
    {
      "inputs": [],
      "name": "symbol",
      "outputs": [
        {
          "internalType": "string",
          "name": "",
          "type": "string"
        }
      ],
      "stateMutability": "view",
      "type": "function"
    },
    {
      "inputs": [],
      "name": "decimals",
      "outputs": [
        {
          "internalType": "uint8",
          "name": "",
          "type": "uint8"
        }
      ],
      "stateMutability": "view",
      "type": "function"
    },
    {
      "inputs": [],
      "name": "totalSupply",
      "outputs": [
        {
          "internalType": "uint256",
          "name": "",
          "type": "uint256"
        }
      ],
      "stateMutability": "view",
      "type": "function"
    },
    {
      "inputs": [
        {
          "internalType": "address",
          "name": "account",
          "type": "address"
        }
      ],
      "name": "balanceOf",
      "outputs": [
        {
          "internalType": "uint256",
          "name": "",
          "type": "uint256"
        }
      ],
      "stateMutability": "view",
      "type": "function"
    },
    {
      "inputs": [
        {
          "internalType": "address",
          "name": "recipient",
          "type": "address"
        },
        {
          "internalType": "uint256",
          "name": "amount",
          "type": "uint256"
        }
      ],
      "name": "transfer",
      "outputs": [
        {
          "internalType": "bool",
          "name": "",
          "type": "bool"
        }
      ],
      "stateMutability": "nonpayable",
      "type": "function"
    },
    {
      "inputs": [
        {
          "internalType": "address",
          "name": "owner",
          "type": "address"
        },
        {
          "internalType": "address",
          "name": "spender",
          "type": "address"
        }
      ],
      "name": "allowance",
      "outputs": [
        {
          "internalType": "uint256",
          "name": "",
          "type": "uint256"
        }
      ],
      "stateMutability": "view",
      "type": "function"
    },
    {
      "inputs": [
        {
          "internalType": "address",
          "name": "spender",
          "type": "address"
        },
        {
          "internalType": "uint256",
          "name": "amount",
          "type": "uint256"
        }
      ],
      "name": "approve",
      "outputs": [
        {
          "internalType": "bool",
          "name": "",
          "type": "bool"
        }
      ],
      "stateMutability": "nonpayable",
      "type": "function"
    },
    {
      "inputs": [
        {
          "internalType": "address",
          "name": "sender",
          "type": "address"
        },
        {
          "internalType": "address",
          "name": "recipient",
          "type": "address"
        },
        {
          "internalType": "uint256",
          "name": "amount",
          "type": "uint256"
        }
      ],
      "name": "transferFrom",
      "outputs": [
        {
          "internalType": "bool",
          "name": "",
          "type": "bool"
        }
      ],
      "stateMutability": "nonpayable",
      "type": "function"
    },
    {
      "inputs": [
        {
          "internalType": "address",
          "name": "spender",
          "type": "address"
        },
        {
          "internalType": "uint256",
          "name": "addedValue",
          "type": "uint256"
        }
      ],
      "name": "increaseAllowance",
      "outputs": [
        {
          "internalType": "bool",
          "name": "",
          "type": "bool"
        }
      ],
      "stateMutability": "nonpayable",
      "type": "function"
    },
    {
      "inputs": [
        {
          "internalType": "address",
          "name": "spender",
          "type": "address"
        },
        {
          "internalType": "uint256",
          "name": "subtractedValue",
          "type": "uint256"
        }
      ],
      "name": "decreaseAllowance",
      "outputs": [
        {
          "internalType": "bool",
          "name": "",
          "type": "bool"
        }
      ],
      "stateMutability": "nonpayable",
      "type": "function"
    },
    {
      "inputs": [
        {
          "internalType": "address",
          "name": "account",
          "type": "address"
        }
      ],
      "name": "isExcludedFromReward",
      "outputs": [
        {
          "internalType": "bool",
          "name": "",
          "type": "bool"
        }
      ],
      "stateMutability": "view",
      "type": "function"
    },
    {
      "inputs": [],
      "name": "totalFees",
      "outputs": [
        {
          "internalType": "uint256",
          "name": "",
          "type": "uint256"
        }
      ],
      "stateMutability": "view",
      "type": "function"
    },
    {
      "inputs": [
        {
          "internalType": "uint256",
          "name": "tAmount",
          "type": "uint256"
        }
      ],
      "name": "deliver",
      "outputs": [],
      "stateMutability": "nonpayable",
      "type": "function"
    },
    {
      "inputs": [
        {
          "internalType": "uint256",
          "name": "tAmount",
          "type": "uint256"
        },
        {
          "internalType": "bool",
          "name": "deductTransferFee",
          "type": "bool"
        }
      ],
      "name": "reflectionFromToken",
      "outputs": [
        {
          "internalType": "uint256",
          "name": "",
          "type": "uint256"
        }
      ],
      "stateMutability": "view",
      "type": "function"
    },
    {
      "inputs": [
        {
          "internalType": "uint256",
          "name": "rAmount",
          "type": "uint256"
        }
      ],
      "name": "tokenFromReflection",
      "outputs": [
        {
          "internalType": "uint256",
          "name": "",
          "type": "uint256"
        }
      ],
      "stateMutability": "view",
      "type": "function"
    },
    {
      "inputs": [
        {
          "internalType": "address",
          "name": "account",
          "type": "address"
        }
      ],
      "name": "excludeFromReward",
      "outputs": [],
      "stateMutability": "nonpayable",
      "type": "function"
    },
    {
      "inputs": [
        {
          "internalType": "address",
          "name": "account",
          "type": "address"
        }
      ],
      "name": "includeInReward",
      "outputs": [],
      "stateMutability": "nonpayable",
      "type": "function"
    },
    {
      "inputs": [
        {
          "internalType": "address",
          "name": "account",
          "type": "address"
        }
      ],
      "name": "excludeFromFee",
      "outputs": [],
      "stateMutability": "nonpayable",
      "type": "function"
    },
    {
      "inputs": [
        {
          "internalType": "address",
          "name": "account",
          "type": "address"
        }
      ],
      "name": "includeInFee",
      "outputs": [],
      "stateMutability": "nonpayable",
      "type": "function"
    },
    {
      "inputs": [
        {
          "internalType": "address",
          "name": "account",
          "type": "address"
        },
        {
          "internalType": "bool",
          "name": "exclude",
          "type": "bool"
        }
      ],
      "name": "setExcludeFromMaxTx",
      "outputs": [],
      "stateMutability": "nonpayable",
      "type": "function"
    },
    {
      "inputs": [
        {
          "internalType": "address",
          "name": "account",
          "type": "address"
        }
      ],
      "name": "isExcludedFromMaxTx",
      "outputs": [
        {
          "internalType": "bool",
          "name": "",
          "type": "bool"
        }
      ],
      "stateMutability": "view",
      "type": "function"
    },
    {
      "inputs": [
        {
          "internalType": "uint256",
          "name": "taxFeeBps",
          "type": "uint256"
        }
      ],
      "name": "setTaxFeePercent",
      "outputs": [],
      "stateMutability": "nonpayable",
      "type": "function"
    },
    {
      "inputs": [
        {
          "internalType": "uint256",
          "name": "liquidityFeeBps",
          "type": "uint256"
        }
      ],
      "name": "setLiquidityFeePercent",
      "outputs": [],
      "stateMutability": "nonpayable",
      "type": "function"
    },
    {
      "inputs": [
        {
          "internalType": "uint256",
          "name": "maxTxBps",
          "type": "uint256"
        }
      ],
      "name": "setMaxTxPercent",
      "outputs": [],
      "stateMutability": "nonpayable",
      "type": "function"
    },
    {
      "inputs": [
        {
          "internalType": "bool",
          "name": "_enabled",
          "type": "bool"
        }
      ],
      "name": "setSwapAndLiquifyEnabled",
      "outputs": [],
      "stateMutability": "nonpayable",
      "type": "function"
    },
    {
      "inputs": [
        {
          "internalType": "address",
          "name": "account",
          "type": "address"
        }
      ],
      "name": "isExcludedFromFee",
      "outputs": [
        {
          "internalType": "bool",
          "name": "",
          "type": "bool"
        }
      ],
      "stateMutability": "view",
      "type": "function"
    }
  ],
  "bytecode": "0x60806040526072546073556074546075556076546077556000607b60156101000a81548160ff0219169083151502179055503480156200003e57600080fd5b50604051620065ad380380620065ad833981810160405281019062000064919062000d84565b60008461ffff16101580156200008057506127108461ffff1611155b620000c2576040517f08c379a0000000000000000000000000000000000000000000000000000000008152600401620000b990620011b0565b60405180910390fd5b60008361ffff1610158015620000de57506127108361ffff1611155b62000120576040517f08c379a00000000000000000000000000000000000000000000000000000000081526004016200011790620011f4565b60405180910390fd5b60008261ffff16101580156200013c57506127108261ffff1611155b6200017e576040517f08c379a00000000000000000000000000000000000000000000000000000000081526004016200017590620012c0565b60405180910390fd5b60008161ffff161180156200019957506127108161ffff1611155b620001db576040517f08c379a0000000000000000000000000000000000000000000000000000000008152600401620001d2906200127c565b60405180910390fd5b600073ffffffffffffffffffffffffffffffffffffffff168573ffffffffffffffffffffffffffffffffffffffff1614156200025c5760008261ffff16146200025b576040517f08c379a0000000000000000000000000000000000000000000000000000000008152600401620002529062001216565b60405180910390fd5b5b6127108284866200026e919062001377565b6200027a919062001377565b61ffff161115620002c2576040517f08c379a0000000000000000000000000000000000000000000000000000000008152600401620002b99062001238565b60405180910390fd5b620002d76200070260201b6200200a1760201c565b620002e8896200080160201b60201c565b87606f90805190602001906200030092919062000c1d565b5086607090805190602001906200031992919062000c1d565b506009607160006101000a81548160ff021916908360ff16021790555085606c81905550606c546000196200034f919062001542565b6000196200035e91906200144f565b606d819055508361ffff166072819055506072546073819055508261ffff1660748190555060745460758190555084607860006101000a81548173ffffffffffffffffffffffffffffffffffffffff021916908373ffffffffffffffffffffffffffffffffffffffff1602179055508161ffff166076819055506076546077819055506200041a612710620004068361ffff16896200091760201b620020f31790919060201c565b6200092f60201b620021091790919060201c565b607c8190555062000456612710620004426005896200091760201b620020f31790919060201c565b6200092f60201b620021091790919060201c565b607d81905550606d5460656000620004736200094760201b60201c565b73ffffffffffffffffffffffffffffffffffffffff1673ffffffffffffffffffffffffffffffffffffffff16815260200190815260200160002081905550600160686000620004c76200094760201b60201c565b73ffffffffffffffffffffffffffffffffffffffff1673ffffffffffffffffffffffffffffffffffffffff16815260200190815260200160002060006101000a81548160ff0219169083151502179055506001606860003073ffffffffffffffffffffffffffffffffffffffff1673ffffffffffffffffffffffffffffffffffffffff16815260200190815260200160002060006101000a81548160ff0219169083151502179055506001606960003073ffffffffffffffffffffffffffffffffffffffff1673ffffffffffffffffffffffffffffffffffffffff16815260200190815260200160002060006101000a81548160ff02191690831515021790555060016069600061dead73ffffffffffffffffffffffffffffffffffffffff1673ffffffffffffffffffffffffffffffffffffffff16815260200190815260200160002060006101000a81548160ff0219169083151502179055506001606960008073ffffffffffffffffffffffffffffffffffffffff1673ffffffffffffffffffffffffffffffffffffffff16815260200190815260200160002060006101000a81548160ff0219169083151502179055506200068a6200094760201b60201c565b73ffffffffffffffffffffffffffffffffffffffff16600073ffffffffffffffffffffffffffffffffffffffff167fddf252ad1be2c89b69c2b068fc378daa952ba7f163c4a11628f55a4df523b3ef606c54604051620006eb9190620012e2565b60405180910390a350505050505050505062001684565b600060019054906101000a900460ff168062000729575060008054906101000a900460ff16155b6200076b576040517f08c379a000000000000000000000000000000000000000000000000000000000815260040162000762906200125a565b60405180910390fd5b60008060019054906101000a900460ff161590508015620007bc576001600060016101000a81548160ff02191690831515021790555060016000806101000a81548160ff0219169083151502179055505b620007cc6200097160201b60201c565b620007dc62000a5060201b60201c565b8015620007fe5760008060016101000a81548160ff0219169083151502179055505b50565b6200081162000b4f60201b60201c565b73ffffffffffffffffffffffffffffffffffffffff16620008376200094760201b60201c565b73ffffffffffffffffffffffffffffffffffffffff161462000890576040517f08c379a000000000000000000000000000000000000000000000000000000000815260040162000887906200129e565b60405180910390fd5b600073ffffffffffffffffffffffffffffffffffffffff168173ffffffffffffffffffffffffffffffffffffffff16141562000903576040517f08c379a0000000000000000000000000000000000000000000000000000000008152600401620008fa90620011d2565b60405180910390fd5b620009148162000b5760201b60201c565b50565b60008183620009279190620013ee565b905092915050565b600081836200093f9190620013b6565b905092915050565b6000603360009054906101000a900473ffffffffffffffffffffffffffffffffffffffff16905090565b600060019054906101000a900460ff168062000998575060008054906101000a900460ff16155b620009da576040517f08c379a0000000000000000000000000000000000000000000000000000000008152600401620009d1906200125a565b60405180910390fd5b60008060019054906101000a900460ff16159050801562000a2b576001600060016101000a81548160ff02191690831515021790555060016000806101000a81548160ff0219169083151502179055505b801562000a4d5760008060016101000a81548160ff0219169083151502179055505b50565b600060019054906101000a900460ff168062000a77575060008054906101000a900460ff16155b62000ab9576040517f08c379a000000000000000000000000000000000000000000000000000000000815260040162000ab0906200125a565b60405180910390fd5b60008060019054906101000a900460ff16159050801562000b0a576001600060016101000a81548160ff02191690831515021790555060016000806101000a81548160ff0219169083151502179055505b62000b2a62000b1e62000b4f60201b60201c565b62000b5760201b60201c565b801562000b4c5760008060016101000a81548160ff0219169083151502179055505b50565b600033905090565b6000603360009054906101000a900473ffffffffffffffffffffffffffffffffffffffff16905081603360006101000a81548173ffffffffffffffffffffffffffffffffffffffff021916908373ffffffffffffffffffffffffffffffffffffffff1602179055508173ffffffffffffffffffffffffffffffffffffffff168173ffffffffffffffffffffffffffffffffffffffff167f8be0079c531659141344cd1fd0a4f28419497f9722a3daafe3b4186f6b6457e060405160405180910390a35050565b82805462000c2b906200150c565b90600052602060002090601f01602090048101928262000c4f576000855562000c9b565b82601f1062000c6a57805160ff191683800117855562000c9b565b8280016001018555821562000c9b579182015b8281111562000c9a57825182559160200191906001019062000c7d565b5b50905062000caa919062000cae565b5090565b5b8082111562000cc957600081600090555060010162000caf565b5090565b600062000ce462000cde8462001333565b620012ff565b90508281526020810184848401111562000cfd57600080fd5b62000d0a848285620014d6565b509392505050565b60008151905062000d238162001636565b92915050565b600082601f83011262000d3b57600080fd5b815162000d4d84826020860162000ccd565b91505092915050565b60008151905062000d678162001650565b92915050565b60008151905062000d7e816200166a565b92915050565b60008060008060008060008060006101208a8c03121562000da457600080fd5b600062000db48c828d0162000d12565b99505060208a015167ffffffffffffffff81111562000dd257600080fd5b62000de08c828d0162000d29565b98505060408a015167ffffffffffffffff81111562000dfe57600080fd5b62000e0c8c828d0162000d29565b975050606062000e1f8c828d0162000d6d565b965050608062000e328c828d0162000d12565b95505060a062000e458c828d0162000d56565b94505060c062000e588c828d0162000d56565b93505060e062000e6b8c828d0162000d56565b92505061010062000e7f8c828d0162000d56565b9150509295985092959850929598565b600062000e9e600f8362001366565b91507f496e76616c6964207461782066656500000000000000000000000000000000006000830152602082019050919050565b600062000ee060268362001366565b91507f4f776e61626c653a206e6577206f776e657220697320746865207a65726f206160008301527f64647265737300000000000000000000000000000000000000000000000000006020830152604082019050919050565b600062000f4860158362001366565b91507f496e76616c6964206c69717569646974792066656500000000000000000000006000830152602082019050919050565b600062000f8a604a8362001366565b91507f43616e742073657420626f74682063686172697479206164647265737320746f60008301527f2061646472657373203020616e6420636861726974792070657263656e74206d60208301527f6f7265207468616e2030000000000000000000000000000000000000000000006040830152606082019050919050565b60006200101860298362001366565b91507f546f74616c20666565206973206f7665722031303025206f66207472616e736660008301527f657220616d6f756e7400000000000000000000000000000000000000000000006020830152604082019050919050565b600062001080602e8362001366565b91507f496e697469616c697a61626c653a20636f6e747261637420697320616c72656160008301527f647920696e697469616c697a65640000000000000000000000000000000000006020830152604082019050919050565b6000620010e860158362001366565b91507f496e76616c6964206d617820747820616d6f756e7400000000000000000000006000830152602082019050919050565b60006200112a60208362001366565b91507f4f776e61626c653a2063616c6c6572206973206e6f7420746865206f776e65726000830152602082019050919050565b60006200116c60138362001366565b91507f496e76616c6964206368617269747920666565000000000000000000000000006000830152602082019050919050565b620011aa81620014cc565b82525050565b60006020820190508181036000830152620011cb8162000e8f565b9050919050565b60006020820190508181036000830152620011ed8162000ed1565b9050919050565b600060208201905081810360008301526200120f8162000f39565b9050919050565b60006020820190508181036000830152620012318162000f7b565b9050919050565b60006020820190508181036000830152620012538162001009565b9050919050565b60006020820190508181036000830152620012758162001071565b9050919050565b600060208201905081810360008301526200129781620010d9565b9050919050565b60006020820190508181036000830152620012b9816200111b565b9050919050565b60006020820190508181036000830152620012db816200115d565b9050919050565b6000602082019050620012f960008301846200119f565b92915050565b6000604051905081810181811067ffffffffffffffff8211171562001329576200132862001607565b5b8060405250919050565b600067ffffffffffffffff82111562001351576200135062001607565b5b601f19601f8301169050602081019050919050565b600082825260208201905092915050565b600062001384826200149e565b915062001391836200149e565b92508261ffff03821115620013ab57620013aa6200157a565b5b828201905092915050565b6000620013c382620014cc565b9150620013d083620014cc565b925082620013e357620013e2620015a9565b5b828204905092915050565b6000620013fb82620014cc565b91506200140883620014cc565b9250817fffffffffffffffffffffffffffffffffffffffffffffffffffffffffffffffff04831182151516156200144457620014436200157a565b5b828202905092915050565b60006200145c82620014cc565b91506200146983620014cc565b9250828210156200147f576200147e6200157a565b5b828203905092915050565b60006200149782620014ac565b9050919050565b600061ffff82169050919050565b600073ffffffffffffffffffffffffffffffffffffffff82169050919050565b6000819050919050565b60005b83811015620014f6578082015181840152602081019050620014d9565b8381111562001506576000848401525b50505050565b600060028204905060018216806200152557607f821691505b602082108114156200153c576200153b620015d8565b5b50919050565b60006200154f82620014cc565b91506200155c83620014cc565b9250826200156f576200156e620015a9565b5b828206905092915050565b7f4e487b7100000000000000000000000000000000000000000000000000000000600052601160045260246000fd5b7f4e487b7100000000000000000000000000000000000000000000000000000000600052601260045260246000fd5b7f4e487b7100000000000000000000000000000000000000000000000000000000600052602260045260246000fd5b7f4e487b7100000000000000000000000000000000000000000000000000000000600052604160045260246000fd5b62001641816200148a565b81146200164d57600080fd5b50565b6200165b816200149e565b81146200166757600080fd5b50565b6200167581620014cc565b81146200168157600080fd5b50565b614f1980620016946000396000f3fe6080604052600436106102135760003560e01c80635342acb4116101185780638ee88c53116100a0578063c49b9a801161006f578063c49b9a80146107f8578063d543dbeb14610821578063dd62ed3e1461084a578063ea2f0b3714610887578063f2fde38b146108b05761021a565b80638ee88c531461072a57806395d89b4114610753578063a457c2d71461077e578063a9059cbb146107bb5761021a565b806370a08231116100e757806370a0823114610643578063715018a6146106805780637d1db4a51461069757806388f82020146106c25780638da5cb5b146106ff5761021a565b80635342acb4146105755780635b89029c146105b2578063658c27a9146105db5780636bc87c3a146106185761021a565b80633685d4191161019b57806340f8007a1161016a57806340f8007a14610490578063437823ec146104bb5780634549b039146104e45780634a74bb021461052157806352390c021461054c5761021a565b80633685d419146103d657806339509351146103ff5780633b124fe71461043c5780633bd5d173146104675761021a565b806318160ddd116101e257806318160ddd146102db57806319a8ac9e1461030657806323b872dd146103315780632d8381191461036e578063313ce567146103ab5761021a565b8063061c82d01461021f57806306fdde0314610248578063095ea7b31461027357806313114a9d146102b05761021a565b3661021a57005b600080fd5b34801561022b57600080fd5b506102466004803603810190610241919061435b565b6108d9565b005b34801561025457600080fd5b5061025d6109b1565b60405161026a9190614967565b60405180910390f35b34801561027f57600080fd5b5061029a600480360381019061029591906142f6565b610a43565b6040516102a7919061494c565b60405180910390f35b3480156102bc57600080fd5b506102c5610a61565b6040516102d29190614b49565b60405180910390f35b3480156102e757600080fd5b506102f0610a6b565b6040516102fd9190614b49565b60405180910390f35b34801561031257600080fd5b5061031b610a75565b6040516103289190614931565b60405180910390f35b34801561033d57600080fd5b506103586004803603810190610353919061426b565b610a9b565b604051610365919061494c565b60405180910390f35b34801561037a57600080fd5b506103956004803603810190610390919061435b565b610b74565b6040516103a29190614b49565b60405180910390f35b3480156103b757600080fd5b506103c0610be2565b6040516103cd9190614b64565b60405180910390f35b3480156103e257600080fd5b506103fd60048036038101906103f89190614206565b610bf9565b005b34801561040b57600080fd5b50610426600480360381019061042191906142f6565b610fc7565b604051610433919061494c565b60405180910390f35b34801561044857600080fd5b5061045161107a565b60405161045e9190614b49565b60405180910390f35b34801561047357600080fd5b5061048e6004803603810190610489919061435b565b611080565b005b34801561049c57600080fd5b506104a56111fc565b6040516104b29190614b49565b60405180910390f35b3480156104c757600080fd5b506104e260048036038101906104dd9190614206565b611202565b005b3480156104f057600080fd5b5061050b60048036038101906105069190614384565b6112d9565b6040516105189190614b49565b60405180910390f35b34801561052d57600080fd5b5061053661135f565b604051610543919061494c565b60405180910390f35b34801561055857600080fd5b50610573600480360381019061056e9190614206565b611372565b005b34801561058157600080fd5b5061059c60048036038101906105979190614206565b61160d565b6040516105a9919061494c565b60405180910390f35b3480156105be57600080fd5b506105d960048036038101906105d491906142ba565b611663565b005b3480156105e757600080fd5b5061060260048036038101906105fd9190614206565b61173a565b60405161060f919061494c565b60405180910390f35b34801561062457600080fd5b5061062d611790565b60405161063a9190614b49565b60405180910390f35b34801561064f57600080fd5b5061066a60048036038101906106659190614206565b611796565b6040516106779190614b49565b60405180910390f35b34801561068c57600080fd5b50610695611881565b005b3480156106a357600080fd5b506106ac611909565b6040516106b99190614b49565b60405180910390f35b3480156106ce57600080fd5b506106e960048036038101906106e49190614206565b61190f565b6040516106f6919061494c565b60405180910390f35b34801561070b57600080fd5b50610714611965565b6040516107219190614931565b60405180910390f35b34801561073657600080fd5b50610751600480360381019061074c919061435b565b61198f565b005b34801561075f57600080fd5b50610768611a67565b6040516107759190614967565b60405180910390f35b34801561078a57600080fd5b506107a560048036038101906107a091906142f6565b611af9565b6040516107b2919061494c565b60405180910390f35b3480156107c757600080fd5b506107e260048036038101906107dd91906142f6565b611bc6565b6040516107ef919061494c565b60405180910390f35b34801561080457600080fd5b5061081f600480360381019061081a9190614332565b611be4565b005b34801561082d57600080fd5b506108486004803603810190610843919061435b565b611cb4565b005b34801561085657600080fd5b50610871600480360381019061086c919061422f565b611db4565b60405161087e9190614b49565b60405180910390f35b34801561089357600080fd5b506108ae60048036038101906108a99190614206565b611e3b565b005b3480156108bc57600080fd5b506108d760048036038101906108d29190614206565b611f12565b005b6108e161211f565b73ffffffffffffffffffffffffffffffffffffffff166108ff611965565b73ffffffffffffffffffffffffffffffffffffffff1614610955576040517f08c379a000000000000000000000000000000000000000000000000000000000815260040161094c90614a89565b60405180910390fd5b6000811015801561096857506127108111155b6109a7576040517f08c379a000000000000000000000000000000000000000000000000000000000815260040161099e90614ac9565b60405180910390fd5b8060728190555050565b6060606f80546109c090614d38565b80601f01602080910402602001604051908101604052809291908181526020018280546109ec90614d38565b8015610a395780601f10610a0e57610100808354040283529160200191610a39565b820191906000526020600020905b815481529060010190602001808311610a1c57829003601f168201915b5050505050905090565b6000610a57610a5061211f565b8484612127565b6001905092915050565b6000606e54905090565b6000606c54905090565b607860009054906101000a900473ffffffffffffffffffffffffffffffffffffffff1681565b6000610aa88484846122f2565b610b6984610ab461211f565b610b6485604051806060016040528060288152602001614e9760289139606760008b73ffffffffffffffffffffffffffffffffffffffff1673ffffffffffffffffffffffffffffffffffffffff1681526020019081526020016000206000610b1a61211f565b73ffffffffffffffffffffffffffffffffffffffff1673ffffffffffffffffffffffffffffffffffffffff168152602001908152602001600020546126a99092919063ffffffff16565b612127565b600190509392505050565b6000606d54821115610bbb576040517f08c379a0000000000000000000000000000000000000000000000000000000008152600401610bb2906149a9565b60405180910390fd5b6000610bc56126fe565b9050610bda818461210990919063ffffffff16565b915050919050565b6000607160009054906101000a900460ff16905090565b610c0161211f565b73ffffffffffffffffffffffffffffffffffffffff16610c1f611965565b73ffffffffffffffffffffffffffffffffffffffff1614610c75576040517f08c379a0000000000000000000000000000000000000000000000000000000008152600401610c6c90614a89565b60405180910390fd5b606a60008273ffffffffffffffffffffffffffffffffffffffff1673ffffffffffffffffffffffffffffffffffffffff16815260200190815260200160002060009054906101000a900460ff16610d01576040517f08c379a0000000000000000000000000000000000000000000000000000000008152600401610cf890614a09565b60405180910390fd5b60005b606b80549050811015610fc3578173ffffffffffffffffffffffffffffffffffffffff16606b8281548110610d62577f4e487b7100000000000000000000000000000000000000000000000000000000600052603260045260246000fd5b9060005260206000200160009054906101000a900473ffffffffffffffffffffffffffffffffffffffff1673ffffffffffffffffffffffffffffffffffffffff161415610fb057606b6001606b80549050610dbd9190614c7c565b81548110610df4577f4e487b7100000000000000000000000000000000000000000000000000000000600052603260045260246000fd5b9060005260206000200160009054906101000a900473ffffffffffffffffffffffffffffffffffffffff16606b8281548110610e59577f4e487b7100000000000000000000000000000000000000000000000000000000600052603260045260246000fd5b9060005260206000200160006101000a81548173ffffffffffffffffffffffffffffffffffffffff021916908373ffffffffffffffffffffffffffffffffffffffff1602179055506000606660008473ffffffffffffffffffffffffffffffffffffffff1673ffffffffffffffffffffffffffffffffffffffff168152602001908152602001600020819055506000606a60008473ffffffffffffffffffffffffffffffffffffffff1673ffffffffffffffffffffffffffffffffffffffff16815260200190815260200160002060006101000a81548160ff021916908315150217905550606b805480610f76577f4e487b7100000000000000000000000000000000000000000000000000000000600052603160045260246000fd5b6001900381819060005260206000200160006101000a81549073ffffffffffffffffffffffffffffffffffffffff02191690559055610fc3565b8080610fbb90614d6a565b915050610d04565b5050565b6000611070610fd461211f565b8461106b8560676000610fe561211f565b73ffffffffffffffffffffffffffffffffffffffff1673ffffffffffffffffffffffffffffffffffffffff16815260200190815260200160002060008973ffffffffffffffffffffffffffffffffffffffff1673ffffffffffffffffffffffffffffffffffffffff1681526020019081526020016000205461272990919063ffffffff16565b612127565b6001905092915050565b60725481565b600061108a61211f565b9050606a60008273ffffffffffffffffffffffffffffffffffffffff1673ffffffffffffffffffffffffffffffffffffffff16815260200190815260200160002060009054906101000a900460ff1615611119576040517f08c379a000000000000000000000000000000000000000000000000000000000815260040161111090614b29565b60405180910390fd5b60006111248361273f565b505050505050905061117e81606560008573ffffffffffffffffffffffffffffffffffffffff1673ffffffffffffffffffffffffffffffffffffffff168152602001908152602001600020546127a790919063ffffffff16565b606560008473ffffffffffffffffffffffffffffffffffffffff1673ffffffffffffffffffffffffffffffffffffffff168152602001908152602001600020819055506111d681606d546127a790919063ffffffff16565b606d819055506111f183606e5461272990919063ffffffff16565b606e81905550505050565b60765481565b61120a61211f565b73ffffffffffffffffffffffffffffffffffffffff16611228611965565b73ffffffffffffffffffffffffffffffffffffffff161461127e576040517f08c379a000000000000000000000000000000000000000000000000000000000815260040161127590614a89565b60405180910390fd5b6001606860008373ffffffffffffffffffffffffffffffffffffffff1673ffffffffffffffffffffffffffffffffffffffff16815260200190815260200160002060006101000a81548160ff02191690831515021790555050565b6000606c54831115611320576040517f08c379a000000000000000000000000000000000000000000000000000000000815260040161131790614a29565b60405180910390fd5b816113415760006113308461273f565b505050505050905080915050611359565b600061134c8461273f565b5050505050915050809150505b92915050565b607b60159054906101000a900460ff1681565b61137a61211f565b73ffffffffffffffffffffffffffffffffffffffff16611398611965565b73ffffffffffffffffffffffffffffffffffffffff16146113ee576040517f08c379a00000000000000000000000000000000000000000000000000000000081526004016113e590614a89565b60405180910390fd5b606a60008273ffffffffffffffffffffffffffffffffffffffff1673ffffffffffffffffffffffffffffffffffffffff16815260200190815260200160002060009054906101000a900460ff161561147b576040517f08c379a000000000000000000000000000000000000000000000000000000000815260040161147290614a09565b60405180910390fd5b6000606560008373ffffffffffffffffffffffffffffffffffffffff1673ffffffffffffffffffffffffffffffffffffffff16815260200190815260200160002054111561154f5761150b606560008373ffffffffffffffffffffffffffffffffffffffff1673ffffffffffffffffffffffffffffffffffffffff16815260200190815260200160002054610b74565b606660008373ffffffffffffffffffffffffffffffffffffffff1673ffffffffffffffffffffffffffffffffffffffff168152602001908152602001600020819055505b6001606a60008373ffffffffffffffffffffffffffffffffffffffff1673ffffffffffffffffffffffffffffffffffffffff16815260200190815260200160002060006101000a81548160ff021916908315150217905550606b819080600181540180825580915050600190039060005260206000200160009091909190916101000a81548173ffffffffffffffffffffffffffffffffffffffff021916908373ffffffffffffffffffffffffffffffffffffffff16021790555050565b6000606860008373ffffffffffffffffffffffffffffffffffffffff1673ffffffffffffffffffffffffffffffffffffffff16815260200190815260200160002060009054906101000a900460ff169050919050565b61166b61211f565b73ffffffffffffffffffffffffffffffffffffffff16611689611965565b73ffffffffffffffffffffffffffffffffffffffff16146116df576040517f08c379a00000000000000000000000000000000000000000000000000000000081526004016116d690614a89565b60405180910390fd5b80606960008473ffffffffffffffffffffffffffffffffffffffff1673ffffffffffffffffffffffffffffffffffffffff16815260200190815260200160002060006101000a81548160ff0219169083151502179055505050565b6000606960008373ffffffffffffffffffffffffffffffffffffffff1673ffffffffffffffffffffffffffffffffffffffff16815260200190815260200160002060009054906101000a900460ff169050919050565b60745481565b6000606a60008373ffffffffffffffffffffffffffffffffffffffff1673ffffffffffffffffffffffffffffffffffffffff16815260200190815260200160002060009054906101000a900460ff161561183157606660008373ffffffffffffffffffffffffffffffffffffffff1673ffffffffffffffffffffffffffffffffffffffff16815260200190815260200160002054905061187c565b611879606560008473ffffffffffffffffffffffffffffffffffffffff1673ffffffffffffffffffffffffffffffffffffffff16815260200190815260200160002054610b74565b90505b919050565b61188961211f565b73ffffffffffffffffffffffffffffffffffffffff166118a7611965565b73ffffffffffffffffffffffffffffffffffffffff16146118fd576040517f08c379a00000000000000000000000000000000000000000000000000000000081526004016118f490614a89565b60405180910390fd5b61190760006127bd565b565b607c5481565b6000606a60008373ffffffffffffffffffffffffffffffffffffffff1673ffffffffffffffffffffffffffffffffffffffff16815260200190815260200160002060009054906101000a900460ff169050919050565b6000603360009054906101000a900473ffffffffffffffffffffffffffffffffffffffff16905090565b61199761211f565b73ffffffffffffffffffffffffffffffffffffffff166119b5611965565b73ffffffffffffffffffffffffffffffffffffffff1614611a0b576040517f08c379a0000000000000000000000000000000000000000000000000000000008152600401611a0290614a89565b60405180910390fd5b60008110158015611a1e57506127108111155b611a5d576040517f08c379a0000000000000000000000000000000000000000000000000000000008152600401611a5490614ac9565b60405180910390fd5b8060748190555050565b606060708054611a7690614d38565b80601f0160208091040260200160405190810160405280929190818152602001828054611aa290614d38565b8015611aef5780601f10611ac457610100808354040283529160200191611aef565b820191906000526020600020905b815481529060010190602001808311611ad257829003601f168201915b5050505050905090565b6000611bbc611b0661211f565b84611bb785604051806060016040528060258152602001614ebf6025913960676000611b3061211f565b73ffffffffffffffffffffffffffffffffffffffff1673ffffffffffffffffffffffffffffffffffffffff16815260200190815260200160002060008a73ffffffffffffffffffffffffffffffffffffffff1673ffffffffffffffffffffffffffffffffffffffff168152602001908152602001600020546126a99092919063ffffffff16565b612127565b6001905092915050565b6000611bda611bd361211f565b84846122f2565b6001905092915050565b611bec61211f565b73ffffffffffffffffffffffffffffffffffffffff16611c0a611965565b73ffffffffffffffffffffffffffffffffffffffff1614611c60576040517f08c379a0000000000000000000000000000000000000000000000000000000008152600401611c5790614a89565b60405180910390fd5b80607b60156101000a81548160ff0219169083151502179055507f53726dfcaf90650aa7eb35524f4d3220f07413c8d6cb404cc8c18bf5591bc15981604051611ca9919061494c565b60405180910390a150565b611cbc61211f565b73ffffffffffffffffffffffffffffffffffffffff16611cda611965565b73ffffffffffffffffffffffffffffffffffffffff1614611d30576040517f08c379a0000000000000000000000000000000000000000000000000000000008152600401611d2790614a89565b60405180910390fd5b60008110158015611d4357506127108111155b611d82576040517f08c379a0000000000000000000000000000000000000000000000000000000008152600401611d7990614ac9565b60405180910390fd5b611dab612710611d9d83606c546120f390919063ffffffff16565b61210990919063ffffffff16565b607c8190555050565b6000606760008473ffffffffffffffffffffffffffffffffffffffff1673ffffffffffffffffffffffffffffffffffffffff16815260200190815260200160002060008373ffffffffffffffffffffffffffffffffffffffff1673ffffffffffffffffffffffffffffffffffffffff16815260200190815260200160002054905092915050565b611e4361211f565b73ffffffffffffffffffffffffffffffffffffffff16611e61611965565b73ffffffffffffffffffffffffffffffffffffffff1614611eb7576040517f08c379a0000000000000000000000000000000000000000000000000000000008152600401611eae90614a89565b60405180910390fd5b6000606860008373ffffffffffffffffffffffffffffffffffffffff1673ffffffffffffffffffffffffffffffffffffffff16815260200190815260200160002060006101000a81548160ff02191690831515021790555050565b611f1a61211f565b73ffffffffffffffffffffffffffffffffffffffff16611f38611965565b73ffffffffffffffffffffffffffffffffffffffff1614611f8e576040517f08c379a0000000000000000000000000000000000000000000000000000000008152600401611f8590614a89565b60405180910390fd5b600073ffffffffffffffffffffffffffffffffffffffff168173ffffffffffffffffffffffffffffffffffffffff161415611ffe576040517f08c379a0000000000000000000000000000000000000000000000000000000008152600401611ff5906149c9565b60405180910390fd5b612007816127bd565b50565b600060019054906101000a900460ff1680612030575060008054906101000a900460ff16155b61206f576040517f08c379a000000000000000000000000000000000000000000000000000000000815260040161206690614a69565b60405180910390fd5b60008060019054906101000a900460ff1615905080156120bf576001600060016101000a81548160ff02191690831515021790555060016000806101000a81548160ff0219169083151502179055505b6120c7612883565b6120cf61295c565b80156120f05760008060016101000a81548160ff0219169083151502179055505b50565b600081836121019190614c22565b905092915050565b600081836121179190614bf1565b905092915050565b600033905090565b600073ffffffffffffffffffffffffffffffffffffffff168373ffffffffffffffffffffffffffffffffffffffff161415612197576040517f08c379a000000000000000000000000000000000000000000000000000000000815260040161218e90614b09565b60405180910390fd5b600073ffffffffffffffffffffffffffffffffffffffff168273ffffffffffffffffffffffffffffffffffffffff161415612207576040517f08c379a00000000000000000000000000000000000000000000000000000000081526004016121fe906149e9565b60405180910390fd5b80606760008573ffffffffffffffffffffffffffffffffffffffff1673ffffffffffffffffffffffffffffffffffffffff16815260200190815260200160002060008473ffffffffffffffffffffffffffffffffffffffff1673ffffffffffffffffffffffffffffffffffffffff168152602001908152602001600020819055508173ffffffffffffffffffffffffffffffffffffffff168373ffffffffffffffffffffffffffffffffffffffff167f8c5be1e5ebec7d5bd14f71427d1e84f3dd0314c0f7b2291e5b200ac8c7c3b925836040516122e59190614b49565b60405180910390a3505050565b600073ffffffffffffffffffffffffffffffffffffffff168373ffffffffffffffffffffffffffffffffffffffff161415612362576040517f08c379a000000000000000000000000000000000000000000000000000000000815260040161235990614ae9565b60405180910390fd5b600073ffffffffffffffffffffffffffffffffffffffff168273ffffffffffffffffffffffffffffffffffffffff1614156123d2576040517f08c379a00000000000000000000000000000000000000000000000000000000081526004016123c990614989565b60405180910390fd5b60008111612415576040517f08c379a000000000000000000000000000000000000000000000000000000000815260040161240c90614aa9565b60405180910390fd5b61241d611965565b73ffffffffffffffffffffffffffffffffffffffff168373ffffffffffffffffffffffffffffffffffffffff161415801561248b575061245b611965565b73ffffffffffffffffffffffffffffffffffffffff168273ffffffffffffffffffffffffffffffffffffffff1614155b806125365750606960008473ffffffffffffffffffffffffffffffffffffffff1673ffffffffffffffffffffffffffffffffffffffff16815260200190815260200160002060009054906101000a900460ff161580156125355750606960008373ffffffffffffffffffffffffffffffffffffffff1673ffffffffffffffffffffffffffffffffffffffff16815260200190815260200160002060009054906101000a900460ff16155b5b1561258157607c54811115612580576040517f08c379a000000000000000000000000000000000000000000000000000000000815260040161257790614a49565b60405180910390fd5b5b600061258c30611796565b9050607c54811061259d57607c5490505b6000607d5482101590508080156125c15750607b60149054906101000a900460ff16155b80156125d95750607b60159054906101000a900460ff165b156125e457607d5491505b600060019050606860008773ffffffffffffffffffffffffffffffffffffffff1673ffffffffffffffffffffffffffffffffffffffff16815260200190815260200160002060009054906101000a900460ff168061268b5750606860008673ffffffffffffffffffffffffffffffffffffffff1673ffffffffffffffffffffffffffffffffffffffff16815260200190815260200160002060009054906101000a900460ff165b1561269557600090505b6126a186868684612a45565b505050505050565b60008383111582906126f1576040517f08c379a00000000000000000000000000000000000000000000000000000000081526004016126e89190614967565b60405180910390fd5b5082840390509392505050565b600080600061270b612d56565b91509150612722818361210990919063ffffffff16565b9250505090565b600081836127379190614b9b565b905092915050565b60008060008060008060008060008060006127598c6130a1565b9350935093509350600080600061277a8f8787876127756126fe565b613120565b925092509250828282898989899d509d509d509d509d509d509d5050505050505050919395979092949650565b600081836127b59190614c7c565b905092915050565b6000603360009054906101000a900473ffffffffffffffffffffffffffffffffffffffff16905081603360006101000a81548173ffffffffffffffffffffffffffffffffffffffff021916908373ffffffffffffffffffffffffffffffffffffffff1602179055508173ffffffffffffffffffffffffffffffffffffffff168173ffffffffffffffffffffffffffffffffffffffff167f8be0079c531659141344cd1fd0a4f28419497f9722a3daafe3b4186f6b6457e060405160405180910390a35050565b600060019054906101000a900460ff16806128a9575060008054906101000a900460ff16155b6128e8576040517f08c379a00000000000000000000000000000000000000000000000000000000081526004016128df90614a69565b60405180910390fd5b60008060019054906101000a900460ff161590508015612938576001600060016101000a81548160ff02191690831515021790555060016000806101000a81548160ff0219169083151502179055505b80156129595760008060016101000a81548160ff0219169083151502179055505b50565b600060019054906101000a900460ff1680612982575060008054906101000a900460ff16155b6129c1576040517f08c379a00000000000000000000000000000000000000000000000000000000081526004016129b890614a69565b60405180910390fd5b60008060019054906101000a900460ff161590508015612a11576001600060016101000a81548160ff02191690831515021790555060016000806101000a81548160ff0219169083151502179055505b612a21612a1c61211f565b6127bd565b8015612a425760008060016101000a81548160ff0219169083151502179055505b50565b80612a5357612a526131d4565b5b606a60008573ffffffffffffffffffffffffffffffffffffffff1673ffffffffffffffffffffffffffffffffffffffff16815260200190815260200160002060009054906101000a900460ff168015612af65750606a60008473ffffffffffffffffffffffffffffffffffffffff1673ffffffffffffffffffffffffffffffffffffffff16815260200190815260200160002060009054906101000a900460ff16155b15612b0b57612b06848484613236565b612d42565b606a60008573ffffffffffffffffffffffffffffffffffffffff1673ffffffffffffffffffffffffffffffffffffffff16815260200190815260200160002060009054906101000a900460ff16158015612bae5750606a60008473ffffffffffffffffffffffffffffffffffffffff1673ffffffffffffffffffffffffffffffffffffffff16815260200190815260200160002060009054906101000a900460ff165b15612bc357612bbe8484846134a4565b612d41565b606a60008573ffffffffffffffffffffffffffffffffffffffff1673ffffffffffffffffffffffffffffffffffffffff16815260200190815260200160002060009054906101000a900460ff16158015612c675750606a60008473ffffffffffffffffffffffffffffffffffffffff1673ffffffffffffffffffffffffffffffffffffffff16815260200190815260200160002060009054906101000a900460ff16155b15612c7c57612c77848484613712565b612d40565b606a60008573ffffffffffffffffffffffffffffffffffffffff1673ffffffffffffffffffffffffffffffffffffffff16815260200190815260200160002060009054906101000a900460ff168015612d1e5750606a60008473ffffffffffffffffffffffffffffffffffffffff1673ffffffffffffffffffffffffffffffffffffffff16815260200190815260200160002060009054906101000a900460ff165b15612d3357612d2e8484846138eb565b612d3f565b612d3e848484613712565b5b5b5b5b80612d5057612d4f613bee565b5b50505050565b6000806000606d5490506000606c54905060005b606b80549050811015613064578260656000606b8481548110612db6577f4e487b7100000000000000000000000000000000000000000000000000000000600052603260045260246000fd5b9060005260206000200160009054906101000a900473ffffffffffffffffffffffffffffffffffffffff1673ffffffffffffffffffffffffffffffffffffffff1673ffffffffffffffffffffffffffffffffffffffff168152602001908152602001600020541180612eca57508160666000606b8481548110612e62577f4e487b7100000000000000000000000000000000000000000000000000000000600052603260045260246000fd5b9060005260206000200160009054906101000a900473ffffffffffffffffffffffffffffffffffffffff1673ffffffffffffffffffffffffffffffffffffffff1673ffffffffffffffffffffffffffffffffffffffff16815260200190815260200160002054115b15612ee157606d54606c549450945050505061309d565b612f9760656000606b8481548110612f22577f4e487b7100000000000000000000000000000000000000000000000000000000600052603260045260246000fd5b9060005260206000200160009054906101000a900473ffffffffffffffffffffffffffffffffffffffff1673ffffffffffffffffffffffffffffffffffffffff1673ffffffffffffffffffffffffffffffffffffffff16815260200190815260200160002054846127a790919063ffffffff16565b925061304f60666000606b8481548110612fda577f4e487b7100000000000000000000000000000000000000000000000000000000600052603260045260246000fd5b9060005260206000200160009054906101000a900473ffffffffffffffffffffffffffffffffffffffff1673ffffffffffffffffffffffffffffffffffffffff1673ffffffffffffffffffffffffffffffffffffffff16815260200190815260200160002054836127a790919063ffffffff16565b9150808061305c90614d6a565b915050612d6a565b5061307c606c54606d5461210990919063ffffffff16565b82101561309457606d54606c5493509350505061309d565b81819350935050505b9091565b60008060008060006130b286613c0b565b905060006130bf87613c3d565b905060006130cc88613c6f565b90506000613107826130f9856130eb888e6127a790919063ffffffff16565b6127a790919063ffffffff16565b6127a790919063ffffffff16565b9050808484849750975097509750505050509193509193565b600080600080613139858a6120f390919063ffffffff16565b90506000613150868a6120f390919063ffffffff16565b90506000613167878a6120f390919063ffffffff16565b9050600061317e888a6120f390919063ffffffff16565b905060006131b9826131ab8561319d888a6127a790919063ffffffff16565b6127a790919063ffffffff16565b6127a790919063ffffffff16565b90508481859750975097505050505050955095509592505050565b60006072541480156131e857506000607454145b80156131f657506000607654145b1561320057613234565b6072546073819055506074546075819055506076546077819055506000607281905550600060748190555060006076819055505b565b600080600080600080600061324a8861273f565b96509650965096509650965096506132aa88606660008d73ffffffffffffffffffffffffffffffffffffffff1673ffffffffffffffffffffffffffffffffffffffff168152602001908152602001600020546127a790919063ffffffff16565b606660008c73ffffffffffffffffffffffffffffffffffffffff1673ffffffffffffffffffffffffffffffffffffffff1681526020019081526020016000208190555061333f87606560008d73ffffffffffffffffffffffffffffffffffffffff1673ffffffffffffffffffffffffffffffffffffffff168152602001908152602001600020546127a790919063ffffffff16565b606560008c73ffffffffffffffffffffffffffffffffffffffff1673ffffffffffffffffffffffffffffffffffffffff168152602001908152602001600020819055506133d486606560008c73ffffffffffffffffffffffffffffffffffffffff1673ffffffffffffffffffffffffffffffffffffffff1681526020019081526020016000205461272990919063ffffffff16565b606560008b73ffffffffffffffffffffffffffffffffffffffff1673ffffffffffffffffffffffffffffffffffffffff1681526020019081526020016000208190555061342082613d01565b61342981613ea6565b613433858461418d565b8873ffffffffffffffffffffffffffffffffffffffff168a73ffffffffffffffffffffffffffffffffffffffff167fddf252ad1be2c89b69c2b068fc378daa952ba7f163c4a11628f55a4df523b3ef866040516134909190614b49565b60405180910390a350505050505050505050565b60008060008060008060006134b88861273f565b965096509650965096509650965061351887606560008d73ffffffffffffffffffffffffffffffffffffffff1673ffffffffffffffffffffffffffffffffffffffff168152602001908152602001600020546127a790919063ffffffff16565b606560008c73ffffffffffffffffffffffffffffffffffffffff1673ffffffffffffffffffffffffffffffffffffffff168152602001908152602001600020819055506135ad84606660008c73ffffffffffffffffffffffffffffffffffffffff1673ffffffffffffffffffffffffffffffffffffffff1681526020019081526020016000205461272990919063ffffffff16565b606660008b73ffffffffffffffffffffffffffffffffffffffff1673ffffffffffffffffffffffffffffffffffffffff1681526020019081526020016000208190555061364286606560008c73ffffffffffffffffffffffffffffffffffffffff1673ffffffffffffffffffffffffffffffffffffffff1681526020019081526020016000205461272990919063ffffffff16565b606560008b73ffffffffffffffffffffffffffffffffffffffff1673ffffffffffffffffffffffffffffffffffffffff1681526020019081526020016000208190555061368e82613d01565b61369781613ea6565b6136a1858461418d565b8873ffffffffffffffffffffffffffffffffffffffff168a73ffffffffffffffffffffffffffffffffffffffff167fddf252ad1be2c89b69c2b068fc378daa952ba7f163c4a11628f55a4df523b3ef866040516136fe9190614b49565b60405180910390a350505050505050505050565b60008060008060008060006137268861273f565b965096509650965096509650965061378687606560008d73ffffffffffffffffffffffffffffffffffffffff1673ffffffffffffffffffffffffffffffffffffffff168152602001908152602001600020546127a790919063ffffffff16565b606560008c73ffffffffffffffffffffffffffffffffffffffff1673ffffffffffffffffffffffffffffffffffffffff1681526020019081526020016000208190555061381b86606560008c73ffffffffffffffffffffffffffffffffffffffff1673ffffffffffffffffffffffffffffffffffffffff1681526020019081526020016000205461272990919063ffffffff16565b606560008b73ffffffffffffffffffffffffffffffffffffffff1673ffffffffffffffffffffffffffffffffffffffff1681526020019081526020016000208190555061386782613d01565b61387081613ea6565b61387a858461418d565b8873ffffffffffffffffffffffffffffffffffffffff168a73ffffffffffffffffffffffffffffffffffffffff167fddf252ad1be2c89b69c2b068fc378daa952ba7f163c4a11628f55a4df523b3ef866040516138d79190614b49565b60405180910390a350505050505050505050565b60008060008060008060006138ff8861273f565b965096509650965096509650965061395f88606660008d73ffffffffffffffffffffffffffffffffffffffff1673ffffffffffffffffffffffffffffffffffffffff168152602001908152602001600020546127a790919063ffffffff16565b606660008c73ffffffffffffffffffffffffffffffffffffffff1673ffffffffffffffffffffffffffffffffffffffff168152602001908152602001600020819055506139f487606560008d73ffffffffffffffffffffffffffffffffffffffff1673ffffffffffffffffffffffffffffffffffffffff168152602001908152602001600020546127a790919063ffffffff16565b606560008c73ffffffffffffffffffffffffffffffffffffffff1673ffffffffffffffffffffffffffffffffffffffff16815260200190815260200160002081905550613a8984606660008c73ffffffffffffffffffffffffffffffffffffffff1673ffffffffffffffffffffffffffffffffffffffff1681526020019081526020016000205461272990919063ffffffff16565b606660008b73ffffffffffffffffffffffffffffffffffffffff1673ffffffffffffffffffffffffffffffffffffffff16815260200190815260200160002081905550613b1e86606560008c73ffffffffffffffffffffffffffffffffffffffff1673ffffffffffffffffffffffffffffffffffffffff1681526020019081526020016000205461272990919063ffffffff16565b606560008b73ffffffffffffffffffffffffffffffffffffffff1673ffffffffffffffffffffffffffffffffffffffff16815260200190815260200160002081905550613b6a82613d01565b613b7381613ea6565b613b7d858461418d565b8873ffffffffffffffffffffffffffffffffffffffff168a73ffffffffffffffffffffffffffffffffffffffff167fddf252ad1be2c89b69c2b068fc378daa952ba7f163c4a11628f55a4df523b3ef86604051613bda9190614b49565b60405180910390a350505050505050505050565b607354607281905550607554607481905550607754607681905550565b6000613c36612710613c28607254856120f390919063ffffffff16565b61210990919063ffffffff16565b9050919050565b6000613c68612710613c5a607454856120f390919063ffffffff16565b61210990919063ffffffff16565b9050919050565b60008073ffffffffffffffffffffffffffffffffffffffff16607860009054906101000a900473ffffffffffffffffffffffffffffffffffffffff1673ffffffffffffffffffffffffffffffffffffffff161415613cd05760009050613cfc565b613cf9612710613ceb607654856120f390919063ffffffff16565b61210990919063ffffffff16565b90505b919050565b6000613d0b6126fe565b90506000613d2282846120f390919063ffffffff16565b9050613d7681606560003073ffffffffffffffffffffffffffffffffffffffff1673ffffffffffffffffffffffffffffffffffffffff1681526020019081526020016000205461272990919063ffffffff16565b606560003073ffffffffffffffffffffffffffffffffffffffff1673ffffffffffffffffffffffffffffffffffffffff16815260200190815260200160002081905550606a60003073ffffffffffffffffffffffffffffffffffffffff1673ffffffffffffffffffffffffffffffffffffffff16815260200190815260200160002060009054906101000a900460ff1615613ea157613e5d83606660003073ffffffffffffffffffffffffffffffffffffffff1673ffffffffffffffffffffffffffffffffffffffff1681526020019081526020016000205461272990919063ffffffff16565b606660003073ffffffffffffffffffffffffffffffffffffffff1673ffffffffffffffffffffffffffffffffffffffff168152602001908152602001600020819055505b505050565b600081111561418a576000613eb96126fe565b90506000613ed082846120f390919063ffffffff16565b9050613f468160656000607860009054906101000a900473ffffffffffffffffffffffffffffffffffffffff1673ffffffffffffffffffffffffffffffffffffffff1673ffffffffffffffffffffffffffffffffffffffff1681526020019081526020016000205461272990919063ffffffff16565b60656000607860009054906101000a900473ffffffffffffffffffffffffffffffffffffffff1673ffffffffffffffffffffffffffffffffffffffff1673ffffffffffffffffffffffffffffffffffffffff16815260200190815260200160002081905550606a6000607860009054906101000a900473ffffffffffffffffffffffffffffffffffffffff1673ffffffffffffffffffffffffffffffffffffffff1673ffffffffffffffffffffffffffffffffffffffff16815260200190815260200160002060009054906101000a900460ff16156140f9576140938360666000607860009054906101000a900473ffffffffffffffffffffffffffffffffffffffff1673ffffffffffffffffffffffffffffffffffffffff1673ffffffffffffffffffffffffffffffffffffffff1681526020019081526020016000205461272990919063ffffffff16565b60666000607860009054906101000a900473ffffffffffffffffffffffffffffffffffffffff1673ffffffffffffffffffffffffffffffffffffffff1673ffffffffffffffffffffffffffffffffffffffff168152602001908152602001600020819055505b607860009054906101000a900473ffffffffffffffffffffffffffffffffffffffff1673ffffffffffffffffffffffffffffffffffffffff1661413a61211f565b73ffffffffffffffffffffffffffffffffffffffff167fddf252ad1be2c89b69c2b068fc378daa952ba7f163c4a11628f55a4df523b3ef8560405161417f9190614b49565b60405180910390a350505b50565b6141a282606d546127a790919063ffffffff16565b606d819055506141bd81606e5461272990919063ffffffff16565b606e819055505050565b6000813590506141d681614e51565b92915050565b6000813590506141eb81614e68565b92915050565b60008135905061420081614e7f565b92915050565b60006020828403121561421857600080fd5b6000614226848285016141c7565b91505092915050565b6000806040838503121561424257600080fd5b6000614250858286016141c7565b9250506020614261858286016141c7565b9150509250929050565b60008060006060848603121561428057600080fd5b600061428e868287016141c7565b935050602061429f868287016141c7565b92505060406142b0868287016141f1565b9150509250925092565b600080604083850312156142cd57600080fd5b60006142db858286016141c7565b92505060206142ec858286016141dc565b9150509250929050565b6000806040838503121561430957600080fd5b6000614317858286016141c7565b9250506020614328858286016141f1565b9150509250929050565b60006020828403121561434457600080fd5b6000614352848285016141dc565b91505092915050565b60006020828403121561436d57600080fd5b600061437b848285016141f1565b91505092915050565b6000806040838503121561439757600080fd5b60006143a5858286016141f1565b92505060206143b6858286016141dc565b9150509250929050565b6143c981614cb0565b82525050565b6143d881614cc2565b82525050565b60006143e982614b7f565b6143f38185614b8a565b9350614403818560208601614d05565b61440c81614e40565b840191505092915050565b6000614424602383614b8a565b91507f45524332303a207472616e7366657220746f20746865207a65726f206164647260008301527f65737300000000000000000000000000000000000000000000000000000000006020830152604082019050919050565b600061448a602a83614b8a565b91507f416d6f756e74206d757374206265206c657373207468616e20746f74616c207260008301527f65666c656374696f6e73000000000000000000000000000000000000000000006020830152604082019050919050565b60006144f0602683614b8a565b91507f4f776e61626c653a206e6577206f776e657220697320746865207a65726f206160008301527f64647265737300000000000000000000000000000000000000000000000000006020830152604082019050919050565b6000614556602283614b8a565b91507f45524332303a20617070726f766520746f20746865207a65726f20616464726560008301527f73730000000000000000000000000000000000000000000000000000000000006020830152604082019050919050565b60006145bc601b83614b8a565b91507f4163636f756e7420697320616c7265616479206578636c7564656400000000006000830152602082019050919050565b60006145fc601f83614b8a565b91507f416d6f756e74206d757374206265206c657373207468616e20737570706c79006000830152602082019050919050565b600061463c602883614b8a565b91507f5472616e7366657220616d6f756e74206578636565647320746865206d61785460008301527f78416d6f756e742e0000000000000000000000000000000000000000000000006020830152604082019050919050565b60006146a2602e83614b8a565b91507f496e697469616c697a61626c653a20636f6e747261637420697320616c72656160008301527f647920696e697469616c697a65640000000000000000000000000000000000006020830152604082019050919050565b6000614708602083614b8a565b91507f4f776e61626c653a2063616c6c6572206973206e6f7420746865206f776e65726000830152602082019050919050565b6000614748602983614b8a565b91507f5472616e7366657220616d6f756e74206d75737420626520677265617465722060008301527f7468616e207a65726f00000000000000000000000000000000000000000000006020830152604082019050919050565b60006147ae600b83614b8a565b91507f496e76616c6964206270730000000000000000000000000000000000000000006000830152602082019050919050565b60006147ee602583614b8a565b91507f45524332303a207472616e736665722066726f6d20746865207a65726f20616460008301527f64726573730000000000000000000000000000000000000000000000000000006020830152604082019050919050565b6000614854602483614b8a565b91507f45524332303a20617070726f76652066726f6d20746865207a65726f2061646460008301527f72657373000000000000000000000000000000000000000000000000000000006020830152604082019050919050565b60006148ba602c83614b8a565b91507f4578636c75646564206164647265737365732063616e6e6f742063616c6c207460008301527f6869732066756e6374696f6e00000000000000000000000000000000000000006020830152604082019050919050565b61491c81614cee565b82525050565b61492b81614cf8565b82525050565b600060208201905061494660008301846143c0565b92915050565b600060208201905061496160008301846143cf565b92915050565b6000602082019050818103600083015261498181846143de565b905092915050565b600060208201905081810360008301526149a281614417565b9050919050565b600060208201905081810360008301526149c28161447d565b9050919050565b600060208201905081810360008301526149e2816144e3565b9050919050565b60006020820190508181036000830152614a0281614549565b9050919050565b60006020820190508181036000830152614a22816145af565b9050919050565b60006020820190508181036000830152614a42816145ef565b9050919050565b60006020820190508181036000830152614a628161462f565b9050919050565b60006020820190508181036000830152614a8281614695565b9050919050565b60006020820190508181036000830152614aa2816146fb565b9050919050565b60006020820190508181036000830152614ac28161473b565b9050919050565b60006020820190508181036000830152614ae2816147a1565b9050919050565b60006020820190508181036000830152614b02816147e1565b9050919050565b60006020820190508181036000830152614b2281614847565b9050919050565b60006020820190508181036000830152614b42816148ad565b9050919050565b6000602082019050614b5e6000830184614913565b92915050565b6000602082019050614b796000830184614922565b92915050565b600081519050919050565b600082825260208201905092915050565b6000614ba682614cee565b9150614bb183614cee565b9250827fffffffffffffffffffffffffffffffffffffffffffffffffffffffffffffffff03821115614be657614be5614db3565b5b828201905092915050565b6000614bfc82614cee565b9150614c0783614cee565b925082614c1757614c16614de2565b5b828204905092915050565b6000614c2d82614cee565b9150614c3883614cee565b9250817fffffffffffffffffffffffffffffffffffffffffffffffffffffffffffffffff0483118215151615614c7157614c70614db3565b5b828202905092915050565b6000614c8782614cee565b9150614c9283614cee565b925082821015614ca557614ca4614db3565b5b828203905092915050565b6000614cbb82614cce565b9050919050565b60008115159050919050565b600073ffffffffffffffffffffffffffffffffffffffff82169050919050565b6000819050919050565b600060ff82169050919050565b60005b83811015614d23578082015181840152602081019050614d08565b83811115614d32576000848401525b50505050565b60006002820490506001821680614d5057607f821691505b60208210811415614d6457614d63614e11565b5b50919050565b6000614d7582614cee565b91507fffffffffffffffffffffffffffffffffffffffffffffffffffffffffffffffff821415614da857614da7614db3565b5b600182019050919050565b7f4e487b7100000000000000000000000000000000000000000000000000000000600052601160045260246000fd5b7f4e487b7100000000000000000000000000000000000000000000000000000000600052601260045260246000fd5b7f4e487b7100000000000000000000000000000000000000000000000000000000600052602260045260246000fd5b6000601f19601f8301169050919050565b614e5a81614cb0565b8114614e6557600080fd5b50565b614e7181614cc2565b8114614e7c57600080fd5b50565b614e8881614cee565b8114614e9357600080fd5b5056fe45524332303a207472616e7366657220616d6f756e74206578636565647320616c6c6f77616e636545524332303a2064656372656173656420616c6c6f77616e63652062656c6f77207a65726fa2646970667358221220670c727411ad92ca72bfddcc1ba7204a5294d23501faf7e737ff6cbf1cba90c964736f6c63430008000033",
  "immutableReferences": {},
  "source": "// SPDX-License-Identifier: Unlicensed\n\npragma solidity 0.8.0;\n\nimport \"@openzeppelin/contracts-upgradeable/token/ERC20/IERC20Upgradeable.sol\";\nimport \"@openzeppelin/contracts-upgradeable/access/OwnableUpgradeable.sol\";\nimport \"@openzeppelin/contracts/utils/math/SafeMath.sol\";\nimport \"@openzeppelin/contracts/utils/Address.sol\";\n\n\ncontract LiquidityGeneratorToken is IERC20Upgradeable, OwnableUpgradeable {\n    using SafeMath for uint256;\n    using Address for address;\n\n    mapping (address => uint256) private _rOwned;\n    mapping (address => uint256) private _tOwned;\n    mapping (address => mapping (address => uint256)) private _allowances;\n\n    mapping (address => bool) private _isExcludedFromFee;\n    mapping (address => bool) private _isExcludedFromMaxTx;\n    mapping (address => bool) private _isExcluded;\n    address[] private _excluded;\n   \n    uint256 private constant MAX = ~uint256(0);\n    uint256 private _tTotal;\n    uint256 private _rTotal;\n    uint256 private _tFeeTotal;\n\n    string private _name;\n    string private _symbol;\n    uint8 private _decimals;\n    \n    uint256 public _taxFee;\n    uint256 private _previousTaxFee = _taxFee;\n    \n    uint256 public _liquidityFee;\n    uint256 private _previousLiquidityFee = _liquidityFee;\n\n    uint256 public _charityFee;\n    uint256 private _previousCharityFee = _charityFee;\n\n    address public _charityAddress;\n\n    address private _swapFactory;\n    address private _swapRouter;\n    address private _swapPair;\n    \n    bool inSwapAndLiquify;\n    bool public swapAndLiquifyEnabled = false;\n    \n    uint256 public _maxTxAmount;\n    uint256 private numTokensSellToAddToLiquidity;\n    \n    event MinTokensBeforeSwapUpdated(uint256 minTokensBeforeSwap);\n    event SwapAndLiquifyEnabledUpdated(bool enabled);\n    event SwapAndLiquify(\n        uint256 tokensSwapped,\n        uint256 ethReceived,\n        uint256 tokensIntoLiqudity\n    );\n    \n    modifier lockTheSwap {\n        inSwapAndLiquify = true;\n        _;\n        inSwapAndLiquify = false;\n    }\n    \n    constructor (\n        address owner_,\n        string memory name_, \n        string memory symbol_, \n        uint256 totalSupply_, \n        address charityAddress_,\n        uint16 taxFeeBps_, \n        uint16 liquidityFeeBps_,\n        uint16 charityFeeBps_,\n        uint16 maxTxBps_\n    ) {\n        require(taxFeeBps_ >= 0 && taxFeeBps_ <= 10**4, \"Invalid tax fee\");\n        require(liquidityFeeBps_ >= 0 && liquidityFeeBps_ <= 10**4, \"Invalid liquidity fee\");\n        require(charityFeeBps_ >= 0 && charityFeeBps_ <= 10**4, \"Invalid charity fee\");\n        require(maxTxBps_ > 0 && maxTxBps_ <= 10**4, \"Invalid max tx amount\");\n        if (charityAddress_ == address(0)) {\n            require(charityFeeBps_ == 0, \"Cant set both charity address to address 0 and charity percent more than 0\");\n        }\n        require(taxFeeBps_ + liquidityFeeBps_ + charityFeeBps_ <= 10**4, \"Total fee is over 100% of transfer amount\");\n\n        OwnableUpgradeable.__Ownable_init();\n        transferOwnership(owner_); \n\n        _name = name_;\n        _symbol = symbol_;\n        _decimals = 9;\n\n        _tTotal = totalSupply_;\n        _rTotal = (MAX - (MAX % _tTotal));\n\n         _taxFee = taxFeeBps_;\n        _previousTaxFee = _taxFee;\n\n        _liquidityFee = liquidityFeeBps_;\n        _previousLiquidityFee = _liquidityFee;\n\n        _charityAddress = charityAddress_;\n        _charityFee = charityFeeBps_;\n        _previousCharityFee = _charityFee;\n\n        _maxTxAmount = totalSupply_.mul(maxTxBps_).div(10**4);\n        numTokensSellToAddToLiquidity = totalSupply_.mul(5).div(10**4); // 0.05%\n        \n        _rOwned[owner()] = _rTotal;\n        \n        // exclude owner and this contract from fee\n        _isExcludedFromFee[owner()] = true;\n        _isExcludedFromFee[address(this)] = true;\n\n        // exclude from max tx amount\n        _isExcludedFromMaxTx[address(this)] = true;\n        _isExcludedFromMaxTx[address(0xdead)] = true;\n        _isExcludedFromMaxTx[address(0)] = true;\n        \n        emit Transfer(address(0), owner(), _tTotal);\n    }\n\n    function name() public view returns (string memory) {\n        return _name;\n    }\n\n    function symbol() public view returns (string memory) {\n        return _symbol;\n    }\n\n    function decimals() public view returns (uint8) {\n        return _decimals;\n    }\n\n    function totalSupply() public view override returns (uint256) {\n        return _tTotal;\n    }\n\n    function balanceOf(address account) public view override returns (uint256) {\n        if (_isExcluded[account]) return _tOwned[account];\n        return tokenFromReflection(_rOwned[account]);\n    }\n\n    function transfer(address recipient, uint256 amount) public override returns (bool) {\n        _transfer(_msgSender(), recipient, amount);\n        return true;\n    }\n\n    function allowance(address owner, address spender) public view override returns (uint256) {\n        return _allowances[owner][spender];\n    }\n\n    function approve(address spender, uint256 amount) public override returns (bool) {\n        _approve(_msgSender(), spender, amount);\n        return true;\n    }\n\n    function transferFrom(address sender, address recipient, uint256 amount) public override returns (bool) {\n        _transfer(sender, recipient, amount);\n        _approve(sender, _msgSender(), _allowances[sender][_msgSender()].sub(amount, \"ERC20: transfer amount exceeds allowance\"));\n        return true;\n    }\n\n    function increaseAllowance(address spender, uint256 addedValue) public virtual returns (bool) {\n        _approve(_msgSender(), spender, _allowances[_msgSender()][spender].add(addedValue));\n        return true;\n    }\n\n    function decreaseAllowance(address spender, uint256 subtractedValue) public virtual returns (bool) {\n        _approve(_msgSender(), spender, _allowances[_msgSender()][spender].sub(subtractedValue, \"ERC20: decreased allowance below zero\"));\n        return true;\n    }\n\n    function isExcludedFromReward(address account) public view returns (bool) {\n        return _isExcluded[account];\n    }\n\n    function totalFees() public view returns (uint256) {\n        return _tFeeTotal;\n    }\n\n    function deliver(uint256 tAmount) public {\n        address sender = _msgSender();\n        require(!_isExcluded[sender], \"Excluded addresses cannot call this function\");\n        (uint256 rAmount,,,,,,) = _getValues(tAmount);\n        _rOwned[sender] = _rOwned[sender].sub(rAmount);\n        _rTotal = _rTotal.sub(rAmount);\n        _tFeeTotal = _tFeeTotal.add(tAmount);\n    }\n\n    function reflectionFromToken(uint256 tAmount, bool deductTransferFee) public view returns(uint256) {\n        require(tAmount <= _tTotal, \"Amount must be less than supply\");\n        if (!deductTransferFee) {\n            (uint256 rAmount,,,,,,) = _getValues(tAmount);\n            return rAmount;\n        } else {\n            (,uint256 rTransferAmount,,,,,) = _getValues(tAmount);\n            return rTransferAmount;\n        }\n    }\n\n    function tokenFromReflection(uint256 rAmount) public view returns(uint256) {\n        require(rAmount <= _rTotal, \"Amount must be less than total reflections\");\n        uint256 currentRate =  _getRate();\n        return rAmount.div(currentRate);\n    }\n\n    function excludeFromReward(address account) public onlyOwner() {\n        require(!_isExcluded[account], \"Account is already excluded\");\n        if(_rOwned[account] > 0) {\n            _tOwned[account] = tokenFromReflection(_rOwned[account]);\n        }\n        _isExcluded[account] = true;\n        _excluded.push(account);\n    }\n\n    function includeInReward(address account) external onlyOwner() {\n        require(_isExcluded[account], \"Account is already excluded\");\n        for (uint256 i = 0; i < _excluded.length; i++) {\n            if (_excluded[i] == account) {\n                _excluded[i] = _excluded[_excluded.length - 1];\n                _tOwned[account] = 0;\n                _isExcluded[account] = false;\n                _excluded.pop();\n                break;\n            }\n        }\n    }\n\n    function _transferBothExcluded(address sender, address recipient, uint256 tAmount) private {\n        (uint256 rAmount, uint256 rTransferAmount, uint256 rFee, uint256 tTransferAmount, uint256 tFee, uint256 tLiquidity, uint256 tCharity) = _getValues(tAmount);\n        _tOwned[sender] = _tOwned[sender].sub(tAmount);\n        _rOwned[sender] = _rOwned[sender].sub(rAmount);\n        _tOwned[recipient] = _tOwned[recipient].add(tTransferAmount);\n        _rOwned[recipient] = _rOwned[recipient].add(rTransferAmount);   \n        _takeLiquidity(tLiquidity);\n        _takeCharityFee(tCharity);\n        _reflectFee(rFee, tFee);\n        emit Transfer(sender, recipient, tTransferAmount);\n    }\n    \n    function excludeFromFee(address account) public onlyOwner {\n        _isExcludedFromFee[account] = true;\n    }\n    \n    function includeInFee(address account) public onlyOwner {\n        _isExcludedFromFee[account] = false;\n    }\n\n    function setExcludeFromMaxTx(address account, bool exclude) public onlyOwner { \n        _isExcludedFromMaxTx[account] = exclude;\n    }\n\n    function isExcludedFromMaxTx(address account) public view returns (bool) {\n        return _isExcludedFromMaxTx[account];\n    }\n    \n    function setTaxFeePercent(uint256 taxFeeBps) external onlyOwner() {\n        require(taxFeeBps >= 0 && taxFeeBps <= 10**4, \"Invalid bps\");\n        _taxFee = taxFeeBps;\n    }\n    \n    function setLiquidityFeePercent(uint256 liquidityFeeBps) external onlyOwner() {\n        require(liquidityFeeBps >= 0 && liquidityFeeBps <= 10**4, \"Invalid bps\");\n        _liquidityFee = liquidityFeeBps;\n    }\n\n    function setMaxTxPercent(uint256 maxTxBps) external onlyOwner() {\n        require(maxTxBps >= 0 && maxTxBps <= 10**4, \"Invalid bps\");\n        _maxTxAmount = _tTotal.mul(maxTxBps).div(10**4);\n    }\n\n    function setSwapAndLiquifyEnabled(bool _enabled) public onlyOwner {\n        swapAndLiquifyEnabled = _enabled;\n        emit SwapAndLiquifyEnabledUpdated(_enabled);\n    }\n    \n     //to recieve BNB from pancakeV2Router when swaping\n    receive() external payable {}\n\n    function _reflectFee(uint256 rFee, uint256 tFee) private {\n        _rTotal = _rTotal.sub(rFee);\n        _tFeeTotal = _tFeeTotal.add(tFee);\n    }\n\n    function _getValues(uint256 tAmount) private view returns (uint256, uint256, uint256, uint256, uint256, uint256, uint256) {\n        (uint256 tTransferAmount, uint256 tFee, uint256 tLiquidity, uint256 tCharity) = _getTValues(tAmount);\n        (uint256 rAmount, uint256 rTransferAmount, uint256 rFee) = _getRValues(tAmount, tFee, tLiquidity, tCharity, _getRate());\n        return (rAmount, rTransferAmount, rFee, tTransferAmount, tFee, tLiquidity, tCharity);\n    }\n\n    function _getTValues(uint256 tAmount) private view returns (uint256, uint256, uint256, uint256) {\n        uint256 tFee = calculateTaxFee(tAmount);\n        uint256 tLiquidity = calculateLiquidityFee(tAmount);\n        uint256 tCharityFee = calculateCharityFee(tAmount);\n        uint256 tTransferAmount = tAmount.sub(tFee).sub(tLiquidity).sub(tCharityFee);\n        return (tTransferAmount, tFee, tLiquidity, tCharityFee);\n    }\n\n    function _getRValues(uint256 tAmount, uint256 tFee, uint256 tLiquidity, uint256 tCharity, uint256 currentRate) private pure returns (uint256, uint256, uint256) {\n        uint256 rAmount = tAmount.mul(currentRate);\n        uint256 rFee = tFee.mul(currentRate);\n        uint256 rLiquidity = tLiquidity.mul(currentRate);\n        uint256 rCharity = tCharity.mul(currentRate);\n        uint256 rTransferAmount = rAmount.sub(rFee).sub(rLiquidity).sub(rCharity);\n        return (rAmount, rTransferAmount, rFee);\n    }\n\n    function _getRate() private view returns(uint256) {\n        (uint256 rSupply, uint256 tSupply) = _getCurrentSupply();\n        return rSupply.div(tSupply);\n    }\n\n    function _getCurrentSupply() private view returns(uint256, uint256) {\n        uint256 rSupply = _rTotal;\n        uint256 tSupply = _tTotal;      \n        for (uint256 i = 0; i < _excluded.length; i++) {\n            if (_rOwned[_excluded[i]] > rSupply || _tOwned[_excluded[i]] > tSupply) return (_rTotal, _tTotal);\n            rSupply = rSupply.sub(_rOwned[_excluded[i]]);\n            tSupply = tSupply.sub(_tOwned[_excluded[i]]);\n        }\n        if (rSupply < _rTotal.div(_tTotal)) return (_rTotal, _tTotal);\n        return (rSupply, tSupply);\n    }\n    \n    function _takeLiquidity(uint256 tLiquidity) private {\n        uint256 currentRate =  _getRate();\n        uint256 rLiquidity = tLiquidity.mul(currentRate);\n        _rOwned[address(this)] = _rOwned[address(this)].add(rLiquidity);\n        if(_isExcluded[address(this)])\n            _tOwned[address(this)] = _tOwned[address(this)].add(tLiquidity);\n    }\n\n    function _takeCharityFee(uint256 tCharity) private {\n        if (tCharity > 0 ) {\n            uint256 currentRate =  _getRate();\n            uint256 rCharity = tCharity.mul(currentRate);\n            _rOwned[_charityAddress] = _rOwned[_charityAddress].add(rCharity);\n            if (_isExcluded[_charityAddress])\n                _tOwned[_charityAddress] = _tOwned[_charityAddress].add(tCharity);\n            emit Transfer(_msgSender(), _charityAddress, tCharity);\n        }\n    }\n    \n    function calculateTaxFee(uint256 _amount) private view returns (uint256) {\n        return _amount.mul(_taxFee).div(10**4);\n    }\n\n    function calculateLiquidityFee(uint256 _amount) private view returns (uint256) {\n        return _amount.mul(_liquidityFee).div(10**4);\n    }\n\n    function calculateCharityFee(uint256 _amount) private view returns (uint256) {\n        if (_charityAddress == address(0)) return 0;\n        return _amount.mul(_charityFee).div(10**4);\n    }\n    \n    function removeAllFee() private {\n        if(_taxFee == 0 && _liquidityFee == 0 && _charityFee == 0) return;\n        \n        _previousTaxFee = _taxFee;\n        _previousLiquidityFee = _liquidityFee;\n        _previousCharityFee = _charityFee;\n        \n        _taxFee = 0;\n        _liquidityFee = 0;\n        _charityFee = 0;\n    }\n    \n    function restoreAllFee() private {\n        _taxFee = _previousTaxFee;\n        _liquidityFee = _previousLiquidityFee;\n        _charityFee = _previousCharityFee;\n    }\n    \n    function isExcludedFromFee(address account) public view returns(bool) {\n        return _isExcludedFromFee[account];\n    }\n\n    function _approve(address owner, address spender, uint256 amount) private {\n        require(owner != address(0), \"ERC20: approve from the zero address\");\n        require(spender != address(0), \"ERC20: approve to the zero address\");\n\n        _allowances[owner][spender] = amount;\n        emit Approval(owner, spender, amount);\n    }\n\n    function _transfer(\n        address from,\n        address to,\n        uint256 amount\n    ) private {\n        require(from != address(0), \"ERC20: transfer from the zero address\");\n        require(to != address(0), \"ERC20: transfer to the zero address\");\n        require(amount > 0, \"Transfer amount must be greater than zero\");\n        if((from != owner() && to != owner()) || (!_isExcludedFromMaxTx[from] && !_isExcludedFromMaxTx[to]))\n            require(amount <= _maxTxAmount, \"Transfer amount exceeds the maxTxAmount.\");\n\n        // is the token balance of this contract address over the min number of\n        // tokens that we need to initiate a swap + liquidity lock?\n        // also, don't get caught in a circular liquidity event.\n        // also, don't swap & liquify if sender is uniswap pair.\n        uint256 contractTokenBalance = balanceOf(address(this));\n        \n        if(contractTokenBalance >= _maxTxAmount)\n        {\n            contractTokenBalance = _maxTxAmount;\n        }\n        \n        bool overMinTokenBalance = contractTokenBalance >= numTokensSellToAddToLiquidity;\n        if ( overMinTokenBalance && !inSwapAndLiquify && swapAndLiquifyEnabled ) {\n            contractTokenBalance = numTokensSellToAddToLiquidity;\n            //add liquidity\n        }\n        \n        //indicates if fee should be deducted from transfer\n        bool takeFee = true;\n        \n        //if any account belongs to _isExcludedFromFee account then remove the fee\n        if(_isExcludedFromFee[from] || _isExcludedFromFee[to]){\n            takeFee = false;\n        }\n        \n        //transfer amount, it will take tax, burn, liquidity fee\n        _tokenTransfer(from,to,amount,takeFee);\n    }\n\n\n    //this method is responsible for taking all fee, if takeFee is true\n    function _tokenTransfer(address sender, address recipient, uint256 amount,bool takeFee) private {\n        if(!takeFee)\n            removeAllFee();\n        \n        if (_isExcluded[sender] && !_isExcluded[recipient]) {\n            _transferFromExcluded(sender, recipient, amount);\n        } else if (!_isExcluded[sender] && _isExcluded[recipient]) {\n            _transferToExcluded(sender, recipient, amount);\n        } else if (!_isExcluded[sender] && !_isExcluded[recipient]) {\n            _transferStandard(sender, recipient, amount);\n        } else if (_isExcluded[sender] && _isExcluded[recipient]) {\n            _transferBothExcluded(sender, recipient, amount);\n        } else {\n            _transferStandard(sender, recipient, amount);\n        }\n        \n        if(!takeFee)\n            restoreAllFee();\n    }\n\n    function _transferStandard(address sender, address recipient, uint256 tAmount) private {\n        (uint256 rAmount, uint256 rTransferAmount, uint256 rFee, uint256 tTransferAmount, uint256 tFee, uint256 tLiquidity, uint256 tCharity) = _getValues(tAmount);\n        _rOwned[sender] = _rOwned[sender].sub(rAmount);\n        _rOwned[recipient] = _rOwned[recipient].add(rTransferAmount);\n        _takeLiquidity(tLiquidity);\n        _takeCharityFee(tCharity);\n        _reflectFee(rFee, tFee);\n        emit Transfer(sender, recipient, tTransferAmount);\n    }\n\n    function _transferToExcluded(address sender, address recipient, uint256 tAmount) private {\n        (uint256 rAmount, uint256 rTransferAmount, uint256 rFee, uint256 tTransferAmount, uint256 tFee, uint256 tLiquidity, uint256 tCharity) = _getValues(tAmount);\n        _rOwned[sender] = _rOwned[sender].sub(rAmount);\n        _tOwned[recipient] = _tOwned[recipient].add(tTransferAmount);\n        _rOwned[recipient] = _rOwned[recipient].add(rTransferAmount);           \n        _takeLiquidity(tLiquidity);\n        _takeCharityFee(tCharity);\n        _reflectFee(rFee, tFee);\n        emit Transfer(sender, recipient, tTransferAmount);\n    }\n\n    function _transferFromExcluded(address sender, address recipient, uint256 tAmount) private {\n        (uint256 rAmount, uint256 rTransferAmount, uint256 rFee, uint256 tTransferAmount, uint256 tFee, uint256 tLiquidity, uint256 tCharity) = _getValues(tAmount);\n        _tOwned[sender] = _tOwned[sender].sub(tAmount);\n        _rOwned[sender] = _rOwned[sender].sub(rAmount);\n        _rOwned[recipient] = _rOwned[recipient].add(rTransferAmount);   \n        _takeLiquidity(tLiquidity);\n        _takeCharityFee(tCharity);\n        _reflectFee(rFee, tFee);\n        emit Transfer(sender, recipient, tTransferAmount);\n    }\n}",
  "sourcePath": "/home/machado/Documents/projetos/pinksale-contracts/contracts/tokens/LiquidityGeneratorToken.sol",
  "compiler": {
    "name": "solc",
    "version": "0.8.0+commit.c7dfd78e.Emscripten.clang"
  },
  "schemaVersion": "3.4.1",
  "updatedAt": "2021-11-28T01:05:58.036Z",
  "devdoc": {
    "kind": "dev",
    "methods": {
      "allowance(address,address)": {
        "details": "Returns the remaining number of tokens that `spender` will be allowed to spend on behalf of `owner` through {transferFrom}. This is zero by default. This value changes when {approve} or {transferFrom} are called."
      },
      "approve(address,uint256)": {
        "details": "Sets `amount` as the allowance of `spender` over the caller's tokens. Returns a boolean value indicating whether the operation succeeded. IMPORTANT: Beware that changing an allowance with this method brings the risk that someone may use both the old and the new allowance by unfortunate transaction ordering. One possible solution to mitigate this race condition is to first reduce the spender's allowance to 0 and set the desired value afterwards: https://github.com/ethereum/EIPs/issues/20#issuecomment-263524729 Emits an {Approval} event."
      },
      "balanceOf(address)": {
        "details": "Returns the amount of tokens owned by `account`."
      },
      "owner()": {
        "details": "Returns the address of the current owner."
      },
      "renounceOwnership()": {
        "details": "Leaves the contract without owner. It will not be possible to call `onlyOwner` functions anymore. Can only be called by the current owner. NOTE: Renouncing ownership will leave the contract without an owner, thereby removing any functionality that is only available to the owner."
      },
      "totalSupply()": {
        "details": "Returns the amount of tokens in existence."
      },
      "transfer(address,uint256)": {
        "details": "Moves `amount` tokens from the caller's account to `recipient`. Returns a boolean value indicating whether the operation succeeded. Emits a {Transfer} event."
      },
      "transferFrom(address,address,uint256)": {
        "details": "Moves `amount` tokens from `sender` to `recipient` using the allowance mechanism. `amount` is then deducted from the caller's allowance. Returns a boolean value indicating whether the operation succeeded. Emits a {Transfer} event."
      },
      "transferOwnership(address)": {
        "details": "Transfers ownership of the contract to a new account (`newOwner`). Can only be called by the current owner."
      }
    },
    "version": 1
  },
  "userdoc": {
    "kind": "user",
    "methods": {},
    "version": 1
  }
}