{
  "contractName": "LiquidityGeneratorTokenFactory",
  "abi": [
    {
      "inputs": [
        {
          "internalType": "address",
          "name": "factoryManager_",
          "type": "address"
        },
        {
          "internalType": "address",
          "name": "implementation_",
          "type": "address"
        }
      ],
      "stateMutability": "nonpayable",
      "type": "constructor"
    },
    {
      "anonymous": false,
      "inputs": [
        {
          "indexed": true,
          "internalType": "address",
          "name": "previousOwner",
          "type": "address"
        },
        {
          "indexed": true,
          "internalType": "address",
          "name": "newOwner",
          "type": "address"
        }
      ],
      "name": "OwnershipTransferred",
      "type": "event"
    },
    {
      "anonymous": false,
      "inputs": [
        {
          "indexed": true,
          "internalType": "address",
          "name": "owner",
          "type": "address"
        },
        {
          "indexed": true,
          "internalType": "address",
          "name": "token",
          "type": "address"
        },
        {
          "indexed": false,
          "internalType": "uint8",
          "name": "tokenType",
          "type": "uint8"
        }
      ],
      "name": "TokenCreated",
      "type": "event"
    },
    {
      "inputs": [],
      "name": "factoryManager",
      "outputs": [
        {
          "internalType": "address",
          "name": "",
          "type": "address"
        }
      ],
      "stateMutability": "view",
      "type": "function"
    },
    {
      "inputs": [],
      "name": "feeTo",
      "outputs": [
        {
          "internalType": "address",
          "name": "",
          "type": "address"
        }
      ],
      "stateMutability": "view",
      "type": "function"
    },
    {
      "inputs": [],
      "name": "flatFee",
      "outputs": [
        {
          "internalType": "uint256",
          "name": "",
          "type": "uint256"
        }
      ],
      "stateMutability": "view",
      "type": "function"
    },
    {
      "inputs": [],
      "name": "implementation",
      "outputs": [
        {
          "internalType": "address",
          "name": "",
          "type": "address"
        }
      ],
      "stateMutability": "view",
      "type": "function"
    },
    {
      "inputs": [],
      "name": "owner",
      "outputs": [
        {
          "internalType": "address",
          "name": "",
          "type": "address"
        }
      ],
      "stateMutability": "view",
      "type": "function"
    },
    {
      "inputs": [],
      "name": "renounceOwnership",
      "outputs": [],
      "stateMutability": "nonpayable",
      "type": "function"
    },
    {
      "inputs": [
        {
          "internalType": "address",
          "name": "feeReceivingAddress",
          "type": "address"
        }
      ],
      "name": "setFeeTo",
      "outputs": [],
      "stateMutability": "nonpayable",
      "type": "function"
    },
    {
      "inputs": [
        {
          "internalType": "uint256",
          "name": "fee",
          "type": "uint256"
        }
      ],
      "name": "setFlatFee",
      "outputs": [],
      "stateMutability": "nonpayable",
      "type": "function"
    },
    {
      "inputs": [
        {
          "internalType": "address",
          "name": "implementation_",
          "type": "address"
        }
      ],
      "name": "setImplementation",
      "outputs": [],
      "stateMutability": "nonpayable",
      "type": "function"
    },
    {
      "inputs": [
        {
          "internalType": "address",
          "name": "newOwner",
          "type": "address"
        }
      ],
      "name": "transferOwnership",
      "outputs": [],
      "stateMutability": "nonpayable",
      "type": "function"
    },
    {
      "inputs": [
        {
          "internalType": "string",
          "name": "name",
          "type": "string"
        },
        {
          "internalType": "string",
          "name": "symbol",
          "type": "string"
        },
        {
          "internalType": "uint256",
          "name": "totalSupply",
          "type": "uint256"
        },
        {
          "internalType": "address",
          "name": "router",
          "type": "address"
        },
        {
          "internalType": "address",
          "name": "charity",
          "type": "address"
        },
        {
          "internalType": "uint16",
          "name": "taxFeeBps",
          "type": "uint16"
        },
        {
          "internalType": "uint16",
          "name": "liquidityFeeBps",
          "type": "uint16"
        },
        {
          "internalType": "uint16",
          "name": "charityBps",
          "type": "uint16"
        },
        {
          "internalType": "uint16",
          "name": "maxTxBps",
          "type": "uint16"
        }
      ],
      "name": "create",
      "outputs": [
        {
          "internalType": "address",
          "name": "token",
          "type": "address"
        }
      ],
      "stateMutability": "payable",
      "type": "function"
    }
  ],
  "bytecode": "0x60806040523480156200001157600080fd5b50604051620018e7380380620018e7833981810160405281019062000037919062000271565b8181620000596200004d6200013b60201b60201c565b6200014360201b60201c565b6001808190555081600260006101000a81548173ffffffffffffffffffffffffffffffffffffffff021916908373ffffffffffffffffffffffffffffffffffffffff16021790555080600360006101000a81548173ffffffffffffffffffffffffffffffffffffffff021916908373ffffffffffffffffffffffffffffffffffffffff16021790555033600460006101000a81548173ffffffffffffffffffffffffffffffffffffffff021916908373ffffffffffffffffffffffffffffffffffffffff160217905550662386f26fc1000060058190555050505050620002b8565b600033905090565b60008060009054906101000a900473ffffffffffffffffffffffffffffffffffffffff169050816000806101000a81548173ffffffffffffffffffffffffffffffffffffffff021916908373ffffffffffffffffffffffffffffffffffffffff1602179055508173ffffffffffffffffffffffffffffffffffffffff168173ffffffffffffffffffffffffffffffffffffffff167f8be0079c531659141344cd1fd0a4f28419497f9722a3daafe3b4186f6b6457e060405160405180910390a35050565b600080fd5b600073ffffffffffffffffffffffffffffffffffffffff82169050919050565b600062000239826200020c565b9050919050565b6200024b816200022c565b81146200025757600080fd5b50565b6000815190506200026b8162000240565b92915050565b600080604083850312156200028b576200028a62000207565b5b60006200029b858286016200025a565b9250506020620002ae858286016200025a565b9150509250929050565b61161f80620002c86000396000f3fe60806040526004361061009c5760003560e01c8063715018a611610064578063715018a61461017b5780638da5cb5b14610192578063d784d426146101bd578063d9eb5947146101e6578063f2fde38b14610211578063f46901ed1461023a5761009c565b8063017e7e58146100a1578063032b5a73146100cc57806323fa495a146100f75780634a3cef63146101205780635c60da1b14610150575b600080fd5b3480156100ad57600080fd5b506100b6610263565b6040516100c39190610c75565b60405180910390f35b3480156100d857600080fd5b506100e1610289565b6040516100ee9190610c75565b60405180910390f35b34801561010357600080fd5b5061011e60048036038101906101199190610cda565b6102af565b005b61013a60048036038101906101359190610eb3565b610335565b6040516101479190610c75565b60405180910390f35b34801561015c57600080fd5b5061016561054f565b6040516101729190610c75565b60405180910390f35b34801561018757600080fd5b50610190610575565b005b34801561019e57600080fd5b506101a76105fd565b6040516101b49190610c75565b60405180910390f35b3480156101c957600080fd5b506101e460048036038101906101df9190610fb5565b610626565b005b3480156101f257600080fd5b506101fb6106e6565b6040516102089190610ff1565b60405180910390f35b34801561021d57600080fd5b5061023860048036038101906102339190610fb5565b6106ec565b005b34801561024657600080fd5b50610261600480360381019061025c9190610fb5565b6107e4565b005b600460009054906101000a900473ffffffffffffffffffffffffffffffffffffffff1681565b600260009054906101000a900473ffffffffffffffffffffffffffffffffffffffff1681565b6102b76108a4565b73ffffffffffffffffffffffffffffffffffffffff166102d56105fd565b73ffffffffffffffffffffffffffffffffffffffff161461032b576040517f08c379a000000000000000000000000000000000000000000000000000000000815260040161032290611069565b60405180910390fd5b8060058190555050565b600060055434101561037c576040517f08c379a0000000000000000000000000000000000000000000000000000000008152600401610373906110d5565b60405180910390fd5b600260015414156103c2576040517f08c379a00000000000000000000000000000000000000000000000000000000081526004016103b990611141565b60405180910390fd5b60026001819055506103d26108ac565b61041f600554600460009054906101000a900473ffffffffffffffffffffffffffffffffffffffff1673ffffffffffffffffffffffffffffffffffffffff166108fb90919063ffffffff16565b61044a600360009054906101000a900473ffffffffffffffffffffffffffffffffffffffff166109ef565b90508073ffffffffffffffffffffffffffffffffffffffff1663b00544f6338c8c8c8c8c8c8c8c8c6040518b63ffffffff1660e01b81526004016104979a999897969594939291906111e7565b600060405180830381600087803b1580156104b157600080fd5b505af11580156104c5573d6000803e3d6000fd5b505050506104d533826001610ac4565b8073ffffffffffffffffffffffffffffffffffffffff163373ffffffffffffffffffffffffffffffffffffffff167f49fab9e82f453b3b0e1b0e507a645552d8b351f9b3cb0c9a7b4df572780c6b2f600160405161053391906112e3565b60405180910390a3600180819055509998505050505050505050565b600360009054906101000a900473ffffffffffffffffffffffffffffffffffffffff1681565b61057d6108a4565b73ffffffffffffffffffffffffffffffffffffffff1661059b6105fd565b73ffffffffffffffffffffffffffffffffffffffff16146105f1576040517f08c379a00000000000000000000000000000000000000000000000000000000081526004016105e890611069565b60405180910390fd5b6105fb6000610b5a565b565b60008060009054906101000a900473ffffffffffffffffffffffffffffffffffffffff16905090565b61062e6108a4565b73ffffffffffffffffffffffffffffffffffffffff1661064c6105fd565b73ffffffffffffffffffffffffffffffffffffffff16146106a2576040517f08c379a000000000000000000000000000000000000000000000000000000000815260040161069990611069565b60405180910390fd5b80600360006101000a81548173ffffffffffffffffffffffffffffffffffffffff021916908373ffffffffffffffffffffffffffffffffffffffff16021790555050565b60055481565b6106f46108a4565b73ffffffffffffffffffffffffffffffffffffffff166107126105fd565b73ffffffffffffffffffffffffffffffffffffffff1614610768576040517f08c379a000000000000000000000000000000000000000000000000000000000815260040161075f90611069565b60405180910390fd5b600073ffffffffffffffffffffffffffffffffffffffff168173ffffffffffffffffffffffffffffffffffffffff1614156107d8576040517f08c379a00000000000000000000000000000000000000000000000000000000081526004016107cf90611370565b60405180910390fd5b6107e181610b5a565b50565b6107ec6108a4565b73ffffffffffffffffffffffffffffffffffffffff1661080a6105fd565b73ffffffffffffffffffffffffffffffffffffffff1614610860576040517f08c379a000000000000000000000000000000000000000000000000000000000815260040161085790611069565b60405180910390fd5b80600460006101000a81548173ffffffffffffffffffffffffffffffffffffffff021916908373ffffffffffffffffffffffffffffffffffffffff16021790555050565b600033905090565b60006108c360055434610c1e90919063ffffffff16565b905060008111156108f8576108f7813373ffffffffffffffffffffffffffffffffffffffff166108fb90919063ffffffff16565b5b50565b8047101561093e576040517f08c379a0000000000000000000000000000000000000000000000000000000008152600401610935906113dc565b60405180910390fd5b60008273ffffffffffffffffffffffffffffffffffffffff16826040516109649061142d565b60006040518083038185875af1925050503d80600081146109a1576040519150601f19603f3d011682016040523d82523d6000602084013e6109a6565b606091505b50509050806109ea576040517f08c379a00000000000000000000000000000000000000000000000000000000081526004016109e1906114b4565b60405180910390fd5b505050565b60006040517f3d602d80600a3d3981f3363d3d373d3d3d363d7300000000000000000000000081528260601b60148201527f5af43d82803e903d91602b57fd5bf3000000000000000000000000000000000060288201526037816000f0915050600073ffffffffffffffffffffffffffffffffffffffff168173ffffffffffffffffffffffffffffffffffffffff161415610abf576040517f08c379a0000000000000000000000000000000000000000000000000000000008152600401610ab690611520565b60405180910390fd5b919050565b600260009054906101000a900473ffffffffffffffffffffffffffffffffffffffff1673ffffffffffffffffffffffffffffffffffffffff166328220dea8484846040518463ffffffff1660e01b8152600401610b239392919061154f565b600060405180830381600087803b158015610b3d57600080fd5b505af1158015610b51573d6000803e3d6000fd5b50505050505050565b60008060009054906101000a900473ffffffffffffffffffffffffffffffffffffffff169050816000806101000a81548173ffffffffffffffffffffffffffffffffffffffff021916908373ffffffffffffffffffffffffffffffffffffffff1602179055508173ffffffffffffffffffffffffffffffffffffffff168173ffffffffffffffffffffffffffffffffffffffff167f8be0079c531659141344cd1fd0a4f28419497f9722a3daafe3b4186f6b6457e060405160405180910390a35050565b60008183610c2c91906115b5565b905092915050565b600073ffffffffffffffffffffffffffffffffffffffff82169050919050565b6000610c5f82610c34565b9050919050565b610c6f81610c54565b82525050565b6000602082019050610c8a6000830184610c66565b92915050565b6000604051905090565b600080fd5b600080fd5b6000819050919050565b610cb781610ca4565b8114610cc257600080fd5b50565b600081359050610cd481610cae565b92915050565b600060208284031215610cf057610cef610c9a565b5b6000610cfe84828501610cc5565b91505092915050565b600080fd5b600080fd5b6000601f19601f8301169050919050565b7f4e487b7100000000000000000000000000000000000000000000000000000000600052604160045260246000fd5b610d5a82610d11565b810181811067ffffffffffffffff82111715610d7957610d78610d22565b5b80604052505050565b6000610d8c610c90565b9050610d988282610d51565b919050565b600067ffffffffffffffff821115610db857610db7610d22565b5b610dc182610d11565b9050602081019050919050565b82818337600083830152505050565b6000610df0610deb84610d9d565b610d82565b905082815260208101848484011115610e0c57610e0b610d0c565b5b610e17848285610dce565b509392505050565b600082601f830112610e3457610e33610d07565b5b8135610e44848260208601610ddd565b91505092915050565b610e5681610c54565b8114610e6157600080fd5b50565b600081359050610e7381610e4d565b92915050565b600061ffff82169050919050565b610e9081610e79565b8114610e9b57600080fd5b50565b600081359050610ead81610e87565b92915050565b60008060008060008060008060006101208a8c031215610ed657610ed5610c9a565b5b60008a013567ffffffffffffffff811115610ef457610ef3610c9f565b5b610f008c828d01610e1f565b99505060208a013567ffffffffffffffff811115610f2157610f20610c9f565b5b610f2d8c828d01610e1f565b9850506040610f3e8c828d01610cc5565b9750506060610f4f8c828d01610e64565b9650506080610f608c828d01610e64565b95505060a0610f718c828d01610e9e565b94505060c0610f828c828d01610e9e565b93505060e0610f938c828d01610e9e565b925050610100610fa58c828d01610e9e565b9150509295985092959850929598565b600060208284031215610fcb57610fca610c9a565b5b6000610fd984828501610e64565b91505092915050565b610feb81610ca4565b82525050565b60006020820190506110066000830184610fe2565b92915050565b600082825260208201905092915050565b7f4f776e61626c653a2063616c6c6572206973206e6f7420746865206f776e6572600082015250565b600061105360208361100c565b915061105e8261101d565b602082019050919050565b6000602082019050818103600083015261108281611046565b9050919050565b7f466c617420666565000000000000000000000000000000000000000000000000600082015250565b60006110bf60088361100c565b91506110ca82611089565b602082019050919050565b600060208201905081810360008301526110ee816110b2565b9050919050565b7f5265656e7472616e637947756172643a207265656e7472616e742063616c6c00600082015250565b600061112b601f8361100c565b9150611136826110f5565b602082019050919050565b6000602082019050818103600083015261115a8161111e565b9050919050565b600081519050919050565b60005b8381101561118a57808201518184015260208101905061116f565b83811115611199576000848401525b50505050565b60006111aa82611161565b6111b4818561100c565b93506111c481856020860161116c565b6111cd81610d11565b840191505092915050565b6111e181610e79565b82525050565b6000610140820190506111fd600083018d610c66565b818103602083015261120f818c61119f565b90508181036040830152611223818b61119f565b9050611232606083018a610fe2565b61123f6080830189610c66565b61124c60a0830188610c66565b61125960c08301876111d8565b61126660e08301866111d8565b6112746101008301856111d8565b6112826101208301846111d8565b9b9a5050505050505050505050565b6000819050919050565b600060ff82169050919050565b6000819050919050565b60006112cd6112c86112c384611291565b6112a8565b61129b565b9050919050565b6112dd816112b2565b82525050565b60006020820190506112f860008301846112d4565b92915050565b7f4f776e61626c653a206e6577206f776e657220697320746865207a65726f206160008201527f6464726573730000000000000000000000000000000000000000000000000000602082015250565b600061135a60268361100c565b9150611365826112fe565b604082019050919050565b600060208201905081810360008301526113898161134d565b9050919050565b7f416464726573733a20696e73756666696369656e742062616c616e6365000000600082015250565b60006113c6601d8361100c565b91506113d182611390565b602082019050919050565b600060208201905081810360008301526113f5816113b9565b9050919050565b600081905092915050565b50565b60006114176000836113fc565b915061142282611407565b600082019050919050565b60006114388261140a565b9150819050919050565b7f416464726573733a20756e61626c6520746f2073656e642076616c75652c207260008201527f6563697069656e74206d61792068617665207265766572746564000000000000602082015250565b600061149e603a8361100c565b91506114a982611442565b604082019050919050565b600060208201905081810360008301526114cd81611491565b9050919050565b7f455243313136373a20637265617465206661696c656400000000000000000000600082015250565b600061150a60168361100c565b9150611515826114d4565b602082019050919050565b60006020820190508181036000830152611539816114fd565b9050919050565b6115498161129b565b82525050565b60006060820190506115646000830186610c66565b6115716020830185610c66565b61157e6040830184611540565b949350505050565b7f4e487b7100000000000000000000000000000000000000000000000000000000600052601160045260246000fd5b60006115c082610ca4565b91506115cb83610ca4565b9250828210156115de576115dd611586565b5b82820390509291505056fea264697066735822122075ecdd1944b295b843cb69afe2ef5bb2f9a7f709a42fd2ac2576271776d9302964736f6c634300080a0033",
  "immutableReferences": {},
  "source": "// SPDX-License-Identifier: UNLICENSED\npragma solidity ^0.8.1;\n\nimport \"@openzeppelin/contracts/proxy/Clones.sol\";\nimport \"@openzeppelin/contracts/utils/Address.sol\";\nimport \"./TokenFactoryBase.sol\";\nimport \"../../interfaces/ILiquidityGeneratorToken.sol\";\n\n\ncontract LiquidityGeneratorTokenFactory is TokenFactoryBase {\n  using Address for address payable;\n\n  constructor(address factoryManager_, address implementation_) TokenFactoryBase(factoryManager_, implementation_) {}\n\n  function create(\n    string memory name,\n    string memory symbol,\n    uint256 totalSupply,\n    address router,\n    address charity,\n    uint16 taxFeeBps, \n    uint16 liquidityFeeBps,\n    uint16 charityBps,\n    uint16 maxTxBps\n  ) external payable enoughFee nonReentrant returns (address token) {\n    refundExcessiveFee();\n    payable(feeTo).sendValue(flatFee);\n    token = Clones.clone(implementation);\n    ILiquidityGeneratorToken(token).initialize(\n      msg.sender,\n      name,\n      symbol,\n      totalSupply,\n      router,\n      charity,\n      taxFeeBps,\n      liquidityFeeBps,\n      charityBps,\n      maxTxBps\n    );\n    assignTokenToOwner(msg.sender, token, 1);\n    emit TokenCreated(msg.sender, token, 1);\n  }\n}",
  "sourcePath": "/home/machado/Documents/projetos/pinksale-contracts/contracts/factories/token/LiquidityGeneratorTokenFactory.sol",
  "compiler": {
    "name": "solc",
    "version": "0.8.10+commit.fc410830.Emscripten.clang"
  },
  "schemaVersion": "3.4.3",
  "updatedAt": "2022-04-11T20:08:07.375Z",
  "devdoc": {
    "kind": "dev",
    "methods": {
      "owner()": {
        "details": "Returns the address of the current owner."
      },
      "renounceOwnership()": {
        "details": "Leaves the contract without owner. It will not be possible to call `onlyOwner` functions anymore. Can only be called by the current owner. NOTE: Renouncing ownership will leave the contract without an owner, thereby removing any functionality that is only available to the owner."
      },
      "transferOwnership(address)": {
        "details": "Transfers ownership of the contract to a new account (`newOwner`). Can only be called by the current owner."
      }
    },
    "version": 1
  },
  "userdoc": {
    "kind": "user",
    "methods": {},
    "version": 1
  }
}