{
  "contractName": "LiquidityGeneratorToken",
  "abi": [
    {
      "anonymous": false,
      "inputs": [
        {
          "indexed": true,
          "internalType": "address",
          "name": "owner",
          "type": "address"
        },
        {
          "indexed": true,
          "internalType": "address",
          "name": "spender",
          "type": "address"
        },
        {
          "indexed": false,
          "internalType": "uint256",
          "name": "value",
          "type": "uint256"
        }
      ],
      "name": "Approval",
      "type": "event"
    },
    {
      "anonymous": false,
      "inputs": [
        {
          "indexed": false,
          "internalType": "uint256",
          "name": "minTokensBeforeSwap",
          "type": "uint256"
        }
      ],
      "name": "MinTokensBeforeSwapUpdated",
      "type": "event"
    },
    {
      "anonymous": false,
      "inputs": [
        {
          "indexed": true,
          "internalType": "address",
          "name": "previousOwner",
          "type": "address"
        },
        {
          "indexed": true,
          "internalType": "address",
          "name": "newOwner",
          "type": "address"
        }
      ],
      "name": "OwnershipTransferred",
      "type": "event"
    },
    {
      "anonymous": false,
      "inputs": [
        {
          "indexed": false,
          "internalType": "uint256",
          "name": "tokensSwapped",
          "type": "uint256"
        },
        {
          "indexed": false,
          "internalType": "uint256",
          "name": "ethReceived",
          "type": "uint256"
        },
        {
          "indexed": false,
          "internalType": "uint256",
          "name": "tokensIntoLiqudity",
          "type": "uint256"
        }
      ],
      "name": "SwapAndLiquify",
      "type": "event"
    },
    {
      "anonymous": false,
      "inputs": [
        {
          "indexed": false,
          "internalType": "bool",
          "name": "enabled",
          "type": "bool"
        }
      ],
      "name": "SwapAndLiquifyEnabledUpdated",
      "type": "event"
    },
    {
      "anonymous": false,
      "inputs": [
        {
          "indexed": true,
          "internalType": "address",
          "name": "from",
          "type": "address"
        },
        {
          "indexed": true,
          "internalType": "address",
          "name": "to",
          "type": "address"
        },
        {
          "indexed": false,
          "internalType": "uint256",
          "name": "value",
          "type": "uint256"
        }
      ],
      "name": "Transfer",
      "type": "event"
    },
    {
      "inputs": [],
      "name": "_charityAddress",
      "outputs": [
        {
          "internalType": "address",
          "name": "",
          "type": "address"
        }
      ],
      "stateMutability": "view",
      "type": "function"
    },
    {
      "inputs": [],
      "name": "_charityFee",
      "outputs": [
        {
          "internalType": "uint256",
          "name": "",
          "type": "uint256"
        }
      ],
      "stateMutability": "view",
      "type": "function"
    },
    {
      "inputs": [],
      "name": "_liquidityFee",
      "outputs": [
        {
          "internalType": "uint256",
          "name": "",
          "type": "uint256"
        }
      ],
      "stateMutability": "view",
      "type": "function"
    },
    {
      "inputs": [],
      "name": "_maxTxAmount",
      "outputs": [
        {
          "internalType": "uint256",
          "name": "",
          "type": "uint256"
        }
      ],
      "stateMutability": "view",
      "type": "function"
    },
    {
      "inputs": [],
      "name": "_taxFee",
      "outputs": [
        {
          "internalType": "uint256",
          "name": "",
          "type": "uint256"
        }
      ],
      "stateMutability": "view",
      "type": "function"
    },
    {
      "inputs": [],
      "name": "owner",
      "outputs": [
        {
          "internalType": "address",
          "name": "",
          "type": "address"
        }
      ],
      "stateMutability": "view",
      "type": "function"
    },
    {
      "inputs": [],
      "name": "renounceOwnership",
      "outputs": [],
      "stateMutability": "nonpayable",
      "type": "function"
    },
    {
      "inputs": [],
      "name": "swapAndLiquifyEnabled",
      "outputs": [
        {
          "internalType": "bool",
          "name": "",
          "type": "bool"
        }
      ],
      "stateMutability": "view",
      "type": "function"
    },
    {
      "inputs": [
        {
          "internalType": "address",
          "name": "newOwner",
          "type": "address"
        }
      ],
      "name": "transferOwnership",
      "outputs": [],
      "stateMutability": "nonpayable",
      "type": "function"
    },
    {
      "inputs": [],
      "name": "uniswapV2Pair",
      "outputs": [
        {
          "internalType": "address",
          "name": "",
          "type": "address"
        }
      ],
      "stateMutability": "view",
      "type": "function"
    },
    {
      "inputs": [],
      "name": "uniswapV2Router",
      "outputs": [
        {
          "internalType": "contract IUniswapV2Router02",
          "name": "",
          "type": "address"
        }
      ],
      "stateMutability": "view",
      "type": "function"
    },
    {
      "stateMutability": "payable",
      "type": "receive"
    },
    {
      "inputs": [
        {
          "internalType": "address",
          "name": "owner_",
          "type": "address"
        },
        {
          "internalType": "string",
          "name": "name_",
          "type": "string"
        },
        {
          "internalType": "string",
          "name": "symbol_",
          "type": "string"
        },
        {
          "internalType": "uint256",
          "name": "totalSupply_",
          "type": "uint256"
        },
        {
          "internalType": "address",
          "name": "router_",
          "type": "address"
        },
        {
          "internalType": "address",
          "name": "charityAddress_",
          "type": "address"
        },
        {
          "internalType": "uint16",
          "name": "taxFeeBps_",
          "type": "uint16"
        },
        {
          "internalType": "uint16",
          "name": "liquidityFeeBps_",
          "type": "uint16"
        },
        {
          "internalType": "uint16",
          "name": "charityFeeBps_",
          "type": "uint16"
        },
        {
          "internalType": "uint16",
          "name": "maxTxBps_",
          "type": "uint16"
        }
      ],
      "name": "initialize",
      "outputs": [],
      "stateMutability": "nonpayable",
      "type": "function"
    },
    {
      "inputs": [],
      "name": "name",
      "outputs": [
        {
          "internalType": "string",
          "name": "",
          "type": "string"
        }
      ],
      "stateMutability": "view",
      "type": "function"
    },
    {
      "inputs": [],
      "name": "symbol",
      "outputs": [
        {
          "internalType": "string",
          "name": "",
          "type": "string"
        }
      ],
      "stateMutability": "view",
      "type": "function"
    },
    {
      "inputs": [],
      "name": "decimals",
      "outputs": [
        {
          "internalType": "uint8",
          "name": "",
          "type": "uint8"
        }
      ],
      "stateMutability": "view",
      "type": "function"
    },
    {
      "inputs": [],
      "name": "totalSupply",
      "outputs": [
        {
          "internalType": "uint256",
          "name": "",
          "type": "uint256"
        }
      ],
      "stateMutability": "view",
      "type": "function"
    },
    {
      "inputs": [
        {
          "internalType": "address",
          "name": "account",
          "type": "address"
        }
      ],
      "name": "balanceOf",
      "outputs": [
        {
          "internalType": "uint256",
          "name": "",
          "type": "uint256"
        }
      ],
      "stateMutability": "view",
      "type": "function"
    },
    {
      "inputs": [
        {
          "internalType": "address",
          "name": "recipient",
          "type": "address"
        },
        {
          "internalType": "uint256",
          "name": "amount",
          "type": "uint256"
        }
      ],
      "name": "transfer",
      "outputs": [
        {
          "internalType": "bool",
          "name": "",
          "type": "bool"
        }
      ],
      "stateMutability": "nonpayable",
      "type": "function"
    },
    {
      "inputs": [
        {
          "internalType": "address",
          "name": "owner",
          "type": "address"
        },
        {
          "internalType": "address",
          "name": "spender",
          "type": "address"
        }
      ],
      "name": "allowance",
      "outputs": [
        {
          "internalType": "uint256",
          "name": "",
          "type": "uint256"
        }
      ],
      "stateMutability": "view",
      "type": "function"
    },
    {
      "inputs": [
        {
          "internalType": "address",
          "name": "spender",
          "type": "address"
        },
        {
          "internalType": "uint256",
          "name": "amount",
          "type": "uint256"
        }
      ],
      "name": "approve",
      "outputs": [
        {
          "internalType": "bool",
          "name": "",
          "type": "bool"
        }
      ],
      "stateMutability": "nonpayable",
      "type": "function"
    },
    {
      "inputs": [
        {
          "internalType": "address",
          "name": "sender",
          "type": "address"
        },
        {
          "internalType": "address",
          "name": "recipient",
          "type": "address"
        },
        {
          "internalType": "uint256",
          "name": "amount",
          "type": "uint256"
        }
      ],
      "name": "transferFrom",
      "outputs": [
        {
          "internalType": "bool",
          "name": "",
          "type": "bool"
        }
      ],
      "stateMutability": "nonpayable",
      "type": "function"
    },
    {
      "inputs": [
        {
          "internalType": "address",
          "name": "spender",
          "type": "address"
        },
        {
          "internalType": "uint256",
          "name": "addedValue",
          "type": "uint256"
        }
      ],
      "name": "increaseAllowance",
      "outputs": [
        {
          "internalType": "bool",
          "name": "",
          "type": "bool"
        }
      ],
      "stateMutability": "nonpayable",
      "type": "function"
    },
    {
      "inputs": [
        {
          "internalType": "address",
          "name": "spender",
          "type": "address"
        },
        {
          "internalType": "uint256",
          "name": "subtractedValue",
          "type": "uint256"
        }
      ],
      "name": "decreaseAllowance",
      "outputs": [
        {
          "internalType": "bool",
          "name": "",
          "type": "bool"
        }
      ],
      "stateMutability": "nonpayable",
      "type": "function"
    },
    {
      "inputs": [
        {
          "internalType": "address",
          "name": "account",
          "type": "address"
        }
      ],
      "name": "isExcludedFromReward",
      "outputs": [
        {
          "internalType": "bool",
          "name": "",
          "type": "bool"
        }
      ],
      "stateMutability": "view",
      "type": "function"
    },
    {
      "inputs": [],
      "name": "totalFees",
      "outputs": [
        {
          "internalType": "uint256",
          "name": "",
          "type": "uint256"
        }
      ],
      "stateMutability": "view",
      "type": "function"
    },
    {
      "inputs": [
        {
          "internalType": "uint256",
          "name": "tAmount",
          "type": "uint256"
        }
      ],
      "name": "deliver",
      "outputs": [],
      "stateMutability": "nonpayable",
      "type": "function"
    },
    {
      "inputs": [
        {
          "internalType": "uint256",
          "name": "tAmount",
          "type": "uint256"
        },
        {
          "internalType": "bool",
          "name": "deductTransferFee",
          "type": "bool"
        }
      ],
      "name": "reflectionFromToken",
      "outputs": [
        {
          "internalType": "uint256",
          "name": "",
          "type": "uint256"
        }
      ],
      "stateMutability": "view",
      "type": "function"
    },
    {
      "inputs": [
        {
          "internalType": "uint256",
          "name": "rAmount",
          "type": "uint256"
        }
      ],
      "name": "tokenFromReflection",
      "outputs": [
        {
          "internalType": "uint256",
          "name": "",
          "type": "uint256"
        }
      ],
      "stateMutability": "view",
      "type": "function"
    },
    {
      "inputs": [
        {
          "internalType": "address",
          "name": "account",
          "type": "address"
        }
      ],
      "name": "excludeFromReward",
      "outputs": [],
      "stateMutability": "nonpayable",
      "type": "function"
    },
    {
      "inputs": [
        {
          "internalType": "address",
          "name": "account",
          "type": "address"
        }
      ],
      "name": "includeInReward",
      "outputs": [],
      "stateMutability": "nonpayable",
      "type": "function"
    },
    {
      "inputs": [
        {
          "internalType": "address",
          "name": "account",
          "type": "address"
        }
      ],
      "name": "excludeFromFee",
      "outputs": [],
      "stateMutability": "nonpayable",
      "type": "function"
    },
    {
      "inputs": [
        {
          "internalType": "address",
          "name": "account",
          "type": "address"
        }
      ],
      "name": "includeInFee",
      "outputs": [],
      "stateMutability": "nonpayable",
      "type": "function"
    },
    {
      "inputs": [
        {
          "internalType": "address",
          "name": "account",
          "type": "address"
        },
        {
          "internalType": "bool",
          "name": "exclude",
          "type": "bool"
        }
      ],
      "name": "setExcludeFromMaxTx",
      "outputs": [],
      "stateMutability": "nonpayable",
      "type": "function"
    },
    {
      "inputs": [
        {
          "internalType": "address",
          "name": "account",
          "type": "address"
        }
      ],
      "name": "isExcludedFromMaxTx",
      "outputs": [
        {
          "internalType": "bool",
          "name": "",
          "type": "bool"
        }
      ],
      "stateMutability": "view",
      "type": "function"
    },
    {
      "inputs": [
        {
          "internalType": "uint256",
          "name": "taxFeeBps",
          "type": "uint256"
        }
      ],
      "name": "setTaxFeePercent",
      "outputs": [],
      "stateMutability": "nonpayable",
      "type": "function"
    },
    {
      "inputs": [
        {
          "internalType": "uint256",
          "name": "liquidityFeeBps",
          "type": "uint256"
        }
      ],
      "name": "setLiquidityFeePercent",
      "outputs": [],
      "stateMutability": "nonpayable",
      "type": "function"
    },
    {
      "inputs": [
        {
          "internalType": "uint256",
          "name": "maxTxBps",
          "type": "uint256"
        }
      ],
      "name": "setMaxTxPercent",
      "outputs": [],
      "stateMutability": "nonpayable",
      "type": "function"
    },
    {
      "inputs": [
        {
          "internalType": "bool",
          "name": "_enabled",
          "type": "bool"
        }
      ],
      "name": "setSwapAndLiquifyEnabled",
      "outputs": [],
      "stateMutability": "nonpayable",
      "type": "function"
    },
    {
      "inputs": [
        {
          "internalType": "address",
          "name": "account",
          "type": "address"
        }
      ],
      "name": "isExcludedFromFee",
      "outputs": [
        {
          "internalType": "bool",
          "name": "",
          "type": "bool"
        }
      ],
      "stateMutability": "view",
      "type": "function"
    }
  ],
  "bytecode": "0x6080604052600e54600f556010546011556012546013556001601660156101000a81548160ff0219169083151502179055503480156200003e57600080fd5b506200005f620000536200006560201b60201c565b6200006d60201b60201c565b62000131565b600033905090565b60008060009054906101000a900473ffffffffffffffffffffffffffffffffffffffff169050816000806101000a81548173ffffffffffffffffffffffffffffffffffffffff021916908373ffffffffffffffffffffffffffffffffffffffff1602179055508173ffffffffffffffffffffffffffffffffffffffff168173ffffffffffffffffffffffffffffffffffffffff167f8be0079c531659141344cd1fd0a4f28419497f9722a3daafe3b4186f6b6457e060405160405180910390a35050565b6164a580620001416000396000f3fe6080604052600436106102345760003560e01c806352390c021161012e5780638ee88c53116100ab578063c49b9a801161006f578063c49b9a8014610898578063d543dbeb146108c1578063dd62ed3e146108ea578063ea2f0b3714610927578063f2fde38b146109505761023b565b80638ee88c53146107a157806395d89b41146107ca578063a457c2d7146107f5578063a9059cbb14610832578063b00544f61461086f5761023b565b806370a08231116100f257806370a08231146106ba578063715018a6146106f75780637d1db4a51461070e57806388f82020146107395780638da5cb5b146107765761023b565b806352390c02146105c35780635342acb4146105ec5780635b89029c14610629578063658c27a9146106525780636bc87c3a1461068f5761023b565b8063313ce567116101bc57806340f8007a1161018057806340f8007a146104dc578063437823ec146105075780634549b0391461053057806349bd5a5e1461056d5780634a74bb02146105985761023b565b8063313ce567146103f75780633685d41914610422578063395093511461044b5780633b124fe7146104885780633bd5d173146104b35761023b565b80631694505e116102035780631694505e146102fc57806318160ddd1461032757806319a8ac9e1461035257806323b872dd1461037d5780632d838119146103ba5761023b565b8063061c82d01461024057806306fdde0314610269578063095ea7b31461029457806313114a9d146102d15761023b565b3661023b57005b600080fd5b34801561024c57600080fd5b5061026760048036038101906102629190614d42565b610979565b005b34801561027557600080fd5b5061027e610a51565b60405161028b9190614e08565b60405180910390f35b3480156102a057600080fd5b506102bb60048036038101906102b69190614e88565b610ae3565b6040516102c89190614ee3565b60405180910390f35b3480156102dd57600080fd5b506102e6610b01565b6040516102f39190614f0d565b60405180910390f35b34801561030857600080fd5b50610311610b0b565b60405161031e9190614f87565b60405180910390f35b34801561033357600080fd5b5061033c610b31565b6040516103499190614f0d565b60405180910390f35b34801561035e57600080fd5b50610367610b3b565b6040516103749190614fb1565b60405180910390f35b34801561038957600080fd5b506103a4600480360381019061039f9190614fcc565b610b61565b6040516103b19190614ee3565b60405180910390f35b3480156103c657600080fd5b506103e160048036038101906103dc9190614d42565b610c3a565b6040516103ee9190614f0d565b60405180910390f35b34801561040357600080fd5b5061040c610ca8565b604051610419919061503b565b60405180910390f35b34801561042e57600080fd5b5061044960048036038101906104449190615056565b610cbf565b005b34801561045757600080fd5b50610472600480360381019061046d9190614e88565b610ff5565b60405161047f9190614ee3565b60405180910390f35b34801561049457600080fd5b5061049d6110a8565b6040516104aa9190614f0d565b60405180910390f35b3480156104bf57600080fd5b506104da60048036038101906104d59190614d42565b6110ae565b005b3480156104e857600080fd5b506104f161122a565b6040516104fe9190614f0d565b60405180910390f35b34801561051357600080fd5b5061052e60048036038101906105299190615056565b611230565b005b34801561053c57600080fd5b50610557600480360381019061055291906150af565b611307565b6040516105649190614f0d565b60405180910390f35b34801561057957600080fd5b5061058261138d565b60405161058f9190614fb1565b60405180910390f35b3480156105a457600080fd5b506105ad6113b3565b6040516105ba9190614ee3565b60405180910390f35b3480156105cf57600080fd5b506105ea60048036038101906105e59190615056565b6113c6565b005b3480156105f857600080fd5b50610613600480360381019061060e9190615056565b611661565b6040516106209190614ee3565b60405180910390f35b34801561063557600080fd5b50610650600480360381019061064b91906150ef565b6116b7565b005b34801561065e57600080fd5b5061067960048036038101906106749190615056565b61178e565b6040516106869190614ee3565b60405180910390f35b34801561069b57600080fd5b506106a46117e4565b6040516106b19190614f0d565b60405180910390f35b3480156106c657600080fd5b506106e160048036038101906106dc9190615056565b6117ea565b6040516106ee9190614f0d565b60405180910390f35b34801561070357600080fd5b5061070c6118d5565b005b34801561071a57600080fd5b5061072361195d565b6040516107309190614f0d565b60405180910390f35b34801561074557600080fd5b50610760600480360381019061075b9190615056565b611963565b60405161076d9190614ee3565b60405180910390f35b34801561078257600080fd5b5061078b6119b9565b6040516107989190614fb1565b60405180910390f35b3480156107ad57600080fd5b506107c860048036038101906107c39190614d42565b6119e2565b005b3480156107d657600080fd5b506107df611aba565b6040516107ec9190614e08565b60405180910390f35b34801561080157600080fd5b5061081c60048036038101906108179190614e88565b611b4c565b6040516108299190614ee3565b60405180910390f35b34801561083e57600080fd5b5061085960048036038101906108549190614e88565b611c19565b6040516108669190614ee3565b60405180910390f35b34801561087b57600080fd5b506108966004803603810190610891919061529e565b611c37565b005b3480156108a457600080fd5b506108bf60048036038101906108ba91906153b5565b612522565b005b3480156108cd57600080fd5b506108e860048036038101906108e39190614d42565b6125f2565b005b3480156108f657600080fd5b50610911600480360381019061090c91906153e2565b6126f2565b60405161091e9190614f0d565b60405180910390f35b34801561093357600080fd5b5061094e60048036038101906109499190615056565b612779565b005b34801561095c57600080fd5b5061097760048036038101906109729190615056565b612850565b005b610981612948565b73ffffffffffffffffffffffffffffffffffffffff1661099f6119b9565b73ffffffffffffffffffffffffffffffffffffffff16146109f5576040517f08c379a00000000000000000000000000000000000000000000000000000000081526004016109ec9061546e565b60405180910390fd5b60008110158015610a0857506127108111155b610a47576040517f08c379a0000000000000000000000000000000000000000000000000000000008152600401610a3e906154da565b60405180910390fd5b80600e8190555050565b6060600b8054610a6090615529565b80601f0160208091040260200160405190810160405280929190818152602001828054610a8c90615529565b8015610ad95780601f10610aae57610100808354040283529160200191610ad9565b820191906000526020600020905b815481529060010190602001808311610abc57829003601f168201915b5050505050905090565b6000610af7610af0612948565b8484612950565b6001905092915050565b6000600a54905090565b601460009054906101000a900473ffffffffffffffffffffffffffffffffffffffff1681565b6000600854905090565b601660009054906101000a900473ffffffffffffffffffffffffffffffffffffffff1681565b6000610b6e848484612b1b565b610c2f84610b7a612948565b610c2a8560405180606001604052806028815260200161642360289139600360008b73ffffffffffffffffffffffffffffffffffffffff1673ffffffffffffffffffffffffffffffffffffffff1681526020019081526020016000206000610be0612948565b73ffffffffffffffffffffffffffffffffffffffff1673ffffffffffffffffffffffffffffffffffffffff16815260200190815260200160002054612f359092919063ffffffff16565b612950565b600190509392505050565b6000600954821115610c81576040517f08c379a0000000000000000000000000000000000000000000000000000000008152600401610c78906155cd565b60405180910390fd5b6000610c8b612f8a565b9050610ca08184612fb590919063ffffffff16565b915050919050565b6000600d60009054906101000a900460ff16905090565b610cc7612948565b73ffffffffffffffffffffffffffffffffffffffff16610ce56119b9565b73ffffffffffffffffffffffffffffffffffffffff1614610d3b576040517f08c379a0000000000000000000000000000000000000000000000000000000008152600401610d329061546e565b60405180910390fd5b600660008273ffffffffffffffffffffffffffffffffffffffff1673ffffffffffffffffffffffffffffffffffffffff16815260200190815260200160002060009054906101000a900460ff16610dc7576040517f08c379a0000000000000000000000000000000000000000000000000000000008152600401610dbe90615639565b60405180910390fd5b60005b600780549050811015610ff1578173ffffffffffffffffffffffffffffffffffffffff1660078281548110610e0257610e01615659565b5b9060005260206000200160009054906101000a900473ffffffffffffffffffffffffffffffffffffffff1673ffffffffffffffffffffffffffffffffffffffff161415610fde5760076001600780549050610e5d91906156b7565b81548110610e6e57610e6d615659565b5b9060005260206000200160009054906101000a900473ffffffffffffffffffffffffffffffffffffffff1660078281548110610ead57610eac615659565b5b9060005260206000200160006101000a81548173ffffffffffffffffffffffffffffffffffffffff021916908373ffffffffffffffffffffffffffffffffffffffff1602179055506000600260008473ffffffffffffffffffffffffffffffffffffffff1673ffffffffffffffffffffffffffffffffffffffff168152602001908152602001600020819055506000600660008473ffffffffffffffffffffffffffffffffffffffff1673ffffffffffffffffffffffffffffffffffffffff16815260200190815260200160002060006101000a81548160ff0219169083151502179055506007805480610fa457610fa36156eb565b5b6001900381819060005260206000200160006101000a81549073ffffffffffffffffffffffffffffffffffffffff02191690559055610ff1565b8080610fe99061571a565b915050610dca565b5050565b600061109e611002612948565b846110998560036000611013612948565b73ffffffffffffffffffffffffffffffffffffffff1673ffffffffffffffffffffffffffffffffffffffff16815260200190815260200160002060008973ffffffffffffffffffffffffffffffffffffffff1673ffffffffffffffffffffffffffffffffffffffff16815260200190815260200160002054612fcb90919063ffffffff16565b612950565b6001905092915050565b600e5481565b60006110b8612948565b9050600660008273ffffffffffffffffffffffffffffffffffffffff1673ffffffffffffffffffffffffffffffffffffffff16815260200190815260200160002060009054906101000a900460ff1615611147576040517f08c379a000000000000000000000000000000000000000000000000000000000815260040161113e906157d5565b60405180910390fd5b600061115283612fe1565b50505050505090506111ac81600160008573ffffffffffffffffffffffffffffffffffffffff1673ffffffffffffffffffffffffffffffffffffffff1681526020019081526020016000205461304990919063ffffffff16565b600160008473ffffffffffffffffffffffffffffffffffffffff1673ffffffffffffffffffffffffffffffffffffffff168152602001908152602001600020819055506112048160095461304990919063ffffffff16565b60098190555061121f83600a54612fcb90919063ffffffff16565b600a81905550505050565b60125481565b611238612948565b73ffffffffffffffffffffffffffffffffffffffff166112566119b9565b73ffffffffffffffffffffffffffffffffffffffff16146112ac576040517f08c379a00000000000000000000000000000000000000000000000000000000081526004016112a39061546e565b60405180910390fd5b6001600460008373ffffffffffffffffffffffffffffffffffffffff1673ffffffffffffffffffffffffffffffffffffffff16815260200190815260200160002060006101000a81548160ff02191690831515021790555050565b600060085483111561134e576040517f08c379a000000000000000000000000000000000000000000000000000000000815260040161134590615841565b60405180910390fd5b8161136f57600061135e84612fe1565b505050505050905080915050611387565b600061137a84612fe1565b5050505050915050809150505b92915050565b601560009054906101000a900473ffffffffffffffffffffffffffffffffffffffff1681565b601660159054906101000a900460ff1681565b6113ce612948565b73ffffffffffffffffffffffffffffffffffffffff166113ec6119b9565b73ffffffffffffffffffffffffffffffffffffffff1614611442576040517f08c379a00000000000000000000000000000000000000000000000000000000081526004016114399061546e565b60405180910390fd5b600660008273ffffffffffffffffffffffffffffffffffffffff1673ffffffffffffffffffffffffffffffffffffffff16815260200190815260200160002060009054906101000a900460ff16156114cf576040517f08c379a00000000000000000000000000000000000000000000000000000000081526004016114c690615639565b60405180910390fd5b6000600160008373ffffffffffffffffffffffffffffffffffffffff1673ffffffffffffffffffffffffffffffffffffffff1681526020019081526020016000205411156115a35761155f600160008373ffffffffffffffffffffffffffffffffffffffff1673ffffffffffffffffffffffffffffffffffffffff16815260200190815260200160002054610c3a565b600260008373ffffffffffffffffffffffffffffffffffffffff1673ffffffffffffffffffffffffffffffffffffffff168152602001908152602001600020819055505b6001600660008373ffffffffffffffffffffffffffffffffffffffff1673ffffffffffffffffffffffffffffffffffffffff16815260200190815260200160002060006101000a81548160ff0219169083151502179055506007819080600181540180825580915050600190039060005260206000200160009091909190916101000a81548173ffffffffffffffffffffffffffffffffffffffff021916908373ffffffffffffffffffffffffffffffffffffffff16021790555050565b6000600460008373ffffffffffffffffffffffffffffffffffffffff1673ffffffffffffffffffffffffffffffffffffffff16815260200190815260200160002060009054906101000a900460ff169050919050565b6116bf612948565b73ffffffffffffffffffffffffffffffffffffffff166116dd6119b9565b73ffffffffffffffffffffffffffffffffffffffff1614611733576040517f08c379a000000000000000000000000000000000000000000000000000000000815260040161172a9061546e565b60405180910390fd5b80600560008473ffffffffffffffffffffffffffffffffffffffff1673ffffffffffffffffffffffffffffffffffffffff16815260200190815260200160002060006101000a81548160ff0219169083151502179055505050565b6000600560008373ffffffffffffffffffffffffffffffffffffffff1673ffffffffffffffffffffffffffffffffffffffff16815260200190815260200160002060009054906101000a900460ff169050919050565b60105481565b6000600660008373ffffffffffffffffffffffffffffffffffffffff1673ffffffffffffffffffffffffffffffffffffffff16815260200190815260200160002060009054906101000a900460ff161561188557600260008373ffffffffffffffffffffffffffffffffffffffff1673ffffffffffffffffffffffffffffffffffffffff1681526020019081526020016000205490506118d0565b6118cd600160008473ffffffffffffffffffffffffffffffffffffffff1673ffffffffffffffffffffffffffffffffffffffff16815260200190815260200160002054610c3a565b90505b919050565b6118dd612948565b73ffffffffffffffffffffffffffffffffffffffff166118fb6119b9565b73ffffffffffffffffffffffffffffffffffffffff1614611951576040517f08c379a00000000000000000000000000000000000000000000000000000000081526004016119489061546e565b60405180910390fd5b61195b600061305f565b565b60175481565b6000600660008373ffffffffffffffffffffffffffffffffffffffff1673ffffffffffffffffffffffffffffffffffffffff16815260200190815260200160002060009054906101000a900460ff169050919050565b60008060009054906101000a900473ffffffffffffffffffffffffffffffffffffffff16905090565b6119ea612948565b73ffffffffffffffffffffffffffffffffffffffff16611a086119b9565b73ffffffffffffffffffffffffffffffffffffffff1614611a5e576040517f08c379a0000000000000000000000000000000000000000000000000000000008152600401611a559061546e565b60405180910390fd5b60008110158015611a7157506127108111155b611ab0576040517f08c379a0000000000000000000000000000000000000000000000000000000008152600401611aa7906154da565b60405180910390fd5b8060108190555050565b6060600c8054611ac990615529565b80601f0160208091040260200160405190810160405280929190818152602001828054611af590615529565b8015611b425780601f10611b1757610100808354040283529160200191611b42565b820191906000526020600020905b815481529060010190602001808311611b2557829003601f168201915b5050505050905090565b6000611c0f611b59612948565b84611c0a8560405180606001604052806025815260200161644b6025913960036000611b83612948565b73ffffffffffffffffffffffffffffffffffffffff1673ffffffffffffffffffffffffffffffffffffffff16815260200190815260200160002060008a73ffffffffffffffffffffffffffffffffffffffff1673ffffffffffffffffffffffffffffffffffffffff16815260200190815260200160002054612f359092919063ffffffff16565b612950565b6001905092915050565b6000611c2d611c26612948565b8484612b1b565b6001905092915050565b600060159054906101000a900460ff16611c6157600060149054906101000a900460ff1615611c6a565b611c69613123565b5b611ca9576040517f08c379a0000000000000000000000000000000000000000000000000000000008152600401611ca0906158d3565b60405180910390fd5b60008060159054906101000a900460ff161590508015611cfa576001600060156101000a81548160ff0219169083151502179055506001600060146101000a81548160ff0219169083151502179055505b60008561ffff1610158015611d1557506127108561ffff1611155b611d54576040517f08c379a0000000000000000000000000000000000000000000000000000000008152600401611d4b9061593f565b60405180910390fd5b60008461ffff1610158015611d6f57506127108461ffff1611155b611dae576040517f08c379a0000000000000000000000000000000000000000000000000000000008152600401611da5906159ab565b60405180910390fd5b60008361ffff1610158015611dc957506127108361ffff1611155b611e08576040517f08c379a0000000000000000000000000000000000000000000000000000000008152600401611dff90615a17565b60405180910390fd5b60008261ffff16118015611e2257506127108261ffff1611155b611e61576040517f08c379a0000000000000000000000000000000000000000000000000000000008152600401611e5890615a83565b60405180910390fd5b600073ffffffffffffffffffffffffffffffffffffffff168673ffffffffffffffffffffffffffffffffffffffff161415611ede5760008361ffff1614611edd576040517f08c379a0000000000000000000000000000000000000000000000000000000008152600401611ed490615b3b565b60405180910390fd5b5b612710838587611eee9190615b5b565b611ef89190615b5b565b61ffff161115611f3d576040517f08c379a0000000000000000000000000000000000000000000000000000000008152600401611f3490615c05565b60405180910390fd5b611f468b612850565b89600b9080519060200190611f5c929190614c55565b5088600c9080519060200190611f73929190614c55565b506009600d60006101000a81548160ff021916908360ff16021790555087600881905550600854600019611fa79190615c54565b600019611fb491906156b7565b6009819055508461ffff16600e81905550600e54600f819055508361ffff1660108190555060105460118190555085601660006101000a81548173ffffffffffffffffffffffffffffffffffffffff021916908373ffffffffffffffffffffffffffffffffffffffff1602179055508261ffff166012819055506012546013819055506120626127106120548461ffff168b61313490919063ffffffff16565b612fb590919063ffffffff16565b60178190555061209061271061208260058b61313490919063ffffffff16565b612fb590919063ffffffff16565b601881905550600954600160006120a56119b9565b73ffffffffffffffffffffffffffffffffffffffff1673ffffffffffffffffffffffffffffffffffffffff1681526020019081526020016000208190555060008790508073ffffffffffffffffffffffffffffffffffffffff1663c45a01556040518163ffffffff1660e01b8152600401602060405180830381865afa158015612133573d6000803e3d6000fd5b505050506040513d601f19601f820116820180604052508101906121579190615c9a565b73ffffffffffffffffffffffffffffffffffffffff1663c9c65396308373ffffffffffffffffffffffffffffffffffffffff1663ad5c46486040518163ffffffff1660e01b8152600401602060405180830381865afa1580156121be573d6000803e3d6000fd5b505050506040513d601f19601f820116820180604052508101906121e29190615c9a565b6040518363ffffffff1660e01b81526004016121ff929190615cc7565b6020604051808303816000875af115801561221e573d6000803e3d6000fd5b505050506040513d601f19601f820116820180604052508101906122429190615c9a565b601560006101000a81548173ffffffffffffffffffffffffffffffffffffffff021916908373ffffffffffffffffffffffffffffffffffffffff16021790555080601460006101000a81548173ffffffffffffffffffffffffffffffffffffffff021916908373ffffffffffffffffffffffffffffffffffffffff1602179055506001600460006122d16119b9565b73ffffffffffffffffffffffffffffffffffffffff1673ffffffffffffffffffffffffffffffffffffffff16815260200190815260200160002060006101000a81548160ff0219169083151502179055506001600460003073ffffffffffffffffffffffffffffffffffffffff1673ffffffffffffffffffffffffffffffffffffffff16815260200190815260200160002060006101000a81548160ff0219169083151502179055506001600560003073ffffffffffffffffffffffffffffffffffffffff1673ffffffffffffffffffffffffffffffffffffffff16815260200190815260200160002060006101000a81548160ff02191690831515021790555060016005600061dead73ffffffffffffffffffffffffffffffffffffffff1673ffffffffffffffffffffffffffffffffffffffff16815260200190815260200160002060006101000a81548160ff0219169083151502179055506001600560008073ffffffffffffffffffffffffffffffffffffffff1673ffffffffffffffffffffffffffffffffffffffff16815260200190815260200160002060006101000a81548160ff02191690831515021790555061248c6119b9565b73ffffffffffffffffffffffffffffffffffffffff16600073ffffffffffffffffffffffffffffffffffffffff167fddf252ad1be2c89b69c2b068fc378daa952ba7f163c4a11628f55a4df523b3ef6008546040516124eb9190614f0d565b60405180910390a35080156125155760008060156101000a81548160ff0219169083151502179055505b5050505050505050505050565b61252a612948565b73ffffffffffffffffffffffffffffffffffffffff166125486119b9565b73ffffffffffffffffffffffffffffffffffffffff161461259e576040517f08c379a00000000000000000000000000000000000000000000000000000000081526004016125959061546e565b60405180910390fd5b80601660156101000a81548160ff0219169083151502179055507f53726dfcaf90650aa7eb35524f4d3220f07413c8d6cb404cc8c18bf5591bc159816040516125e79190614ee3565b60405180910390a150565b6125fa612948565b73ffffffffffffffffffffffffffffffffffffffff166126186119b9565b73ffffffffffffffffffffffffffffffffffffffff161461266e576040517f08c379a00000000000000000000000000000000000000000000000000000000081526004016126659061546e565b60405180910390fd5b6000811015801561268157506127108111155b6126c0576040517f08c379a00000000000000000000000000000000000000000000000000000000081526004016126b7906154da565b60405180910390fd5b6126e96127106126db8360085461313490919063ffffffff16565b612fb590919063ffffffff16565b60178190555050565b6000600360008473ffffffffffffffffffffffffffffffffffffffff1673ffffffffffffffffffffffffffffffffffffffff16815260200190815260200160002060008373ffffffffffffffffffffffffffffffffffffffff1673ffffffffffffffffffffffffffffffffffffffff16815260200190815260200160002054905092915050565b612781612948565b73ffffffffffffffffffffffffffffffffffffffff1661279f6119b9565b73ffffffffffffffffffffffffffffffffffffffff16146127f5576040517f08c379a00000000000000000000000000000000000000000000000000000000081526004016127ec9061546e565b60405180910390fd5b6000600460008373ffffffffffffffffffffffffffffffffffffffff1673ffffffffffffffffffffffffffffffffffffffff16815260200190815260200160002060006101000a81548160ff02191690831515021790555050565b612858612948565b73ffffffffffffffffffffffffffffffffffffffff166128766119b9565b73ffffffffffffffffffffffffffffffffffffffff16146128cc576040517f08c379a00000000000000000000000000000000000000000000000000000000081526004016128c39061546e565b60405180910390fd5b600073ffffffffffffffffffffffffffffffffffffffff168173ffffffffffffffffffffffffffffffffffffffff16141561293c576040517f08c379a000000000000000000000000000000000000000000000000000000000815260040161293390615d62565b60405180910390fd5b6129458161305f565b50565b600033905090565b600073ffffffffffffffffffffffffffffffffffffffff168373ffffffffffffffffffffffffffffffffffffffff1614156129c0576040517f08c379a00000000000000000000000000000000000000000000000000000000081526004016129b790615df4565b60405180910390fd5b600073ffffffffffffffffffffffffffffffffffffffff168273ffffffffffffffffffffffffffffffffffffffff161415612a30576040517f08c379a0000000000000000000000000000000000000000000000000000000008152600401612a2790615e86565b60405180910390fd5b80600360008573ffffffffffffffffffffffffffffffffffffffff1673ffffffffffffffffffffffffffffffffffffffff16815260200190815260200160002060008473ffffffffffffffffffffffffffffffffffffffff1673ffffffffffffffffffffffffffffffffffffffff168152602001908152602001600020819055508173ffffffffffffffffffffffffffffffffffffffff168373ffffffffffffffffffffffffffffffffffffffff167f8c5be1e5ebec7d5bd14f71427d1e84f3dd0314c0f7b2291e5b200ac8c7c3b92583604051612b0e9190614f0d565b60405180910390a3505050565b600073ffffffffffffffffffffffffffffffffffffffff168373ffffffffffffffffffffffffffffffffffffffff161415612b8b576040517f08c379a0000000000000000000000000000000000000000000000000000000008152600401612b8290615f18565b60405180910390fd5b600073ffffffffffffffffffffffffffffffffffffffff168273ffffffffffffffffffffffffffffffffffffffff161415612bfb576040517f08c379a0000000000000000000000000000000000000000000000000000000008152600401612bf290615faa565b60405180910390fd5b60008111612c3e576040517f08c379a0000000000000000000000000000000000000000000000000000000008152600401612c359061603c565b60405180910390fd5b612c466119b9565b73ffffffffffffffffffffffffffffffffffffffff168373ffffffffffffffffffffffffffffffffffffffff1614158015612cb45750612c846119b9565b73ffffffffffffffffffffffffffffffffffffffff168273ffffffffffffffffffffffffffffffffffffffff1614155b80612d5f5750600560008473ffffffffffffffffffffffffffffffffffffffff1673ffffffffffffffffffffffffffffffffffffffff16815260200190815260200160002060009054906101000a900460ff16158015612d5e5750600560008373ffffffffffffffffffffffffffffffffffffffff1673ffffffffffffffffffffffffffffffffffffffff16815260200190815260200160002060009054906101000a900460ff16155b5b15612daa57601754811115612da9576040517f08c379a0000000000000000000000000000000000000000000000000000000008152600401612da0906160ce565b60405180910390fd5b5b6000612db5306117ea565b90506017548110612dc65760175490505b60006018548210159050808015612dea5750601660149054906101000a900460ff16155b8015612e445750601560009054906101000a900473ffffffffffffffffffffffffffffffffffffffff1673ffffffffffffffffffffffffffffffffffffffff168573ffffffffffffffffffffffffffffffffffffffff1614155b8015612e5c5750601660159054906101000a900460ff165b15612e70576018549150612e6f8261314a565b5b600060019050600460008773ffffffffffffffffffffffffffffffffffffffff1673ffffffffffffffffffffffffffffffffffffffff16815260200190815260200160002060009054906101000a900460ff1680612f175750600460008673ffffffffffffffffffffffffffffffffffffffff1673ffffffffffffffffffffffffffffffffffffffff16815260200190815260200160002060009054906101000a900460ff165b15612f2157600090505b612f2d86868684613220565b505050505050565b6000838311158290612f7d576040517f08c379a0000000000000000000000000000000000000000000000000000000008152600401612f749190614e08565b60405180910390fd5b5082840390509392505050565b6000806000612f97613531565b91509150612fae8183612fb590919063ffffffff16565b9250505090565b60008183612fc391906160ee565b905092915050565b60008183612fd9919061611f565b905092915050565b6000806000806000806000806000806000612ffb8c6137e4565b9350935093509350600080600061301c8f878787613017612f8a565b613863565b925092509250828282898989899d509d509d509d509d509d509d5050505050505050919395979092949650565b6000818361305791906156b7565b905092915050565b60008060009054906101000a900473ffffffffffffffffffffffffffffffffffffffff169050816000806101000a81548173ffffffffffffffffffffffffffffffffffffffff021916908373ffffffffffffffffffffffffffffffffffffffff1602179055508173ffffffffffffffffffffffffffffffffffffffff168173ffffffffffffffffffffffffffffffffffffffff167f8be0079c531659141344cd1fd0a4f28419497f9722a3daafe3b4186f6b6457e060405160405180910390a35050565b600061312e30613917565b15905090565b600081836131429190616175565b905092915050565b6001601660146101000a81548160ff021916908315150217905550600061317b600283612fb590919063ffffffff16565b90506000613192828461304990919063ffffffff16565b905060004790506131a28361393a565b60006131b7824761304990919063ffffffff16565b90506131c38382613b7d565b7f17bbfb9a6069321b6ded73bd96327c9e6b7212a5cd51ff219cd61370acafb5618482856040516131f6939291906161cf565b60405180910390a1505050506000601660146101000a81548160ff02191690831515021790555050565b8061322e5761322d613c62565b5b600660008573ffffffffffffffffffffffffffffffffffffffff1673ffffffffffffffffffffffffffffffffffffffff16815260200190815260200160002060009054906101000a900460ff1680156132d15750600660008473ffffffffffffffffffffffffffffffffffffffff1673ffffffffffffffffffffffffffffffffffffffff16815260200190815260200160002060009054906101000a900460ff16155b156132e6576132e1848484613cc4565b61351d565b600660008573ffffffffffffffffffffffffffffffffffffffff1673ffffffffffffffffffffffffffffffffffffffff16815260200190815260200160002060009054906101000a900460ff161580156133895750600660008473ffffffffffffffffffffffffffffffffffffffff1673ffffffffffffffffffffffffffffffffffffffff16815260200190815260200160002060009054906101000a900460ff165b1561339e57613399848484613f32565b61351c565b600660008573ffffffffffffffffffffffffffffffffffffffff1673ffffffffffffffffffffffffffffffffffffffff16815260200190815260200160002060009054906101000a900460ff161580156134425750600660008473ffffffffffffffffffffffffffffffffffffffff1673ffffffffffffffffffffffffffffffffffffffff16815260200190815260200160002060009054906101000a900460ff16155b15613457576134528484846141a0565b61351b565b600660008573ffffffffffffffffffffffffffffffffffffffff1673ffffffffffffffffffffffffffffffffffffffff16815260200190815260200160002060009054906101000a900460ff1680156134f95750600660008473ffffffffffffffffffffffffffffffffffffffff1673ffffffffffffffffffffffffffffffffffffffff16815260200190815260200160002060009054906101000a900460ff165b1561350e57613509848484614379565b61351a565b6135198484846141a0565b5b5b5b5b8061352b5761352a61467c565b5b50505050565b600080600060095490506000600854905060005b6007805490508110156137a75782600160006007848154811061356b5761356a615659565b5b9060005260206000200160009054906101000a900473ffffffffffffffffffffffffffffffffffffffff1673ffffffffffffffffffffffffffffffffffffffff1673ffffffffffffffffffffffffffffffffffffffff16815260200190815260200160002054118061365957508160026000600784815481106135f1576135f0615659565b5b9060005260206000200160009054906101000a900473ffffffffffffffffffffffffffffffffffffffff1673ffffffffffffffffffffffffffffffffffffffff1673ffffffffffffffffffffffffffffffffffffffff16815260200190815260200160002054115b1561367057600954600854945094505050506137e0565b613700600160006007848154811061368b5761368a615659565b5b9060005260206000200160009054906101000a900473ffffffffffffffffffffffffffffffffffffffff1673ffffffffffffffffffffffffffffffffffffffff1673ffffffffffffffffffffffffffffffffffffffff168152602001908152602001600020548461304990919063ffffffff16565b9250613792600260006007848154811061371d5761371c615659565b5b9060005260206000200160009054906101000a900473ffffffffffffffffffffffffffffffffffffffff1673ffffffffffffffffffffffffffffffffffffffff1673ffffffffffffffffffffffffffffffffffffffff168152602001908152602001600020548361304990919063ffffffff16565b9150808061379f9061571a565b915050613545565b506137bf600854600954612fb590919063ffffffff16565b8210156137d7576009546008549350935050506137e0565b81819350935050505b9091565b60008060008060006137f586614699565b90506000613802876146cb565b9050600061380f886146fd565b9050600061384a8261383c8561382e888e61304990919063ffffffff16565b61304990919063ffffffff16565b61304990919063ffffffff16565b9050808484849750975097509750505050509193509193565b60008060008061387c858a61313490919063ffffffff16565b90506000613893868a61313490919063ffffffff16565b905060006138aa878a61313490919063ffffffff16565b905060006138c1888a61313490919063ffffffff16565b905060006138fc826138ee856138e0888a61304990919063ffffffff16565b61304990919063ffffffff16565b61304990919063ffffffff16565b90508481859750975097505050505050955095509592505050565b6000808273ffffffffffffffffffffffffffffffffffffffff163b119050919050565b6000600267ffffffffffffffff81111561395757613956615139565b5b6040519080825280602002602001820160405280156139855781602001602082028036833780820191505090505b509050308160008151811061399d5761399c615659565b5b602002602001019073ffffffffffffffffffffffffffffffffffffffff16908173ffffffffffffffffffffffffffffffffffffffff1681525050601460009054906101000a900473ffffffffffffffffffffffffffffffffffffffff1673ffffffffffffffffffffffffffffffffffffffff1663ad5c46486040518163ffffffff1660e01b8152600401602060405180830381865afa158015613a44573d6000803e3d6000fd5b505050506040513d601f19601f82011682018060405250810190613a689190615c9a565b81600181518110613a7c57613a7b615659565b5b602002602001019073ffffffffffffffffffffffffffffffffffffffff16908173ffffffffffffffffffffffffffffffffffffffff1681525050613ae330601460009054906101000a900473ffffffffffffffffffffffffffffffffffffffff1684612950565b601460009054906101000a900473ffffffffffffffffffffffffffffffffffffffff1673ffffffffffffffffffffffffffffffffffffffff1663791ac9478360008430426040518663ffffffff1660e01b8152600401613b479594939291906162ff565b600060405180830381600087803b158015613b6157600080fd5b505af1158015613b75573d6000803e3d6000fd5b505050505050565b613baa30601460009054906101000a900473ffffffffffffffffffffffffffffffffffffffff1684612950565b601460009054906101000a900473ffffffffffffffffffffffffffffffffffffffff1673ffffffffffffffffffffffffffffffffffffffff1663f305d719823085600080613bf66119b9565b426040518863ffffffff1660e01b8152600401613c1896959493929190616359565b60606040518083038185885af1158015613c36573d6000803e3d6000fd5b50505050506040513d601f19601f82011682018060405250810190613c5b91906163cf565b5050505050565b6000600e54148015613c7657506000601054145b8015613c8457506000601254145b15613c8e57613cc2565b600e54600f819055506010546011819055506012546013819055506000600e81905550600060108190555060006012819055505b565b6000806000806000806000613cd888612fe1565b9650965096509650965096509650613d3888600260008d73ffffffffffffffffffffffffffffffffffffffff1673ffffffffffffffffffffffffffffffffffffffff1681526020019081526020016000205461304990919063ffffffff16565b600260008c73ffffffffffffffffffffffffffffffffffffffff1673ffffffffffffffffffffffffffffffffffffffff16815260200190815260200160002081905550613dcd87600160008d73ffffffffffffffffffffffffffffffffffffffff1673ffffffffffffffffffffffffffffffffffffffff1681526020019081526020016000205461304990919063ffffffff16565b600160008c73ffffffffffffffffffffffffffffffffffffffff1673ffffffffffffffffffffffffffffffffffffffff16815260200190815260200160002081905550613e6286600160008c73ffffffffffffffffffffffffffffffffffffffff1673ffffffffffffffffffffffffffffffffffffffff16815260200190815260200160002054612fcb90919063ffffffff16565b600160008b73ffffffffffffffffffffffffffffffffffffffff1673ffffffffffffffffffffffffffffffffffffffff16815260200190815260200160002081905550613eae8261478f565b613eb781614934565b613ec18584614c1b565b8873ffffffffffffffffffffffffffffffffffffffff168a73ffffffffffffffffffffffffffffffffffffffff167fddf252ad1be2c89b69c2b068fc378daa952ba7f163c4a11628f55a4df523b3ef86604051613f1e9190614f0d565b60405180910390a350505050505050505050565b6000806000806000806000613f4688612fe1565b9650965096509650965096509650613fa687600160008d73ffffffffffffffffffffffffffffffffffffffff1673ffffffffffffffffffffffffffffffffffffffff1681526020019081526020016000205461304990919063ffffffff16565b600160008c73ffffffffffffffffffffffffffffffffffffffff1673ffffffffffffffffffffffffffffffffffffffff1681526020019081526020016000208190555061403b84600260008c73ffffffffffffffffffffffffffffffffffffffff1673ffffffffffffffffffffffffffffffffffffffff16815260200190815260200160002054612fcb90919063ffffffff16565b600260008b73ffffffffffffffffffffffffffffffffffffffff1673ffffffffffffffffffffffffffffffffffffffff168152602001908152602001600020819055506140d086600160008c73ffffffffffffffffffffffffffffffffffffffff1673ffffffffffffffffffffffffffffffffffffffff16815260200190815260200160002054612fcb90919063ffffffff16565b600160008b73ffffffffffffffffffffffffffffffffffffffff1673ffffffffffffffffffffffffffffffffffffffff1681526020019081526020016000208190555061411c8261478f565b61412581614934565b61412f8584614c1b565b8873ffffffffffffffffffffffffffffffffffffffff168a73ffffffffffffffffffffffffffffffffffffffff167fddf252ad1be2c89b69c2b068fc378daa952ba7f163c4a11628f55a4df523b3ef8660405161418c9190614f0d565b60405180910390a350505050505050505050565b60008060008060008060006141b488612fe1565b965096509650965096509650965061421487600160008d73ffffffffffffffffffffffffffffffffffffffff1673ffffffffffffffffffffffffffffffffffffffff1681526020019081526020016000205461304990919063ffffffff16565b600160008c73ffffffffffffffffffffffffffffffffffffffff1673ffffffffffffffffffffffffffffffffffffffff168152602001908152602001600020819055506142a986600160008c73ffffffffffffffffffffffffffffffffffffffff1673ffffffffffffffffffffffffffffffffffffffff16815260200190815260200160002054612fcb90919063ffffffff16565b600160008b73ffffffffffffffffffffffffffffffffffffffff1673ffffffffffffffffffffffffffffffffffffffff168152602001908152602001600020819055506142f58261478f565b6142fe81614934565b6143088584614c1b565b8873ffffffffffffffffffffffffffffffffffffffff168a73ffffffffffffffffffffffffffffffffffffffff167fddf252ad1be2c89b69c2b068fc378daa952ba7f163c4a11628f55a4df523b3ef866040516143659190614f0d565b60405180910390a350505050505050505050565b600080600080600080600061438d88612fe1565b96509650965096509650965096506143ed88600260008d73ffffffffffffffffffffffffffffffffffffffff1673ffffffffffffffffffffffffffffffffffffffff1681526020019081526020016000205461304990919063ffffffff16565b600260008c73ffffffffffffffffffffffffffffffffffffffff1673ffffffffffffffffffffffffffffffffffffffff1681526020019081526020016000208190555061448287600160008d73ffffffffffffffffffffffffffffffffffffffff1673ffffffffffffffffffffffffffffffffffffffff1681526020019081526020016000205461304990919063ffffffff16565b600160008c73ffffffffffffffffffffffffffffffffffffffff1673ffffffffffffffffffffffffffffffffffffffff1681526020019081526020016000208190555061451784600260008c73ffffffffffffffffffffffffffffffffffffffff1673ffffffffffffffffffffffffffffffffffffffff16815260200190815260200160002054612fcb90919063ffffffff16565b600260008b73ffffffffffffffffffffffffffffffffffffffff1673ffffffffffffffffffffffffffffffffffffffff168152602001908152602001600020819055506145ac86600160008c73ffffffffffffffffffffffffffffffffffffffff1673ffffffffffffffffffffffffffffffffffffffff16815260200190815260200160002054612fcb90919063ffffffff16565b600160008b73ffffffffffffffffffffffffffffffffffffffff1673ffffffffffffffffffffffffffffffffffffffff168152602001908152602001600020819055506145f88261478f565b61460181614934565b61460b8584614c1b565b8873ffffffffffffffffffffffffffffffffffffffff168a73ffffffffffffffffffffffffffffffffffffffff167fddf252ad1be2c89b69c2b068fc378daa952ba7f163c4a11628f55a4df523b3ef866040516146689190614f0d565b60405180910390a350505050505050505050565b600f54600e81905550601154601081905550601354601281905550565b60006146c46127106146b6600e548561313490919063ffffffff16565b612fb590919063ffffffff16565b9050919050565b60006146f66127106146e86010548561313490919063ffffffff16565b612fb590919063ffffffff16565b9050919050565b60008073ffffffffffffffffffffffffffffffffffffffff16601660009054906101000a900473ffffffffffffffffffffffffffffffffffffffff1673ffffffffffffffffffffffffffffffffffffffff16141561475e576000905061478a565b6147876127106147796012548561313490919063ffffffff16565b612fb590919063ffffffff16565b90505b919050565b6000614799612f8a565b905060006147b0828461313490919063ffffffff16565b905061480481600160003073ffffffffffffffffffffffffffffffffffffffff1673ffffffffffffffffffffffffffffffffffffffff16815260200190815260200160002054612fcb90919063ffffffff16565b600160003073ffffffffffffffffffffffffffffffffffffffff1673ffffffffffffffffffffffffffffffffffffffff16815260200190815260200160002081905550600660003073ffffffffffffffffffffffffffffffffffffffff1673ffffffffffffffffffffffffffffffffffffffff16815260200190815260200160002060009054906101000a900460ff161561492f576148eb83600260003073ffffffffffffffffffffffffffffffffffffffff1673ffffffffffffffffffffffffffffffffffffffff16815260200190815260200160002054612fcb90919063ffffffff16565b600260003073ffffffffffffffffffffffffffffffffffffffff1673ffffffffffffffffffffffffffffffffffffffff168152602001908152602001600020819055505b505050565b6000811115614c18576000614947612f8a565b9050600061495e828461313490919063ffffffff16565b90506149d48160016000601660009054906101000a900473ffffffffffffffffffffffffffffffffffffffff1673ffffffffffffffffffffffffffffffffffffffff1673ffffffffffffffffffffffffffffffffffffffff16815260200190815260200160002054612fcb90919063ffffffff16565b60016000601660009054906101000a900473ffffffffffffffffffffffffffffffffffffffff1673ffffffffffffffffffffffffffffffffffffffff1673ffffffffffffffffffffffffffffffffffffffff1681526020019081526020016000208190555060066000601660009054906101000a900473ffffffffffffffffffffffffffffffffffffffff1673ffffffffffffffffffffffffffffffffffffffff1673ffffffffffffffffffffffffffffffffffffffff16815260200190815260200160002060009054906101000a900460ff1615614b8757614b218360026000601660009054906101000a900473ffffffffffffffffffffffffffffffffffffffff1673ffffffffffffffffffffffffffffffffffffffff1673ffffffffffffffffffffffffffffffffffffffff16815260200190815260200160002054612fcb90919063ffffffff16565b60026000601660009054906101000a900473ffffffffffffffffffffffffffffffffffffffff1673ffffffffffffffffffffffffffffffffffffffff1673ffffffffffffffffffffffffffffffffffffffff168152602001908152602001600020819055505b601660009054906101000a900473ffffffffffffffffffffffffffffffffffffffff1673ffffffffffffffffffffffffffffffffffffffff16614bc8612948565b73ffffffffffffffffffffffffffffffffffffffff167fddf252ad1be2c89b69c2b068fc378daa952ba7f163c4a11628f55a4df523b3ef85604051614c0d9190614f0d565b60405180910390a350505b50565b614c308260095461304990919063ffffffff16565b600981905550614c4b81600a54612fcb90919063ffffffff16565b600a819055505050565b828054614c6190615529565b90600052602060002090601f016020900481019282614c835760008555614cca565b82601f10614c9c57805160ff1916838001178555614cca565b82800160010185558215614cca579182015b82811115614cc9578251825591602001919060010190614cae565b5b509050614cd79190614cdb565b5090565b5b80821115614cf4576000816000905550600101614cdc565b5090565b6000604051905090565b600080fd5b600080fd5b6000819050919050565b614d1f81614d0c565b8114614d2a57600080fd5b50565b600081359050614d3c81614d16565b92915050565b600060208284031215614d5857614d57614d02565b5b6000614d6684828501614d2d565b91505092915050565b600081519050919050565b600082825260208201905092915050565b60005b83811015614da9578082015181840152602081019050614d8e565b83811115614db8576000848401525b50505050565b6000601f19601f8301169050919050565b6000614dda82614d6f565b614de48185614d7a565b9350614df4818560208601614d8b565b614dfd81614dbe565b840191505092915050565b60006020820190508181036000830152614e228184614dcf565b905092915050565b600073ffffffffffffffffffffffffffffffffffffffff82169050919050565b6000614e5582614e2a565b9050919050565b614e6581614e4a565b8114614e7057600080fd5b50565b600081359050614e8281614e5c565b92915050565b60008060408385031215614e9f57614e9e614d02565b5b6000614ead85828601614e73565b9250506020614ebe85828601614d2d565b9150509250929050565b60008115159050919050565b614edd81614ec8565b82525050565b6000602082019050614ef86000830184614ed4565b92915050565b614f0781614d0c565b82525050565b6000602082019050614f226000830184614efe565b92915050565b6000819050919050565b6000614f4d614f48614f4384614e2a565b614f28565b614e2a565b9050919050565b6000614f5f82614f32565b9050919050565b6000614f7182614f54565b9050919050565b614f8181614f66565b82525050565b6000602082019050614f9c6000830184614f78565b92915050565b614fab81614e4a565b82525050565b6000602082019050614fc66000830184614fa2565b92915050565b600080600060608486031215614fe557614fe4614d02565b5b6000614ff386828701614e73565b935050602061500486828701614e73565b925050604061501586828701614d2d565b9150509250925092565b600060ff82169050919050565b6150358161501f565b82525050565b6000602082019050615050600083018461502c565b92915050565b60006020828403121561506c5761506b614d02565b5b600061507a84828501614e73565b91505092915050565b61508c81614ec8565b811461509757600080fd5b50565b6000813590506150a981615083565b92915050565b600080604083850312156150c6576150c5614d02565b5b60006150d485828601614d2d565b92505060206150e58582860161509a565b9150509250929050565b6000806040838503121561510657615105614d02565b5b600061511485828601614e73565b92505060206151258582860161509a565b9150509250929050565b600080fd5b600080fd5b7f4e487b7100000000000000000000000000000000000000000000000000000000600052604160045260246000fd5b61517182614dbe565b810181811067ffffffffffffffff821117156151905761518f615139565b5b80604052505050565b60006151a3614cf8565b90506151af8282615168565b919050565b600067ffffffffffffffff8211156151cf576151ce615139565b5b6151d882614dbe565b9050602081019050919050565b82818337600083830152505050565b6000615207615202846151b4565b615199565b90508281526020810184848401111561522357615222615134565b5b61522e8482856151e5565b509392505050565b600082601f83011261524b5761524a61512f565b5b813561525b8482602086016151f4565b91505092915050565b600061ffff82169050919050565b61527b81615264565b811461528657600080fd5b50565b60008135905061529881615272565b92915050565b6000806000806000806000806000806101408b8d0312156152c2576152c1614d02565b5b60006152d08d828e01614e73565b9a505060208b013567ffffffffffffffff8111156152f1576152f0614d07565b5b6152fd8d828e01615236565b99505060408b013567ffffffffffffffff81111561531e5761531d614d07565b5b61532a8d828e01615236565b985050606061533b8d828e01614d2d565b975050608061534c8d828e01614e73565b96505060a061535d8d828e01614e73565b95505060c061536e8d828e01615289565b94505060e061537f8d828e01615289565b9350506101006153918d828e01615289565b9250506101206153a38d828e01615289565b9150509295989b9194979a5092959850565b6000602082840312156153cb576153ca614d02565b5b60006153d98482850161509a565b91505092915050565b600080604083850312156153f9576153f8614d02565b5b600061540785828601614e73565b925050602061541885828601614e73565b9150509250929050565b7f4f776e61626c653a2063616c6c6572206973206e6f7420746865206f776e6572600082015250565b6000615458602083614d7a565b915061546382615422565b602082019050919050565b600060208201905081810360008301526154878161544b565b9050919050565b7f496e76616c696420627073000000000000000000000000000000000000000000600082015250565b60006154c4600b83614d7a565b91506154cf8261548e565b602082019050919050565b600060208201905081810360008301526154f3816154b7565b9050919050565b7f4e487b7100000000000000000000000000000000000000000000000000000000600052602260045260246000fd5b6000600282049050600182168061554157607f821691505b60208210811415615555576155546154fa565b5b50919050565b7f416d6f756e74206d757374206265206c657373207468616e20746f74616c207260008201527f65666c656374696f6e7300000000000000000000000000000000000000000000602082015250565b60006155b7602a83614d7a565b91506155c28261555b565b604082019050919050565b600060208201905081810360008301526155e6816155aa565b9050919050565b7f4163636f756e7420697320616c7265616479206578636c756465640000000000600082015250565b6000615623601b83614d7a565b915061562e826155ed565b602082019050919050565b6000602082019050818103600083015261565281615616565b9050919050565b7f4e487b7100000000000000000000000000000000000000000000000000000000600052603260045260246000fd5b7f4e487b7100000000000000000000000000000000000000000000000000000000600052601160045260246000fd5b60006156c282614d0c565b91506156cd83614d0c565b9250828210156156e0576156df615688565b5b828203905092915050565b7f4e487b7100000000000000000000000000000000000000000000000000000000600052603160045260246000fd5b600061572582614d0c565b91507fffffffffffffffffffffffffffffffffffffffffffffffffffffffffffffffff82141561575857615757615688565b5b600182019050919050565b7f4578636c75646564206164647265737365732063616e6e6f742063616c6c207460008201527f6869732066756e6374696f6e0000000000000000000000000000000000000000602082015250565b60006157bf602c83614d7a565b91506157ca82615763565b604082019050919050565b600060208201905081810360008301526157ee816157b2565b9050919050565b7f416d6f756e74206d757374206265206c657373207468616e20737570706c7900600082015250565b600061582b601f83614d7a565b9150615836826157f5565b602082019050919050565b6000602082019050818103600083015261585a8161581e565b9050919050565b7f496e697469616c697a61626c653a20636f6e747261637420697320616c72656160008201527f647920696e697469616c697a6564000000000000000000000000000000000000602082015250565b60006158bd602e83614d7a565b91506158c882615861565b604082019050919050565b600060208201905081810360008301526158ec816158b0565b9050919050565b7f496e76616c696420746178206665650000000000000000000000000000000000600082015250565b6000615929600f83614d7a565b9150615934826158f3565b602082019050919050565b600060208201905081810360008301526159588161591c565b9050919050565b7f496e76616c6964206c6971756964697479206665650000000000000000000000600082015250565b6000615995601583614d7a565b91506159a08261595f565b602082019050919050565b600060208201905081810360008301526159c481615988565b9050919050565b7f496e76616c696420636861726974792066656500000000000000000000000000600082015250565b6000615a01601383614d7a565b9150615a0c826159cb565b602082019050919050565b60006020820190508181036000830152615a30816159f4565b9050919050565b7f496e76616c6964206d617820747820616d6f756e740000000000000000000000600082015250565b6000615a6d601583614d7a565b9150615a7882615a37565b602082019050919050565b60006020820190508181036000830152615a9c81615a60565b9050919050565b7f43616e742073657420626f74682063686172697479206164647265737320746f60008201527f2061646472657373203020616e6420636861726974792070657263656e74206d60208201527f6f7265207468616e203000000000000000000000000000000000000000000000604082015250565b6000615b25604a83614d7a565b9150615b3082615aa3565b606082019050919050565b60006020820190508181036000830152615b5481615b18565b9050919050565b6000615b6682615264565b9150615b7183615264565b92508261ffff03821115615b8857615b87615688565b5b828201905092915050565b7f546f74616c20666565206973206f7665722031303025206f66207472616e736660008201527f657220616d6f756e740000000000000000000000000000000000000000000000602082015250565b6000615bef602983614d7a565b9150615bfa82615b93565b604082019050919050565b60006020820190508181036000830152615c1e81615be2565b9050919050565b7f4e487b7100000000000000000000000000000000000000000000000000000000600052601260045260246000fd5b6000615c5f82614d0c565b9150615c6a83614d0c565b925082615c7a57615c79615c25565b5b828206905092915050565b600081519050615c9481614e5c565b92915050565b600060208284031215615cb057615caf614d02565b5b6000615cbe84828501615c85565b91505092915050565b6000604082019050615cdc6000830185614fa2565b615ce96020830184614fa2565b9392505050565b7f4f776e61626c653a206e6577206f776e657220697320746865207a65726f206160008201527f6464726573730000000000000000000000000000000000000000000000000000602082015250565b6000615d4c602683614d7a565b9150615d5782615cf0565b604082019050919050565b60006020820190508181036000830152615d7b81615d3f565b9050919050565b7f45524332303a20617070726f76652066726f6d20746865207a65726f2061646460008201527f7265737300000000000000000000000000000000000000000000000000000000602082015250565b6000615dde602483614d7a565b9150615de982615d82565b604082019050919050565b60006020820190508181036000830152615e0d81615dd1565b9050919050565b7f45524332303a20617070726f766520746f20746865207a65726f20616464726560008201527f7373000000000000000000000000000000000000000000000000000000000000602082015250565b6000615e70602283614d7a565b9150615e7b82615e14565b604082019050919050565b60006020820190508181036000830152615e9f81615e63565b9050919050565b7f45524332303a207472616e736665722066726f6d20746865207a65726f20616460008201527f6472657373000000000000000000000000000000000000000000000000000000602082015250565b6000615f02602583614d7a565b9150615f0d82615ea6565b604082019050919050565b60006020820190508181036000830152615f3181615ef5565b9050919050565b7f45524332303a207472616e7366657220746f20746865207a65726f206164647260008201527f6573730000000000000000000000000000000000000000000000000000000000602082015250565b6000615f94602383614d7a565b9150615f9f82615f38565b604082019050919050565b60006020820190508181036000830152615fc381615f87565b9050919050565b7f5472616e7366657220616d6f756e74206d75737420626520677265617465722060008201527f7468616e207a65726f0000000000000000000000000000000000000000000000602082015250565b6000616026602983614d7a565b915061603182615fca565b604082019050919050565b6000602082019050818103600083015261605581616019565b9050919050565b7f5472616e7366657220616d6f756e74206578636565647320746865206d61785460008201527f78416d6f756e742e000000000000000000000000000000000000000000000000602082015250565b60006160b8602883614d7a565b91506160c38261605c565b604082019050919050565b600060208201905081810360008301526160e7816160ab565b9050919050565b60006160f982614d0c565b915061610483614d0c565b92508261611457616113615c25565b5b828204905092915050565b600061612a82614d0c565b915061613583614d0c565b9250827fffffffffffffffffffffffffffffffffffffffffffffffffffffffffffffffff0382111561616a57616169615688565b5b828201905092915050565b600061618082614d0c565b915061618b83614d0c565b9250817fffffffffffffffffffffffffffffffffffffffffffffffffffffffffffffffff04831182151516156161c4576161c3615688565b5b828202905092915050565b60006060820190506161e46000830186614efe565b6161f16020830185614efe565b6161fe6040830184614efe565b949350505050565b6000819050919050565b600061622b61622661622184616206565b614f28565b614d0c565b9050919050565b61623b81616210565b82525050565b600081519050919050565b600082825260208201905092915050565b6000819050602082019050919050565b61627681614e4a565b82525050565b6000616288838361626d565b60208301905092915050565b6000602082019050919050565b60006162ac82616241565b6162b6818561624c565b93506162c18361625d565b8060005b838110156162f25781516162d9888261627c565b97506162e483616294565b9250506001810190506162c5565b5085935050505092915050565b600060a0820190506163146000830188614efe565b6163216020830187616232565b818103604083015261633381866162a1565b90506163426060830185614fa2565b61634f6080830184614efe565b9695505050505050565b600060c08201905061636e6000830189614fa2565b61637b6020830188614efe565b6163886040830187616232565b6163956060830186616232565b6163a26080830185614fa2565b6163af60a0830184614efe565b979650505050505050565b6000815190506163c981614d16565b92915050565b6000806000606084860312156163e8576163e7614d02565b5b60006163f6868287016163ba565b9350506020616407868287016163ba565b9250506040616418868287016163ba565b915050925092509256fe45524332303a207472616e7366657220616d6f756e74206578636565647320616c6c6f77616e636545524332303a2064656372656173656420616c6c6f77616e63652062656c6f77207a65726fa264697066735822122062068cac2bd7e5fcf7e41482d19b0bea0fa96af53237516dfdcd1949633f3da464736f6c634300080a0033",
  "immutableReferences": {},
  "source": "// SPDX-License-Identifier: Unlicensed\n\npragma solidity ^0.8.1;\n\nimport \"@openzeppelin/contracts/token/ERC20/IERC20.sol\";\nimport \"@openzeppelin/contracts/access/Ownable.sol\";\nimport \"@openzeppelin/contracts/utils/math/SafeMath.sol\";\nimport \"@openzeppelin/contracts/proxy/utils/Initializable.sol\";\nimport \"@openzeppelin/contracts/utils/Address.sol\";\nimport \"../interfaces/IUniswapV2Factory.sol\";\nimport \"../interfaces/IUniswapV2Router02.sol\";\nimport \"../interfaces/IUniswapV2Pair.sol\";\n\n\ncontract LiquidityGeneratorToken is IERC20, Ownable, Initializable {\n    using SafeMath for uint256;\n    using Address for address;\n\n    mapping (address => uint256) private _rOwned;\n    mapping (address => uint256) private _tOwned;\n    mapping (address => mapping (address => uint256)) private _allowances;\n\n    mapping (address => bool) private _isExcludedFromFee;\n    mapping (address => bool) private _isExcludedFromMaxTx;\n    mapping (address => bool) private _isExcluded;\n    address[] private _excluded;\n   \n    uint256 private constant MAX = ~uint256(0);\n    uint256 private _tTotal;\n    uint256 private _rTotal;\n    uint256 private _tFeeTotal;\n\n    string private _name;\n    string private _symbol;\n    uint8 private _decimals;\n    \n    uint256 public _taxFee;\n    uint256 private _previousTaxFee = _taxFee;\n    \n    uint256 public _liquidityFee;\n    uint256 private _previousLiquidityFee = _liquidityFee;\n\n    uint256 public _charityFee;\n    uint256 private _previousCharityFee = _charityFee;\n\n    IUniswapV2Router02 public uniswapV2Router;\n    address public uniswapV2Pair;\n    address public _charityAddress;\n    \n    bool inSwapAndLiquify;\n    bool public swapAndLiquifyEnabled = true;\n    \n    uint256 public _maxTxAmount;\n    uint256 private numTokensSellToAddToLiquidity;\n    \n    event MinTokensBeforeSwapUpdated(uint256 minTokensBeforeSwap);\n    event SwapAndLiquifyEnabledUpdated(bool enabled);\n    event SwapAndLiquify(\n        uint256 tokensSwapped,\n        uint256 ethReceived,\n        uint256 tokensIntoLiqudity\n    );\n    \n    modifier lockTheSwap {\n        inSwapAndLiquify = true;\n        _;\n        inSwapAndLiquify = false;\n    }\n    \n    function initialize (\n        address owner_,\n        string memory name_, \n        string memory symbol_, \n        uint256 totalSupply_, \n        address router_,\n        address charityAddress_,\n        uint16 taxFeeBps_, \n        uint16 liquidityFeeBps_,\n        uint16 charityFeeBps_,\n        uint16 maxTxBps_\n    ) external initializer {\n        require(taxFeeBps_ >= 0 && taxFeeBps_ <= 10**4, \"Invalid tax fee\");\n        require(liquidityFeeBps_ >= 0 && liquidityFeeBps_ <= 10**4, \"Invalid liquidity fee\");\n        require(charityFeeBps_ >= 0 && charityFeeBps_ <= 10**4, \"Invalid charity fee\");\n        require(maxTxBps_ > 0 && maxTxBps_ <= 10**4, \"Invalid max tx amount\");\n        if (charityAddress_ == address(0)) {\n            require(charityFeeBps_ == 0, \"Cant set both charity address to address 0 and charity percent more than 0\");\n        }\n        require(taxFeeBps_ + liquidityFeeBps_ + charityFeeBps_ <= 10**4, \"Total fee is over 100% of transfer amount\");\n\n        transferOwnership(owner_); \n\n        _name = name_;\n        _symbol = symbol_;\n        _decimals = 9;\n\n        _tTotal = totalSupply_;\n        _rTotal = (MAX - (MAX % _tTotal));\n\n         _taxFee = taxFeeBps_;\n        _previousTaxFee = _taxFee;\n\n        _liquidityFee = liquidityFeeBps_;\n        _previousLiquidityFee = _liquidityFee;\n\n        _charityAddress = charityAddress_;\n        _charityFee = charityFeeBps_;\n        _previousCharityFee = _charityFee;\n\n        _maxTxAmount = totalSupply_.mul(maxTxBps_).div(10**4);\n        numTokensSellToAddToLiquidity = totalSupply_.mul(5).div(10**4); // 0.05%\n        \n        _rOwned[owner()] = _rTotal;\n        \n        IUniswapV2Router02 _uniswapV2Router = IUniswapV2Router02(router_);\n         // Create a uniswap pair for this new token\n        uniswapV2Pair = IUniswapV2Factory(_uniswapV2Router.factory())\n            .createPair(address(this), _uniswapV2Router.WETH());\n\n        // set the rest of the contract variables\n        uniswapV2Router = _uniswapV2Router;\n        \n        // exclude owner and this contract from fee\n        _isExcludedFromFee[owner()] = true;\n        _isExcludedFromFee[address(this)] = true;\n\n        // exclude from max tx amount\n        _isExcludedFromMaxTx[address(this)] = true;\n        _isExcludedFromMaxTx[address(0xdead)] = true;\n        _isExcludedFromMaxTx[address(0)] = true;\n        \n        emit Transfer(address(0), owner(), _tTotal);\n    }\n\n    function name() public view returns (string memory) {\n        return _name;\n    }\n\n    function symbol() public view returns (string memory) {\n        return _symbol;\n    }\n\n    function decimals() public view returns (uint8) {\n        return _decimals;\n    }\n\n    function totalSupply() public view override returns (uint256) {\n        return _tTotal;\n    }\n\n    function balanceOf(address account) public view override returns (uint256) {\n        if (_isExcluded[account]) return _tOwned[account];\n        return tokenFromReflection(_rOwned[account]);\n    }\n\n    function transfer(address recipient, uint256 amount) public override returns (bool) {\n        _transfer(_msgSender(), recipient, amount);\n        return true;\n    }\n\n    function allowance(address owner, address spender) public view override returns (uint256) {\n        return _allowances[owner][spender];\n    }\n\n    function approve(address spender, uint256 amount) public override returns (bool) {\n        _approve(_msgSender(), spender, amount);\n        return true;\n    }\n\n    function transferFrom(address sender, address recipient, uint256 amount) public override returns (bool) {\n        _transfer(sender, recipient, amount);\n        _approve(sender, _msgSender(), _allowances[sender][_msgSender()].sub(amount, \"ERC20: transfer amount exceeds allowance\"));\n        return true;\n    }\n\n    function increaseAllowance(address spender, uint256 addedValue) public virtual returns (bool) {\n        _approve(_msgSender(), spender, _allowances[_msgSender()][spender].add(addedValue));\n        return true;\n    }\n\n    function decreaseAllowance(address spender, uint256 subtractedValue) public virtual returns (bool) {\n        _approve(_msgSender(), spender, _allowances[_msgSender()][spender].sub(subtractedValue, \"ERC20: decreased allowance below zero\"));\n        return true;\n    }\n\n    function isExcludedFromReward(address account) public view returns (bool) {\n        return _isExcluded[account];\n    }\n\n    function totalFees() public view returns (uint256) {\n        return _tFeeTotal;\n    }\n\n    function deliver(uint256 tAmount) public {\n        address sender = _msgSender();\n        require(!_isExcluded[sender], \"Excluded addresses cannot call this function\");\n        (uint256 rAmount,,,,,,) = _getValues(tAmount);\n        _rOwned[sender] = _rOwned[sender].sub(rAmount);\n        _rTotal = _rTotal.sub(rAmount);\n        _tFeeTotal = _tFeeTotal.add(tAmount);\n    }\n\n    function reflectionFromToken(uint256 tAmount, bool deductTransferFee) public view returns(uint256) {\n        require(tAmount <= _tTotal, \"Amount must be less than supply\");\n        if (!deductTransferFee) {\n            (uint256 rAmount,,,,,,) = _getValues(tAmount);\n            return rAmount;\n        } else {\n            (,uint256 rTransferAmount,,,,,) = _getValues(tAmount);\n            return rTransferAmount;\n        }\n    }\n\n    function tokenFromReflection(uint256 rAmount) public view returns(uint256) {\n        require(rAmount <= _rTotal, \"Amount must be less than total reflections\");\n        uint256 currentRate =  _getRate();\n        return rAmount.div(currentRate);\n    }\n\n    function excludeFromReward(address account) public onlyOwner() {\n        // require(account != 0x7a250d5630B4cF539739dF2C5dAcb4c659F2488D, 'We can not exclude Uniswap router.');\n        require(!_isExcluded[account], \"Account is already excluded\");\n        if(_rOwned[account] > 0) {\n            _tOwned[account] = tokenFromReflection(_rOwned[account]);\n        }\n        _isExcluded[account] = true;\n        _excluded.push(account);\n    }\n\n    function includeInReward(address account) external onlyOwner() {\n        require(_isExcluded[account], \"Account is already excluded\");\n        for (uint256 i = 0; i < _excluded.length; i++) {\n            if (_excluded[i] == account) {\n                _excluded[i] = _excluded[_excluded.length - 1];\n                _tOwned[account] = 0;\n                _isExcluded[account] = false;\n                _excluded.pop();\n                break;\n            }\n        }\n    }\n\n    function _transferBothExcluded(address sender, address recipient, uint256 tAmount) private {\n        (uint256 rAmount, uint256 rTransferAmount, uint256 rFee, uint256 tTransferAmount, uint256 tFee, uint256 tLiquidity, uint256 tCharity) = _getValues(tAmount);\n        _tOwned[sender] = _tOwned[sender].sub(tAmount);\n        _rOwned[sender] = _rOwned[sender].sub(rAmount);\n        _tOwned[recipient] = _tOwned[recipient].add(tTransferAmount);\n        _rOwned[recipient] = _rOwned[recipient].add(rTransferAmount);   \n        _takeLiquidity(tLiquidity);\n        _takeCharityFee(tCharity);\n        _reflectFee(rFee, tFee);\n        emit Transfer(sender, recipient, tTransferAmount);\n    }\n    \n    function excludeFromFee(address account) public onlyOwner {\n        _isExcludedFromFee[account] = true;\n    }\n    \n    function includeInFee(address account) public onlyOwner {\n        _isExcludedFromFee[account] = false;\n    }\n\n    function setExcludeFromMaxTx(address account, bool exclude) public onlyOwner { \n        _isExcludedFromMaxTx[account] = exclude;\n    }\n\n    function isExcludedFromMaxTx(address account) public view returns (bool) {\n        return _isExcludedFromMaxTx[account];\n    }\n    \n    function setTaxFeePercent(uint256 taxFeeBps) external onlyOwner() {\n        require(taxFeeBps >= 0 && taxFeeBps <= 10**4, \"Invalid bps\");\n        _taxFee = taxFeeBps;\n    }\n    \n    function setLiquidityFeePercent(uint256 liquidityFeeBps) external onlyOwner() {\n        require(liquidityFeeBps >= 0 && liquidityFeeBps <= 10**4, \"Invalid bps\");\n        _liquidityFee = liquidityFeeBps;\n    }\n\n    function setMaxTxPercent(uint256 maxTxBps) external onlyOwner() {\n        require(maxTxBps >= 0 && maxTxBps <= 10**4, \"Invalid bps\");\n        _maxTxAmount = _tTotal.mul(maxTxBps).div(10**4);\n    }\n\n    function setSwapAndLiquifyEnabled(bool _enabled) public onlyOwner {\n        swapAndLiquifyEnabled = _enabled;\n        emit SwapAndLiquifyEnabledUpdated(_enabled);\n    }\n    \n     //to recieve ETH from uniswapV2Router when swaping\n    receive() external payable {}\n\n    function _reflectFee(uint256 rFee, uint256 tFee) private {\n        _rTotal = _rTotal.sub(rFee);\n        _tFeeTotal = _tFeeTotal.add(tFee);\n    }\n\n    function _getValues(uint256 tAmount) private view returns (uint256, uint256, uint256, uint256, uint256, uint256, uint256) {\n        (uint256 tTransferAmount, uint256 tFee, uint256 tLiquidity, uint256 tCharity) = _getTValues(tAmount);\n        (uint256 rAmount, uint256 rTransferAmount, uint256 rFee) = _getRValues(tAmount, tFee, tLiquidity, tCharity, _getRate());\n        return (rAmount, rTransferAmount, rFee, tTransferAmount, tFee, tLiquidity, tCharity);\n    }\n\n    function _getTValues(uint256 tAmount) private view returns (uint256, uint256, uint256, uint256) {\n        uint256 tFee = calculateTaxFee(tAmount);\n        uint256 tLiquidity = calculateLiquidityFee(tAmount);\n        uint256 tCharityFee = calculateCharityFee(tAmount);\n        uint256 tTransferAmount = tAmount.sub(tFee).sub(tLiquidity).sub(tCharityFee);\n        return (tTransferAmount, tFee, tLiquidity, tCharityFee);\n    }\n\n    function _getRValues(uint256 tAmount, uint256 tFee, uint256 tLiquidity, uint256 tCharity, uint256 currentRate) private pure returns (uint256, uint256, uint256) {\n        uint256 rAmount = tAmount.mul(currentRate);\n        uint256 rFee = tFee.mul(currentRate);\n        uint256 rLiquidity = tLiquidity.mul(currentRate);\n        uint256 rCharity = tCharity.mul(currentRate);\n        uint256 rTransferAmount = rAmount.sub(rFee).sub(rLiquidity).sub(rCharity);\n        return (rAmount, rTransferAmount, rFee);\n    }\n\n    function _getRate() private view returns(uint256) {\n        (uint256 rSupply, uint256 tSupply) = _getCurrentSupply();\n        return rSupply.div(tSupply);\n    }\n\n    function _getCurrentSupply() private view returns(uint256, uint256) {\n        uint256 rSupply = _rTotal;\n        uint256 tSupply = _tTotal;      \n        for (uint256 i = 0; i < _excluded.length; i++) {\n            if (_rOwned[_excluded[i]] > rSupply || _tOwned[_excluded[i]] > tSupply) return (_rTotal, _tTotal);\n            rSupply = rSupply.sub(_rOwned[_excluded[i]]);\n            tSupply = tSupply.sub(_tOwned[_excluded[i]]);\n        }\n        if (rSupply < _rTotal.div(_tTotal)) return (_rTotal, _tTotal);\n        return (rSupply, tSupply);\n    }\n    \n    function _takeLiquidity(uint256 tLiquidity) private {\n        uint256 currentRate =  _getRate();\n        uint256 rLiquidity = tLiquidity.mul(currentRate);\n        _rOwned[address(this)] = _rOwned[address(this)].add(rLiquidity);\n        if(_isExcluded[address(this)])\n            _tOwned[address(this)] = _tOwned[address(this)].add(tLiquidity);\n    }\n\n    function _takeCharityFee(uint256 tCharity) private {\n        if (tCharity > 0 ) {\n            uint256 currentRate =  _getRate();\n            uint256 rCharity = tCharity.mul(currentRate);\n            _rOwned[_charityAddress] = _rOwned[_charityAddress].add(rCharity);\n            if (_isExcluded[_charityAddress])\n                _tOwned[_charityAddress] = _tOwned[_charityAddress].add(tCharity);\n            emit Transfer(_msgSender(), _charityAddress, tCharity);\n        }\n    }\n    \n    function calculateTaxFee(uint256 _amount) private view returns (uint256) {\n        return _amount.mul(_taxFee).div(10**4);\n    }\n\n    function calculateLiquidityFee(uint256 _amount) private view returns (uint256) {\n        return _amount.mul(_liquidityFee).div(10**4);\n    }\n\n    function calculateCharityFee(uint256 _amount) private view returns (uint256) {\n        if (_charityAddress == address(0)) return 0;\n        return _amount.mul(_charityFee).div(10**4);\n    }\n    \n    function removeAllFee() private {\n        if(_taxFee == 0 && _liquidityFee == 0 && _charityFee == 0) return;\n        \n        _previousTaxFee = _taxFee;\n        _previousLiquidityFee = _liquidityFee;\n        _previousCharityFee = _charityFee;\n        \n        _taxFee = 0;\n        _liquidityFee = 0;\n        _charityFee = 0;\n    }\n    \n    function restoreAllFee() private {\n        _taxFee = _previousTaxFee;\n        _liquidityFee = _previousLiquidityFee;\n        _charityFee = _previousCharityFee;\n    }\n    \n    function isExcludedFromFee(address account) public view returns(bool) {\n        return _isExcludedFromFee[account];\n    }\n\n    function _approve(address owner, address spender, uint256 amount) private {\n        require(owner != address(0), \"ERC20: approve from the zero address\");\n        require(spender != address(0), \"ERC20: approve to the zero address\");\n\n        _allowances[owner][spender] = amount;\n        emit Approval(owner, spender, amount);\n    }\n\n    function _transfer(\n        address from,\n        address to,\n        uint256 amount\n    ) private {\n        require(from != address(0), \"ERC20: transfer from the zero address\");\n        require(to != address(0), \"ERC20: transfer to the zero address\");\n        require(amount > 0, \"Transfer amount must be greater than zero\");\n        if((from != owner() && to != owner()) || (!_isExcludedFromMaxTx[from] && !_isExcludedFromMaxTx[to]))\n            require(amount <= _maxTxAmount, \"Transfer amount exceeds the maxTxAmount.\");\n\n        // is the token balance of this contract address over the min number of\n        // tokens that we need to initiate a swap + liquidity lock?\n        // also, don't get caught in a circular liquidity event.\n        // also, don't swap & liquify if sender is uniswap pair.\n        uint256 contractTokenBalance = balanceOf(address(this));\n        \n        if(contractTokenBalance >= _maxTxAmount)\n        {\n            contractTokenBalance = _maxTxAmount;\n        }\n        \n        bool overMinTokenBalance = contractTokenBalance >= numTokensSellToAddToLiquidity;\n        if (\n            overMinTokenBalance &&\n            !inSwapAndLiquify &&\n            from != uniswapV2Pair &&\n            swapAndLiquifyEnabled\n        ) {\n            contractTokenBalance = numTokensSellToAddToLiquidity;\n            //add liquidity\n            swapAndLiquify(contractTokenBalance);\n        }\n        \n        //indicates if fee should be deducted from transfer\n        bool takeFee = true;\n        \n        //if any account belongs to _isExcludedFromFee account then remove the fee\n        if(_isExcludedFromFee[from] || _isExcludedFromFee[to]){\n            takeFee = false;\n        }\n        \n        //transfer amount, it will take tax, burn, liquidity fee\n        _tokenTransfer(from,to,amount,takeFee);\n    }\n\n    function swapAndLiquify(uint256 contractTokenBalance) private lockTheSwap {\n        // split the contract balance into halves\n        uint256 half = contractTokenBalance.div(2);\n        uint256 otherHalf = contractTokenBalance.sub(half);\n\n        // capture the contract's current ETH balance.\n        // this is so that we can capture exactly the amount of ETH that the\n        // swap creates, and not make the liquidity event include any ETH that\n        // has been manually sent to the contract\n        uint256 initialBalance = address(this).balance;\n\n        // swap tokens for ETH\n        swapTokensForEth(half); // <- this breaks the ETH -> HATE swap when swap+liquify is triggered\n\n        // how much ETH did we just swap into?\n        uint256 newBalance = address(this).balance.sub(initialBalance);\n\n        // add liquidity to uniswap\n        addLiquidity(otherHalf, newBalance);\n        \n        emit SwapAndLiquify(half, newBalance, otherHalf);\n    }\n\n    function swapTokensForEth(uint256 tokenAmount) private {\n        // generate the uniswap pair path of token -> weth\n        address[] memory path = new address[](2);\n        path[0] = address(this);\n        path[1] = uniswapV2Router.WETH();\n\n        _approve(address(this), address(uniswapV2Router), tokenAmount);\n\n        // make the swap\n        uniswapV2Router.swapExactTokensForETHSupportingFeeOnTransferTokens(\n            tokenAmount,\n            0, // accept any amount of ETH\n            path,\n            address(this),\n            block.timestamp\n        );\n    }\n\n    function addLiquidity(uint256 tokenAmount, uint256 ethAmount) private {\n        // approve token transfer to cover all possible scenarios\n        _approve(address(this), address(uniswapV2Router), tokenAmount);\n\n        // add the liquidity\n        uniswapV2Router.addLiquidityETH{value: ethAmount}(\n            address(this),\n            tokenAmount,\n            0, // slippage is unavoidable\n            0, // slippage is unavoidable\n            owner(),\n            block.timestamp\n        );\n    }\n\n    //this method is responsible for taking all fee, if takeFee is true\n    function _tokenTransfer(address sender, address recipient, uint256 amount,bool takeFee) private {\n        if(!takeFee)\n            removeAllFee();\n        \n        if (_isExcluded[sender] && !_isExcluded[recipient]) {\n            _transferFromExcluded(sender, recipient, amount);\n        } else if (!_isExcluded[sender] && _isExcluded[recipient]) {\n            _transferToExcluded(sender, recipient, amount);\n        } else if (!_isExcluded[sender] && !_isExcluded[recipient]) {\n            _transferStandard(sender, recipient, amount);\n        } else if (_isExcluded[sender] && _isExcluded[recipient]) {\n            _transferBothExcluded(sender, recipient, amount);\n        } else {\n            _transferStandard(sender, recipient, amount);\n        }\n        \n        if(!takeFee)\n            restoreAllFee();\n    }\n\n    function _transferStandard(address sender, address recipient, uint256 tAmount) private {\n        (uint256 rAmount, uint256 rTransferAmount, uint256 rFee, uint256 tTransferAmount, uint256 tFee, uint256 tLiquidity, uint256 tCharity) = _getValues(tAmount);\n        _rOwned[sender] = _rOwned[sender].sub(rAmount);\n        _rOwned[recipient] = _rOwned[recipient].add(rTransferAmount);\n        _takeLiquidity(tLiquidity);\n        _takeCharityFee(tCharity);\n        _reflectFee(rFee, tFee);\n        emit Transfer(sender, recipient, tTransferAmount);\n    }\n\n    function _transferToExcluded(address sender, address recipient, uint256 tAmount) private {\n        (uint256 rAmount, uint256 rTransferAmount, uint256 rFee, uint256 tTransferAmount, uint256 tFee, uint256 tLiquidity, uint256 tCharity) = _getValues(tAmount);\n        _rOwned[sender] = _rOwned[sender].sub(rAmount);\n        _tOwned[recipient] = _tOwned[recipient].add(tTransferAmount);\n        _rOwned[recipient] = _rOwned[recipient].add(rTransferAmount);           \n        _takeLiquidity(tLiquidity);\n        _takeCharityFee(tCharity);\n        _reflectFee(rFee, tFee);\n        emit Transfer(sender, recipient, tTransferAmount);\n    }\n\n    function _transferFromExcluded(address sender, address recipient, uint256 tAmount) private {\n        (uint256 rAmount, uint256 rTransferAmount, uint256 rFee, uint256 tTransferAmount, uint256 tFee, uint256 tLiquidity, uint256 tCharity) = _getValues(tAmount);\n        _tOwned[sender] = _tOwned[sender].sub(tAmount);\n        _rOwned[sender] = _rOwned[sender].sub(rAmount);\n        _rOwned[recipient] = _rOwned[recipient].add(rTransferAmount);   \n        _takeLiquidity(tLiquidity);\n        _takeCharityFee(tCharity);\n        _reflectFee(rFee, tFee);\n        emit Transfer(sender, recipient, tTransferAmount);\n    }\n}",
  "sourcePath": "/home/machado/Documents/projetos/pinksale-contracts/contracts/tokens/LiquidityGeneratorToken.sol",
  "compiler": {
    "name": "solc",
    "version": "0.8.10+commit.fc410830.Emscripten.clang"
  },
  "schemaVersion": "3.4.3",
  "updatedAt": "2022-04-11T19:43:21.219Z",
  "devdoc": {
    "kind": "dev",
    "methods": {
      "allowance(address,address)": {
        "details": "Returns the remaining number of tokens that `spender` will be allowed to spend on behalf of `owner` through {transferFrom}. This is zero by default. This value changes when {approve} or {transferFrom} are called."
      },
      "approve(address,uint256)": {
        "details": "Sets `amount` as the allowance of `spender` over the caller's tokens. Returns a boolean value indicating whether the operation succeeded. IMPORTANT: Beware that changing an allowance with this method brings the risk that someone may use both the old and the new allowance by unfortunate transaction ordering. One possible solution to mitigate this race condition is to first reduce the spender's allowance to 0 and set the desired value afterwards: https://github.com/ethereum/EIPs/issues/20#issuecomment-263524729 Emits an {Approval} event."
      },
      "balanceOf(address)": {
        "details": "Returns the amount of tokens owned by `account`."
      },
      "owner()": {
        "details": "Returns the address of the current owner."
      },
      "renounceOwnership()": {
        "details": "Leaves the contract without owner. It will not be possible to call `onlyOwner` functions anymore. Can only be called by the current owner. NOTE: Renouncing ownership will leave the contract without an owner, thereby removing any functionality that is only available to the owner."
      },
      "totalSupply()": {
        "details": "Returns the amount of tokens in existence."
      },
      "transferOwnership(address)": {
        "details": "Transfers ownership of the contract to a new account (`newOwner`). Can only be called by the current owner."
      }
    },
    "version": 1
  },
  "userdoc": {
    "kind": "user",
    "methods": {},
    "version": 1
  }
}