{
  "contractName": "MockPancakeRouter",
  "abi": [
    {
      "inputs": [
        {
          "internalType": "address",
          "name": "token",
          "type": "address"
        },
        {
          "internalType": "uint256",
          "name": "amountTokenDesired",
          "type": "uint256"
        },
        {
          "internalType": "uint256",
          "name": "amountTokenMin",
          "type": "uint256"
        },
        {
          "internalType": "uint256",
          "name": "amountETHMin",
          "type": "uint256"
        },
        {
          "internalType": "address",
          "name": "to",
          "type": "address"
        },
        {
          "internalType": "uint256",
          "name": "deadline",
          "type": "uint256"
        }
      ],
      "name": "addLiquidityETH",
      "outputs": [
        {
          "internalType": "uint256",
          "name": "amountToken",
          "type": "uint256"
        },
        {
          "internalType": "uint256",
          "name": "amountETH",
          "type": "uint256"
        },
        {
          "internalType": "uint256",
          "name": "liquidity",
          "type": "uint256"
        }
      ],
      "stateMutability": "payable",
      "type": "function"
    }
  ],
  "bytecode": "0x608060405234801561001057600080fd5b506104b9806100206000396000f3fe60806040526004361061001e5760003560e01c8063f305d71914610023575b600080fd5b61003d6004803603810190610038919061019a565b610055565b60405161004c93929190610292565b60405180910390f35b60008060008734610077610072348c61008990919063ffffffff16565b6100f6565b92509250925096509650969350505050565b6000808214806100b15750828283856100a29190610361565b9250826100af9190610330565b145b6100f0576040517f08c379a00000000000000000000000000000000000000000000000000000000081526004016100e790610272565b60405180910390fd5b92915050565b6000600382111561015d57819050600060016002846101159190610330565b61011f91906102da565b90505b8181101561015757809150600281828561013c9190610330565b61014691906102da565b6101509190610330565b9050610122565b5061016b565b6000821461016a57600190505b5b919050565b60008135905061017f81610455565b92915050565b6000813590506101948161046c565b92915050565b60008060008060008060c087890312156101b357600080fd5b60006101c189828a01610170565b96505060206101d289828a01610185565b95505060406101e389828a01610185565b94505060606101f489828a01610185565b935050608061020589828a01610170565b92505060a061021689828a01610185565b9150509295509295509295565b60006102306014836102c9565b91507f64732d6d6174682d6d756c2d6f766572666c6f770000000000000000000000006000830152602082019050919050565b61026c816103ed565b82525050565b6000602082019050818103600083015261028b81610223565b9050919050565b60006060820190506102a76000830186610263565b6102b46020830185610263565b6102c16040830184610263565b949350505050565b600082825260208201905092915050565b60006102e5826103ed565b91506102f0836103ed565b9250827fffffffffffffffffffffffffffffffffffffffffffffffffffffffffffffffff03821115610325576103246103f7565b5b828201905092915050565b600061033b826103ed565b9150610346836103ed565b92508261035657610355610426565b5b828204905092915050565b600061036c826103ed565b9150610377836103ed565b9250817fffffffffffffffffffffffffffffffffffffffffffffffffffffffffffffffff04831182151516156103b0576103af6103f7565b5b828202905092915050565b60006103c6826103cd565b9050919050565b600073ffffffffffffffffffffffffffffffffffffffff82169050919050565b6000819050919050565b7f4e487b7100000000000000000000000000000000000000000000000000000000600052601160045260246000fd5b7f4e487b7100000000000000000000000000000000000000000000000000000000600052601260045260246000fd5b61045e816103bb565b811461046957600080fd5b50565b610475816103ed565b811461048057600080fd5b5056fea2646970667358221220964bf2bb7740937e8ac46308a1c0381519ae91607926c0b94c3404c42885113b64736f6c63430008000033",
  "immutableReferences": {},
  "source": "// SPDX-License-Identifier: UNLICENSED\npragma solidity >=0.6.6;\n\nimport './libraries/SafeMath.sol';\nimport './libraries/Math.sol';\n\ncontract MockPancakeRouter {\n  using SafeMath for uint256;\n\n  function addLiquidityETH(\n    address token,\n    uint256 amountTokenDesired,\n    uint256 amountTokenMin,\n    uint256 amountETHMin,\n    address to,\n    uint256 deadline\n  ) external payable returns (\n      uint256 amountToken,\n      uint256 amountETH,\n      uint256 liquidity\n  ) {\n    \n    return (amountTokenDesired, msg.value, Math.sqrt(amountTokenDesired.mul(msg.value)));\n  }\n}",
  "sourcePath": "/home/machado/Documents/projetos/pinksale-contracts/contracts/mocks/MockPancakeRouter.sol",
  "compiler": {
    "name": "solc",
    "version": "0.8.0+commit.c7dfd78e.Emscripten.clang"
  },
  "schemaVersion": "3.4.1",
  "updatedAt": "2021-11-28T01:05:58.024Z",
  "devdoc": {
    "kind": "dev",
    "methods": {},
    "version": 1
  },
  "userdoc": {
    "kind": "user",
    "methods": {},
    "version": 1
  }
}