{
  "contractName": "MockPancakeRouter",
  "abi": [
    {
      "inputs": [
        {
          "internalType": "address",
          "name": "token",
          "type": "address"
        },
        {
          "internalType": "uint256",
          "name": "amountTokenDesired",
          "type": "uint256"
        },
        {
          "internalType": "uint256",
          "name": "amountTokenMin",
          "type": "uint256"
        },
        {
          "internalType": "uint256",
          "name": "amountETHMin",
          "type": "uint256"
        },
        {
          "internalType": "address",
          "name": "to",
          "type": "address"
        },
        {
          "internalType": "uint256",
          "name": "deadline",
          "type": "uint256"
        }
      ],
      "name": "addLiquidityETH",
      "outputs": [
        {
          "internalType": "uint256",
          "name": "amountToken",
          "type": "uint256"
        },
        {
          "internalType": "uint256",
          "name": "amountETH",
          "type": "uint256"
        },
        {
          "internalType": "uint256",
          "name": "liquidity",
          "type": "uint256"
        }
      ],
      "stateMutability": "payable",
      "type": "function"
    }
  ],
  "bytecode": "0x608060405234801561001057600080fd5b506104ce806100206000396000f3fe60806040526004361061001e5760003560e01c8063f305d71914610023575b600080fd5b61003d60048036038101906100389190610209565b610055565b60405161004c939291906102a5565b60405180910390f35b60008060008734610077610072348c61008990919063ffffffff16565b6100f6565b92509250925096509650969350505050565b6000808214806100b15750828283856100a2919061030b565b9250826100af9190610394565b145b6100f0576040517f08c379a00000000000000000000000000000000000000000000000000000000081526004016100e790610422565b60405180910390fd5b92915050565b6000600382111561015d57819050600060016002846101159190610394565b61011f9190610442565b90505b8181101561015757809150600281828561013c9190610394565b6101469190610442565b6101509190610394565b9050610122565b5061016b565b6000821461016a57600190505b5b919050565b600080fd5b600073ffffffffffffffffffffffffffffffffffffffff82169050919050565b60006101a082610175565b9050919050565b6101b081610195565b81146101bb57600080fd5b50565b6000813590506101cd816101a7565b92915050565b6000819050919050565b6101e6816101d3565b81146101f157600080fd5b50565b600081359050610203816101dd565b92915050565b60008060008060008060c0878903121561022657610225610170565b5b600061023489828a016101be565b965050602061024589828a016101f4565b955050604061025689828a016101f4565b945050606061026789828a016101f4565b935050608061027889828a016101be565b92505060a061028989828a016101f4565b9150509295509295509295565b61029f816101d3565b82525050565b60006060820190506102ba6000830186610296565b6102c76020830185610296565b6102d46040830184610296565b949350505050565b7f4e487b7100000000000000000000000000000000000000000000000000000000600052601160045260246000fd5b6000610316826101d3565b9150610321836101d3565b9250817fffffffffffffffffffffffffffffffffffffffffffffffffffffffffffffffff048311821515161561035a576103596102dc565b5b828202905092915050565b7f4e487b7100000000000000000000000000000000000000000000000000000000600052601260045260246000fd5b600061039f826101d3565b91506103aa836101d3565b9250826103ba576103b9610365565b5b828204905092915050565b600082825260208201905092915050565b7f64732d6d6174682d6d756c2d6f766572666c6f77000000000000000000000000600082015250565b600061040c6014836103c5565b9150610417826103d6565b602082019050919050565b6000602082019050818103600083015261043b816103ff565b9050919050565b600061044d826101d3565b9150610458836101d3565b9250827fffffffffffffffffffffffffffffffffffffffffffffffffffffffffffffffff0382111561048d5761048c6102dc565b5b82820190509291505056fea2646970667358221220f89398b4db5f5126c51f544f6777b7619b987d49d4ce2d88cdf606ef6716212c64736f6c634300080a0033",
  "immutableReferences": {},
  "source": "// SPDX-License-Identifier: UNLICENSED\npragma solidity >=0.6.6;\n\nimport './libraries/SafeMath.sol';\nimport './libraries/Math.sol';\n\ncontract MockPancakeRouter {\n  using SafeMath for uint256;\n\n  function addLiquidityETH(\n    address token,\n    uint256 amountTokenDesired,\n    uint256 amountTokenMin,\n    uint256 amountETHMin,\n    address to,\n    uint256 deadline\n  ) external payable returns (\n      uint256 amountToken,\n      uint256 amountETH,\n      uint256 liquidity\n  ) {\n    \n    return (amountTokenDesired, msg.value, Math.sqrt(amountTokenDesired.mul(msg.value)));\n  }\n}",
  "sourcePath": "/home/machado/Documents/projetos/pinksale-contracts/contracts/mocks/MockPancakeRouter.sol",
  "compiler": {
    "name": "solc",
    "version": "0.8.10+commit.fc410830.Emscripten.clang"
  },
  "schemaVersion": "3.4.3",
  "updatedAt": "2022-04-11T19:43:21.218Z",
  "devdoc": {
    "kind": "dev",
    "methods": {},
    "version": 1
  },
  "userdoc": {
    "kind": "user",
    "methods": {},
    "version": 1
  }
}