{
  "contractName": "StandardTokenFactory",
  "abi": [
    {
      "inputs": [
        {
          "internalType": "address",
          "name": "factoryManager_",
          "type": "address"
        },
        {
          "internalType": "address",
          "name": "implementation_",
          "type": "address"
        }
      ],
      "stateMutability": "nonpayable",
      "type": "constructor"
    },
    {
      "anonymous": false,
      "inputs": [
        {
          "indexed": true,
          "internalType": "address",
          "name": "previousOwner",
          "type": "address"
        },
        {
          "indexed": true,
          "internalType": "address",
          "name": "newOwner",
          "type": "address"
        }
      ],
      "name": "OwnershipTransferred",
      "type": "event"
    },
    {
      "anonymous": false,
      "inputs": [
        {
          "indexed": true,
          "internalType": "address",
          "name": "owner",
          "type": "address"
        },
        {
          "indexed": true,
          "internalType": "address",
          "name": "token",
          "type": "address"
        },
        {
          "indexed": false,
          "internalType": "uint8",
          "name": "tokenType",
          "type": "uint8"
        }
      ],
      "name": "TokenCreated",
      "type": "event"
    },
    {
      "inputs": [],
      "name": "factoryManager",
      "outputs": [
        {
          "internalType": "address",
          "name": "",
          "type": "address"
        }
      ],
      "stateMutability": "view",
      "type": "function"
    },
    {
      "inputs": [],
      "name": "feeTo",
      "outputs": [
        {
          "internalType": "address",
          "name": "",
          "type": "address"
        }
      ],
      "stateMutability": "view",
      "type": "function"
    },
    {
      "inputs": [],
      "name": "flatFee",
      "outputs": [
        {
          "internalType": "uint256",
          "name": "",
          "type": "uint256"
        }
      ],
      "stateMutability": "view",
      "type": "function"
    },
    {
      "inputs": [],
      "name": "implementation",
      "outputs": [
        {
          "internalType": "address",
          "name": "",
          "type": "address"
        }
      ],
      "stateMutability": "view",
      "type": "function"
    },
    {
      "inputs": [],
      "name": "owner",
      "outputs": [
        {
          "internalType": "address",
          "name": "",
          "type": "address"
        }
      ],
      "stateMutability": "view",
      "type": "function"
    },
    {
      "inputs": [],
      "name": "renounceOwnership",
      "outputs": [],
      "stateMutability": "nonpayable",
      "type": "function"
    },
    {
      "inputs": [
        {
          "internalType": "address",
          "name": "feeReceivingAddress",
          "type": "address"
        }
      ],
      "name": "setFeeTo",
      "outputs": [],
      "stateMutability": "nonpayable",
      "type": "function"
    },
    {
      "inputs": [
        {
          "internalType": "uint256",
          "name": "fee",
          "type": "uint256"
        }
      ],
      "name": "setFlatFee",
      "outputs": [],
      "stateMutability": "nonpayable",
      "type": "function"
    },
    {
      "inputs": [
        {
          "internalType": "address",
          "name": "implementation_",
          "type": "address"
        }
      ],
      "name": "setImplementation",
      "outputs": [],
      "stateMutability": "nonpayable",
      "type": "function"
    },
    {
      "inputs": [
        {
          "internalType": "address",
          "name": "newOwner",
          "type": "address"
        }
      ],
      "name": "transferOwnership",
      "outputs": [],
      "stateMutability": "nonpayable",
      "type": "function"
    },
    {
      "inputs": [
        {
          "internalType": "string",
          "name": "name",
          "type": "string"
        },
        {
          "internalType": "string",
          "name": "symbol",
          "type": "string"
        },
        {
          "internalType": "uint8",
          "name": "decimals",
          "type": "uint8"
        },
        {
          "internalType": "uint256",
          "name": "totalSupply",
          "type": "uint256"
        }
      ],
      "name": "create",
      "outputs": [
        {
          "internalType": "address",
          "name": "token",
          "type": "address"
        }
      ],
      "stateMutability": "payable",
      "type": "function"
    }
  ],
  "bytecode": "0x60806040523480156200001157600080fd5b506040516200172a3803806200172a83398181016040528101906200003791906200021e565b8181620000596200004d6200013b60201b60201c565b6200014360201b60201c565b6001808190555081600260006101000a81548173ffffffffffffffffffffffffffffffffffffffff021916908373ffffffffffffffffffffffffffffffffffffffff16021790555080600360006101000a81548173ffffffffffffffffffffffffffffffffffffffff021916908373ffffffffffffffffffffffffffffffffffffffff16021790555033600460006101000a81548173ffffffffffffffffffffffffffffffffffffffff021916908373ffffffffffffffffffffffffffffffffffffffff160217905550662386f26fc1000060058190555050505050620002ad565b600033905090565b60008060009054906101000a900473ffffffffffffffffffffffffffffffffffffffff169050816000806101000a81548173ffffffffffffffffffffffffffffffffffffffff021916908373ffffffffffffffffffffffffffffffffffffffff1602179055508173ffffffffffffffffffffffffffffffffffffffff168173ffffffffffffffffffffffffffffffffffffffff167f8be0079c531659141344cd1fd0a4f28419497f9722a3daafe3b4186f6b6457e060405160405180910390a35050565b600081519050620002188162000293565b92915050565b600080604083850312156200023257600080fd5b6000620002428582860162000207565b9250506020620002558582860162000207565b9150509250929050565b60006200026c8262000273565b9050919050565b600073ffffffffffffffffffffffffffffffffffffffff82169050919050565b6200029e816200025f565b8114620002aa57600080fd5b50565b61146d80620002bd6000396000f3fe60806040526004361061009c5760003560e01c8063831e80f211610064578063831e80f2146101625780638da5cb5b14610192578063d784d426146101bd578063d9eb5947146101e6578063f2fde38b14610211578063f46901ed1461023a5761009c565b8063017e7e58146100a1578063032b5a73146100cc57806323fa495a146100f75780635c60da1b14610120578063715018a61461014b575b600080fd5b3480156100ad57600080fd5b506100b6610263565b6040516100c39190611061565b60405180910390f35b3480156100d857600080fd5b506100e1610289565b6040516100ee9190611061565b60405180910390f35b34801561010357600080fd5b5061011e60048036038101906101199190610d88565b6102af565b005b34801561012c57600080fd5b50610135610335565b6040516101429190611061565b60405180910390f35b34801561015757600080fd5b5061016061035b565b005b61017c60048036038101906101779190610cf5565b6103e3565b6040516101899190611061565b60405180910390f35b34801561019e57600080fd5b506101a76105ee565b6040516101b49190611061565b60405180910390f35b3480156101c957600080fd5b506101e460048036038101906101df9190610ccc565b610617565b005b3480156101f257600080fd5b506101fb6106d7565b604051610208919061120f565b60405180910390f35b34801561021d57600080fd5b5061023860048036038101906102339190610ccc565b6106dd565b005b34801561024657600080fd5b50610261600480360381019061025c9190610ccc565b6107d5565b005b600460009054906101000a900473ffffffffffffffffffffffffffffffffffffffff1681565b600260009054906101000a900473ffffffffffffffffffffffffffffffffffffffff1681565b6102b7610895565b73ffffffffffffffffffffffffffffffffffffffff166102d56105ee565b73ffffffffffffffffffffffffffffffffffffffff161461032b576040517f08c379a0000000000000000000000000000000000000000000000000000000008152600401610322906111af565b60405180910390fd5b8060058190555050565b600360009054906101000a900473ffffffffffffffffffffffffffffffffffffffff1681565b610363610895565b73ffffffffffffffffffffffffffffffffffffffff166103816105ee565b73ffffffffffffffffffffffffffffffffffffffff16146103d7576040517f08c379a00000000000000000000000000000000000000000000000000000000081526004016103ce906111af565b60405180910390fd5b6103e1600061089d565b565b600060055434101561042a576040517f08c379a0000000000000000000000000000000000000000000000000000000008152600401610421906111cf565b60405180910390fd5b60026001541415610470576040517f08c379a0000000000000000000000000000000000000000000000000000000008152600401610467906111ef565b60405180910390fd5b6002600181905550610480610961565b6104cd600554600460009054906101000a900473ffffffffffffffffffffffffffffffffffffffff1673ffffffffffffffffffffffffffffffffffffffff166109b090919063ffffffff16565b6104f8600360009054906101000a900473ffffffffffffffffffffffffffffffffffffffff16610aa4565b90508073ffffffffffffffffffffffffffffffffffffffff1663d72bdc5333878787876040518663ffffffff1660e01b815260040161053b9594939291906110b3565b600060405180830381600087803b15801561055557600080fd5b505af1158015610569573d6000803e3d6000fd5b5050505061057933826000610b79565b8073ffffffffffffffffffffffffffffffffffffffff163373ffffffffffffffffffffffffffffffffffffffff167f49fab9e82f453b3b0e1b0e507a645552d8b351f9b3cb0c9a7b4df572780c6b2f60006040516105d79190611114565b60405180910390a360018081905550949350505050565b60008060009054906101000a900473ffffffffffffffffffffffffffffffffffffffff16905090565b61061f610895565b73ffffffffffffffffffffffffffffffffffffffff1661063d6105ee565b73ffffffffffffffffffffffffffffffffffffffff1614610693576040517f08c379a000000000000000000000000000000000000000000000000000000000815260040161068a906111af565b60405180910390fd5b80600360006101000a81548173ffffffffffffffffffffffffffffffffffffffff021916908373ffffffffffffffffffffffffffffffffffffffff16021790555050565b60055481565b6106e5610895565b73ffffffffffffffffffffffffffffffffffffffff166107036105ee565b73ffffffffffffffffffffffffffffffffffffffff1614610759576040517f08c379a0000000000000000000000000000000000000000000000000000000008152600401610750906111af565b60405180910390fd5b600073ffffffffffffffffffffffffffffffffffffffff168173ffffffffffffffffffffffffffffffffffffffff1614156107c9576040517f08c379a00000000000000000000000000000000000000000000000000000000081526004016107c09061112f565b60405180910390fd5b6107d28161089d565b50565b6107dd610895565b73ffffffffffffffffffffffffffffffffffffffff166107fb6105ee565b73ffffffffffffffffffffffffffffffffffffffff1614610851576040517f08c379a0000000000000000000000000000000000000000000000000000000008152600401610848906111af565b60405180910390fd5b80600460006101000a81548173ffffffffffffffffffffffffffffffffffffffff021916908373ffffffffffffffffffffffffffffffffffffffff16021790555050565b600033905090565b60008060009054906101000a900473ffffffffffffffffffffffffffffffffffffffff169050816000806101000a81548173ffffffffffffffffffffffffffffffffffffffff021916908373ffffffffffffffffffffffffffffffffffffffff1602179055508173ffffffffffffffffffffffffffffffffffffffff168173ffffffffffffffffffffffffffffffffffffffff167f8be0079c531659141344cd1fd0a4f28419497f9722a3daafe3b4186f6b6457e060405160405180910390a35050565b600061097860055434610c0f90919063ffffffff16565b905060008111156109ad576109ac813373ffffffffffffffffffffffffffffffffffffffff166109b090919063ffffffff16565b5b50565b804710156109f3576040517f08c379a00000000000000000000000000000000000000000000000000000000081526004016109ea9061116f565b60405180910390fd5b60008273ffffffffffffffffffffffffffffffffffffffff1682604051610a199061104c565b60006040518083038185875af1925050503d8060008114610a56576040519150601f19603f3d011682016040523d82523d6000602084013e610a5b565b606091505b5050905080610a9f576040517f08c379a0000000000000000000000000000000000000000000000000000000008152600401610a969061114f565b60405180910390fd5b505050565b60006040517f3d602d80600a3d3981f3363d3d373d3d3d363d7300000000000000000000000081528260601b60148201527f5af43d82803e903d91602b57fd5bf3000000000000000000000000000000000060288201526037816000f0915050600073ffffffffffffffffffffffffffffffffffffffff168173ffffffffffffffffffffffffffffffffffffffff161415610b74576040517f08c379a0000000000000000000000000000000000000000000000000000000008152600401610b6b9061118f565b60405180910390fd5b919050565b600260009054906101000a900473ffffffffffffffffffffffffffffffffffffffff1673ffffffffffffffffffffffffffffffffffffffff166328220dea8484846040518463ffffffff1660e01b8152600401610bd89392919061107c565b600060405180830381600087803b158015610bf257600080fd5b505af1158015610c06573d6000803e3d6000fd5b50505050505050565b60008183610c1d91906112b2565b905092915050565b6000610c38610c338461125b565b61122a565b905082815260208101848484011115610c5057600080fd5b610c5b848285611341565b509392505050565b600081359050610c72816113f2565b92915050565b600082601f830112610c8957600080fd5b8135610c99848260208601610c25565b91505092915050565b600081359050610cb181611409565b92915050565b600081359050610cc681611420565b92915050565b600060208284031215610cde57600080fd5b6000610cec84828501610c63565b91505092915050565b60008060008060808587031215610d0b57600080fd5b600085013567ffffffffffffffff811115610d2557600080fd5b610d3187828801610c78565b945050602085013567ffffffffffffffff811115610d4e57600080fd5b610d5a87828801610c78565b9350506040610d6b87828801610cb7565b9250506060610d7c87828801610ca2565b91505092959194509250565b600060208284031215610d9a57600080fd5b6000610da884828501610ca2565b91505092915050565b610dba816112e6565b82525050565b610dc98161132f565b82525050565b6000610dda8261128b565b610de481856112a1565b9350610df4818560208601611350565b610dfd816113e1565b840191505092915050565b6000610e156026836112a1565b91507f4f776e61626c653a206e6577206f776e657220697320746865207a65726f206160008301527f64647265737300000000000000000000000000000000000000000000000000006020830152604082019050919050565b6000610e7b603a836112a1565b91507f416464726573733a20756e61626c6520746f2073656e642076616c75652c207260008301527f6563697069656e74206d617920686176652072657665727465640000000000006020830152604082019050919050565b6000610ee1601d836112a1565b91507f416464726573733a20696e73756666696369656e742062616c616e63650000006000830152602082019050919050565b6000610f216016836112a1565b91507f455243313136373a20637265617465206661696c6564000000000000000000006000830152602082019050919050565b6000610f616020836112a1565b91507f4f776e61626c653a2063616c6c6572206973206e6f7420746865206f776e65726000830152602082019050919050565b6000610fa1600083611296565b9150600082019050919050565b6000610fbb6008836112a1565b91507f466c6174206665650000000000000000000000000000000000000000000000006000830152602082019050919050565b6000610ffb601f836112a1565b91507f5265656e7472616e637947756172643a207265656e7472616e742063616c6c006000830152602082019050919050565b61103781611318565b82525050565b61104681611322565b82525050565b600061105782610f94565b9150819050919050565b60006020820190506110766000830184610db1565b92915050565b60006060820190506110916000830186610db1565b61109e6020830185610db1565b6110ab604083018461103d565b949350505050565b600060a0820190506110c86000830188610db1565b81810360208301526110da8187610dcf565b905081810360408301526110ee8186610dcf565b90506110fd606083018561103d565b61110a608083018461102e565b9695505050505050565b60006020820190506111296000830184610dc0565b92915050565b6000602082019050818103600083015261114881610e08565b9050919050565b6000602082019050818103600083015261116881610e6e565b9050919050565b6000602082019050818103600083015261118881610ed4565b9050919050565b600060208201905081810360008301526111a881610f14565b9050919050565b600060208201905081810360008301526111c881610f54565b9050919050565b600060208201905081810360008301526111e881610fae565b9050919050565b6000602082019050818103600083015261120881610fee565b9050919050565b6000602082019050611224600083018461102e565b92915050565b6000604051905081810181811067ffffffffffffffff82111715611251576112506113b2565b5b8060405250919050565b600067ffffffffffffffff821115611276576112756113b2565b5b601f19601f8301169050602081019050919050565b600081519050919050565b600081905092915050565b600082825260208201905092915050565b60006112bd82611318565b91506112c883611318565b9250828210156112db576112da611383565b5b828203905092915050565b60006112f1826112f8565b9050919050565b600073ffffffffffffffffffffffffffffffffffffffff82169050919050565b6000819050919050565b600060ff82169050919050565b600061133a82611322565b9050919050565b82818337600083830152505050565b60005b8381101561136e578082015181840152602081019050611353565b8381111561137d576000848401525b50505050565b7f4e487b7100000000000000000000000000000000000000000000000000000000600052601160045260246000fd5b7f4e487b7100000000000000000000000000000000000000000000000000000000600052604160045260246000fd5b6000601f19601f8301169050919050565b6113fb816112e6565b811461140657600080fd5b50565b61141281611318565b811461141d57600080fd5b50565b61142981611322565b811461143457600080fd5b5056fea26469706673582212200b68303d96305162ff1b0af5103898790f9c9c91b13e5bd115eab100f5dd64c364736f6c63430008000033",
  "immutableReferences": {},
  "source": "// SPDX-License-Identifier: UNLICENSED\npragma solidity 0.8.0;\n\nimport \"@openzeppelin/contracts/proxy/Clones.sol\";\nimport \"@openzeppelin/contracts/utils/Address.sol\";\nimport \"@openzeppelin/contracts/utils/math/SafeMath.sol\";\nimport \"./TokenFactoryBase.sol\";\nimport \"../../interfaces/IStandardERC20.sol\";\n\ncontract StandardTokenFactory is TokenFactoryBase {\n  using Address for address payable;\n  using SafeMath for uint256;\n  constructor(address factoryManager_, address implementation_) TokenFactoryBase(factoryManager_, implementation_) {}\n\n  function create(\n    string memory name, \n    string memory symbol, \n    uint8 decimals, \n    uint256 totalSupply\n  ) external payable enoughFee nonReentrant returns (address token) {\n    refundExcessiveFee();\n    payable(feeTo).sendValue(flatFee);\n    token = Clones.clone(implementation);\n    IStandardERC20(token).initialize(msg.sender, name, symbol, decimals, totalSupply);\n    assignTokenToOwner(msg.sender, token, 0);\n    emit TokenCreated(msg.sender, token, 0);\n  }\n}",
  "sourcePath": "/home/machado/Documents/projetos/pinksale-contracts/contracts/factories/token/StandardTokenFactory.sol",
  "compiler": {
    "name": "solc",
    "version": "0.8.0+commit.c7dfd78e.Emscripten.clang"
  },
  "schemaVersion": "3.4.1",
  "updatedAt": "2021-11-28T01:05:57.966Z",
  "devdoc": {
    "kind": "dev",
    "methods": {
      "owner()": {
        "details": "Returns the address of the current owner."
      },
      "renounceOwnership()": {
        "details": "Leaves the contract without owner. It will not be possible to call `onlyOwner` functions anymore. Can only be called by the current owner. NOTE: Renouncing ownership will leave the contract without an owner, thereby removing any functionality that is only available to the owner."
      },
      "transferOwnership(address)": {
        "details": "Transfers ownership of the contract to a new account (`newOwner`). Can only be called by the current owner."
      }
    },
    "version": 1
  },
  "userdoc": {
    "kind": "user",
    "methods": {},
    "version": 1
  }
}