{
  "contractName": "StandardTokenFactory",
  "abi": [
    {
      "inputs": [
        {
          "internalType": "address",
          "name": "factoryManager_",
          "type": "address"
        },
        {
          "internalType": "address",
          "name": "implementation_",
          "type": "address"
        }
      ],
      "stateMutability": "nonpayable",
      "type": "constructor"
    },
    {
      "anonymous": false,
      "inputs": [
        {
          "indexed": true,
          "internalType": "address",
          "name": "previousOwner",
          "type": "address"
        },
        {
          "indexed": true,
          "internalType": "address",
          "name": "newOwner",
          "type": "address"
        }
      ],
      "name": "OwnershipTransferred",
      "type": "event"
    },
    {
      "anonymous": false,
      "inputs": [
        {
          "indexed": true,
          "internalType": "address",
          "name": "owner",
          "type": "address"
        },
        {
          "indexed": true,
          "internalType": "address",
          "name": "token",
          "type": "address"
        },
        {
          "indexed": false,
          "internalType": "uint8",
          "name": "tokenType",
          "type": "uint8"
        }
      ],
      "name": "TokenCreated",
      "type": "event"
    },
    {
      "inputs": [],
      "name": "factoryManager",
      "outputs": [
        {
          "internalType": "address",
          "name": "",
          "type": "address"
        }
      ],
      "stateMutability": "view",
      "type": "function",
      "constant": true
    },
    {
      "inputs": [],
      "name": "feeTo",
      "outputs": [
        {
          "internalType": "address",
          "name": "",
          "type": "address"
        }
      ],
      "stateMutability": "view",
      "type": "function",
      "constant": true
    },
    {
      "inputs": [],
      "name": "flatFee",
      "outputs": [
        {
          "internalType": "uint256",
          "name": "",
          "type": "uint256"
        }
      ],
      "stateMutability": "view",
      "type": "function",
      "constant": true
    },
    {
      "inputs": [],
      "name": "implementation",
      "outputs": [
        {
          "internalType": "address",
          "name": "",
          "type": "address"
        }
      ],
      "stateMutability": "view",
      "type": "function",
      "constant": true
    },
    {
      "inputs": [],
      "name": "owner",
      "outputs": [
        {
          "internalType": "address",
          "name": "",
          "type": "address"
        }
      ],
      "stateMutability": "view",
      "type": "function",
      "constant": true
    },
    {
      "inputs": [],
      "name": "renounceOwnership",
      "outputs": [],
      "stateMutability": "nonpayable",
      "type": "function"
    },
    {
      "inputs": [
        {
          "internalType": "address",
          "name": "feeReceivingAddress",
          "type": "address"
        }
      ],
      "name": "setFeeTo",
      "outputs": [],
      "stateMutability": "nonpayable",
      "type": "function"
    },
    {
      "inputs": [
        {
          "internalType": "uint256",
          "name": "fee",
          "type": "uint256"
        }
      ],
      "name": "setFlatFee",
      "outputs": [],
      "stateMutability": "nonpayable",
      "type": "function"
    },
    {
      "inputs": [
        {
          "internalType": "address",
          "name": "implementation_",
          "type": "address"
        }
      ],
      "name": "setImplementation",
      "outputs": [],
      "stateMutability": "nonpayable",
      "type": "function"
    },
    {
      "inputs": [
        {
          "internalType": "address",
          "name": "newOwner",
          "type": "address"
        }
      ],
      "name": "transferOwnership",
      "outputs": [],
      "stateMutability": "nonpayable",
      "type": "function"
    },
    {
      "inputs": [
        {
          "internalType": "string",
          "name": "name",
          "type": "string"
        },
        {
          "internalType": "string",
          "name": "symbol",
          "type": "string"
        },
        {
          "internalType": "uint8",
          "name": "decimals",
          "type": "uint8"
        },
        {
          "internalType": "uint256",
          "name": "totalSupply",
          "type": "uint256"
        }
      ],
      "name": "create",
      "outputs": [
        {
          "internalType": "address",
          "name": "token",
          "type": "address"
        }
      ],
      "stateMutability": "payable",
      "type": "function",
      "payable": true
    }
  ],
  "bytecode": "0x60806040523480156200001157600080fd5b506040516200180f3803806200180f833981810160405281019062000037919062000271565b8181620000596200004d6200013b60201b60201c565b6200014360201b60201c565b6001808190555081600260006101000a81548173ffffffffffffffffffffffffffffffffffffffff021916908373ffffffffffffffffffffffffffffffffffffffff16021790555080600360006101000a81548173ffffffffffffffffffffffffffffffffffffffff021916908373ffffffffffffffffffffffffffffffffffffffff16021790555033600460006101000a81548173ffffffffffffffffffffffffffffffffffffffff021916908373ffffffffffffffffffffffffffffffffffffffff160217905550662386f26fc1000060058190555050505050620002b8565b600033905090565b60008060009054906101000a900473ffffffffffffffffffffffffffffffffffffffff169050816000806101000a81548173ffffffffffffffffffffffffffffffffffffffff021916908373ffffffffffffffffffffffffffffffffffffffff1602179055508173ffffffffffffffffffffffffffffffffffffffff168173ffffffffffffffffffffffffffffffffffffffff167f8be0079c531659141344cd1fd0a4f28419497f9722a3daafe3b4186f6b6457e060405160405180910390a35050565b600080fd5b600073ffffffffffffffffffffffffffffffffffffffff82169050919050565b600062000239826200020c565b9050919050565b6200024b816200022c565b81146200025757600080fd5b50565b6000815190506200026b8162000240565b92915050565b600080604083850312156200028b576200028a62000207565b5b60006200029b858286016200025a565b9250506020620002ae858286016200025a565b9150509250929050565b61154780620002c86000396000f3fe60806040526004361061009c5760003560e01c8063831e80f211610064578063831e80f2146101625780638da5cb5b14610192578063d784d426146101bd578063d9eb5947146101e6578063f2fde38b14610211578063f46901ed1461023a5761009c565b8063017e7e58146100a1578063032b5a73146100cc57806323fa495a146100f75780635c60da1b14610120578063715018a61461014b575b600080fd5b3480156100ad57600080fd5b506100b6610263565b6040516100c39190610c66565b60405180910390f35b3480156100d857600080fd5b506100e1610289565b6040516100ee9190610c66565b60405180910390f35b34801561010357600080fd5b5061011e60048036038101906101199190610ccb565b6102af565b005b34801561012c57600080fd5b50610135610335565b6040516101429190610c66565b60405180910390f35b34801561015757600080fd5b5061016061035b565b005b61017c60048036038101906101779190610e77565b6103e3565b6040516101899190610c66565b60405180910390f35b34801561019e57600080fd5b506101a76105ee565b6040516101b49190610c66565b60405180910390f35b3480156101c957600080fd5b506101e460048036038101906101df9190610f42565b610617565b005b3480156101f257600080fd5b506101fb6106d7565b6040516102089190610f7e565b60405180910390f35b34801561021d57600080fd5b5061023860048036038101906102339190610f42565b6106dd565b005b34801561024657600080fd5b50610261600480360381019061025c9190610f42565b6107d5565b005b600460009054906101000a900473ffffffffffffffffffffffffffffffffffffffff1681565b600260009054906101000a900473ffffffffffffffffffffffffffffffffffffffff1681565b6102b7610895565b73ffffffffffffffffffffffffffffffffffffffff166102d56105ee565b73ffffffffffffffffffffffffffffffffffffffff161461032b576040517f08c379a000000000000000000000000000000000000000000000000000000000815260040161032290610ff6565b60405180910390fd5b8060058190555050565b600360009054906101000a900473ffffffffffffffffffffffffffffffffffffffff1681565b610363610895565b73ffffffffffffffffffffffffffffffffffffffff166103816105ee565b73ffffffffffffffffffffffffffffffffffffffff16146103d7576040517f08c379a00000000000000000000000000000000000000000000000000000000081526004016103ce90610ff6565b60405180910390fd5b6103e1600061089d565b565b600060055434101561042a576040517f08c379a000000000000000000000000000000000000000000000000000000000815260040161042190611062565b60405180910390fd5b60026001541415610470576040517f08c379a0000000000000000000000000000000000000000000000000000000008152600401610467906110ce565b60405180910390fd5b6002600181905550610480610961565b6104cd600554600460009054906101000a900473ffffffffffffffffffffffffffffffffffffffff1673ffffffffffffffffffffffffffffffffffffffff166109b090919063ffffffff16565b6104f8600360009054906101000a900473ffffffffffffffffffffffffffffffffffffffff16610aa4565b90508073ffffffffffffffffffffffffffffffffffffffff1663d72bdc5333878787876040518663ffffffff1660e01b815260040161053b959493929190611174565b600060405180830381600087803b15801561055557600080fd5b505af1158015610569573d6000803e3d6000fd5b5050505061057933826000610b79565b8073ffffffffffffffffffffffffffffffffffffffff163373ffffffffffffffffffffffffffffffffffffffff167f49fab9e82f453b3b0e1b0e507a645552d8b351f9b3cb0c9a7b4df572780c6b2f60006040516105d7919061121a565b60405180910390a360018081905550949350505050565b60008060009054906101000a900473ffffffffffffffffffffffffffffffffffffffff16905090565b61061f610895565b73ffffffffffffffffffffffffffffffffffffffff1661063d6105ee565b73ffffffffffffffffffffffffffffffffffffffff1614610693576040517f08c379a000000000000000000000000000000000000000000000000000000000815260040161068a90610ff6565b60405180910390fd5b80600360006101000a81548173ffffffffffffffffffffffffffffffffffffffff021916908373ffffffffffffffffffffffffffffffffffffffff16021790555050565b60055481565b6106e5610895565b73ffffffffffffffffffffffffffffffffffffffff166107036105ee565b73ffffffffffffffffffffffffffffffffffffffff1614610759576040517f08c379a000000000000000000000000000000000000000000000000000000000815260040161075090610ff6565b60405180910390fd5b600073ffffffffffffffffffffffffffffffffffffffff168173ffffffffffffffffffffffffffffffffffffffff1614156107c9576040517f08c379a00000000000000000000000000000000000000000000000000000000081526004016107c0906112a7565b60405180910390fd5b6107d28161089d565b50565b6107dd610895565b73ffffffffffffffffffffffffffffffffffffffff166107fb6105ee565b73ffffffffffffffffffffffffffffffffffffffff1614610851576040517f08c379a000000000000000000000000000000000000000000000000000000000815260040161084890610ff6565b60405180910390fd5b80600460006101000a81548173ffffffffffffffffffffffffffffffffffffffff021916908373ffffffffffffffffffffffffffffffffffffffff16021790555050565b600033905090565b60008060009054906101000a900473ffffffffffffffffffffffffffffffffffffffff169050816000806101000a81548173ffffffffffffffffffffffffffffffffffffffff021916908373ffffffffffffffffffffffffffffffffffffffff1602179055508173ffffffffffffffffffffffffffffffffffffffff168173ffffffffffffffffffffffffffffffffffffffff167f8be0079c531659141344cd1fd0a4f28419497f9722a3daafe3b4186f6b6457e060405160405180910390a35050565b600061097860055434610c0f90919063ffffffff16565b905060008111156109ad576109ac813373ffffffffffffffffffffffffffffffffffffffff166109b090919063ffffffff16565b5b50565b804710156109f3576040517f08c379a00000000000000000000000000000000000000000000000000000000081526004016109ea90611313565b60405180910390fd5b60008273ffffffffffffffffffffffffffffffffffffffff1682604051610a1990611364565b60006040518083038185875af1925050503d8060008114610a56576040519150601f19603f3d011682016040523d82523d6000602084013e610a5b565b606091505b5050905080610a9f576040517f08c379a0000000000000000000000000000000000000000000000000000000008152600401610a96906113eb565b60405180910390fd5b505050565b60006040517f3d602d80600a3d3981f3363d3d373d3d3d363d7300000000000000000000000081528260601b60148201527f5af43d82803e903d91602b57fd5bf3000000000000000000000000000000000060288201526037816000f0915050600073ffffffffffffffffffffffffffffffffffffffff168173ffffffffffffffffffffffffffffffffffffffff161415610b74576040517f08c379a0000000000000000000000000000000000000000000000000000000008152600401610b6b90611457565b60405180910390fd5b919050565b600260009054906101000a900473ffffffffffffffffffffffffffffffffffffffff1673ffffffffffffffffffffffffffffffffffffffff166328220dea8484846040518463ffffffff1660e01b8152600401610bd893929190611477565b600060405180830381600087803b158015610bf257600080fd5b505af1158015610c06573d6000803e3d6000fd5b50505050505050565b60008183610c1d91906114dd565b905092915050565b600073ffffffffffffffffffffffffffffffffffffffff82169050919050565b6000610c5082610c25565b9050919050565b610c6081610c45565b82525050565b6000602082019050610c7b6000830184610c57565b92915050565b6000604051905090565b600080fd5b600080fd5b6000819050919050565b610ca881610c95565b8114610cb357600080fd5b50565b600081359050610cc581610c9f565b92915050565b600060208284031215610ce157610ce0610c8b565b5b6000610cef84828501610cb6565b91505092915050565b600080fd5b600080fd5b6000601f19601f8301169050919050565b7f4e487b7100000000000000000000000000000000000000000000000000000000600052604160045260246000fd5b610d4b82610d02565b810181811067ffffffffffffffff82111715610d6a57610d69610d13565b5b80604052505050565b6000610d7d610c81565b9050610d898282610d42565b919050565b600067ffffffffffffffff821115610da957610da8610d13565b5b610db282610d02565b9050602081019050919050565b82818337600083830152505050565b6000610de1610ddc84610d8e565b610d73565b905082815260208101848484011115610dfd57610dfc610cfd565b5b610e08848285610dbf565b509392505050565b600082601f830112610e2557610e24610cf8565b5b8135610e35848260208601610dce565b91505092915050565b600060ff82169050919050565b610e5481610e3e565b8114610e5f57600080fd5b50565b600081359050610e7181610e4b565b92915050565b60008060008060808587031215610e9157610e90610c8b565b5b600085013567ffffffffffffffff811115610eaf57610eae610c90565b5b610ebb87828801610e10565b945050602085013567ffffffffffffffff811115610edc57610edb610c90565b5b610ee887828801610e10565b9350506040610ef987828801610e62565b9250506060610f0a87828801610cb6565b91505092959194509250565b610f1f81610c45565b8114610f2a57600080fd5b50565b600081359050610f3c81610f16565b92915050565b600060208284031215610f5857610f57610c8b565b5b6000610f6684828501610f2d565b91505092915050565b610f7881610c95565b82525050565b6000602082019050610f936000830184610f6f565b92915050565b600082825260208201905092915050565b7f4f776e61626c653a2063616c6c6572206973206e6f7420746865206f776e6572600082015250565b6000610fe0602083610f99565b9150610feb82610faa565b602082019050919050565b6000602082019050818103600083015261100f81610fd3565b9050919050565b7f466c617420666565000000000000000000000000000000000000000000000000600082015250565b600061104c600883610f99565b915061105782611016565b602082019050919050565b6000602082019050818103600083015261107b8161103f565b9050919050565b7f5265656e7472616e637947756172643a207265656e7472616e742063616c6c00600082015250565b60006110b8601f83610f99565b91506110c382611082565b602082019050919050565b600060208201905081810360008301526110e7816110ab565b9050919050565b600081519050919050565b60005b838110156111175780820151818401526020810190506110fc565b83811115611126576000848401525b50505050565b6000611137826110ee565b6111418185610f99565b93506111518185602086016110f9565b61115a81610d02565b840191505092915050565b61116e81610e3e565b82525050565b600060a0820190506111896000830188610c57565b818103602083015261119b818761112c565b905081810360408301526111af818661112c565b90506111be6060830185611165565b6111cb6080830184610f6f565b9695505050505050565b6000819050919050565b6000819050919050565b60006112046111ff6111fa846111d5565b6111df565b610e3e565b9050919050565b611214816111e9565b82525050565b600060208201905061122f600083018461120b565b92915050565b7f4f776e61626c653a206e6577206f776e657220697320746865207a65726f206160008201527f6464726573730000000000000000000000000000000000000000000000000000602082015250565b6000611291602683610f99565b915061129c82611235565b604082019050919050565b600060208201905081810360008301526112c081611284565b9050919050565b7f416464726573733a20696e73756666696369656e742062616c616e6365000000600082015250565b60006112fd601d83610f99565b9150611308826112c7565b602082019050919050565b6000602082019050818103600083015261132c816112f0565b9050919050565b600081905092915050565b50565b600061134e600083611333565b91506113598261133e565b600082019050919050565b600061136f82611341565b9150819050919050565b7f416464726573733a20756e61626c6520746f2073656e642076616c75652c207260008201527f6563697069656e74206d61792068617665207265766572746564000000000000602082015250565b60006113d5603a83610f99565b91506113e082611379565b604082019050919050565b60006020820190508181036000830152611404816113c8565b9050919050565b7f455243313136373a20637265617465206661696c656400000000000000000000600082015250565b6000611441601683610f99565b915061144c8261140b565b602082019050919050565b6000602082019050818103600083015261147081611434565b9050919050565b600060608201905061148c6000830186610c57565b6114996020830185610c57565b6114a66040830184611165565b949350505050565b7f4e487b7100000000000000000000000000000000000000000000000000000000600052601160045260246000fd5b60006114e882610c95565b91506114f383610c95565b925082821015611506576115056114ae565b5b82820390509291505056fea26469706673582212200be93d878111f74b480e3cc31239aa431e48de5d87203f473d4b9d82ac602fb464736f6c634300080a0033",
  "immutableReferences": {},
  "source": "// SPDX-License-Identifier: UNLICENSED\npragma solidity ^0.8.1;\n\nimport \"@openzeppelin/contracts/proxy/Clones.sol\";\nimport \"@openzeppelin/contracts/utils/Address.sol\";\nimport \"@openzeppelin/contracts/utils/math/SafeMath.sol\";\nimport \"./TokenFactoryBase.sol\";\nimport \"../../interfaces/IStandardERC20.sol\";\n\ncontract StandardTokenFactory is TokenFactoryBase {\n  using Address for address payable;\n  using SafeMath for uint256;\n  constructor(address factoryManager_, address implementation_) TokenFactoryBase(factoryManager_, implementation_) {}\n\n  function create(\n    string memory name, \n    string memory symbol, \n    uint8 decimals, \n    uint256 totalSupply\n  ) external payable enoughFee nonReentrant returns (address token) {\n    refundExcessiveFee();\n    payable(feeTo).sendValue(flatFee);\n    token = Clones.clone(implementation);\n    IStandardERC20(token).initialize(msg.sender, name, symbol, decimals, totalSupply);\n    assignTokenToOwner(msg.sender, token, 0);\n    emit TokenCreated(msg.sender, token, 0);\n  }\n}",
  "sourcePath": "/home/machado/Documents/projetos/pinksale-contracts/contracts/factories/token/StandardTokenFactory.sol",
  "compiler": {
    "name": "solc",
    "version": "0.8.10+commit.fc410830.Emscripten.clang"
  },
  "schemaVersion": "3.4.3",
  "updatedAt": "2022-04-11T20:08:10.363Z",
  "networkType": "ethereum",
  "devdoc": {
    "kind": "dev",
    "methods": {
      "owner()": {
        "details": "Returns the address of the current owner."
      },
      "renounceOwnership()": {
        "details": "Leaves the contract without owner. It will not be possible to call `onlyOwner` functions anymore. Can only be called by the current owner. NOTE: Renouncing ownership will leave the contract without an owner, thereby removing any functionality that is only available to the owner."
      },
      "transferOwnership(address)": {
        "details": "Transfers ownership of the contract to a new account (`newOwner`). Can only be called by the current owner."
      }
    },
    "version": 1
  },
  "userdoc": {
    "kind": "user",
    "methods": {},
    "version": 1
  }
}