{
  "contractName": "TokenFactoryBase",
  "abi": [
    {
      "inputs": [
        {
          "internalType": "address",
          "name": "factoryManager_",
          "type": "address"
        },
        {
          "internalType": "address",
          "name": "implementation_",
          "type": "address"
        }
      ],
      "stateMutability": "nonpayable",
      "type": "constructor"
    },
    {
      "anonymous": false,
      "inputs": [
        {
          "indexed": true,
          "internalType": "address",
          "name": "previousOwner",
          "type": "address"
        },
        {
          "indexed": true,
          "internalType": "address",
          "name": "newOwner",
          "type": "address"
        }
      ],
      "name": "OwnershipTransferred",
      "type": "event"
    },
    {
      "anonymous": false,
      "inputs": [
        {
          "indexed": true,
          "internalType": "address",
          "name": "owner",
          "type": "address"
        },
        {
          "indexed": true,
          "internalType": "address",
          "name": "token",
          "type": "address"
        },
        {
          "indexed": false,
          "internalType": "uint8",
          "name": "tokenType",
          "type": "uint8"
        }
      ],
      "name": "TokenCreated",
      "type": "event"
    },
    {
      "inputs": [],
      "name": "factoryManager",
      "outputs": [
        {
          "internalType": "address",
          "name": "",
          "type": "address"
        }
      ],
      "stateMutability": "view",
      "type": "function"
    },
    {
      "inputs": [],
      "name": "feeTo",
      "outputs": [
        {
          "internalType": "address",
          "name": "",
          "type": "address"
        }
      ],
      "stateMutability": "view",
      "type": "function"
    },
    {
      "inputs": [],
      "name": "flatFee",
      "outputs": [
        {
          "internalType": "uint256",
          "name": "",
          "type": "uint256"
        }
      ],
      "stateMutability": "view",
      "type": "function"
    },
    {
      "inputs": [],
      "name": "implementation",
      "outputs": [
        {
          "internalType": "address",
          "name": "",
          "type": "address"
        }
      ],
      "stateMutability": "view",
      "type": "function"
    },
    {
      "inputs": [],
      "name": "owner",
      "outputs": [
        {
          "internalType": "address",
          "name": "",
          "type": "address"
        }
      ],
      "stateMutability": "view",
      "type": "function"
    },
    {
      "inputs": [],
      "name": "renounceOwnership",
      "outputs": [],
      "stateMutability": "nonpayable",
      "type": "function"
    },
    {
      "inputs": [
        {
          "internalType": "address",
          "name": "newOwner",
          "type": "address"
        }
      ],
      "name": "transferOwnership",
      "outputs": [],
      "stateMutability": "nonpayable",
      "type": "function"
    },
    {
      "inputs": [
        {
          "internalType": "address",
          "name": "implementation_",
          "type": "address"
        }
      ],
      "name": "setImplementation",
      "outputs": [],
      "stateMutability": "nonpayable",
      "type": "function"
    },
    {
      "inputs": [
        {
          "internalType": "address",
          "name": "feeReceivingAddress",
          "type": "address"
        }
      ],
      "name": "setFeeTo",
      "outputs": [],
      "stateMutability": "nonpayable",
      "type": "function"
    },
    {
      "inputs": [
        {
          "internalType": "uint256",
          "name": "fee",
          "type": "uint256"
        }
      ],
      "name": "setFlatFee",
      "outputs": [],
      "stateMutability": "nonpayable",
      "type": "function"
    }
  ],
  "bytecode": "0x608060405234801561001057600080fd5b50604051610bdd380380610bdd8339818101604052810190610032919061025c565b61004e61004361012d60201b60201c565b61013560201b60201c565b6001808190555081600260006101000a81548173ffffffffffffffffffffffffffffffffffffffff021916908373ffffffffffffffffffffffffffffffffffffffff16021790555080600360006101000a81548173ffffffffffffffffffffffffffffffffffffffff021916908373ffffffffffffffffffffffffffffffffffffffff16021790555033600460006101000a81548173ffffffffffffffffffffffffffffffffffffffff021916908373ffffffffffffffffffffffffffffffffffffffff160217905550662386f26fc10000600581905550505061029c565b600033905090565b60008060009054906101000a900473ffffffffffffffffffffffffffffffffffffffff169050816000806101000a81548173ffffffffffffffffffffffffffffffffffffffff021916908373ffffffffffffffffffffffffffffffffffffffff1602179055508173ffffffffffffffffffffffffffffffffffffffff168173ffffffffffffffffffffffffffffffffffffffff167f8be0079c531659141344cd1fd0a4f28419497f9722a3daafe3b4186f6b6457e060405160405180910390a35050565b600080fd5b600073ffffffffffffffffffffffffffffffffffffffff82169050919050565b6000610229826101fe565b9050919050565b6102398161021e565b811461024457600080fd5b50565b60008151905061025681610230565b92915050565b60008060408385031215610273576102726101f9565b5b600061028185828601610247565b925050602061029285828601610247565b9150509250929050565b610932806102ab6000396000f3fe608060405234801561001057600080fd5b506004361061009e5760003560e01c80638da5cb5b116100665780638da5cb5b14610123578063d784d42614610141578063d9eb59471461015d578063f2fde38b1461017b578063f46901ed146101975761009e565b8063017e7e58146100a3578063032b5a73146100c157806323fa495a146100df5780635c60da1b146100fb578063715018a614610119575b600080fd5b6100ab6101b3565b6040516100b891906106e7565b60405180910390f35b6100c96101d9565b6040516100d691906106e7565b60405180910390f35b6100f960048036038101906100f4919061073d565b6101ff565b005b610103610285565b60405161011091906106e7565b60405180910390f35b6101216102ab565b005b61012b610333565b60405161013891906106e7565b60405180910390f35b61015b60048036038101906101569190610796565b61035c565b005b61016561041c565b60405161017291906107d2565b60405180910390f35b61019560048036038101906101909190610796565b610422565b005b6101b160048036038101906101ac9190610796565b61051a565b005b600460009054906101000a900473ffffffffffffffffffffffffffffffffffffffff1681565b600260009054906101000a900473ffffffffffffffffffffffffffffffffffffffff1681565b6102076105da565b73ffffffffffffffffffffffffffffffffffffffff16610225610333565b73ffffffffffffffffffffffffffffffffffffffff161461027b576040517f08c379a00000000000000000000000000000000000000000000000000000000081526004016102729061084a565b60405180910390fd5b8060058190555050565b600360009054906101000a900473ffffffffffffffffffffffffffffffffffffffff1681565b6102b36105da565b73ffffffffffffffffffffffffffffffffffffffff166102d1610333565b73ffffffffffffffffffffffffffffffffffffffff1614610327576040517f08c379a000000000000000000000000000000000000000000000000000000000815260040161031e9061084a565b60405180910390fd5b61033160006105e2565b565b60008060009054906101000a900473ffffffffffffffffffffffffffffffffffffffff16905090565b6103646105da565b73ffffffffffffffffffffffffffffffffffffffff16610382610333565b73ffffffffffffffffffffffffffffffffffffffff16146103d8576040517f08c379a00000000000000000000000000000000000000000000000000000000081526004016103cf9061084a565b60405180910390fd5b80600360006101000a81548173ffffffffffffffffffffffffffffffffffffffff021916908373ffffffffffffffffffffffffffffffffffffffff16021790555050565b60055481565b61042a6105da565b73ffffffffffffffffffffffffffffffffffffffff16610448610333565b73ffffffffffffffffffffffffffffffffffffffff161461049e576040517f08c379a00000000000000000000000000000000000000000000000000000000081526004016104959061084a565b60405180910390fd5b600073ffffffffffffffffffffffffffffffffffffffff168173ffffffffffffffffffffffffffffffffffffffff16141561050e576040517f08c379a0000000000000000000000000000000000000000000000000000000008152600401610505906108dc565b60405180910390fd5b610517816105e2565b50565b6105226105da565b73ffffffffffffffffffffffffffffffffffffffff16610540610333565b73ffffffffffffffffffffffffffffffffffffffff1614610596576040517f08c379a000000000000000000000000000000000000000000000000000000000815260040161058d9061084a565b60405180910390fd5b80600460006101000a81548173ffffffffffffffffffffffffffffffffffffffff021916908373ffffffffffffffffffffffffffffffffffffffff16021790555050565b600033905090565b60008060009054906101000a900473ffffffffffffffffffffffffffffffffffffffff169050816000806101000a81548173ffffffffffffffffffffffffffffffffffffffff021916908373ffffffffffffffffffffffffffffffffffffffff1602179055508173ffffffffffffffffffffffffffffffffffffffff168173ffffffffffffffffffffffffffffffffffffffff167f8be0079c531659141344cd1fd0a4f28419497f9722a3daafe3b4186f6b6457e060405160405180910390a35050565b600073ffffffffffffffffffffffffffffffffffffffff82169050919050565b60006106d1826106a6565b9050919050565b6106e1816106c6565b82525050565b60006020820190506106fc60008301846106d8565b92915050565b600080fd5b6000819050919050565b61071a81610707565b811461072557600080fd5b50565b60008135905061073781610711565b92915050565b60006020828403121561075357610752610702565b5b600061076184828501610728565b91505092915050565b610773816106c6565b811461077e57600080fd5b50565b6000813590506107908161076a565b92915050565b6000602082840312156107ac576107ab610702565b5b60006107ba84828501610781565b91505092915050565b6107cc81610707565b82525050565b60006020820190506107e760008301846107c3565b92915050565b600082825260208201905092915050565b7f4f776e61626c653a2063616c6c6572206973206e6f7420746865206f776e6572600082015250565b60006108346020836107ed565b915061083f826107fe565b602082019050919050565b6000602082019050818103600083015261086381610827565b9050919050565b7f4f776e61626c653a206e6577206f776e657220697320746865207a65726f206160008201527f6464726573730000000000000000000000000000000000000000000000000000602082015250565b60006108c66026836107ed565b91506108d18261086a565b604082019050919050565b600060208201905081810360008301526108f5816108b9565b905091905056fea2646970667358221220d1d4f08cd721f0a1778f8ecbeefa292af1187f76149bf122ed1287a4ff040c7264736f6c634300080a0033",
  "immutableReferences": {},
  "source": "// SPDX-License-Identifier: UNLICENSED\npragma solidity ^0.8.1;\n\nimport \"@openzeppelin/contracts/token/ERC20/IERC20.sol\";\nimport \"@openzeppelin/contracts/token/ERC20/utils/SafeERC20.sol\";\nimport \"@openzeppelin/contracts/access/Ownable.sol\";\nimport \"@openzeppelin/contracts/utils/math/SafeMath.sol\";\nimport \"@openzeppelin/contracts/utils/Address.sol\";\nimport \"@openzeppelin/contracts/security/ReentrancyGuard.sol\";\nimport \"../../interfaces/IFactoryManager.sol\";\n\n\ncontract TokenFactoryBase is Ownable, ReentrancyGuard {\n  using SafeMath for uint256;\n  using Address for address payable;\n\n  address public factoryManager;\n  address public implementation;\n  address public feeTo;\n  uint256 public flatFee;\n\n  event TokenCreated(\n    address indexed owner,\n    address indexed token,\n    uint8 tokenType\n  );\n\n  modifier enoughFee() {\n    require(msg.value >= flatFee, \"Flat fee\");\n    _;\n  }\n\n  constructor(address factoryManager_, address implementation_) {\n    factoryManager = factoryManager_;\n    implementation = implementation_;\n    feeTo = msg.sender;\n    flatFee = 10_000_000 gwei;\n  }\n\n  function setImplementation(address implementation_) external onlyOwner {\n    implementation = implementation_;\n  }\n\n  function setFeeTo(address feeReceivingAddress) external onlyOwner {\n    feeTo = feeReceivingAddress;\n  }\n\n  function setFlatFee(uint256 fee) external onlyOwner {\n    flatFee = fee;\n  }\n\n  function assignTokenToOwner(address owner, address token, uint8 tokenType) internal {\n    IFactoryManager(factoryManager).assignTokensToOwner(owner, token, tokenType);\n  }\n\n  function refundExcessiveFee() internal {\n    uint256 refund = msg.value.sub(flatFee);\n    if (refund > 0) {\n      payable(msg.sender).sendValue(refund);\n    }\n  }\n}\n",
  "sourcePath": "/home/machado/Documents/projetos/pinksale-contracts/contracts/factories/token/TokenFactoryBase.sol",
  "compiler": {
    "name": "solc",
    "version": "0.8.10+commit.fc410830.Emscripten.clang"
  },
  "schemaVersion": "3.4.3",
  "updatedAt": "2022-04-11T20:08:07.385Z",
  "devdoc": {
    "kind": "dev",
    "methods": {
      "owner()": {
        "details": "Returns the address of the current owner."
      },
      "renounceOwnership()": {
        "details": "Leaves the contract without owner. It will not be possible to call `onlyOwner` functions anymore. Can only be called by the current owner. NOTE: Renouncing ownership will leave the contract without an owner, thereby removing any functionality that is only available to the owner."
      },
      "transferOwnership(address)": {
        "details": "Transfers ownership of the contract to a new account (`newOwner`). Can only be called by the current owner."
      }
    },
    "version": 1
  },
  "userdoc": {
    "kind": "user",
    "methods": {},
    "version": 1
  }
}