{
  "contractName": "TokenFactoryManager",
  "abi": [
    {
      "anonymous": false,
      "inputs": [
        {
          "indexed": true,
          "internalType": "address",
          "name": "previousOwner",
          "type": "address"
        },
        {
          "indexed": true,
          "internalType": "address",
          "name": "newOwner",
          "type": "address"
        }
      ],
      "name": "OwnershipTransferred",
      "type": "event"
    },
    {
      "inputs": [],
      "name": "owner",
      "outputs": [
        {
          "internalType": "address",
          "name": "",
          "type": "address"
        }
      ],
      "stateMutability": "view",
      "type": "function"
    },
    {
      "inputs": [],
      "name": "renounceOwnership",
      "outputs": [],
      "stateMutability": "nonpayable",
      "type": "function"
    },
    {
      "inputs": [
        {
          "internalType": "address",
          "name": "newOwner",
          "type": "address"
        }
      ],
      "name": "transferOwnership",
      "outputs": [],
      "stateMutability": "nonpayable",
      "type": "function"
    },
    {
      "inputs": [
        {
          "internalType": "address",
          "name": "factory",
          "type": "address"
        }
      ],
      "name": "addTokenFactory",
      "outputs": [],
      "stateMutability": "nonpayable",
      "type": "function"
    },
    {
      "inputs": [
        {
          "internalType": "address[]",
          "name": "factories",
          "type": "address[]"
        }
      ],
      "name": "addTokenFactories",
      "outputs": [],
      "stateMutability": "nonpayable",
      "type": "function"
    },
    {
      "inputs": [
        {
          "internalType": "address",
          "name": "factory",
          "type": "address"
        }
      ],
      "name": "removeTokenFactory",
      "outputs": [],
      "stateMutability": "nonpayable",
      "type": "function"
    },
    {
      "inputs": [
        {
          "internalType": "address",
          "name": "owner",
          "type": "address"
        },
        {
          "internalType": "address",
          "name": "token",
          "type": "address"
        },
        {
          "internalType": "uint8",
          "name": "tokenType",
          "type": "uint8"
        }
      ],
      "name": "assignTokensToOwner",
      "outputs": [],
      "stateMutability": "nonpayable",
      "type": "function"
    },
    {
      "inputs": [],
      "name": "getAllowedFactories",
      "outputs": [
        {
          "internalType": "address[]",
          "name": "",
          "type": "address[]"
        }
      ],
      "stateMutability": "view",
      "type": "function"
    },
    {
      "inputs": [
        {
          "internalType": "address",
          "name": "token",
          "type": "address"
        }
      ],
      "name": "isTokenGenerated",
      "outputs": [
        {
          "internalType": "bool",
          "name": "",
          "type": "bool"
        }
      ],
      "stateMutability": "view",
      "type": "function"
    },
    {
      "inputs": [
        {
          "internalType": "address",
          "name": "owner",
          "type": "address"
        },
        {
          "internalType": "uint256",
          "name": "index",
          "type": "uint256"
        }
      ],
      "name": "getToken",
      "outputs": [
        {
          "internalType": "address",
          "name": "",
          "type": "address"
        },
        {
          "internalType": "uint8",
          "name": "",
          "type": "uint8"
        }
      ],
      "stateMutability": "view",
      "type": "function"
    },
    {
      "inputs": [
        {
          "internalType": "address",
          "name": "owner",
          "type": "address"
        }
      ],
      "name": "getAllTokens",
      "outputs": [
        {
          "internalType": "address[]",
          "name": "",
          "type": "address[]"
        },
        {
          "internalType": "uint8[]",
          "name": "",
          "type": "uint8[]"
        }
      ],
      "stateMutability": "view",
      "type": "function"
    },
    {
      "inputs": [
        {
          "internalType": "address",
          "name": "owner",
          "type": "address"
        },
        {
          "internalType": "uint8",
          "name": "tokenType",
          "type": "uint8"
        }
      ],
      "name": "getTokensForType",
      "outputs": [
        {
          "internalType": "address[]",
          "name": "",
          "type": "address[]"
        }
      ],
      "stateMutability": "view",
      "type": "function"
    }
  ],
  "bytecode": "0x608060405234801561001057600080fd5b5061002d61002261003260201b60201c565b61003a60201b60201c565b6100fe565b600033905090565b60008060009054906101000a900473ffffffffffffffffffffffffffffffffffffffff169050816000806101000a81548173ffffffffffffffffffffffffffffffffffffffff021916908373ffffffffffffffffffffffffffffffffffffffff1602179055508173ffffffffffffffffffffffffffffffffffffffff168173ffffffffffffffffffffffffffffffffffffffff167f8be0079c531659141344cd1fd0a4f28419497f9722a3daafe3b4186f6b6457e060405160405180910390a35050565b611d7e8061010d6000396000f3fe608060405234801561001057600080fd5b50600436106100b45760003560e01c80635da926ca116100715780635da926ca146101b5578063715018a6146101d15780638da5cb5b146101db578063937529ef146101f95780639ce1936514610215578063f2fde38b14610231576100b4565b8063178b6de6146100b957806327db6e64146100ea57806328220dea146101085780633136aef71461012457806343d7cce6146101545780634c1a7e7514610185575b600080fd5b6100d360048036038101906100ce91906114d9565b61024d565b6040516100e192919061168f565b60405180910390f35b6100f26104bd565b6040516100ff91906116c6565b60405180910390f35b610122600480360381019061011d9190611714565b6105a2565b005b61013e60048036038101906101399190611767565b6108ad565b60405161014b91906116c6565b60405180910390f35b61016e600480360381019061016991906117dd565b610bc0565b60405161017c92919061183b565b60405180910390f35b61019f600480360381019061019a91906114d9565b610d10565b6040516101ac919061187f565b60405180910390f35b6101cf60048036038101906101ca91906119f3565b610d66565b005b6101d9610e28565b005b6101e3610eb0565b6040516101f09190611a3c565b60405180910390f35b610213600480360381019061020e91906114d9565b610ed9565b005b61022f600480360381019061022a91906114d9565b610f6d565b005b61024b600480360381019061024691906114d9565b611001565b005b6060806000600360008573ffffffffffffffffffffffffffffffffffffffff1673ffffffffffffffffffffffffffffffffffffffff16815260200190815260200160002080549050905060008167ffffffffffffffff8111156102b3576102b26118b0565b5b6040519080825280602002602001820160405280156102e15781602001602082028036833780820191505090505b50905060008267ffffffffffffffff811115610300576102ff6118b0565b5b60405190808252806020026020018201604052801561032e5781602001602082028036833780820191505090505b50905060005b838110156104ae57600360008873ffffffffffffffffffffffffffffffffffffffff1673ffffffffffffffffffffffffffffffffffffffff168152602001908152602001600020818154811061038d5761038c611a57565b5b9060005260206000200160000160019054906101000a900473ffffffffffffffffffffffffffffffffffffffff168382815181106103ce576103cd611a57565b5b602002602001019073ffffffffffffffffffffffffffffffffffffffff16908173ffffffffffffffffffffffffffffffffffffffff1681525050600360008873ffffffffffffffffffffffffffffffffffffffff1673ffffffffffffffffffffffffffffffffffffffff168152602001908152602001600020818154811061045957610458611a57565b5b9060005260206000200160000160009054906101000a900460ff1682828151811061048757610486611a57565b5b602002602001019060ff16908160ff168152505080806104a690611ab5565b915050610334565b50818194509450505050915091565b606060006104cb60016110f9565b905060008167ffffffffffffffff8111156104e9576104e86118b0565b5b6040519080825280602002602001820160405280156105175781602001602082028036833780820191505090505b50905060005b828110156105995761053981600161110e90919063ffffffff16565b82828151811061054c5761054b611a57565b5b602002602001019073ffffffffffffffffffffffffffffffffffffffff16908173ffffffffffffffffffffffffffffffffffffffff1681525050808061059190611ab5565b91505061051d565b50809250505090565b6105b633600161112890919063ffffffff16565b6105f5576040517f08c379a00000000000000000000000000000000000000000000000000000000081526004016105ec90611b5b565b60405180910390fd5b600460008473ffffffffffffffffffffffffffffffffffffffff1673ffffffffffffffffffffffffffffffffffffffff16815260200190815260200160002060008373ffffffffffffffffffffffffffffffffffffffff1673ffffffffffffffffffffffffffffffffffffffff16815260200190815260200160002060009054906101000a900460ff16156106bf576040517f08c379a00000000000000000000000000000000000000000000000000000000081526004016106b690611bc7565b60405180910390fd5b600360008473ffffffffffffffffffffffffffffffffffffffff1673ffffffffffffffffffffffffffffffffffffffff16815260200190815260200160002060405180604001604052808360ff1681526020018473ffffffffffffffffffffffffffffffffffffffff168152509080600181540180825580915050600190039060005260206000200160009091909190915060008201518160000160006101000a81548160ff021916908360ff16021790555060208201518160000160016101000a81548173ffffffffffffffffffffffffffffffffffffffff021916908373ffffffffffffffffffffffffffffffffffffffff16021790555050506001600460008573ffffffffffffffffffffffffffffffffffffffff1673ffffffffffffffffffffffffffffffffffffffff16815260200190815260200160002060008473ffffffffffffffffffffffffffffffffffffffff1673ffffffffffffffffffffffffffffffffffffffff16815260200190815260200160002060006101000a81548160ff0219169083151502179055506001600560008473ffffffffffffffffffffffffffffffffffffffff1673ffffffffffffffffffffffffffffffffffffffff16815260200190815260200160002060006101000a81548160ff021916908315150217905550505050565b60606000805b600360008673ffffffffffffffffffffffffffffffffffffffff1673ffffffffffffffffffffffffffffffffffffffff16815260200190815260200160002080549050811015610998578360ff16600360008773ffffffffffffffffffffffffffffffffffffffff1673ffffffffffffffffffffffffffffffffffffffff168152602001908152602001600020828154811061095257610951611a57565b5b9060005260206000200160000160009054906101000a900460ff1660ff16141561098557818061098190611ab5565b9250505b808061099090611ab5565b9150506108b3565b5060008167ffffffffffffffff8111156109b5576109b46118b0565b5b6040519080825280602002602001820160405280156109e35781602001602082028036833780820191505090505b50905060008214156109f9578092505050610bba565b600080600090505b600360008873ffffffffffffffffffffffffffffffffffffffff1673ffffffffffffffffffffffffffffffffffffffff16815260200190815260200160002080549050811015610bb2578560ff16600360008973ffffffffffffffffffffffffffffffffffffffff1673ffffffffffffffffffffffffffffffffffffffff1681526020019081526020016000208281548110610aa057610a9f611a57565b5b9060005260206000200160000160009054906101000a900460ff1660ff161415610b9f57600360008873ffffffffffffffffffffffffffffffffffffffff1673ffffffffffffffffffffffffffffffffffffffff1681526020019081526020016000208181548110610b1557610b14611a57565b5b9060005260206000200160000160019054906101000a900473ffffffffffffffffffffffffffffffffffffffff16838381518110610b5657610b55611a57565b5b602002602001019073ffffffffffffffffffffffffffffffffffffffff16908173ffffffffffffffffffffffffffffffffffffffff16815250508180610b9b90611ab5565b9250505b8080610baa90611ab5565b915050610a01565b508193505050505b92915050565b600080600360008573ffffffffffffffffffffffffffffffffffffffff1673ffffffffffffffffffffffffffffffffffffffff16815260200190815260200160002080549050831115610c195760008091509150610d09565b600360008573ffffffffffffffffffffffffffffffffffffffff1673ffffffffffffffffffffffffffffffffffffffff1681526020019081526020016000208381548110610c6a57610c69611a57565b5b9060005260206000200160000160019054906101000a900473ffffffffffffffffffffffffffffffffffffffff16600360008673ffffffffffffffffffffffffffffffffffffffff1673ffffffffffffffffffffffffffffffffffffffff1681526020019081526020016000208481548110610ce957610ce8611a57565b5b9060005260206000200160000160009054906101000a900460ff16915091505b9250929050565b6000600560008373ffffffffffffffffffffffffffffffffffffffff1673ffffffffffffffffffffffffffffffffffffffff16815260200190815260200160002060009054906101000a900460ff169050919050565b610d6e611158565b73ffffffffffffffffffffffffffffffffffffffff16610d8c610eb0565b73ffffffffffffffffffffffffffffffffffffffff1614610de2576040517f08c379a0000000000000000000000000000000000000000000000000000000008152600401610dd990611c33565b60405180910390fd5b60005b8151811015610e2457610e11828281518110610e0457610e03611a57565b5b6020026020010151610f6d565b8080610e1c90611ab5565b915050610de5565b5050565b610e30611158565b73ffffffffffffffffffffffffffffffffffffffff16610e4e610eb0565b73ffffffffffffffffffffffffffffffffffffffff1614610ea4576040517f08c379a0000000000000000000000000000000000000000000000000000000008152600401610e9b90611c33565b60405180910390fd5b610eae6000611160565b565b60008060009054906101000a900473ffffffffffffffffffffffffffffffffffffffff16905090565b610ee1611158565b73ffffffffffffffffffffffffffffffffffffffff16610eff610eb0565b73ffffffffffffffffffffffffffffffffffffffff1614610f55576040517f08c379a0000000000000000000000000000000000000000000000000000000008152600401610f4c90611c33565b60405180910390fd5b610f6981600161122490919063ffffffff16565b5050565b610f75611158565b73ffffffffffffffffffffffffffffffffffffffff16610f93610eb0565b73ffffffffffffffffffffffffffffffffffffffff1614610fe9576040517f08c379a0000000000000000000000000000000000000000000000000000000008152600401610fe090611c33565b60405180910390fd5b610ffd81600161125490919063ffffffff16565b5050565b611009611158565b73ffffffffffffffffffffffffffffffffffffffff16611027610eb0565b73ffffffffffffffffffffffffffffffffffffffff161461107d576040517f08c379a000000000000000000000000000000000000000000000000000000000815260040161107490611c33565b60405180910390fd5b600073ffffffffffffffffffffffffffffffffffffffff168173ffffffffffffffffffffffffffffffffffffffff1614156110ed576040517f08c379a00000000000000000000000000000000000000000000000000000000081526004016110e490611cc5565b60405180910390fd5b6110f681611160565b50565b600061110782600001611284565b9050919050565b600061111d8360000183611295565b60001c905092915050565b6000611150836000018373ffffffffffffffffffffffffffffffffffffffff1660001b6112c0565b905092915050565b600033905090565b60008060009054906101000a900473ffffffffffffffffffffffffffffffffffffffff169050816000806101000a81548173ffffffffffffffffffffffffffffffffffffffff021916908373ffffffffffffffffffffffffffffffffffffffff1602179055508173ffffffffffffffffffffffffffffffffffffffff168173ffffffffffffffffffffffffffffffffffffffff167f8be0079c531659141344cd1fd0a4f28419497f9722a3daafe3b4186f6b6457e060405160405180910390a35050565b600061124c836000018373ffffffffffffffffffffffffffffffffffffffff1660001b6112e3565b905092915050565b600061127c836000018373ffffffffffffffffffffffffffffffffffffffff1660001b6113f7565b905092915050565b600081600001805490509050919050565b60008260000182815481106112ad576112ac611a57565b5b9060005260206000200154905092915050565b600080836001016000848152602001908152602001600020541415905092915050565b600080836001016000848152602001908152602001600020549050600081146113eb5760006001826113159190611ce5565b905060006001866000018054905061132d9190611ce5565b905081811461139c57600086600001828154811061134e5761134d611a57565b5b906000526020600020015490508087600001848154811061137257611371611a57565b5b90600052602060002001819055508387600101600083815260200190815260200160002081905550505b856000018054806113b0576113af611d19565b5b6001900381819060005260206000200160009055905585600101600086815260200190815260200160002060009055600193505050506113f1565b60009150505b92915050565b600061140383836112c0565b61145c578260000182908060018154018082558091505060019003906000526020600020016000909190919091505582600001805490508360010160008481526020019081526020016000208190555060019050611461565b600090505b92915050565b6000604051905090565b600080fd5b600080fd5b600073ffffffffffffffffffffffffffffffffffffffff82169050919050565b60006114a68261147b565b9050919050565b6114b68161149b565b81146114c157600080fd5b50565b6000813590506114d3816114ad565b92915050565b6000602082840312156114ef576114ee611471565b5b60006114fd848285016114c4565b91505092915050565b600081519050919050565b600082825260208201905092915050565b6000819050602082019050919050565b61153b8161149b565b82525050565b600061154d8383611532565b60208301905092915050565b6000602082019050919050565b600061157182611506565b61157b8185611511565b935061158683611522565b8060005b838110156115b757815161159e8882611541565b97506115a983611559565b92505060018101905061158a565b5085935050505092915050565b600081519050919050565b600082825260208201905092915050565b6000819050602082019050919050565b600060ff82169050919050565b611606816115f0565b82525050565b600061161883836115fd565b60208301905092915050565b6000602082019050919050565b600061163c826115c4565b61164681856115cf565b9350611651836115e0565b8060005b83811015611682578151611669888261160c565b975061167483611624565b925050600181019050611655565b5085935050505092915050565b600060408201905081810360008301526116a98185611566565b905081810360208301526116bd8184611631565b90509392505050565b600060208201905081810360008301526116e08184611566565b905092915050565b6116f1816115f0565b81146116fc57600080fd5b50565b60008135905061170e816116e8565b92915050565b60008060006060848603121561172d5761172c611471565b5b600061173b868287016114c4565b935050602061174c868287016114c4565b925050604061175d868287016116ff565b9150509250925092565b6000806040838503121561177e5761177d611471565b5b600061178c858286016114c4565b925050602061179d858286016116ff565b9150509250929050565b6000819050919050565b6117ba816117a7565b81146117c557600080fd5b50565b6000813590506117d7816117b1565b92915050565b600080604083850312156117f4576117f3611471565b5b6000611802858286016114c4565b9250506020611813858286016117c8565b9150509250929050565b6118268161149b565b82525050565b611835816115f0565b82525050565b6000604082019050611850600083018561181d565b61185d602083018461182c565b9392505050565b60008115159050919050565b61187981611864565b82525050565b60006020820190506118946000830184611870565b92915050565b600080fd5b6000601f19601f8301169050919050565b7f4e487b7100000000000000000000000000000000000000000000000000000000600052604160045260246000fd5b6118e88261189f565b810181811067ffffffffffffffff82111715611907576119066118b0565b5b80604052505050565b600061191a611467565b905061192682826118df565b919050565b600067ffffffffffffffff821115611946576119456118b0565b5b602082029050602081019050919050565b600080fd5b600061196f61196a8461192b565b611910565b9050808382526020820190506020840283018581111561199257611991611957565b5b835b818110156119bb57806119a788826114c4565b845260208401935050602081019050611994565b5050509392505050565b600082601f8301126119da576119d961189a565b5b81356119ea84826020860161195c565b91505092915050565b600060208284031215611a0957611a08611471565b5b600082013567ffffffffffffffff811115611a2757611a26611476565b5b611a33848285016119c5565b91505092915050565b6000602082019050611a51600083018461181d565b92915050565b7f4e487b7100000000000000000000000000000000000000000000000000000000600052603260045260246000fd5b7f4e487b7100000000000000000000000000000000000000000000000000000000600052601160045260246000fd5b6000611ac0826117a7565b91507fffffffffffffffffffffffffffffffffffffffffffffffffffffffffffffffff821415611af357611af2611a86565b5b600182019050919050565b600082825260208201905092915050565b7f4e6f7420612077686974656c697374656420666163746f727900000000000000600082015250565b6000611b45601983611afe565b9150611b5082611b0f565b602082019050919050565b60006020820190508181036000830152611b7481611b38565b9050919050565b7f546f6b656e20616c726561647920657869737473000000000000000000000000600082015250565b6000611bb1601483611afe565b9150611bbc82611b7b565b602082019050919050565b60006020820190508181036000830152611be081611ba4565b9050919050565b7f4f776e61626c653a2063616c6c6572206973206e6f7420746865206f776e6572600082015250565b6000611c1d602083611afe565b9150611c2882611be7565b602082019050919050565b60006020820190508181036000830152611c4c81611c10565b9050919050565b7f4f776e61626c653a206e6577206f776e657220697320746865207a65726f206160008201527f6464726573730000000000000000000000000000000000000000000000000000602082015250565b6000611caf602683611afe565b9150611cba82611c53565b604082019050919050565b60006020820190508181036000830152611cde81611ca2565b9050919050565b6000611cf0826117a7565b9150611cfb836117a7565b925082821015611d0e57611d0d611a86565b5b828203905092915050565b7f4e487b7100000000000000000000000000000000000000000000000000000000600052603160045260246000fdfea2646970667358221220008c37bb22dc03443ecfcc19012e55b004e8a539b04b1f3d4edb6b9a54d3196264736f6c634300080a0033",
  "immutableReferences": {},
  "source": "// SPDX-License-Identifier: UNLICENSED\npragma solidity ^0.8.1;\n\nimport \"@openzeppelin/contracts/token/ERC20/IERC20.sol\";\nimport \"@openzeppelin/contracts/token/ERC20/utils/SafeERC20.sol\";\nimport \"@openzeppelin/contracts/access/Ownable.sol\";\nimport \"@openzeppelin/contracts/utils/math/Math.sol\";\nimport \"@openzeppelin/contracts/utils/structs/EnumerableSet.sol\";\nimport \"../../interfaces/IFactoryManager.sol\";\n\ncontract TokenFactoryManager is Ownable, IFactoryManager {\n  using EnumerableSet for EnumerableSet.AddressSet;\n\n  struct Token {\n    uint8 tokenType;\n    address tokenAddress;\n  }\n\n  EnumerableSet.AddressSet private tokenFactories;\n  mapping(address => Token[]) private tokensOf;\n  mapping(address => mapping(address => bool)) private hasToken;\n  mapping(address => bool) private isGenerated;\n\n  modifier onlyAllowedFactory() {\n    require(tokenFactories.contains(msg.sender), \"Not a whitelisted factory\");\n    _;\n  }\n\n  function addTokenFactory(address factory) public onlyOwner {\n    tokenFactories.add(factory);\n  }\n\n  function addTokenFactories(address[] memory factories) external onlyOwner {\n    for (uint256 i = 0; i < factories.length; i++) {\n      addTokenFactory(factories[i]);\n    }\n  }\n\n  function removeTokenFactory(address factory) external onlyOwner {\n    tokenFactories.remove(factory);\n  }\n\n  function assignTokensToOwner(address owner, address token, uint8 tokenType) \n    external override onlyAllowedFactory {\n    require(!hasToken[owner][token], \"Token already exists\");\n    tokensOf[owner].push(Token(tokenType, token));\n    hasToken[owner][token] = true;\n    isGenerated[token] = true;\n  }\n\n  function getAllowedFactories() public view returns (address[] memory) {\n    uint256 length = tokenFactories.length();\n    address[] memory factories = new address[](length);\n    for (uint256 i = 0; i < length; i++) {\n      factories[i] = tokenFactories.at(i);\n    }\n    return factories;\n  }\n\n  function isTokenGenerated(address token) external view returns (bool) {\n    return isGenerated[token];\n  }\n\n  function getToken(address owner, uint256 index) external view returns (address, uint8) {\n    if (index > tokensOf[owner].length) {\n      return (address(0), 0);\n    }\n    return (tokensOf[owner][index].tokenAddress, uint8(tokensOf[owner][index].tokenType));\n  }\n\n  function getAllTokens(address owner) external view returns (address[] memory, uint8[] memory) {\n      uint256 length = tokensOf[owner].length;\n      address[] memory tokenAddresses = new address[](length);\n      uint8[] memory tokenTypes = new uint8[](length);\n      for (uint256 i = 0; i < length; i++) {\n        tokenAddresses[i] = tokensOf[owner][i].tokenAddress;\n        tokenTypes[i] = uint8(tokensOf[owner][i].tokenType);\n      }\n      return (tokenAddresses, tokenTypes);\n   }\n\n   function getTokensForType(address owner, uint8 tokenType) external view returns (address[] memory) {\n      uint256 length = 0;\n      for (uint256 i = 0; i < tokensOf[owner].length; i++) {\n        if (tokensOf[owner][i].tokenType == tokenType) {\n          length++;\n        }\n      }\n      address[] memory tokenAddresses = new address[](length);\n      if (length == 0) {\n        return tokenAddresses;\n      }\n      uint256 currentIndex;\n      for (uint256 i = 0; i < tokensOf[owner].length; i++) {\n        if (tokensOf[owner][i].tokenType == tokenType) {\n          tokenAddresses[currentIndex] = tokensOf[owner][i].tokenAddress;\n          currentIndex++;\n        }\n      }\n      return tokenAddresses;\n   }\n}",
  "sourcePath": "/home/machado/Documents/projetos/pinksale-contracts/contracts/factories/token/TokenFactoryManager.sol",
  "compiler": {
    "name": "solc",
    "version": "0.8.10+commit.fc410830.Emscripten.clang"
  },
  "schemaVersion": "3.4.3",
  "updatedAt": "2022-04-11T19:43:21.167Z",
  "devdoc": {
    "kind": "dev",
    "methods": {
      "owner()": {
        "details": "Returns the address of the current owner."
      },
      "renounceOwnership()": {
        "details": "Leaves the contract without owner. It will not be possible to call `onlyOwner` functions anymore. Can only be called by the current owner. NOTE: Renouncing ownership will leave the contract without an owner, thereby removing any functionality that is only available to the owner."
      },
      "transferOwnership(address)": {
        "details": "Transfers ownership of the contract to a new account (`newOwner`). Can only be called by the current owner."
      }
    },
    "version": 1
  },
  "userdoc": {
    "kind": "user",
    "methods": {},
    "version": 1
  }
}