{
  "contractName": "TokenFactoryBase",
  "abi": [
    {
      "inputs": [
        {
          "internalType": "address",
          "name": "factoryManager_",
          "type": "address"
        },
        {
          "internalType": "address",
          "name": "implementation_",
          "type": "address"
        }
      ],
      "stateMutability": "nonpayable",
      "type": "constructor"
    },
    {
      "anonymous": false,
      "inputs": [
        {
          "indexed": true,
          "internalType": "address",
          "name": "previousOwner",
          "type": "address"
        },
        {
          "indexed": true,
          "internalType": "address",
          "name": "newOwner",
          "type": "address"
        }
      ],
      "name": "OwnershipTransferred",
      "type": "event"
    },
    {
      "anonymous": false,
      "inputs": [
        {
          "indexed": true,
          "internalType": "address",
          "name": "owner",
          "type": "address"
        },
        {
          "indexed": true,
          "internalType": "address",
          "name": "token",
          "type": "address"
        },
        {
          "indexed": false,
          "internalType": "uint8",
          "name": "tokenType",
          "type": "uint8"
        }
      ],
      "name": "TokenCreated",
      "type": "event"
    },
    {
      "inputs": [],
      "name": "factoryManager",
      "outputs": [
        {
          "internalType": "address",
          "name": "",
          "type": "address"
        }
      ],
      "stateMutability": "view",
      "type": "function"
    },
    {
      "inputs": [],
      "name": "feeTo",
      "outputs": [
        {
          "internalType": "address",
          "name": "",
          "type": "address"
        }
      ],
      "stateMutability": "view",
      "type": "function"
    },
    {
      "inputs": [],
      "name": "flatFee",
      "outputs": [
        {
          "internalType": "uint256",
          "name": "",
          "type": "uint256"
        }
      ],
      "stateMutability": "view",
      "type": "function"
    },
    {
      "inputs": [],
      "name": "implementation",
      "outputs": [
        {
          "internalType": "address",
          "name": "",
          "type": "address"
        }
      ],
      "stateMutability": "view",
      "type": "function"
    },
    {
      "inputs": [],
      "name": "owner",
      "outputs": [
        {
          "internalType": "address",
          "name": "",
          "type": "address"
        }
      ],
      "stateMutability": "view",
      "type": "function"
    },
    {
      "inputs": [],
      "name": "renounceOwnership",
      "outputs": [],
      "stateMutability": "nonpayable",
      "type": "function"
    },
    {
      "inputs": [
        {
          "internalType": "address",
          "name": "newOwner",
          "type": "address"
        }
      ],
      "name": "transferOwnership",
      "outputs": [],
      "stateMutability": "nonpayable",
      "type": "function"
    },
    {
      "inputs": [
        {
          "internalType": "address",
          "name": "implementation_",
          "type": "address"
        }
      ],
      "name": "setImplementation",
      "outputs": [],
      "stateMutability": "nonpayable",
      "type": "function"
    },
    {
      "inputs": [
        {
          "internalType": "address",
          "name": "feeReceivingAddress",
          "type": "address"
        }
      ],
      "name": "setFeeTo",
      "outputs": [],
      "stateMutability": "nonpayable",
      "type": "function"
    },
    {
      "inputs": [
        {
          "internalType": "uint256",
          "name": "fee",
          "type": "uint256"
        }
      ],
      "name": "setFlatFee",
      "outputs": [],
      "stateMutability": "nonpayable",
      "type": "function"
    }
  ],
  "bytecode": "0x608060405234801561001057600080fd5b50604051610baf380380610baf8339818101604052810190610032919061020e565b61004e61004361012d60201b60201c565b61013560201b60201c565b6001808190555081600260006101000a81548173ffffffffffffffffffffffffffffffffffffffff021916908373ffffffffffffffffffffffffffffffffffffffff16021790555080600360006101000a81548173ffffffffffffffffffffffffffffffffffffffff021916908373ffffffffffffffffffffffffffffffffffffffff16021790555033600460006101000a81548173ffffffffffffffffffffffffffffffffffffffff021916908373ffffffffffffffffffffffffffffffffffffffff160217905550662386f26fc100006005819055505050610293565b600033905090565b60008060009054906101000a900473ffffffffffffffffffffffffffffffffffffffff169050816000806101000a81548173ffffffffffffffffffffffffffffffffffffffff021916908373ffffffffffffffffffffffffffffffffffffffff1602179055508173ffffffffffffffffffffffffffffffffffffffff168173ffffffffffffffffffffffffffffffffffffffff167f8be0079c531659141344cd1fd0a4f28419497f9722a3daafe3b4186f6b6457e060405160405180910390a35050565b6000815190506102088161027c565b92915050565b6000806040838503121561022157600080fd5b600061022f858286016101f9565b9250506020610240858286016101f9565b9150509250929050565b60006102558261025c565b9050919050565b600073ffffffffffffffffffffffffffffffffffffffff82169050919050565b6102858161024a565b811461029057600080fd5b50565b61090d806102a26000396000f3fe608060405234801561001057600080fd5b506004361061009e5760003560e01c80638da5cb5b116100665780638da5cb5b14610123578063d784d42614610141578063d9eb59471461015d578063f2fde38b1461017b578063f46901ed146101975761009e565b8063017e7e58146100a3578063032b5a73146100c157806323fa495a146100df5780635c60da1b146100fb578063715018a614610119575b600080fd5b6100ab6101b3565b6040516100b891906107e6565b60405180910390f35b6100c96101d9565b6040516100d691906107e6565b60405180910390f35b6100f960048036038101906100f491906106f9565b6101ff565b005b610103610285565b60405161011091906107e6565b60405180910390f35b6101216102ab565b005b61012b610333565b60405161013891906107e6565b60405180910390f35b61015b600480360381019061015691906106d0565b61035c565b005b61016561041c565b6040516101729190610841565b60405180910390f35b610195600480360381019061019091906106d0565b610422565b005b6101b160048036038101906101ac91906106d0565b61051a565b005b600460009054906101000a900473ffffffffffffffffffffffffffffffffffffffff1681565b600260009054906101000a900473ffffffffffffffffffffffffffffffffffffffff1681565b6102076105da565b73ffffffffffffffffffffffffffffffffffffffff16610225610333565b73ffffffffffffffffffffffffffffffffffffffff161461027b576040517f08c379a000000000000000000000000000000000000000000000000000000000815260040161027290610821565b60405180910390fd5b8060058190555050565b600360009054906101000a900473ffffffffffffffffffffffffffffffffffffffff1681565b6102b36105da565b73ffffffffffffffffffffffffffffffffffffffff166102d1610333565b73ffffffffffffffffffffffffffffffffffffffff1614610327576040517f08c379a000000000000000000000000000000000000000000000000000000000815260040161031e90610821565b60405180910390fd5b61033160006105e2565b565b60008060009054906101000a900473ffffffffffffffffffffffffffffffffffffffff16905090565b6103646105da565b73ffffffffffffffffffffffffffffffffffffffff16610382610333565b73ffffffffffffffffffffffffffffffffffffffff16146103d8576040517f08c379a00000000000000000000000000000000000000000000000000000000081526004016103cf90610821565b60405180910390fd5b80600360006101000a81548173ffffffffffffffffffffffffffffffffffffffff021916908373ffffffffffffffffffffffffffffffffffffffff16021790555050565b60055481565b61042a6105da565b73ffffffffffffffffffffffffffffffffffffffff16610448610333565b73ffffffffffffffffffffffffffffffffffffffff161461049e576040517f08c379a000000000000000000000000000000000000000000000000000000000815260040161049590610821565b60405180910390fd5b600073ffffffffffffffffffffffffffffffffffffffff168173ffffffffffffffffffffffffffffffffffffffff16141561050e576040517f08c379a000000000000000000000000000000000000000000000000000000000815260040161050590610801565b60405180910390fd5b610517816105e2565b50565b6105226105da565b73ffffffffffffffffffffffffffffffffffffffff16610540610333565b73ffffffffffffffffffffffffffffffffffffffff1614610596576040517f08c379a000000000000000000000000000000000000000000000000000000000815260040161058d90610821565b60405180910390fd5b80600460006101000a81548173ffffffffffffffffffffffffffffffffffffffff021916908373ffffffffffffffffffffffffffffffffffffffff16021790555050565b600033905090565b60008060009054906101000a900473ffffffffffffffffffffffffffffffffffffffff169050816000806101000a81548173ffffffffffffffffffffffffffffffffffffffff021916908373ffffffffffffffffffffffffffffffffffffffff1602179055508173ffffffffffffffffffffffffffffffffffffffff168173ffffffffffffffffffffffffffffffffffffffff167f8be0079c531659141344cd1fd0a4f28419497f9722a3daafe3b4186f6b6457e060405160405180910390a35050565b6000813590506106b5816108a9565b92915050565b6000813590506106ca816108c0565b92915050565b6000602082840312156106e257600080fd5b60006106f0848285016106a6565b91505092915050565b60006020828403121561070b57600080fd5b6000610719848285016106bb565b91505092915050565b61072b8161086d565b82525050565b600061073e60268361085c565b91507f4f776e61626c653a206e6577206f776e657220697320746865207a65726f206160008301527f64647265737300000000000000000000000000000000000000000000000000006020830152604082019050919050565b60006107a460208361085c565b91507f4f776e61626c653a2063616c6c6572206973206e6f7420746865206f776e65726000830152602082019050919050565b6107e08161089f565b82525050565b60006020820190506107fb6000830184610722565b92915050565b6000602082019050818103600083015261081a81610731565b9050919050565b6000602082019050818103600083015261083a81610797565b9050919050565b600060208201905061085660008301846107d7565b92915050565b600082825260208201905092915050565b60006108788261087f565b9050919050565b600073ffffffffffffffffffffffffffffffffffffffff82169050919050565b6000819050919050565b6108b28161086d565b81146108bd57600080fd5b50565b6108c98161089f565b81146108d457600080fd5b5056fea26469706673582212207aaed8f5a98d913bf01db73850d1cd0dc1753a9de4656066779187a7f789c66b64736f6c63430008000033",
  "immutableReferences": {},
  "source": "// SPDX-License-Identifier: UNLICENSED\npragma solidity 0.8.0;\n\nimport \"@openzeppelin/contracts/token/ERC20/IERC20.sol\";\nimport \"@openzeppelin/contracts/token/ERC20/utils/SafeERC20.sol\";\nimport \"@openzeppelin/contracts/access/Ownable.sol\";\nimport \"@openzeppelin/contracts/utils/math/SafeMath.sol\";\nimport \"@openzeppelin/contracts/utils/Address.sol\";\nimport \"@openzeppelin/contracts/security/ReentrancyGuard.sol\";\nimport \"../../interfaces/IFactoryManager.sol\";\n\n\ncontract TokenFactoryBase is Ownable, ReentrancyGuard {\n  using SafeMath for uint256;\n  using Address for address payable;\n\n  address public factoryManager;\n  address public implementation;\n  address public feeTo;\n  uint256 public flatFee;\n\n  event TokenCreated(\n      address indexed owner,\n      address indexed token,\n      uint8 tokenType\n  );\n\n  modifier enoughFee() {\n    require(msg.value >= flatFee, \"Flat fee\");\n    _;\n  }\n\n  constructor(address factoryManager_, address implementation_) {\n    factoryManager = factoryManager_;\n    implementation = implementation_;\n    feeTo = msg.sender;\n    flatFee = 10_000_000 gwei;\n  }\n\n  function setImplementation(address implementation_) external onlyOwner {\n    implementation = implementation_;\n  }\n\n  function setFeeTo(address feeReceivingAddress) external onlyOwner {\n    feeTo = feeReceivingAddress;\n  }\n\n  function setFlatFee(uint256 fee) external onlyOwner {\n    flatFee = fee;\n  }\n\n  function assignTokenToOwner(address owner, address token, uint8 tokenType) internal {\n    IFactoryManager(factoryManager).assignTokensToOwner(owner, token, tokenType);\n  }\n\n  function refundExcessiveFee() internal {\n    uint256 refund = msg.value.sub(flatFee);\n    if (refund > 0) {\n      payable(msg.sender).sendValue(refund);\n    }\n  }\n}\n",
  "sourcePath": "/home/machado/Documents/projetos/pinksale-contracts/contracts/factories/token/TokenFactoryBase.sol",
  "compiler": {
    "name": "solc",
    "version": "0.8.0+commit.c7dfd78e.Emscripten.clang"
  },
  "schemaVersion": "3.4.1",
  "updatedAt": "2021-11-28T01:05:57.978Z",
  "devdoc": {
    "kind": "dev",
    "methods": {
      "owner()": {
        "details": "Returns the address of the current owner."
      },
      "renounceOwnership()": {
        "details": "Leaves the contract without owner. It will not be possible to call `onlyOwner` functions anymore. Can only be called by the current owner. NOTE: Renouncing ownership will leave the contract without an owner, thereby removing any functionality that is only available to the owner."
      },
      "transferOwnership(address)": {
        "details": "Transfers ownership of the contract to a new account (`newOwner`). Can only be called by the current owner."
      }
    },
    "version": 1
  },
  "userdoc": {
    "kind": "user",
    "methods": {},
    "version": 1
  }
}